:100000000C941D4A0C944E4A0C944E4A0C944E4A41
:100010000C944E4A0C944E4A0C944E4A0C944E4A00
:100020000C944E4A0C944E4A0C944E4A0C944E4AF0
:100030000C944E4A0C944E4A0C94CBDD0C942CD369
:100040000C944E4A0C94A7E70C944E4A0C944E4ADA
:100050000C944E4A0C944E4A0C944E4A0C9448C64A
:100060000C944E4A0C94EECB0C944E4A0C944E4A8F
:100070000C944E4A0C944E4A0C944E4A0C944E4AA0
:100080000C944E4A0C944E4A0C944E4A0C944E4A90
:100090000C94AACB0C944E4A0C944E4A0C944E4AA3
:1000A0000C944E4A0C944E4A0C944E4A0C944E4A70
:1000B0000C944E4A0C944E4A0C944E4A0C944E4A60
:1000C0000C944E4A0C944E4A0C944E4A0C9414CF05
:1000D0000C944E4A0C944E4A0C944E4A0C944E4A40
:1000E0000C944E4A64C66EC67CC689C69BC6A2C620
:1000F000DEC6C0C6D6C664C866C864C866C864C85A
:1001000066C868C86AC8CBE5DEE5F0E5FFE50BE642
:1001100046E6B5E569E67DE679E6B5E57FE68BE698
:1001200091E6A9E6C401C4018201C401820168020A
:10013000D801020208024C027E0190016C02F20119
:10014000DE015A0126027402C8015C01A001DC0133
:10015000540250020002AC0112028401A801EE0117
:100160004A01F00122021402D401FE01DA01040264
:10017000D60144020C029A01980152026E01DA0182
:100180001C02B0015801AE01E4015602EA012E0240
:10019000BA0194011A0276016A024E025601A201C6
:1001A000E201BA014A0236028E01F601EC01D001E9
:1001B0007A016402CC010E023E023C02FC01740191
:1001C0005001084AD73B3BCE016E84BCBFFDC12F16
:1001D0003D6C74319ABD56833DDA3D00C77F11BE38
:1001E000D9E4BB4C3E916BAAAABE000000803F053B
:1001F000A84CCDB2D44EB93836A9020C50B991866C
:1002000088083CA6AAAA2ABE000000803F076342D5
:1002100036B79BD8A71A39685618AEBAAB558C1D9D
:100220003CB7CC5763BD6DEDFD753EF6177231BF1F
:10023000000000803F08000000BE922449123EAB3F
:10024000AAAA2ABECDCCCC4C3E00000080BEABAAF0
:10025000AAAA3E00000000BF000000803F0000008E
:100260000000084178D3BB4387D1133D190E3CC32E
:10027000BD4282AD2B3E68EC8276BED98FE1A93EAD
:100280004C80EFFFBE01C4FF7F3F00000000000074
:100290000D9499820D941E250D94044C0D94C23436
:1002A0000D940C5D0D94D7070D94B5530D94314406
:1002B0000D946C420D9497110D946B240D948A3219
:1002C0000D942A570D9464330D9418430D941457CC
:1002D0000D94CA550D94CE000D9478420D945E4253
:1002E0000D9468810D9425810D943E5D0D94134409
:1002F0000D946F330D94B45D0D94BF060D943E0FB5
:100300000D94AB000D9455000D94E3240D946405F9
:100310000D94FF420D94D3800D94B6070D9468445C
:100320000D940E0F0D94C7000D9403440D941D43BE
:100330000D9456420D9450420D949A560D941343C9
:100340000D947B240D9440440D94A9560D94423392
:100350000D94F3240D9486040D94C3240D94DB4373
:100360000D9468420D94FA420D94C4810D940E438D
:100370000D9482040D9472440D94B2000D94EA051C
:100380000D9449480D942D820D9452000D94A400B3
:100390000D943E120D949B000D949E5D0D94D532EC
:1003A0000D94BF5D0D94ED000D942D420D944242CD
:1003B0000D945B000D9471420D9481240D941311E2
:1003C0000D9404430D944A440D94E0430D94C0975A
:1003D0000D9432560D94EF430D94EF5D0D940E2560
:1003E0000D9437420D94F40F0D94B9000D946E5A8C
:1003F0000D941D210D946B370D946C5D0D9433425B
:100400000D94BD240D94BA0F0D943E420D944F33BC
:100410000D94C30F0D94FA070D944C420D94935D07
:100420000D94DC000D94D3240D9429420D94D63400
:100430000D94B8820D940B440D9464420D94814246
:100440000D9402200D943A420D947C420D94EB11D0
:100450000D94F7000D948E050D946E540D94F94390
:100460000D94BC7A0D94F41F0D94E3000D945E443A
:100470000D94D5000D9409430D94045E0D94145E03
:100480000D9466530D945C320D9448420D94F10521
:100490000D9478070D9454440D946F0F0D942744D8
:1004A0000D94B7240D945A420D9497240D94E5436E
:1004B0000D94A8950D9472420D9405030D94655406
:1004C0000D94E3050D948A040D94A95D0D94F654E2
:1004D0000D9458000D941D440D9495120D9412081E
:1004E0000D94C0000D94CF040D9407125F53454343
:1004F0005F4C414E4700000000000000000000007B
:10050000A55AB44BC4297A01A0D16C6E7A01146546
:100510000403500357035E037003A403DA03E503E7
:10052000F50307041E04260436045A046C047E04F2
:1005300090049D04B10404054E0557055A056B054A
:10054000750582059505E805EC05F80519062A06E6
:10055000390646065106BD06C906330744074F074C
:1005600059076707780781079E07B0070D081F081E
:10057000310845086B086C0874087B08870818095F
:10058000760983099209A409B909C209CC09FA09B3
:10059000380A3E0A4C0A5A0A630A6E0A800A920A0C
:1005A000A40AB50AC00AC90ADB0AED0AFF0A110B40
:1005B000230B2F0B580B6A0B790B8C0B970BBA0B79
:1005C000CD0BDE0B420C870C8F0C900C9F0CAE0CED
:1005D000BE0CCF0CFF0C0F0D180D720DC10DC20D0E
:1005E000D20DE30DEE0D000E140E260E390E4B0E3D
:1005F0005D0E6F0E7E0E8D0E8E0EC60EE10EED0E92
:10060000FE0E130F320F460FB00FBE0FD10FD70FD4
:10061000E60FF90F0A101910251034104510541068
:100620006A107410A310B510D210F310FE10071149
:100630001C1129113E115011621186119611A81139
:10064000BA11CC11DB11DC11EB11F71103120F12EF
:100650001E122C1230123412431267127412A4129A
:10066000C812CD1222134C135513641378138D1333
:100670009C13AB1340146814AB14BB142F155D15F9
:1006800074159F15C315031625164716851695165E
:10069000BF16D316E11602171817561766177717E5
:1006A00089179C17A717B417C117D0170C18731800
:1006B0007D18C6181D1939193A193B193C193D19ED
:1006C0003E193F1940194119421943194419451956
:1006D00046194719481949194A194B195A196F19D6
:1006E000BA19BB19CD19CE19DE19EE19FD190F1A59
:1006F000211A891A9B1AAD1AB41ACE1AD81AE51AF9
:10070000F71A091B1A1B2C1B811BD71BE81BF51B97
:10071000031C101C6C1C7E1C901C9C1CAE1CC11C61
:10072000D31CE01CF21C2E1D401D521D5B1D621DC2
:10073000B31DC01DCE1DD81DD91DE31DF21D071E02
:10074000191E541E661E751E931EED1EF91E061FF1
:100750008C1F9B1FAC1FBB1FC71FD51FEA1FFF1F8E
:10076000122025202C203F204820512068208C205A
:10077000AA203C218521AE21D321F52106220D227C
:100780001E22542257229322DB221F232C236B2369
:10079000B123FA23042437247924BE24D024D1247D
:1007A000DE24E524EB24EC24FD24FE241025222560
:1007B00023253325342547255A256D256E256F259C
:1007C0008125A625B825CA25E225F4250626182662
:1007D0002A263C264E26602672268426B726162711
:1007E0004E27B227EA274A284B285E287228BC28C1
:1007F0003C2944294E295A29602972297E298B29AE
:100800009E29B1295B252E37735D5A20696E73745A
:10081000656C6C2E0A77616172646520696E67652C
:100820007374656C642C0A766572646572206F66F9
:100830002062696A20300A626567696E656E3F0AE8
:10084000256356657264657225635265736574002D
:100850002076616E2034002076616E2039005B3096
:100860003B305D2070756E74206F66667365740032
:1008700043726173686465746563746965206B6154
:100880006E0A616C6C65656E20696E206E6F726DAC
:1008900061616C0A6765627275696B7420776F724B
:1008A00064656E005741524E494E473A0A437261A1
:1008B000736864657465637469650A7569746765EE
:1008C000736368616B656C6420696E0A537465615B
:1008D0006C7468207374616E64003E416E6E756C5A
:1008E0006572656E005A20697320696E676573745E
:1008F000656C643A00416C6C656D61616C20676F7A
:10090000656420202020004B6C6161722E204861BC
:10091000707079207072696E74696E672100454944
:100920004E5359202000656E206472756B206F70E5
:10093000206B6E6F70005A696A6E2062656964652B
:10094000205A20776167656E206865656C656D610A
:10095000616C20626F76656E3F0053706F6F6C4AFA
:100960006F696E2020205B61616E5D0053706F6F58
:100970006C4A6F696E2020205B4E2F565D005370CD
:100980006F6F6C4A6F696E2020205B7569745D0023
:100990005374617274706F73697469650041757422
:1009A0006F2D4C6164656E2046696C616D656E7477
:1009B000004175746F6C6F6164696E672066696C65
:1009C000616D656E7420616C6C65656E2062657327
:1009D0006368696B626161722077616E6E656572D2
:1009E0002066696C616D656E7473656E736F7220DD
:1009F000697320696E6765736368616B656C6420F9
:100A00002E2E2E004175746F6D61746973636820BA
:100A10006C6164656E2076616E20666C616D656EDA
:100A200074206973206163746965662C2064727533
:100A30006B206465206B6E6F7020656E206C616149
:100A4000642066696C616D656E742E2E2E00417394
:100A50006C656E67746500417300426564202F20E9
:100A60005665727761726D696E6700426564206BCE
:100A70006C61617200426564206F707761726D65B0
:100A80006E00426564206E697665617520636F72E1
:100A90007265637400426564206C6576656C696E8E
:100AA00067206D69736C756B742E2053656E736F60
:100AB00072206865656674206E696574206765617B
:100AC00063746976656572642E205075696E206F57
:100AD0007020747569743F205761636874206F706B
:100AE0002072657365742E00426564005269656DFD
:100AF00020737461747573005374726F6F6D7374C7
:100B00006F72696E672E205072696E74206865720C
:100B10007374656C6C656E3F004B616C69627265E5
:100B200072656E207374617274004B616C696272DD
:100B3000617469652058595A004B616C6962726131
:100B4000746965205A004B616C6962726572656EEA
:100B5000004B616C6962726572656E2076616E2011
:100B600058595A2E204472616169206465206B6E69
:100B70006F70206F6D206465205A2D776167656EF8
:100B8000206F6D686F6F67207465206761616E20EC
:100B9000746F74206865742065696E646520737471
:100BA0006F70706572732E204472756B206B6E6F60
:100BB0007020616C73206B6C6161722E004B616CF4
:100BC000696272657265205A004B616C6962726578
:100BD00072656E2076616E205A2E204472616169C2
:100BE000206465206B6E6F70206F6D206465205AE5
:100BF0002D776167656E206F6D686F6F6720746514
:100C0000206761616E20746F742068657420656967
:100C10006E64652073746F70706572732E204472F9
:100C2000756B206B6E6F7020616C73206B6C6161F3
:100C3000722E004B616C69627261746965206B6C25
:100C4000616172004B616C69627261746965004137
:100C50006E6E756C6572656E0053442076657277B2
:100C6000696A64657264004B6C657572206E6965B3
:100C700074206A756973740041666B6F656C656E8C
:100C800000476573656C656374656572646520749F
:100C900061616C206B6F70696572656E3F004372B5
:100CA0006173686465742E2020205B61616E5D0055
:100CB0004B6965732065656E2066696C616D656E54
:100CC0007420766F6F72206465206B616C6962724C
:100CD000617469652076616E206465206565727354
:100CE0007465206C61616720656E2073656C656357
:100CF000746565722064657A6520696E2068657424
:100D00002073636865726D6D656E752E0043726148
:100D100073686465742E2020205B4E2F565D00435F
:100D2000726173686465742E2020205B7569745D40
:100D300000437261736820676564657465637465F8
:100D40006572642E00437261736820676564657420
:100D5000656374656572642E205072696E742076C6
:100D60006F6F727A657474656E3F000041637475CD
:100D700065656C00446174756D3A004D6F746F72F7
:100D8000656E207569740041667374616E642074C9
:100D9000757373656E207469702076616E2064656A
:100DA000207475697420656E20686574207072699E
:100DB0006E74206F70706572766C616B2069732041
:100DC0006E6F67206E6965742076617374676573F2
:100DD00074656C642E20566F6C67206465206861B2
:100DE0006E646C656964696E672C20466972737401
:100DF0002073746570732C20736563746965204675
:100E000069727374206C617965722063616C6962C8
:100E1000726174696F6E2E0057696C74207520645E
:100E200065206C61617473746520737461702068EF
:100E3000657268616C656E206F6D20646520616607
:100E40007374616E642074757373656E20646520BD
:100E50007475697420656E20646520626564206F16
:100E6000706E6965757720696E207465207374658E
:100E70006C6C656E3F00452D636F727265637469BB
:100E8000653A0046696C2E207569747765727065E5
:100E90006E00576572702066696C616D656E7420B6
:100EA00075697400456E6473746F70206E69657443
:100EB0002067657261616B740045696E6473746F5D
:100EC000700045696E6473746F707300466F75745B
:100ED000202D20686574207374617469736368657C
:100EE00020676568657567656E206973206F766534
:100EF00072736368726576656E00464F55543A208A
:100F000046696C616D656E7473656E736F72207285
:100F100065616765657274206E6965742C20636F06
:100F20006E74726F6C65657220646520766572629E
:100F3000696E64696E672E00464F55543A004578D5
:100F40007472756465722066616E3A0045787472D9
:100F50007564657220496E666F00457874727564B9
:100F60006572004D4D552D466F7574656E00462EA9
:100F70006175746F6C6164656E205B61616E5D00AC
:100F8000462E6175746F6C6164656E205B4E2F56E2
:100F90005D00462E6175746F6C6164656E205B75D3
:100FA00069745D00466F75747374617469737469F4
:100FB000656B656E0046616E20736E656C682E0011
:100FC00046616E20746573740046616E73206368B9
:100FD00065636B20205B61616E5D0046616E73200E
:100FE000636865636B20205B7569745D0046696C9E
:100FF0002E2073656E736F72205B61616E5D0046BB
:10100000696C2E2073656E736F72205B4E2F565D78
:101010000046696C2E2073656E736F72205B756974
:10102000745D0046696C2E20666F7574656E0046AF
:10103000696C616D656E7420657874727564656540
:101040007274206D6574206465206A7569737465B7
:10105000206B6C6575723F0046696C2E206E696569
:10106000742067656C6164656E0046696C616D65CE
:101070006E7473656E736F72004765627275696B2B
:1010800074652066696C616D656E74005072696E7E
:10109000742074696A640042657374616E64206FC1
:1010A0006E766F6C6C656469672E20546F63682080
:1010B000646F6F726761616E3F00566F6F72746725
:1010C000616E672061667765726B656E004565725B
:1010D000737465206C616167206B616C2E005465D0
:1010E0006E20656572737465207A756C6C656E2010
:1010F0007765206465207A656C6674657374207505
:101100006974766F6572656E206F6D206465206D01
:101110006565737420766F6F726B6F6D656E646555
:10112000206D6F6E7461676570726F626C656D655E
:101130006E20746520636F6E74726F6C6572656E7D
:101140002E004C6F73206865742070726F626C653E
:10115000656D206F7020656E206472756B207665FA
:1011600072766F6C67656E73206F70206465206B9C
:101170006E6F70206F70206465204D4D552D656534
:101180006E686569642E005374726F6D656E000041
:10119000566F6F727A696A64652066616E3F0056A9
:1011A0006F6F726B616E7420205B756D5D004661C0
:1011B0006E7320766F6F722F6C696E6B730056655D
:1011C000727761726D65722F546865726D2E00566C
:1011D00065727761726D696E672075697467657392
:1011E0006368616B656C6420646F6F7220766569FB
:1011F0006C6967686569647374696D65722E004F08
:10120000707761726D656E206B6C6161722E004F3C
:10121000707761726D656E0048616C6C6F2C20692F
:101220006B2062656E207577204F726967696E6109
:101230006C205072757361206933207072696E740E
:1012400065722E205A756C6C656E2077652062651C
:1012500067696E6E656E206D6574206865742069BF
:101260006E7374616C6C6174696570726F636573C1
:101270003F0048616C6C6F2C20696B2062656E20AA
:101280007577205A617269626F207072696E746539
:10129000722E205A756C6C656E20776520626567CA
:1012A000696E6E656E206D65742068657420696E68
:1012B0007374616C6C6174696570726F6365733FA0
:1012C000000057697373656C2066696C616D656EAB
:1012D000740057697373656C206765736C6161672F
:1012E00064210057697373656C206F6B3F00436F17
:1012F0006E74726F6C6565722062656420202000D8
:10130000436F6E74726F6C65657220656E64737482
:101310006F707300436F6E74726F6C6565722068D6
:101320006F74656E6400436F6E74726F6C65657286
:101330002073656E736F727300436F6E74726F6C9F
:101340006565722058206173202000436F6E7472AF
:101350006F6C6565722059206173202000436F6EA9
:1013600074726F6C656572205A2061732020004B87
:101370006965732065787472756465723A004B69AB
:1013800065732066696C616D656E743A0000426534
:1013900067696E206E75206D65742078797A2D6B83
:1013A000616C696272617469652E2048657420649D
:1013B00075757274206F6E6765766565722031325F
:1013C000206D696E2E00426567696E206E75206D16
:1013D0006574207A2D6B616C696272617469652E27
:1013E00000496E666F2073636865726D00566F65A5
:1013F000722066696C616D656E7420696E00497358
:101400002066696C616D656E742067656C616465EA
:101410006E3F004C69677420646520737461616C71
:10142000706C616174206F702068657420626564FF
:101430003F004C616174737465207072696E7466EC
:101440006F7574656E00416C7320752065787472D9
:101450006120737461616C706C6174656E20686585
:1014600062742C206B616C696272656572742075A0
:101470002068756E20766F6F72696E7374656C6C20
:10148000696E67656E20696E20496E7374656C6C59
:10149000696E67656E202D204857205365747570FE
:1014A000202D20537461616C706C6174656E2E0028
:1014B0004C616174737465207072696E74004C695C
:1014C0006E6B657220686F74656E642066616E3F36
:1014D000004C696E6B73004C696E6B65726B616E6C
:1014E000745B756D5D004C696E6561697265206342
:1014F0006F72726563746965004C697665205A2065
:1015000061616E70617373656E0046696C616D65D3
:101510006E74206C6164656E004C6164656E206B56
:101520006C657572004C6164656E2066696C616DF6
:10153000656E74004C6F737365207269656D7363BB
:1015400068696A6600546F742074756974206C61F0
:1015500064656E004D3131372065657273746520A6
:101560006C616167206B616C2E00486F6F66646D03
:10157000656E75005265666572656E746965206892
:101580006F6F6774652076616E20686574206B618B
:101590006C6962726174696570756E74206D6574D2
:1015A000656E004D65736820626564204C657665E4
:1015B0006C696E67004D4D55204F4B2E20506F7358
:1015C000697469652068657276617474656E2E2E23
:1015D0002E004D4D55204F4B2E2054656D70657279
:1015E00061747575722068657276617474656E2EAB
:1015F0002E2E0053636865656668656964004D4D0D
:101600005520666F7574004D4D55206C6164656E94
:10161000206D69736C756B74202020004D4D552032
:101620006C616164666F7574004D4D55204F4B2E93
:101630002048657276617474656E2E2E2E00537488
:10164000616E642020205B4E6F726D61616C5D0085
:101650005374616E642020202020205B7374696CB9
:101660005D004D4D55206865656674206765627242
:1016700075696B65727361616E6461636874206E15
:101680006F6469672E004D4D55207374726F6F6DD6
:1016900073746F722E005374616E642020205B534C
:1016A0007465616C74685D004D6F64655B61757431
:1016B0006F6D6174697363685D005374616E64205B
:1016C00020202020205B686F6F675D004D4D5532F4
:1016D00020766572626F6E64656E000041732076DD
:1016E0006572706C61617473656E00566572706CC2
:1016F00061617473205800566572706C6161747317
:10170000205900566572706C61617473205A0047ED
:1017100065656E206265776567696E672E0047654F
:10172000656E205344206B61617274004E2F560029
:101730004E6565004E69657420766572626F6E64F1
:10174000656E004E6965757765206669726D7761B3
:101750007265207665727369652062657363686976
:101760006B626161723A0042657765656774206EED
:1017700069657400426567696E206D6574206B61F0
:101780006C696272617469652074757373656E202B
:101790006465207475697420656E206865742062C4
:1017A00065642E004F707761726D656E2076616E94
:1017B000206465207475697420766F6F7220504CB8
:1017C0004120766F6F722E0054756974004F7564F6
:1017D0006520696E7374656C6C696E67656E2067F1
:1017E00065766F6E64656E2E205374616E64616100
:1017F0007264205049442C20452D73746570732009
:101800006574632E20696E7374656C6C696E6765B0
:101810006E20776F7264656E2067656C6164656EBB
:101820002E0056657277696A646572206E75206451
:101830006520746573747072696E742076616E20B1
:10184000737461616C706C6161742E00547569749D
:101850002066616E005072696E74207061757A65E1
:1018600072656E00504944206B616C2E2020202050
:101870002020202020202000504944206B616C69EA
:10188000627261746965206B6C61617200504944D9
:10189000206B616C696272617469650050494E44E5
:1018A00041206F707761726D656E004C65672065D1
:1018B000656E2076656C20706170696572206F6E50
:1018C00064657220646520747569742074696A6443
:1018D000656E73206465206B616C69627261746906
:1018E000652076616E20646520656572737465207D
:1018F000342070756E74656E2E20416C73206465A3
:1019000020747569742068657420706170696572EF
:1019100020626577656567742C2064652070726944
:101920006E746572206F6E6D696464656C6C696A53
:101930006B20756974736368616B656C656E2E00EE
:101940004D61616B20686574206265642073636813
:101950006F6F6E20656E206472756B206F702064EF
:1019600065206B6E6F702E005265696E696720642A
:1019700065207475697420766F6F72206465206BC2
:10198000616C696272617469652E204472756B20A6
:101990006F70206465206B6E6F702077616E6E656E
:1019A0006572206765726565642E00436F6E7472A0
:1019B0006F6C656572206175623A00436F6E747278
:1019C0006F6C65657220617562206F6E732068614F
:1019D0006E64626F656B20656E206C6F7320686546
:1019E000742070726F626C65656D206F702E204878
:1019F000657276617420766572766F6C67656E735A
:101A00002064652077697A61726420646F6F722048
:101A10006465207072696E746572206F706E69659E
:101A20007577207465207374617274656E2E004F33
:101A300070656E20726F6E6473656C20656E2076C3
:101A4000657277696A6465722066696C616D656E3E
:101A5000742068616E646D617469672E004C6567FF
:101A600020737461616C706C616174206F702062AE
:101A700065642E004472756B206F70206465206B66
:101A80006E6F70206F6D2066696C616D656E74207D
:101A900074652076657277696A646572656E005454
:101AA00072656B206F6E6D696464656C6C696A6BDE
:101AB0002064652066696C616D656E742065727561
:101AC0006974005472656B206F6E6D696464656C37
:101AD0006C696A6B2066696C616D656E74206572F5
:101AE00075697420656E206472756B2076657276F8
:101AF0006F6C67656E73206F70206465206B6E6F0E
:101B0000702E0056657277696A646572207374611D
:101B1000616C706C6161742076616E206865742000
:101B20006265642E00566F6572206565727374205D
:101B300064652058595A2D6B616C696272617469D1
:101B400065207569742E0047656C6965766520644B
:101B500065206669726D77617265207465207665AF
:101B6000726E69657577656E20696E207577204D98
:101B70004D55322E205761636874206F7020726556
:101B80007365742E004576656E20676564756C64B8
:101B9000206175620056657277696A6465722065B6
:101BA00065727374206465207472616E73706F72F5
:101BB0007420626573636865726D6572732E00547C
:101BC00075697420766F6F727665727761726D6574
:101BD0006E2100566F6F727665727761726D656EF9
:101BE000004F707761726D656E2076616E2064655E
:101BF00020747569742E2057616368742061756262
:101C00002E00566F65722065656E20757067726173
:101C10006465207569742E004472756B206F7020A6
:101C20006465206B6E6F70206F6D20646520747525
:101C3000697420766F6F72207465207665727761A3
:101C4000726D656E20656E20646F6F722074652002
:101C50006761616E2E005374726F6F6D73746F7273
:101C6000696E67656E005072696E742061666765A3
:101C700062726F6B656E004F707761726D656E207A
:101C8000696E766F6572656E004F707761726D6513
:101C90006E2075697477657270656E005072696E3A
:101CA000742066616E3A005072696E742076616EBF
:101CB000205344004472756B206F70206B6E6F7000
:101CC000005072696E74207061757A6572656E007D
:101CD0004472756B206F70206465206B6E6F70208E
:101CE0006F6D2064652074656D70657261747575C3
:101CF000722076616E206465207475697420746545
:101D00002068657276617474656E2E005072696E1B
:101D1000746572206973206E6F67206E6965742028
:101D200067656B616C696272656572642E20566FBF
:101D30006C672064652068616E646C656964696EB7
:101D4000672C20686F6F66647374756B20466972C8
:101D500073742073746570732C2073656374696584
:101D60002043616C6962726174696F6E20666C6F8A
:101D7000772E005072696E742066616E0053746530
:101D8000656B20612E752E622E2066696C616D6513
:101D90006E7420696E206465206578747275646560
:101DA0007220656E206472756B206F7020646520F0
:101DB0006B6E6F70206F6D20686574207465206C89
:101DC0006164656E2E00537465656B20612E752EFF
:101DD000622E2066696C616D656E7420696E206488
:101DE000652065657273746520627569732076611C
:101DF0006E206465204D4D5520656E206472756BB4
:101E0000206F70206465206B6E6F70206F6D20688E
:101E10006574207465206C6164656E2E004C616190
:101E20006420612E752E622E2065657273742066A3
:101E3000696C616D656E742E00000000000000008A
:101E400000000000000000000000004163687465AD
:101E5000726B616E745B756D5D005072696E74209B
:101E60006865727374656C6C656E20202020005666
:101E7000657277696A646572206465206F75646550
:101E80002066696C616D656E7420656E2064727584
:101E90006B206F70206465206B6E6F70206F6D20FB
:101EA0006E69657577652066696C616D656E742015
:101EB0007465206C6164656E2E00005265736574F4
:101EC0002058595A206B616C6962722E0000507262
:101ED000696E742068657276617474656E00486519
:101EE0007276617474656E207072696E74005265EA
:101EF0006368742E6B616E745B756D5D0052506922
:101F000020706F7274202020205B61616E5D005232
:101F1000506920706F7274202020205B7569745D99
:101F2000005374617274656E2076616E2064652062
:101F300057697A6172642076657277696A6465723E
:101F4000742064652068756964696765206B616CDD
:101F50006962726572696E6773726573756C7461BC
:101F600074656E20656E20626567696E74207661A7
:101F70006E61662068657420626567696E2E204414
:101F80006F6F726761616E3F0053442063617264DA
:101F9000205B6E6F726D61616C5D005344204B611C
:101FA0007274655B666C73684169725D005265634B
:101FB000687473005A6F656B656E20626564206B90
:101FC000616C6962726174696570756E74004B69E9
:101FD0006573207461616C005A656C667465737416
:101FE00020204F4B005A656C6674657374207374BF
:101FF000617274202020005A656C667465737420C9
:102000002020202020202020005A656C66746573F3
:102010007420666F7574202021005A656C667465A3
:102020007374206D69736C756B7420005A656C66EF
:1020300074657374207A616C20776F7264656E20AA
:102040007569746765766F657264206F6D206E6167
:1020500075776B6575726967652073656E736F72EE
:102060006C6F7A65206175746F20706F7369746925
:1020700065207465206B616C6962726572656E2E95
:102080000053656C65637465657220646520766FC6
:102090006F727665727761726D696E677374656D64
:1020A00070657261747575722076616E206465204A
:1020B0007475697420646965206F76657265656EF4
:1020C0006B6F6D74206D6574207577206D6174651C
:1020D000726961616C2E0054656D702E20696E739B
:1020E00074656C6C656E3A00496E7374656C6C69EE
:1020F0006E67656E00546F6F6E20656E6473746FEB
:1021000070730053656E736F7273746174757300CE
:10211000536F6D6D6967652062657374616E646588
:102120006E20776F7264656E206E696574206765D6
:10213000736F727465657264206F6D64617420687A
:102140006574206D6178696D756D2061616E746173
:102150006C2062657374616E64656E2070657220B8
:102160006D6170203130302069732E00536F7274AE
:102170006572696E6720205B6765656E5D00536FF1
:1021800072746572696E6720205B74696A645D00B1
:10219000457267207363686565663A00536F7274B1
:1021A000202020205B616C66616265745D00426581
:1021B0007374616E64656E20736F72746572656EA0
:1021C0000047656C75696420202020205B6861727F
:1021D000645D0049657473207363686565663A00E1
:1021E00047656C7569642020202020205B75697428
:1021F0005D0045722069732065656E2070726F62A4
:102200006C65656D206F70676574726564656E2CB2
:10221000205A2D6B616C6962726174696520616618
:10222000676564776F6E67656E202E2E2E0047659A
:102230006C75696420205B65656E6D61616C5D0025
:1022400047656C75696420202020205B7374696C7D
:102250005D00536E656C6865696400447261616914
:1022600074005374616269656C65206F6D67657693
:10227000696E677374656D706572617475757220CF
:1022800076616E2032312D323643206973206E6FB5
:102290006469672C2065656E20737465766967656F
:1022A000207374616E64206973207665726569734A
:1022B000742E005374617469737469656B656E0084
:1022C0005072696E742073746F7070656E0047454C
:1022D00053544F50542E200000476577697373653F
:1022E0006C64004B6965732066696C616D656E7422
:1022F0003A0054656D706B616C69627261746965F6
:102300002020202020200054656D706B616C2E20F1
:102310002020205B61616E5D0053656C65637465B0
:1023200065722064652074656D7065726174757581
:102330007220646965206F76657265656E6B6F6D7E
:1023400074206D6574207577206D617465726961A4
:10235000616C2E0054656D706B616C2E2020202006
:102360005B7569745D0054656D706B616C69627258
:10237000617469650054656D70657261747575721C
:102380006B616C69627261746965206D69736C75EB
:102390006B740054656D70657261747575726B61F4
:1023A0006C69627261746965206B616E20776F720F
:1023B00064656E207569746765736368616B656CCD
:1023C0006420696E20686574206D656E7520496EA5
:1023D0007374656C6C696E67656E2D3E2054656D17
:1023E000706B616C696272617469652E0054656D11
:1023F00070657261747575720054656D7065726197
:10240000747572656E004572206973206E6F672067
:102410007374656564732065656E206E6F6F647A92
:1024200061616B206F6D206465205A2D6B616C6952
:102430006272617469652075697420746520766FB5
:102440006572656E2E20566F6C672064652068612A
:102450006E646C656964696E672C20686F6F666472
:102460007374756B2046697273742073746570732E
:102470002C2073656374696F6E2043616C696272AE
:102480006174696F6E20666C6F772E00546F746193
:10249000616C2066696C2E20202000546F7461618D
:1024A0006C207072696E7474696A640046696A6E41
:1024B00061667374656D6D696E67005665727769E4
:1024C0006A646572656E00546F7461616C20666F3A
:1024D0007574656E006F6D2066696C616D656E74F4
:1024E000207465206C6164656E006F6D2066696C98
:1024F000616D656E74207465206C6164656E004664
:10250000696C616D656E742075697477657270654C
:102510006E0055697477657270656E2066696C61CE
:102520006D656E7400546F7461616C004765627212
:1025300075696B742062696A207072696E740053E9
:1025400070616E6E696E67006F6E62656B656E645A
:10255000005761636874206F7020676562727569E7
:102560006B6572202E2E2E005761636874656E2095
:102570006F702061666B6F656C656E2076616E2092
:102580007475697420656E206265640057616368C4
:1025900074656E206F702061666B6F656C656E2070
:1025A00076616E2050494E444100476562727569FC
:1025B0006B206F6E746C6164656E206F6D20666950
:1025C0006C616D656E74203120746520766572775C
:1025D000696A646572656E20616C73206865742039
:1025E000756974737465656B742062756974656E62
:1025F00020646520616368746572737465204D4D55
:10260000552D627569732E204765627275696B205E
:1026100075697477657270656E20616C732064658E
:102620007A6520696E20646520747562652069731F
:1026300020766572626F7267656E2E0057616172F7
:102640007363687577696E673A207A6F77656C2077
:10265000686574207072696E746572747970652033
:10266000616C7320686574206D6F65646572626F5C
:1026700072647479706520697320676577696A7A16
:102680006967642E00576161727363687577696E5C
:10269000673A2074797065206D6F65646572626F4A
:1026A000726420676577696A7A6967642E0057618A
:1026B00061727363687577696E673A207072696ECC
:1026C0007465727479706520676577696A7A69677D
:1026D000642E0049732066696C616D656E742073A9
:1026E0007563636573766F6C2076657277696A646B
:1026F0006572643F0041616E736C756974696E67E1
:1027000073666F75740057697A61726400585A591C
:10271000206B616C2E2064657461696C730058597C
:102720005A2D6B616C69627261746965206D6973A1
:102730006C756B742E2052616164706C65656720E6
:1027400064652068616E646C656964696E672061A8
:1027500075622E004A610055206B756E74206465A9
:102760002077697A61726420616C74696A64206898
:10277000657276617474656E20766961204B616C58
:1027800069627261746965202D3E2057697A6172B1
:10279000642E0058595A2D6B616C696272617469BC
:1027A0006520696E206F7264652E205363686565CD
:1027B0006668656964207A616C206175746F6D610B
:1027C000746973636820776F7264656E20676563F0
:1027D0006F72726967656572642E0058595A2D6B65
:1027E000616C6962726174696520696E206F7264E0
:1027F000652E2058202F20592D617373656E207A25
:10280000696A6E206C6963687420736368656566C5
:102810002E20476F65642067656461616E210058F2
:102820002D636F727265637469653A0058595A2D49
:102830006B616C69627261746965206F6B2E2058E0
:10284000202F20592D617373656E20737461616E42
:10285000206C6F6F6472656368742E2047656665CF
:102860006C6963697465657264210058595A2D6BEF
:10287000616C69627261746965206E696574206754
:10288000656C756B742E20566F6F72737465206B58
:10289000616C6962726174696570756E74656E20D1
:1028A0006E6965742062657265696B626161722E22
:1028B0000058595A2D6B616C6962726174696520A8
:1028C0006E6965742067656C756B742E2052656344
:1028D0006874657220766F6F72206B616C696272CA
:1028E0006174696570756E74206E696574206265C7
:1028F0007265696B626161722E004C616164206176
:102900006C6C650058595A2D6B616C696272617408
:102910006965206D69736C756B742E204265642047
:10292000696A6B70756E74206E6965742067657670
:102930006F6E64656E2E0058595A2D6B616C69621A
:102940007261746965206D69736C756B742E2056A5
:102950006F6F72737465206B616C69627261746908
:102960006570756E74656E206E696574206265723F
:1029700065696B626161722E0058595A2D6B616CEA
:1029800069627261746965206D69736C756B742E10
:10299000205265636874657220766F6F72206B6178
:1029A0006C6962726174696570756E74206E6965B8
:1029B000742062657265696B626161722E005920D4
:1029C00061667374616E642076616E206D696E005D
:1029D00000592D636F727265637469653A00205BFC
:1029E0007569745D007465727567000056616C737B
:1029F000652074726967676572696E670000466971
:102A0000726D776172652020205B6765656E5D0081
:102A10004669726D77617265205B737472696B745D
:102A20005D0000485720436F6E6669677572617478
:102A3000696500004D61676E65742E20636F6D706F
:102A40002E5B4E2F565D004D61676E65742E2063C0
:102A50006F6D702E5B5569745D004D61676E6574B6
:102A60002E20636F6D702E5B41616E5D0000004D26
:102A700065736820626564206C6576656C696E6755
:102A8000004D4B33532D6669726D77617265206F0F
:102A900070204D4B332D7072696E746572206F6EAD
:102AA0007464656B74004D4D55204D6F642E5B4E04
:102AB0006F726D61616C5D004D4D55204D6F642EE0
:102AC0005B537465616C74685D004D6F64757377FA
:102AD000696A7A6967696E672062657A69672E2E0E
:102AE0002E004D6F64656C2020202020205B6765E0
:102AF000656E5D004D6F64656C202020205B7374F3
:102B000072696B745D004D6F64656C202020205BE2
:102B1000616C61726D2E5D005475697420642E20A5
:102B20002020205B302E32355D005475697420649E
:102B30002E202020205B302E34305D0054756974C7
:102B400020642E202020205B302E36305D0054750E
:102B50006974202020202020205B6765656E5D0061
:102B60005475697420202020205B737472696B7423
:102B70005D005475697420202020205B616C6172B7
:102B80006D2E5D00472D436F646520697320766F5D
:102B90006F722065656E20616E646572206E697665
:102BA000656175206765736C6963742E20446F6F6F
:102BB000726761616E3F00472D436F6465206973E2
:102BC00020766F6F722065656E20616E646572207D
:102BD0006E6976656175206765736C6963742E2014
:102BE000536C69636520686574206D6F64656C2043
:102BF0006F706E69657720616C736A65626C696578
:102C000066742E204472756B206765616E6E756CFC
:102C1000656572642E00472D436F646520697320DB
:102C2000766F6F722065656E20616E6465722070CC
:102C300072696E74657274797065206765736C690A
:102C400063742E20446F6F726761616E3F00472D81
:102C5000436F646520697320766F6F722065656EBF
:102C600020616E646572207072696E746572747929
:102C70007065206765736C6963742E20536C69639B
:102C80006520686574206D6F64656C206F706E6977
:102C9000657720616C736A65626C696566742E2065
:102CA0004472756B206765616E6E756C65657264E4
:102CB0002E00472D436F646520697320766F6F7215
:102CC0002065656E206E6965757765726520666939
:102CD000726D77617265206765736C6963742E200D
:102CE000446F6F726761616E3F00472D436F64658B
:102CF00020697320766F6F722065656E206E69653E
:102D00007577657265206669726D77617265206797
:102D100065736C6963742E205570646174652064FA
:102D200065206669726D7761726520616C736A6592
:102D3000626C696566742E204472756B20676561EC
:102D40006E6E756C656572642E00004F70776172EF
:102D50006D2E20746520736E696A64656E004F7015
:102D60007761726D2E746520756974776572706510
:102D70006E004465206469616D65746572207661DA
:102D80006E20646520747569742076616E206465B8
:102D9000207072696E7465722076657273636869FB
:102DA0006C742076616E20646520472D636F6465C6
:102DB0002E20446F6F726761616E3F00446520642E
:102DC00069616D657465722076616E20646520743A
:102DD0007569742076616E206465207072696E7406
:102DE000657220766572736368696C742076616EB3
:102DF00020646520472D636F64652E20436F6E74D9
:102E0000726F6C65657220646520776161726465BC
:102E100020696E20646520696E7374656C6C696EE0
:102E200067656E2E2041666472756B6B656E2067F8
:102E300065616E6E756C656572642E004865726EB4
:102E40006F656D0053656C656374656572005365ED
:102E50006E736F7220696E666F00506C61617400F2
:102E600047656C7569642020205B617373697374B6
:102E70005D00537461616C706C6174656E005A2DF5
:102E8000636F727265637469653A005A2D70726F70
:102E90006265206E722E202020205B315D005A2D4D
:102EA00070726F6265206E722E202020205B335D71
:102EB000005A2D70726F6265206E722E20202020C5
:102EC0005B355D006465206C27696D7072696D61AA
:102ED0006E74652E20566575696C6C657A20646524
:102EE000636F75706572206C65206D6F64656C65CD
:102EF0002061206E6F75766561752E204C27696D97
:102F00007072657373696F6E2061206574652061EE
:102F10006E6E756C65652E004C6520472D636F6481
:102F2000652061206574652070726570617265202E
:102F3000706F757220756E652076657273696F6E3D
:102F400020706C757320726563656E74652064759E
:102F5000206669726D776172652E20436F6E7469A9
:102F60006E7565723F004C6520472D636F64652068
:102F70006120657465207072657061726520706F84
:102F8000757220756E652076657273696F6E20703C
:102F90006C757320726563656E7465206475206658
:102FA00069726D776172652E20566575696C6C6506
:102FB0007A206D65747472652061206A6F75722065
:102FC0006C65206669726D776172652E204C276989
:102FD0006D7072657373696F6E20616E6E756C656E
:102FE000652E0050494E44413A004368617566665B
:102FF0006520706F757220636F757065720043682D
:103000006175662E20706F75722072656D6F6E74BB
:103010006572004469616D65747265206465206C39
:103020006120627573652064616E73206C65732026
:103030007265676C61676573206E6520636F72727D
:103040006573706F6E642070617320612063656CBE
:1030500075692064616E73206C6520472D436F6431
:10306000652E20436F6E74696E7565723F0044690A
:10307000616D65747265206465206C612062757392
:10308000652064616E73206C6573207265676C6186
:10309000676573206E6520636F72726573706F6E03
:1030A000642070617320612063656C7569206461C0
:1030B0006E73206C6520472D436F64652E204D652F
:1030C000726369206465207665726966696572203D
:1030D0006C6520706172616D657472652064616EEB
:1030E00073206C6573207265676C616765732E2051
:1030F000496D7072657373696F6E20616E6E756C69
:1031000065652E0052656E6F6D6D65720053656C5E
:10311000656374696F6E6E657200496E666F2063D9
:1031200061707465757200506C6171756500536FE4
:103130006E2020202020205B6173736973745D0012
:10314000506C617175657320656E2061636965728D
:1031500000436F72726563742D5A3A004D65737542
:1031600072657220782D666F6973205B315D004D4A
:1031700065737572657220782D666F6973205B3395
:103180005D004D65737572657220782D666F697389
:10319000205B355D002020205B335D005A2D50728E
:1031A0006F6265204E722E202020205B355D00006E
:1031B000000000000000000000000000000000000F
:1031C00000000000000000000000000000000000FF
:1031D00000000000000000000000000000000000EF
:1031E00000000000000000000000000000000000DF
:1034E0000000000000000000000000006501472D02
:1034F000636F646520736C6963656420666F722016
:103500006120646966666572656E74206C657665B7
:103510006C2E20436F6E74696E75653F00660147BF
:103520002D636F646520736C6963656420666F72D8
:10353000206120646966666572656E74206C6576CC
:10354000656C2E20506C656173652072652D736CFF
:1035500069636520746865206D6F64656C206167C0
:1035600061696E2E205072696E742063616E6365AE
:103570006C6C65642E006A01472D636F646520736F
:103580006C6963656420666F722061206E65776583
:1035900072206669726D776172652E20506C65616C
:1035A0007365207570646174652074686520666950
:1035B000726D776172652E205072696E742063613E
:1035C0006E63656C6C65642E006901472D636F64E2
:1035D0006520736C6963656420666F722061206E7C
:1035E00065776572206669726D776172652E20431A
:1035F0006F6E74696E75653F006801472D636F6477
:103600006520736C6963656420666F722061206455
:103610006966666572656E74207072696E74657233
:1036200020747970652E20506C6561736520726519
:103630002D736C69636520746865206D6F64656CBB
:1036400020616761696E2E205072696E742063611B
:103650006E63656C6C65642E006701472D636F6453
:103660006520736C6963656420666F7220612064F5
:103670006966666572656E74207072696E746572D3
:1036800020747970652E20436F6E74696E75653F86
:10369000006701472D636F646520736C696365641F
:1036A00020666F72206120646966666572656E745B
:1036B000207072696E74657220747970652E204373
:1036C0006F6E74696E75653F006801472D636F64A6
:1036D0006520736C6963656420666F722061206485
:1036E0006966666572656E74207072696E74657263
:1036F00020747970652E20506C6561736520726549
:103700002D736C69636520746865206D6F64656CEA
:1037100020616761696E2E205072696E742063614A
:103720006E63656C6C65642E00C4005072657373C3
:10373000206B6E6F6220746F2070726568656174B3
:10374000206E6F7A7A6C6520616E6420636F6E7490
:10375000696E75652E00B800506C656173652070E8
:103760007265737320746865206B6E6F6220746F6E
:1037700020756E6C6F61642066696C616D656E7436
:1037800000E70052656D6F7665206F6C6420666996
:103790006C616D656E7420616E6420707265737308
:1037A00020746865206B6E6F6220746F2073746183
:1037B0007274206C6F6164696E67206E6577206635
:1037C000696C616D656E742E000B00616E64207013
:1037D0007265737320746865206B6E6F620077008A
:1037E000496E736572742066696C616D656E7400F4
:1037F0002900436F6C6F72206E6F7420636F72725A
:1038000065637400520046696C616D656E74206E6C
:103810006F74206C6F616465640069004368616E59
:1038200067656420636F72726563746C793F0083AF
:10383000004C6F6164696E6720636F6C6F72006823
:10384000004368616E6765207375636365737321F8
:1038500000B600506C65617365206F70656E2069FD
:10386000646C657220616E642072656D6F76652090
:1038700066696C616D656E74206D616E75616C6CEE
:10388000792E0034015761732066696C616D656E35
:103890007420756E6C6F61642073756363657373F8
:1038A00066756C3F00C300506C6561736520757070
:1038B00067726164652E00A4004E657720666972A8
:1038C0006D776172652076657273696F6E206176BF
:1038D00061696C61626C653A002F015761697469B6
:1038E0006E6720666F722050494E44412070726F9F
:1038F000626520636F6F6C696E6700710043686F6B
:103900006F73652065787472756465723A00430060
:10391000457874727564657200720043686F6F73E6
:10392000652066696C616D656E743A009F004E6F2C
:10393000206D6F76652E002D015761697420666FCA
:103940007220757365722E2E2E000A01536F6D65FD
:103950002070726F626C656D20656E636F756E743A
:10396000657265642C205A2D6C6576656C696E678E
:1039700020656E666F72636564202E2E2E000F0127
:10398000537461626C6520616D6269656E74207448
:10399000656D70657261747572652032312D3236D5
:1039A00043206973206E65656465642061207269D7
:1039B000676964207374616E642069732072657135
:1039C00075697265642E00BC00506C65617365207A
:1039D00072756E2058595A2063616C696272617405
:1039E000696F6E2066697273742E001F01546865DA
:1039F0007265206973207374696C6C2061206E6538
:103A0000656420746F206D616B65205A2063616C62
:103A10006962726174696F6E2E20506C65617365A6
:103A200020666F6C6C6F7720746865206D616E75B1
:103A3000616C2C20636861707465722046697273D2
:103A4000742073746570732C2073656374696F6E72
:103A50002043616C6962726174696F6E20666C6F7D
:103A6000772E00CE005072696E74657220686173A3
:103A7000206E6F74206265656E2063616C6962728E
:103A800061746564207965742E20506C656173657E
:103A900020666F6C6C6F7720746865206D616E7541
:103AA000616C2C2063686170746572204669727362
:103AB000742073746570732C2073656374696F6E02
:103AC0002043616C6962726174696F6E20666C6F0D
:103AD000772E00A9004F6C642073657474696E675B
:103AE0007320666F756E642E2044656661756C7414
:103AF000205049442C2045737465707320657463AD
:103B00002E2077696C6C206265207365742E0031FD
:103B1000015761726E696E673A20626F7468207037
:103B200072696E746572207479706520616E6420AC
:103B30006D6F74686572626F61726420747970650C
:103B4000206368616E6765642E0033015761726E91
:103B5000696E673A207072696E746572207479704C
:103B600065206368616E6765642E0032015761727B
:103B70006E696E673A206D6F74686572626F61720C
:103B8000642074797065206368616E6765642E00D7
:103B90003B0158595A2063616C6962726174696FA4
:103BA0006E20616C6C2072696768742E20536B659F
:103BB000772077696C6C20626520636F7272656331
:103BC000746564206175746F6D61746963616C6C98
:103BD000792E003C0158595A2063616C6962726108
:103BE00074696F6E20616C6C2072696768742E2036
:103BF000582F5920617865732061726520736C6954
:103C00006768746C7920736B657765642E20476FE5
:103C10006F64206A6F6221003E0158595A20636127
:103C20006C6962726174696F6E206F6B2E20582F01
:103C300059206178657320617265207065727065C6
:103C40006E646963756C61722E20436F6E6772617A
:103C500074756C6174696F6E732100400158595A14
:103C60002063616C6962726174696F6E20636F6D4D
:103C700070726F6D697365642E2052696768742075
:103C800066726F6E742063616C6962726174696FD1
:103C90006E20706F696E74206E6F74207265616340
:103CA0006861626C652E003F0158595A2063616C4F
:103CB0006962726174696F6E20636F6D70726F6D8F
:103CC000697365642E2046726F6E742063616C693F
:103CD00062726174696F6E20706F696E7473206EAA
:103CE0006F7420726561636861626C652E004401C7
:103CF00058595A2063616C6962726174696F6E20F1
:103D00006661696C65642E2052696768742066720A
:103D10006F6E742063616C6962726174696F6E208A
:103D2000706F696E74206E6F742072656163686174
:103D3000626C652E00430158595A2063616C6962B8
:103D4000726174696F6E206661696C65642E2046CD
:103D5000726F6E742063616C6962726174696F6EF8
:103D600020706F696E7473206E6F7420726561636A
:103D70006861626C652E00380158595A2063616C85
:103D80006962726174696F6E206661696C65642E28
:103D900020506C6561736520636F6E73756C742061
:103DA000746865206D616E75616C2E004201585912
:103DB0005A2063616C6962726174696F6E2066611A
:103DC000696C65642E204265642063616C6962726F
:103DD0006174696F6E20706F696E742077617320F3
:103DE0006E6F7420666F756E642E00B700506C6540
:103DF00061736520706C61636520737465656C2008
:103E00007368656574206F6E2068656174626564AF
:103E10002E00360044697374616E636520626574B8
:103E20007765656E20746970206F66207468652000
:103E30006E6F7A7A6C6520616E64207468652062AA
:103E40006564207375726661636520686173206EB6
:103E50006F74206265656E20736574207965742EB9
:103E600020506C6561736520666F6C6C6F77207491
:103E70006865206D616E75616C2C2063686170747B
:103E800065722046697273742073746570732C2098
:103E900073656374696F6E204669727374206C6118
:103EA0007965722063616C6962726174696F6E2EEC
:103EB00000B100506C6163652061207368656574B2
:103EC000206F6620706170657220756E6465722067
:103ED000746865206E6F7A7A6C6520647572696E9D
:103EE00067207468652063616C6962726174696FD0
:103EF0006E206F66206669727374203420706F695B
:103F00006E74732E20496620746865206E6F7A7A0D
:103F10006C652063617463686573207468652070E4
:103F2000617065722C20706F776572206F666620F5
:103F3000746865207072696E74657220696D6D6554
:103F400064696174656C792E00BB00506C656173A7
:103F5000652072656D6F766520737465656C20737E
:103F6000686565742066726F6D206865617462654E
:103F7000642E007900497320737465656C20736842
:103F8000656574206F6E20686561746265643F00CA
:103F90000100206F66203400F4005365617263688D
:103FA000696E67206265642063616C696272617426
:103FB000696F6E20706F696E74000200206F66205A
:103FC000390089004D6561737572696E672072658D
:103FD000666572656E636520686569676874206FE1
:103FE000662063616C6962726174696F6E20706FC4
:103FF000696E7400B300506C6561736520636C6515
:10400000616E20746865206E6F7A7A6C6520666FC9
:10401000722063616C6962726174696F6E2E2043F5
:104020006C69636B207768656E20646F6E652E0027
:1040300010004175746F20686F6D6500BA00506C98
:10404000656173652072656D6F76652066696C6168
:104050006D656E7420616E64207468656E20707288
:1040600065737320746865206B6E6F622E003A0072
:10407000456A656374696E672066696C616D656E1B
:1040800074008F004D4D55206C6F6164206661692E
:104090006C6564202020202000120153544F5050A2
:1040A00045442E2000B00050494E444120486561EF
:1040B00074696E6700160154656D702E2063616C23
:1040C0002E202020202020202020200025004361B9
:1040D0006C6962726174696F6E20646F6E65002333
:1040E0000043616C6962726174696E67205A0017DF
:1040F0000042656420646F6E6500180042656420AC
:1041000048656174696E6700620048656174696E34
:104110006720646F6E652E00630048656174696E88
:10412000670000005B252E37735D4C697665206162
:10413000646A2E205A0A76616C7565207365742C4A
:1041400020636F6E74696E75650A6F722073746197
:1041500072742066726F6D207A65726F3F0A2563F4
:10416000436F6E74696E756525635265736574007F
:10417000E300506C65617365206C6F616420666953
:104180006C616D656E742066697273742E007800C0
:1041900049732066696C616D656E74206C6F616433
:1041A00065643F00150153656C6563742066696C36
:1041B000616D656E743A00730046696C616D656E81
:1041C0007400270043616E63656C00F00052756EE9
:1041D0006E696E672057697A6172642077696C6CCA
:1041E0002064656C6574652063757272656E7420F9
:1041F00063616C6962726174696F6E207265737558
:104200006C747320616E64207374617274206672C2
:104210006F6D2074686520626567696E6E696E6790
:104220002E20436F6E74696E75653F00C200507238
:104230006568656174696E67206E6F7A7A6C652E49
:1042400020506C6561736520776169742E0084006D
:104250004C6F6164696E672066696C616D656E7430
:1042600000E100506C6561736520696E736572745E
:104270002066696C616D656E7420696E746F207460
:1042800068652065787472756465722C2074686541
:104290006E20707265737320746865206B6E6F6238
:1042A00020746F206C6F61642069742E00E20050EE
:1042B0006C6561736520696E736572742066696CE4
:1042C000616D656E7420696E746F20746865206618
:1042D000697273742074756265206F6620746865F6
:1042E000204D4D552C207468656E20707265737377
:1042F00020746865206B6E6F6220746F206C6F6134
:10430000642069742E004601546865207072696EDD
:104310007465722077696C6C20737461727420709C
:1043200072696E74696E672061207A69672D7A619F
:1043300067206C696E652E20526F746174652074FD
:104340006865206B6E6F6220756E74696C20796F82
:104350007520726561636820746865206F70746988
:104360006D616C206865696768742E2043686563B9
:104370006B20746865207069637475726573206959
:104380006E207468652068616E64626F6F6B2028B0
:1043900043616C6962726174696F6E2063686170F9
:1043A000746572292E00180153656C65637420745E
:1043B000656D706572617475726520776869636890
:1043C000206D61746368657320796F7572206D610B
:1043D00074657269616C2E002D0043686F6F7365A0
:1043E00020612066696C616D656E7420666F722055
:1043F000746865204669727374204C617965722017
:1044000043616C6962726174696F6E20616E6420D1
:1044100073656C65637420697420696E20746865C7
:10442000206F6E2D73637265656E206D656E752EDF
:1044300000A6004E6F7720492077696C6C2063617D
:104440006C6962726174652064697374616E63651E
:10445000206265747765656E20746970206F6620D0
:10446000746865206E6F7A7A6C6520616E6420686E
:1044700065617462656420737572666163652E00A0
:104480003A01596F752063616E20616C77617973B1
:1044900020726573756D65207468652057697A614F
:1044A00072642066726F6D2043616C696272617420
:1044B000696F6E202D3E2057697A6172642E00B5B7
:1044C00000506C6561736520636865636B206F7570
:1044D000722068616E64626F6F6B20616E6420662B
:1044E0006978207468652070726F626C656D2E202B
:1044F0005468656E20726573756D652074686520FB
:1045000057697A617264206279207265626F6F7494
:10451000696E6720746865207072696E7465722EAA
:10452000000900416C6C20697320646F6E652E2059
:104530004861707079207072696E74696E672100CD
:104540007B00496620796F7520686176652061641B
:10455000646974696F6E616C20737465656C207337
:1045600068656574732C2063616C6962726174653F
:104570002074686569722070726573657473206950
:104580006E2053657474696E6773202D2048572020
:104590005365747570202D20537465656C207368A5
:1045A000656574732E00B200506C6561736520639D
:1045B0006C65616E206865617462656420616E641B
:1045C000207468656E20707265737320746865204E
:1045D0006B6E6F622E003700446F20796F75207705
:1045E000616E7420746F20726570656174206C61F7
:1045F0007374207374657020746F20726561646ACF
:104600007573742064697374616E63652062657488
:104610007765656E206E6F7A7A6C6520616E6420B6
:10462000686561746265643F00FC0053656C656396
:1046300074206E6F7A7A6C6520707265686561743B
:104640002074656D70657261747572652077686934
:104650006368206D61746368657320796F7572207B
:104660006D6174657269616C2E0078004973206613
:10467000696C616D656E74206C6F616465643F0088
:10468000780049732066696C616D656E74206C6F8B
:10469000616465643F00A7004E6F77204920776909
:1046A0006C6C2070726568656174206E6F7A7A6CCC
:1046B0006520666F7220504C412E007500492077AE
:1046C000696C6C2072756E207A2063616C6962720D
:1046D0006174696F6E206E6F772E00AA004E6F773F
:1046E0002072656D6F7665207468652074657374DB
:1046F000207072696E742066726F6D2073746565C8
:104700006C2073686565742E00BF00506C65617322
:10471000652072656D6F7665207368697070696E6B
:10472000672068656C706572732066697273742E99
:10473000007400492077696C6C2072756E2078795E
:104740007A2063616C6962726174696F6E206E6F4A
:10475000772E2049742077696C6C2074616B65201A
:10476000617070726F782E203132206D696E732EF9
:1047700000590046697273742C20492077696C6C6B
:104780002072756E207468652073656C667465733D
:104790007420746F20636865636B206D6F73742081
:1047A000636F6D6D6F6E20617373656D626C7920E0
:1047B00070726F626C656D732E00650048692C2005
:1047C0004920616D20796F7572205A617269626F3C
:1047D000207072696E7465722E20576F756C64203C
:1047E000796F75206C696B65206D6520746F20672B
:1047F0007569646520796F75207468726F75676874
:10480000207468652073657475702070726F6365BD
:1048100073733F000E0053706F6F6C4A6F696E20A8
:1048200020205B4E2F415D000F0053706F6F6C4A6C
:104830006F696E2020205B6F66665D000D0053700F
:104840006F6F6C4A6F696E202020205B6F6E5D0079
:104850004D014669726D776172652020205B6E6F35
:104860006E655D004E014669726D77617265205B11
:104870007374726963745D004F014669726D77618C
:1048800072652020205B7761726E5D004D01466984
:10489000726D776172652020205B6E6F6E655D00C2
:1048A0005C014D6F64656C2020202020205B6E6FC2
:1048B0006E655D005D014D6F64656C202020205B9E
:1048C0007374726963745D005E014D6F64656C2082
:1048D00020202020205B7761726E5D005C014D6FAF
:1048E00064656C2020202020205B6E6F6E655D006B
:1048F00062014E6F7A7A6C6520202020205B6E6FFB
:104900006E655D0063014E6F7A7A6C652020205BD6
:104910007374726963745D0064014E6F7A7A6C65BA
:1049200020202020205B7761726E5D0062014E6F57
:104930007A7A6C6520202020205B6E6F6E655D00AA
:104940005001485720536574757000500148572036
:104950005365747570004A01436865636B7300604A
:10496000014E6F7A7A6C6520642E20205B302E34E5
:10497000305D0061014E6F7A7A6C6520642E2020D4
:104980005B302E36305D0060014E6F7A7A6C6520A8
:10499000642E20205B302E34305D005F014E6F7A34
:1049A0007A6C6520642E20205B302E32355D0075D8
:1049B00001537465656C2073686565747300070145
:1049C000536F756E642020202020205B6C6F75640F
:1049D0005D007401536F756E64202020205B61734D
:1049E000736973745D000C01536F756E6420202031
:1049F000205B73696C656E745D000B01536F756E9F
:104A0000642020202020205B6F6E63655D0007011D
:104A1000536F756E642020202020205B6C6F7564BE
:104A20005D000201536F7274202020202020205B43
:104A30006E6F6E655D000501536F72742020205B00
:104A4000616C7068616265745D000301536F72741C
:104A5000202020202020205B74696D655D00F1001E
:104A60005344206361726420205B6E6F726D616CD1
:104A70005D00F20053442063617264205B666C73D6
:104A8000684169725D00F50053656C656374206C64
:104A9000616E677561676500170154656D702E2042
:104AA00063616C2E2020205B6F6E5D0019015465E0
:104AB0006D702E2063616C2E20205B6F66665D003A
:104AC00057014D65736820626564206C6576656C7E
:104AD000696E670050014857205365747570004C2B
:104AE0000046616E7320636865636B20205B6F66B0
:104AF000665D004B0046616E7320636865636B20E2
:104B000020205B6F6E5D004700462E206175746F3C
:104B10006C6F6164205B6F66665D004500462E2009
:104B20006175746F6C6F616420205B6F6E5D004611
:104B300000462E206175746F6C6F6164205B4E2F90
:104B4000415D00350044697361626C652073746572
:104B50007070657273009B004D6F76652061786997
:104B600073001D0154656D70657261747572650026
:104B700003005B303B305D20706F696E74206F66A0
:104B80006673657400070041646A757374696E67C3
:104B9000205A3A00EA00526573657400E5005265D8
:104BA00061722073696465205B756D5D005E00460F
:104BB000726F6E7420736964655B756D5D00ED00E6
:104BC000526967687420736964655B756D5D007F09
:104BD000004C6566742073696465205B756D5D00CB
:104BE000FD005365742074656D7065726174757233
:104BF000653A000C00417265206C65667420616E38
:104C000064207269676874205A7E63617272696198
:104C100067657320616C6C2075703F0022004361F2
:104C20006C6962726174696E672058595A2E2052FD
:104C30006F7461746520746865206B6E6F62207498
:104C40006F206D6F766520746865205A20636172ED
:104C5000726961676520757020746F2074686520C3
:104C6000656E642073746F70706572732E20436C70
:104C700069636B207768656E20646F6E652E002413
:104C80000043616C6962726174696E67205A2E20FC
:104C9000526F7461746520746865206B6E6F62205A
:104CA000746F206D6F766520746865205A2063618B
:104CB00072726961676520757020746F2074686511
:104CC00020656E642073746F70706572732E20435C
:104CD0006C69636B207768656E20646F6E652E006B
:104CE0001B0154656D706572617475726520636136
:104CF0006C6962726174696F6E206661696C65646B
:104D0000001C0154656D7065726174757265206375
:104D1000616C6962726174696F6E20697320666983
:104D20006E697368656420616E642061637469767E
:104D3000652E2054656D702E2063616C696272610E
:104D400074696F6E2063616E2062652064697361AF
:104D5000626C656420696E206D656E7520536574A4
:104D600074696E67732D3E54656D702E2063616C9F
:104D70002E00A1004E2F4100FFFF20203000FFFF3A
:104D800020203100510149523A004C0146494E441D
:104D9000413A006B0150494E44413A0000015365CD
:104DA0006E736F7220737461746500FFFF50494E1B
:104DB0004441001E0154656D7065726174757265C1
:104DC0007300720153656E736F7220696E666F00B7
:104DD0004200457874727564657220696E666F0072
:104DE000370158595A2063616C2E206465746169DB
:104DF0006C73002C01756E6B6E6F776E0099004DB1
:104E00004D553220636F6E6E6563746564003400C7
:104E1000446174653A006600686F77746F2E707233
:104E200075736133642E636F6D005C00666F72751D
:104E30006D2E707275736133642E636F6D00FFFFAA
:104E40005A617269626F2E636F6D002601746F2064
:104E5000756E6C6F61642066696C616D656E74005F
:104E60002501746F206C6F61642066696C616D65EB
:104E70006E7400CB00507265737320746865206B8C
:104E80006E6F620006003E43616E63656C006C01EC
:104E900050726568656174696E6720746F20637510
:104EA00074006D0150726568656174696E67207485
:104EB0006F20656A65637400C8005072656865613B
:104EC00074696E6720746F20756E6C6F616400C7C3
:104ED0000050726568656174696E6720746F206C3C
:104EE0006F6164002A00436F6F6C646F776E00C05F
:104EF000005072656865617420746865206E6F7A11
:104F00007A6C65210040004552524F523A005100E0
:104F100046696C616D656E7420657874727564693C
:104F20006E672026207769746820636F72726563EC
:104F30007420636F6C6F723F0013004175746F6C67
:104F40006F6164696E672066696C616D656E74205F
:104F50006973206163746976652C206A75737420A7
:104F6000707265737320746865206B6E6F62206168
:104F70006E6420696E736572742066696C616D651C
:104F80006E742E2E2E002001546F74616C206669A1
:104F90006C616D656E74002101546F74616C2070DA
:104FA00072696E742074696D6500540046696C61A5
:104FB0006D656E7420757365640055005072696E7E
:104FC000742074696D6500450159206469737461CA
:104FD0006E63652066726F6D206D696E007E004C99
:104FE00065667400F3005269676874008D004D6552
:104FF00061737572656420736B6577000801536C8B
:105000006967687420736B65773A000401536576AD
:1050100065726520736B65773A004300457874725A
:1050200075646572009E004D6F7665205A009D0084
:105030004D6F76652059009C004D6F7665205800B5
:1050400012004175746F6C6F6164696E67206669E8
:105050006C616D656E7420617661696C61626C650E
:10506000206F6E6C79207768656E2066696C616D63
:10507000656E742073656E736F722069732074752A
:10508000726E6564206F6E2E2E2E003F00455252C8
:105090004F523A2046696C616D656E742073656E7F
:1050A000736F72206973206E6F7420726573706FF6
:1050B0006E64696E672C20706C656173652063682F
:1050C00065636B20636F6E6E656374696F6E2E002F
:1050D0002B00436F70792073656C65637465642081
:1050E0006C616E67756167653F00210043616C69A3
:1050F0006272617465001A00426564206C657665B1
:105100006C696E67206661696C65642E2053656EFC
:10511000736F72206469646E742074726967676566
:10512000722E20446562726973206F6E206E6F7AF2
:105130007A6C653F2057616974696E6720666F728B
:105140002072657365742E00BD00506C65617365D7
:1051500020757064617465206669726D776172652F
:1051600020696E20796F7572204D4D55322E205773
:10517000616974696E6720666F7220726573657409
:105180002E0091004D4D55204F4B2E2052657375CA
:105190006D696E672E2E2E008B004D4D55204F4BA6
:1051A0002E20526573756D696E6720706F73697418
:1051B000696F6E2E2E2E008C004D4D55204F4B2EBC
:1051C00020526573756D696E672074656D706572C8
:1051D00061747572652E2E2E005A0046697820740F
:1051E000686520697373756520616E6420746865F5
:1051F0006E20707265737320627574746F6E206FA9
:105200006E204D4D5520756E69742E00CD00507284
:1052100065737320746865206B6E6F6220746F20F5
:10522000726573756D65206E6F7A7A6C6520746532
:105230006D70657261747572652E0094004D4D55E8
:10524000206E656564732075736572206174746582
:105250006E74696F6E2E00FFFF5A617269626F2073
:105260004D4B3235532D343230000601536F72747A
:10527000696E672066696C6573000101536F6D6527
:105280002066696C65732077696C6C206E6F742082
:10529000626520736F727465642E204D61782E20D4
:1052A0004E6F2E206F662066696C657320696E20D4
:1052B0003120666F6C64657220666F7220736F7246
:1052C00074696E67206973203130302E004B0146BF
:1052D000616C73652074726967676572696E6700D7
:1052E000140153776170706564005F0046726F6EE1
:1052F000742F6C6566742066616E730015004178CA
:10530000697300140041786973206C656E67746876
:105310000085004C6F6F73652070756C6C6579004B
:105320003B00456E6473746F70206E6F7420686903
:1053300074003C00456E6473746F70009A004D6F8A
:10534000746F72003D00456E6473746F7073003546
:1053500001576972696E67206572726F720016007C
:10536000426564202F2048656174657200A3004E79
:105370006F7420636F6E6E656374656400600048CF
:1053800065617465722F546865726D6973746F72AC
:1053900000B400506C6561736520636865636B20C1
:1053A0003A00F90053656C66746573742065727217
:1053B0006F72202100530046696C616D656E742028
:1053C00073656E736F7200C9005072696E742066E7
:1053D000616E3A00410045787472756465722066AA
:1053E000616E3A001E0043616C6962726174696E9D
:1053F0006720686F6D6500FA0053656C66746573AD
:1054000074206661696C65642020000800416C6C42
:1054100020636F7272656374202020202020006D4D
:1054200000436865636B696E672073656E736F72A6
:105430007320006C00436865636B696E6720686F5A
:1054400074656E642020006A00436865636B696E52
:10545000672062656420202020200070004368657A
:10546000636B696E67205A20617869732020006F32
:1054700000436865636B696E6720592061786973C2
:105480002020006E00436865636B696E67205820BA
:10549000617869732020006B00436865636B696EF7
:1054A0006720656E6473746F7073003E004572729E
:1054B0006F72202D20737461746963206D656D6F48
:1054C000727920686173206265656E206F766572FF
:1054D0007772697474656E0028004361726420728B
:1054E000656D6F76656400EA0052657365740070DF
:1054F0000152656E616D65005800466972737420D3
:105500006C617965722063616C2E00710153656C6A
:10551000656374007501537465656C207368656517
:1055200074730073015368656574001301537570DB
:10553000706F72740044004661696C20737461740A
:1055400073204D4D550048004661696C20737461AD
:105550007473001001537461746973746963732008
:105560002000260043616C6962726174696F6E008D
:1055700011004175746F4C6F61642066696C616DD8
:10558000656E74003900456A6563742066696C61F4
:105590006D656E74002701556E6C6F6164206669DD
:1055A0006C616D656E740086004C6F616420746F71
:1055B000206E6F7A7A6C650082004C6F61642066A1
:1055C000696C616D656E7400A0004E6F20534420BD
:1055D0006361726400EB00526573756D65207072D3
:1055E000696E7400AC005061757365207072696EED
:1055F0007400EB00526573756D65207072696E748E
:1056000000C1005072656865617400220154756EB6
:10561000650081004C6976652061646A7573742049
:105620005A007600496E666F2073637265656E007E
:10563000570046696E697368696E67206D6F76659D
:105640006D656E7473000701536F756E64202020C2
:105650002020205B6C6F75645D007401536F756E64
:1056600064202020205B6173736973745D000C01FA
:10567000536F756E64202020205B73696C656E74B7
:105680005D000B01536F756E642020202020205B8D
:105690006F6E63655D000701536F756E6420202097
:1056A0002020205B6C6F75645D0097004D6F646512
:1056B000205B6175746F20706F7765725D00930079
:1056C0004D6F646520202020205B73696C656E74CB
:1056D0005D0098004D6F6465205B686967682070A5
:1056E0006F7765725D004C0046616E73206368657C
:1056F000636B20205B6F66665D004B0046616E73D6
:1057000020636865636B2020205B6F6E5D004D0039
:1057100046696C2E2073656E736F7220205B6F6E0E
:105720005D004F0046696C2E2073656E736F7220AA
:105730005B6F66665D0067004368616E6765206643
:10574000696C616D656E74005B00466C6F77000D6F
:105750000153706565640052014D61676E65747335
:1057600020636F6D702E5B4E2F415D0053014D61C4
:10577000676E65747320636F6D702E5B4F66665D38
:105780000054014D61676E65747320636F6D702EF8
:10579000205B4F6E5D0078015A2D70726F6265203C
:1057A0006E722E202020205B335D0079015A2D700F
:1057B000726F6265206E722E202020205B355D00A6
:1057C00077015A2D70726F6265206E722E20202034
:1057D000205B315D0056014D65736820202020203C
:1057E000202020205B3778375D0055014D657368B8
:1057F0002020202020202020205B3378335D0049AA
:105800000046616E207370656564001B004265642C
:1058100000A8004E6F7A7A6C6500FE0053657474C0
:10582000696E677300C6005072696E742061626FA2
:1058300072746564006F015072696E746572206ED7
:105840006F7A7A6C65206469616D65746572206435
:105850006966666572732066726F6D207468652074
:10586000472D636F64652E20506C656173652063FE
:105870006865636B207468652076616C7565206966
:105880006E2073657474696E67732E205072696E32
:10589000742063616E63656C6C65642E006E0150EC
:1058A00072696E746572206E6F7A7A6C65206469B5
:1058B000616D6574657220646966666572732066E1
:1058C000726F6D2074686520472D636F64652E20AC
:1058D000436F6E74696E75653F00110153746F708C
:1058E000207072696E7400560046696C6520696E9E
:1058F000636F6D706C6574652E20436F6E74696E96
:10590000756520616E797761793F00CA00507269D0
:105910006E742066726F6D205344004901426163CA
:105920006B0088004D61696E001A0154656D702E20
:105930002063616C6962726174696F6E00E9005284
:10594000657365742058595A2063616C6962722EC0
:1059500000FF0053686F7720656E642073746F706A
:105960007300AF005049442063616C6962726174D6
:10597000696F6E001900426564206C6576656C2065
:10598000636F7272656374008A004D6573682042AC
:105990006564204C6576656C696E67002000436124
:1059A0006C696272617465205A001F0043616C6902
:1059B00062726174652058595A00F80053656C662C
:1059C00074657374202020202020202020003601C0
:1059D00057697A6172640041014C6F616420616CA7
:1059E0006C003900456A6563742066696C616D6599
:1059F0006E7400B900506C656173652070756C6CD5
:105A0000206F75742066696C616D656E7420696DB8
:105A10006D6564696174656C79002801556E6C6F01
:105A20006164696E672066696C616D656E7400EC17
:105A300000526573756D696E67207072696E7400CF
:105A400087004D313137204669727374206C61795B
:105A500065722063616C2E00330043757272656E4F
:105A600074002A015573656420647572696E67203D
:105A70007072696E7400AE005049442063616C2EF0
:105A80002066696E697368656400AD005049442002
:105A900063616C2E20202020202020202020200048
:105AA000BE00506C65617365207761697400CC003D
:105AB0005072696E742070617573656400390159A4
:105AC000657300A2004E6F00610048656174696EE5
:105AD000672064697361626C656420627920736118
:105AE000666574792074696D65722E002E015761A8
:105AF0006974696E6720666F72206E6F7A7A6C6562
:105B000020616E642062656420636F6F6C696E67EC
:105B100000F60053656C662074657374204F4B006B
:105B2000F70053656C66207465737420737461723A
:105B300074202000A5004E6F74207370696E6E692A
:105B40006E67000E015370696E6E696E67007D00AE
:105B50004C65667420686F74656E642066616E3F84
:105B6000005D0046726F6E74207072696E742066FC
:105B7000616E3F004A0046616E207465737400CF09
:105B8000005072696E742046414E00AB004E6F7A31
:105B90007A6C652046414E002901546F74616C0097
:105BA0007C004C617374207072696E74007A004CD2
:105BB000617374207072696E74206661696C7572AD
:105BC0006573008E004D4D55206661696C730090C1
:105BD000004D4D55206C6F6164206661696C7300E7
:105BE0002401546F74616C206661696C7572657311
:105BF000008E004D4D55206661696C730090004D1C
:105C00004D55206C6F6164206661696C730095006E
:105C10004D4D5520706F776572206661696C730019
:105C20007A004C617374207072696E7420666169C9
:105C30006C7572657300500046696C616D2E207240
:105C4000756E6F757473002401546F74616C2066F7
:105C500061696C7572657300500046696C616D2EE8
:105C60002072756E6F757473002564206279746597
:105C700073207772697474656E20746F2045455087
:105C8000524F4D20617420616464726573732030DB
:105C90007825303478004433202D20526561642FFC
:105CA000577269746520454550524F4D0A00204394
:105CB0006F756E7420583A20005344207072696EDC
:105CC00074696E67206279746520004E6F74206974
:105CD0006E206661726D206D6F64652E0041637485
:105CE0006976652045787472756465723A2000495A
:105CF0006E76616C69642065787472756465720093
:105D00005A204F666673657400556E6B6E6F776EC2
:105D100020636F6D6D616E643A2022004D32303029
:105D200020496E76616C696420657874727564656B
:105D30007220007A5F6D61783A20007A5F6D696E3B
:105D40003A2000795F6D696E3A20006F70656E00D1
:105D500054524947474552454400785F6D696E3A51
:105D600020005265706F7274696E6720656E64738F
:105D7000746F7020737461747573000053494C45DF
:105D80004E54004E4F524D414C002553204D4F4430
:105D9000453A2050657263656E7420646F6E653A93
:105DA0002025643B207072696E742074696D6520D3
:105DB00072656D61696E696E6720696E206D696ECE
:105DC000733A2025640A00456E642066696C65207C
