:100000000C94364B0C94674B0C94674B0C94674BD9
:100010000C94674B0C94674B0C94674B0C94674B98
:100020000C94674B0C94674B0C940B900C94674B9F
:100030000C94674B0C94674B0C941DC30C94759DEA
:100040000C94674B0C941CDE0C94674B0C94674B20
:100050000C94674B0C94674B0C94674B0C94138F68
:100060000C94674B0C9437960C94674B0C94674B2D
:100070000C94674B0C94674B0C94674B0C94674B38
:100080000C94674B0C94674B0C94674B0C94674B28
:100090000C94F3950C94674B0C94674B0C94674B42
:1000A0000C94674B0C94674B0C94674B0C94674B08
:1000B0000C94674B0C94674B0C94674B0C94674BF8
:1000C0000C94674B0C94674B0C94674B0C945D99A4
:1000D0000C94674B0C94674B0C94674B0C94674BD8
:1000E0000C94674B2F8F398F478F548F668F6D8F8E
:1000F000A98F8B8FA18FF9BC02BDAEBC7DBC4DBC5E
:10010000F6BF33BD58BEFFBE53BF6FBFA6BF1AD1E7
:100110001CD11AD11CD11AD11CD11ED120D1FE0163
:100120009801E601BC017C01D8012C02CA014402FD
:100130008A02FA01C201EA01EA016202EA016202EC
:10014000E201F60194028C0264022202D2010E0244
:10015000180254019C01AC01820146029A02680116
:100160008801A40168021C02EE016C014C015C02D2
:10017000820204029201DA011C0278026002320259
:10018000FC015E01700170020002F8017202960229
:100190006201D601DC019802AA010802F8013802C6
:1001A000EC014E01B001A0013602A8018E015E02F1
:1001B000C4015C01E4014202C40190016C025A02D4
:1001C000B801084AD73B3BCE016E84BCBFFDC12FAE
:1001D0003D6C74319ABD56833DDA3D00C77F11BE38
:1001E000D9E4BB4C3E916BAAAABE000000803F053B
:1001F000A84CCDB2D44EB93836A9020C50B991866C
:1002000088083CA6AAAA2ABE000000803F076342D5
:1002100036B79BD8A71A39685618AEBAAB558C1D9D
:100220003CB7CC5763BD6DEDFD753EF6177231BF1F
:10023000000000803F08000000BE922449123EAB3F
:10024000AAAA2ABECDCCCC4C3E00000080BEABAAF0
:10025000AAAA3E00000000BF000000803F0000008E
:100260000000084178D3BB4387D1133D190E3CC32E
:10027000BD4282AD2B3E68EC8276BED98FE1A93EAD
:100280004C80EFFFBE01C4FF7F3F00000000000074
:100290000D94880A0D9477480D94714C0D94894EF5
:1002A0000D94051D0D94B00E0D94FE3E0D94E91CA9
:1002B0000D94C90A0D9458830D94E3620D94014E78
:1002C0000D9493390D94344E0D94985E0D94B6852B
:1002D0000D94634C0D944C450D946B4C0D946E48ED
:1002E0000D94064E0D94FD0E0D94665F0D94D95934
:1002F0000D94234D0D94CA5A0D9486010D949B4C78
:100300000D94C8080D94283E0D94404B0D947E49E1
:100310000D94524C0D949D0A0D94433A0D948562B0
:100320000D94F9620D94834C0D94445A0D94A54C90
:100330000D944A010D94D5400D94EE3E0D942F4935
:100340000D9458620D94E3850D94564C0D94CC0891
:100350000D9479620D94614E0D94563E0D94D30A1E
:100360000D9445620D946C1E0D94CD1F0D942B08B9
:100370000D9423630D9410610D9466010D943B4D13
:100380000D94AA4C0D94ED010D942F620D943F4DE8
:100390000D94E45F0D94A2010D9471590D94810A9E
:1003A0000D94D84A0D94933E0D942F4D0D943E4ECE
:1003B0000D948C010D94874C0D94484E0D94965FCE
:1003C0000D94B5060D94270A0D94F7620D94500113
:1003D0000D94633A0D94210A0D947F4E0D94674C51
:1003E0000D948F0A0D94D8850D9478630D942A0A84
:1003F0000D94934E0D94DD010D94FC4D0D943A0136
:100400000D941A4E0D94C31F0D947F4C0D948B1DAB
:100410000D946B4E0D94359C0D94274D0D94883E94
:100420000D94044A0D9403410D94A40A0D9449615E
:100430000D947D3E0D9417080D949A4C0D948805EB
:100440000D94250D0D949E3E0D94CE380D947A0A90
:100450000D94B20A0D94374D0D9492010D945A5A91
:100460000D94FE840D94954C0D942A390D946A6276
:100470000D94754E0D94D9450D948B380D94B80E8E
:100480000D942B4D0D94F3620D94B2010D94F63D35
:100490000D946D5B0D948C5F0D94E10C0D94E11F38
:1004A0000D94BC200D947F480D94375E0D94A05F91
:1004B0000D946A0A0D940B630D94754C0D94C062F3
:1004C0000D94914C0D94240A0D94A93E0D94B09E68
:1004D0000D945C4C0D9436870D9405630D94606EFD
:1004E0000D94104E0D94244E0D94960A0D94C10651
:1004F0000D948D4C0D94730A0D94535F0D94AB0ABB
:100500000D94B40E0D94794C0D94A14C0D94C385AB
:100510000D94795F0D94C2010D94D93E0D944985D7
:100520000D94334D0D94D71F0D94583B0D942C4EC4
:100530000D94524E0D94604C5F5345435F4C414EB9
:100540004700000000000000000000000000000064
:10055000000000000000000000000000000000009B
:10056000000000000000000000000000000000008B
:10057000000000000000000000000000000000007B
:10058000000000000000000000000000000000006B
:10059000000000000000000000000000000000005B
:1005A000000000000000000000000000000000004B
:1005B000000000000000000000000000000000003B
:1005C000000000000000000000000000000000002B
:1005D000000000000000000000000000000000001B
:1005E000000000000000000000000000000000000B
:1005F00000000000000000000000000000000000FB
:10060000A55AB44BE5287A0169F86C707A01146533
:1006100004034E03530358036D03AB03E003E803E5
:10062000F60303041F0429043D045E0470048204DD
:100630009404A304B604FF04460552055505640559
:100640006C057C058A05DD05E205EE05120620062F
:100650002F063A064306AD06B906230731073C07C5
:100660004307500762076D0786079807E707F907F2
:100670000B081D083E084808510857086608F70887
:100680004C09580967097B0990099A09A409CE0900
:10069000090A0F0A1B0A2C0A360A400A520A640A7F
:1006A000760A880A970AA80ABA0ACC0ADE0AF00A69
:1006B000020B120B3C0B500B620B710B7C0B9B0B58
:1006C000AB0BBB0B100C3B0C440C450C5A0C650CD3
:1006D0007D0C8F0CB40CC70CD20C290D750D760D4A
:1006E000880D940DA00DAF0DC20DD30DE90DF80DC1
:1006F000070E160E290E3B0E3C0E720E8D0EA00E2E
:10070000B20ECC0EF50E0A0F7D0F890F9C0FA10FB4
:10071000AB0FBC0FCA0FD90FE90FF90F0B101C104C
:1007200031103D1071108E10AA10CA10D910E310AC
:10073000F61007111D112F1141115F117111831155
:100740009511A711B611BD11C611D111DC11E71118
:10075000F3110112051209121912381246128612EB
:100760009F12A512F6121D1328133C134B135F138F
:100770006E1382130D143C1482148C14F4143E1561
:1007800073159D15B615DD150F1638166D167B16EB
:10079000A516B416BC16DE16F41627173817471719
:1007A0005D1771177D178D179E17AE17DF175E182F
:1007B00069186A186B186C186D186E186F18701815
:1007C00071187218731874187518761877187818C5
:1007D00079187A18BD180E1929192A1933194619CA
:1007E0008B198C199E199F19AE19BF19CA19DC19DA
:1007F000EE19461A581A6A1A701A961AA31AAF1ADC
:10080000C11ACB1ADA1AEC1A3F1B7C1B8F1B9A1BDE
:10081000AA1BB91B081C1A1C2C1C3A1C4C1C5E1C65
:10082000701C7C1C8E1CBD1CCF1CE11CEA1CF41C23
:100830003D1D481D591D651D6E1D791D8B1D9C1D7F
:10084000AE1DE81DFA1D0B1E2D1E961EA21EAE1E0D
:10085000151F271F391F431F4C1F581F6A1F7F1F5B
:10086000911FA61FAB1FBF1FC81FD11FEA1F142057
:100870003820A320DC200621312147215721602187
:100880007321BA21BE210722462286229222CA2241
:100890000923472358239823F5234E2463246424F3
:1008A000702477247E24842493249424A624B824BA
:1008B000CA24D824D924EC24FF2412252525382540
:1008C0004B25702582259425A925BB25CD25DF251F
:1008D000F12503261526272639264B264C26952654
:1008E000C5261527482794279527AD27C72707280A
:1008F0005528612869287A2880289228A028AC28C1
:10090000BF28D2285B252E37735D4C697665204160
:10091000646A2E205A0A75737461772E2C206B6FCF
:100920006E74796E756F7761630A637A79207A6184
:10093000637A6163206F6420303F0A25634B6F6EDA
:1009400074796E75756A2563526573657400207AD3
:10095000203400207A2039005B303B305D207072FB
:100960007A6573756E2E70756E6B74750057796B42
:10097000727977616E6965207A6465727A656E0A4C
:100980006D6F7A652062796320776C61637A6F6E30
:10099000650A74796C6B6F20770A74727962696585
:1009A000204E6F726D616C6E796D005557414741F5
:1009B0003A0A57796B727977616E6965207A646556
:1009C000727A656E0A77796C61637A6F6E652077EB
:1009D0000A74727962696520537465616C74680089
:1009E0003E416E756C756A00557374617769616E0E
:1009F0006965205A3A0057737A7973746B6F204F88
:100A00004B2000476F746F77652E205564616E65CB
:100A1000676F206472756B6F77616E696121004F3B
:100A2000746F637A656E69650069206E61636973CE
:100A30006E696A20706F6B7265746C6F004F6279BB
:100A4000647761206B6F6E6365206F7369207361DB
:100A5000206E6120737A637A796369653F00537011
:100A60006F6F6C4A6F696E202020205B776C5D0091
:100A700053706F6F6C4A6F696E2020205B4E2F445D
:100A80005D0053706F6F6C4A6F696E2020205B773A
:100A9000796C5D004175746F207A65726F77616E55
:100AA0006965004175746F6C61646F77616E69652B
:100AB0002066696C2E004175746F6C61646F77619C
:100AC0006E69652066696C2E20646F737465706E44
:100AD000652074796C6B6F2067647920637A756A1E
:100AE0006E696B2066696C616D656E7475206A65F0
:100AF000737420776C61637A6F6E792E2E2E0041AD
:100B000075746F6C61646F77616E69652066696C7E
:100B1000616D656E747520776C61637A6F6E652C9C
:100B2000206E616369736E696A20706F6B726574A1
:100B30006C6F2069207773756E2066696C616D65D6
:100B40006E742E2E2E00446C75676F7363206F7366
:100B500069004F730053746F6C202F2047727A61C5
:100B60006E69650053746F6C204F4B0047727A6159
:100B70006E69652073746F6C752E2E004B6F7265F5
:100B80006B74612073746F6C75004B616C69627279
:100B900061636A61206E69657564616E612E2053C0
:100BA000656E736F72206E696520616B7479776F03
:100BB00077616C207369652E205A616E6965637A6E
:100BC00079737A2E206479737A613F20437A656B5A
:100BD000616D206E612072657365742E0053746FB1
:100BE0006C005374616E207061736B6F770057797E
:100BF0006B7279746F207A616E696B206E617069B7
:100C0000656369612E204B6F6E74796E6F776163D7
:100C10003F005A65726F77616E6965206F73690076
:100C20004B616C69627261636A612058595A004B6A
:100C3000616C696272756A205A004B616C696272FC
:100C4000756A004B616C69627261636A6120585910
:100C50005A2E2050727A656B72656320706F6B72CA
:100C600065746C6F2C206162792070727A6573757F
:100C70006E6163206F73205A20646F20676F726EFD
:100C8000796368206F6772616E69637A6E696B6FF2
:100C9000772E204E616369736E696A2C2062792019
:100CA000706F7477696572647A69632E004B616C4A
:100CB000696272756A65205A004B616C6962726183
:100CC000636A612058595A2E2050727A656B72659A
:100CD0006320706F6B7265746C6F2C206162792079
:100CE00070727A6573756E6163206F73205A206429
:100CF0006F20676F726E796368206F6772616E69CB
:100D0000637A6E696B6F772E204E616369736E69CB
:100D10006A2C20627920706F7477696572647A69D1
:100D2000632E004B616C69627261636A61204F4B94
:100D3000004B616C69627261636A6100416E756C3F
:100D4000756A004B617274612077796A657461001D
:100D50004B6F6C6F72207A616E6965637A79737A12
:100D60002E0043686C6F647A656E696500536B6F23
:100D700070696F7761632077796272616E79206A3A
:100D8000657A796B3F0057796B722E7A6465727A57
:100D9000656E205B776C5D005779626965727A20B9
:100DA00066696C616D656E7420646F204B616C695F
:100DB000627261636A69205069657277737A656AE5
:100DC0002057617273747779206920706F74776926
:100DD0006572647A2077206D656E7520656B72612F
:100DE0006E6F77796D2E0057796B722E7A6465720B
:100DF0007A656E5B4E2F445D0057796B722E7A6474
:100E000065727A656E5B77796C5D005A6465727A9B
:100E1000656E69652077796B727974650057796BB7
:100E20007279746F207A6465727A656E69652E20B6
:100E3000577A6E6F776963206472756B3F005A64EE
:100E400065727A656E696500416B7475616C6E657B
:100E500000446174613A0057796C61637A20736968
:100E60006C6E696B69004F646C65676C6F736320AF
:100E70006479737A79206F6420706F776965727A0C
:100E800063686E69206472756B75206E6965206A8F
:100E900065737420736B616C6962726F77616E61E8
:100EA0002E20506F73746570756A207A676F646E58
:100EB0006965207A20696E737472756B636A613A32
:100EC00020726F7A647A69616C205770726F7761F3
:100ED000647A656E6965202D204B616C6962726170
:100EE000636A61207069657277737A656A207761D9
:100EF00072737477792E0043686365737A20706F1C
:100F000077746F727A7963206F737461746E69207D
:100F10006B726F6B206920706F6E6F776E696520E2
:100F200075737461776963206F646C65676C6F7348
:100F300063206D6965647A79206479737A612061D0
:100F40002073746F6C696B69656D3F004B6F7265E0
:100F50006B636A612D453A00577973756E20666937
:100F60006C616D656E74005779737577616E696534
:100F70002066696C616D656E7475004B72616E639D
:100F80006F776B61206E696520616B7479772E00D5
:100F90004B72616E636F776B61004B72616E636F52
:100FA000776B6900426C6164202D2070616D69650A
:100FB00063207374617479637A6E61207A6F7374DD
:100FC000616C61206E6164706973616E6100424C96
:100FD00041443A20437A756A6E696B2066696C6198
:100FE0006D656E7475206E6965206F64706F7769CA
:100FF0006164612C207370726177647A20706F6C09
:1010000061637A656E69652E00424C41443A00572F
:10101000656E74486F74656E643A00456B737472E4
:1010200075646572202D20696E666F00456B737460
:10103000727564657200426C656479204D4D55008F
:101040004175746F6C61642E66696C2E205B776CE1
:101050005D004175746F6C61642E66696C2E5B4E29
:101060002F445D004175746F6C61642E66696C2E4F
:101070005B77796C5D0053746174797374796B6913
:1010800020626C65646F7700507265646B6F736388
:101090002077656E742E00546573742077656E74C6
:1010A000796C61746F7261005370726177642E772E
:1010B000656E742E205B776C5D005370726177648F
:1010C0002E77656E742E5B77796C5D00437A756A56
:1010D0002E2066696C616D2E205B776C5D00437A13
:1010E000756A2E2066696C616D2E5B4E2F445D0023
:1010F000437A756A2E2066696C616D2E5B77796C18
:101100005D004B6F6E632E2066696C616D656E7459
:10111000750046696C616D656E7420777963686FE0
:10112000647A69207A206479737A792C206B6F6CE9
:101130006F72206A657374206F6B3F0046696C2E76
:10114000206E6965207A616C61646F77616E7900E9
:10115000437A756A6E696B2066696C616D656E7441
:101160007500557A7974792066696C616D656E7465
:1011700000437A6173206472756B7500506C696B03
:10118000206E69656B6F6D706C65746E792E204B87
:101190006F6E74796E6F7761633F004B6F6E637A29
:1011A000656E6965206472756B75004B616C2E20ED
:1011B000312E2077617273747779004E616A70699D
:1011C00065727720776C61637A652073656C6674ED
:1011D00065737420772063656C7520737072617716
:1011E000647A656E6961206E616A637A657374738F
:1011F0007A7963682070726F626C656D6F772070AA
:101200006F64637A6173206D6F6E74617A752E00FE
:10121000526F7A7769617A2070726F626C656D20A7
:101220006920776369736E696A2070727A7963697D
:10123000736B206E61204D4D552E0050727A657093
:101240006C7977000050727A65646E692077656EFC
:10125000742E206472756B753F0050727A6F642033
:101260005B756D5D0050727A65646E692F6C657791
:10127000792077656E74796C61746F720047727A49
:10128000616C6B612F5465726D6973746F72004786
:10129000727A616E69652077796C61637A6F6E65C9
:1012A0002070727A657A2077796C2E20637A617368
:1012B0006F77790047727A616E6965207A616B6F2A
:1012C0006E637A6F6E650047727A616E69652E2E65
:1012D0002E00437A6573632C206A657374656D20F4
:1012E00054776F6A61206472756B61726B61204F15
:1012F000726967696E616C20507275736120693321
:101300002E20437A7920706F74727A6562756A65EF
:10131000737A20706F6D6F6379207A2075737461B2
:101320007769656E69656D3F00437A6573632C204C
:101330006A657374656D2054776F6A612064727595
:101340006B61726B61205A617269626F2E20437A01
:101350007920706F74727A6562756A65737A20702D
:101360006F6D6F6379207A20757374617769656E2C
:1013700069656D3F000057796D69616E612066692E
:101380006C616D656E74750057796D69616E612071
:101390006F6B210057796D69616E61206F6B3F0043
:1013A0004B6F6E74726F6C612073746F6C75004B51
:1013B0006F6E74726F6C61206B72616E636F7765B4
:1013C0006B004B6F6E74726F6C6120686F74656E2A
:1013D0006475005370726177647A616E6965206329
:1013E0007A756A6E696B6F77004B6F6E74726F6C93
:1013F00061206F73692058004B6F6E74726F6C615F
:10140000206F73692059004B6F6E74726F6C61208E
:101410006F7369205A005779626965727A20656B2B
:10142000737472756465723A005779626965727A8D
:101430002066696C616D656E743A000050727A6561
:1014400070726F7761647A6520746572617A206B5F
:10145000616C69627261636A652058595A2E205A1C
:10146000616A6D6965206F6B2E203132206D696E67
:101470002E0050727A6570726F7761647A65206BA6
:10148000616C69627261636A65205A2E00456B72F5
:10149000616E20696E666F726D6163796A6E790044
:1014A0005770726F7761647A2066696C616D656EE2
:1014B000740046696C616D656E74206A6573742092
:1014C0007A616C61646F77616E793F00437A79204D
:1014D000706C797461207374616C2E206A6573740A
:1014E000206E6120706F6467727A65772E20737446
:1014F0006F6C653F004F737461746E696520626C38
:10150000656479206472756B75004A65736C692037
:101510006D61737A20646F6461746B6F776520709E
:101520006C797479207374616C6F77652C20746F9B
:1015300020736B616C696272756A206963682075DB
:101540007374617769656E69612077206D656E756A
:1015500020557374617769656E6961202D2055731C
:1015600074617769656E6961204857202D20506C41
:10157000797479207374616C6F77652E004F737482
:101580002E2077796472756B004C657779207765CA
:101590006E7420686F74656E64753F004C6577618A
:1015A000004C65776F205B756D5D004B6F72656BEE
:1015B000636A61206C696E696F776100557374614D
:1015C000772E204C697665205A004C61646F7761F4
:1015D0006E69652066696C2E00437A79737A637A46
:1015E0002E206B6F6C6F7275004C6164756A65209C
:1015F00066696C616D656E74004C757A6E65206B02
:101600006F6C6F207061736F7765005A616C6164F5
:10161000756A20646F206479737A79004D313137AF
:10162000204B616C2E20312E207761727374777994
:10163000004D656E7520676C6F776E65004F6B723D
:1016400065736C616D207779736F6B6F7363206F57
:10165000646E69657369656E69612070756E6B741F
:1016600075206B616C6962726163796A6E65676F20
:1016700000506F7A696F6D6F77616E696520737462
:101680006F6C7520776720736961746B69004D4DCD
:1016900055204F4B2E20577A6E617769616E6965D0
:1016A00020706F7A79636A692E004D4D55204F4B3B
:1016B0002E20577A6E617769616D206E6167727A4C
:1016C0006577616E69652E2E2E005A6D6965727A96
:1016D0006F6E7920736B6F7300426C656479204D77
:1016E0004D5500426C6164206C61646F77616E6976
:1016F00061204D4D5500426C656479206C61646FCA
:10170000772E204D4D55004D4D55204F4B2E2057D7
:101710007A6E617769616E69652E2E2E005472793A
:10172000622020205B6E6F726D616C6E795D00547B
:101730007279622020202020205B63696368795DD4
:10174000004D4D552077796D616761207577616730
:101750006920757A79746B6F776E696B612E005AA8
:10176000616E696B69207A6173696C2E204D4D55ED
:1017700000547279622020202020205B6369636816
:10178000795D0054727962205B6175746F6D61746C
:1017900079637A5D00547279625B7779736F6B61FC
:1017A000207779642E5D004D4D5520706F646C611B
:1017B000637A6F6E650053696C6E696B0052756376
:1017C00068206F73690052756368206F73692058D1
:1017D0000052756368206F73692059005275636801
:1017E000206F7369205A004272616B2072756368C2
:1017F000752E004272616B206B61727479205344C4
:10180000004E2F44004E6965004E696520706F647C
:101810006C61637A6F6E6F2000446F737465706ED5
:1018200061206E6F776120776572736A61206669E7
:10183000726D776172653A004E6965206B726563FF
:101840006920736965004B616C696272756A652015
:101850006F646C65676C6F7363206D6965647A791A
:10186000206B6F6E636F776B61206479737A792078
:101870006120706F776965727A63686E6961206450
:1018800072756B752E004E6167727A6577616D2097
:101890006479737A6520646C6120504C412E004459
:1018A00079737A61005A6E616C657A696F6E6F2028
:1018B000737461726520757374617769656E6961AF
:1018C0002E205A6F7374616E612070727A7977720C
:1018D0006F636F6E6520646F6D79736C6E652075D4
:1018E00073742E205049442C204573746570732CFA
:1018F000206974702E00546572617A207A64656A7A
:101900006D696A2077796472756B20746573746F82
:101910007779207A652073746F6C752E0057656E29
:1019200074486F74656E6400577374727A796D6170
:101930006E69652077796472756B75004B616C69AF
:10194000627261636A6120504944004B616C2E20D1
:10195000504944207A616B6F6E637A6F6E61004B01
:10196000616C69627261636A612050494400477228
:101970007A616E696520736F6E64792050494E44B8
:101980004100556D69657363206B6172746B6520EE
:1019900070617069657275206E612073746F6C651B
:1019A00020726F626F637A796D206920706F646353
:1019B0007A617320706F6D696172752070696572EC
:1019C00077737A79636820342070756E6B746F77E3
:1019D0002E204A65736C69206479737A61207A617C
:1019E0006861637A79206F207061706965722C205C
:1019F0006E61747963686D696173742077796C6165
:101A0000637A206472756B61726B652E004F637A26
:101A100079736320706F776965727A63686E696540
:101A2000206472756B752069206E616369736E69DD
:101A30006A20706F6B7265746C6F2E00446C61204D
:101A40007072617769646C6F77656A206B616C692D
:101A5000627261636A69206E616C657A79206F6376
:101A60007A7973636963206479737A652E20506F85
:101A70007477696572647A2067757A696B69656DD8
:101A80002E005370726177647A203A0050727A6542
:101A9000637A7974616A206E61737A20506F647220
:101AA00065637A6E696B206472756B7520334420B0
:101AB000616279206E617072617769632070726F04
:101AC000626C656D2E20506F74656D20777A6E6F35
:101AD00077204173797374656E74612070727A65D2
:101AE0007A2072657374617274206472756B6172AE
:101AF0006B692E0050726F737A65206F6463696141
:101B0000676E616320647A7769676E696520646FC8
:101B10006369736B6F776120656B7374727564654D
:101B200072612069207265637A6E696520757375CC
:101B30006E61632066696C616D656E742E00507213
:101B40006F737A6520756D69657363696320706C66
:101B5000797465207374616C6F7761206E61207396
:101B6000746F6C6520706F6467727A6577616E79E7
:101B70006D2E004E616369736E696A20706F6B72BF
:101B800065746C6F2061627920726F7A6C61646F2A
:101B90007761632066696C616D656E740057796367
:101BA0006961676E696A2066696C616D656E742033
:101BB000746572617A005779636961676E696A203A
:101BC00066696C616D656E74206920776369736EF8
:101BD000696A20706F6B7265746C6F2E0050726F43
:101BE000737A65207A646A616320706C7974652009
:101BF0007374616C6F7761207A20706F6467727A9A
:101C00006577616E65676F2073746F6C752E005019
:101C1000726F737A65206E616A706965727720757C
:101C2000727563686F6D6963206B616C6962726164
:101C3000636A652058595A0050726F737A65207A2A
:101C4000616B7475616C697A6F7761632046697244
:101C50006D77617265204D4D55322E20437A656B4C
:101C6000616D206E612072657365742E0050726F15
:101C7000737A6520637A656B6163004E616A70698F
:101C8000657277207573756E207A6162657A706906
:101C900065637A656E6961207472616E73706F72CC
:101CA000746F7765004E6167727A656A2064797334
:101CB0007A65210047727A616E6965004E616772CC
:101CC0007A6577616E6965206479737A792E205020
:101CD000726F737A6520637A656B61632E00507250
:101CE0006F737A65207A616B7475616C697A6F774E
:101CF00061632E00576369736E696A20706F6B723F
:101D000065746C6F2061627920726F7A67727A6194
:101D100063206479737A652069206B6F6E74796EC5
:101D2000756F7761632E005A616E696B69207A6105
:101D300073696C616E6961004472756B2070727AB0
:101D4000657277616E79004E6167727A65772E20D1
:101D5000646F206C61646F77616E6961004E6167CA
:101D6000727A65772E20646F20726F7A6C61642EB0
:101D70000057656E7457796472756B3A00447275DA
:101D80006B207A206B617274792053440057636929
:101D9000736E696A20706F6B7265746C6F00447249
:101DA000756B20777374727A796D616E7900576301
:101DB00069736E696A20706F6B7265746C6F2061F5
:101DC000627920777A6E6F77696320706F646772CB
:101DD0007A6577616E6965206479737A792E00443B
:101DE00072756B61726B61206E69652062796C61DE
:101DF000206A65737A637A65206B616C6962726FC1
:101E000077616E612E204B696572756A2073696512
:101E10002053616D6F75637A6B69656D3A20726FDF
:101E20007A647A69616C205069657277737A65208B
:101E30004B726F6B692C2073656B636A61204B6F0B
:101E40006E666967757261636A612070727A656433
:101E5000206472756B6F77616E69656D2E005765D2
:101E60006E7457796472756B00000000000000000A
:101E7000000000000000000000005773756E20662F
:101E8000696C616D656E7420646F20656B7374722C
:101E900075646572612069206E616369736E696A39
:101EA00020706F6B7265746C6F2C20616279206793
:101EB0006F207A616C61646F7761632E0057737570
:101EC0006E2066696C616D656E7420646F20706948
:101ED000657277737A65676F206B616E616C7520D0
:101EE00077204D4D55322069206E616369736E69AC
:101EF0006A20706F6B7265746C6F2C206162792040
:101F0000676F207A616C61646F7761632E004E6148
:101F10006A7069657277207A616C6164756A20669F
:101F2000696C616D656E742E000054796C205B7570
:101F30006D5D00577A6E617769616E6965207779AA
:101F40006472756B75005779636961676E696A20A1
:101F5000706F70727A65646E692066696C616D6518
:101F60006E742069206E616369736E696A20706F98
:101F70006B7265746C6F20616279207A616C616448
:101F80006F776163206E6F77792E000052657365FD
:101F900074206B616C6962722E2058595A00005788
:101FA0007A6E6F7769632077796472756B00577A00
:101FB0006E617769616E6965206472756B7500503A
:101FC0007261776F205B756D5D00506F7274205287
:101FD000506920202020205B776C5D00506F727468
:101FE00020525069202020205B77796C5D00576C6F
:101FF00061637A656E6965204173797374656E7487
:1020000061207573756E6965206F6265636E65200A
:1020100064616E65206B616C6962726163796A6E7E
:10202000652069207A61637A6E6965206F6420702B
:102030006F637A61746B752E204B6F6E74796E7559
:102040006F7761633F004B61727461205344205B82
:102050006E6F726D616C5D004B61727461205344F0
:102060005B466C73684169725D0050726177610014
:10207000537A756B616D2070756E6B7475206B6132
:102080006C6962726163796A6E65676F206E612048
:1020900073746F6C65005779626F72206A657A7924
:1020A0006B610053656C6674657374204F4B00530D
:1020B000656C6674657374207374617274756A6597
:1020C0000053656C66746573742000426C61642013
:1020D00073656C6674657374210053656C66746512
:1020E0007374206E69657564616E79005A6F7374DC
:1020F000616E69652075727563686F6D696F6E7961
:102100002053656C66746573742061627920646F16
:102110006B6C61646E696520736B616C6962726F70
:102120007761632070756E6B742062617A6F777966
:102130002062657A206B72616E636F77656B005702
:1021400079626965727A2074656D70657261747503
:1021500072652067727A616E6961206479737A7939
:10216000206F64706F776965646E696120646C616B
:10217000206D6174657269616C752E0055737461B0
:10218000772074656D70657261747572653A00557B
:102190007374617769656E696100506F6B617A2055
:1021A0006B72616E636F776B69005374616E20634D
:1021B0007A756A6E696B6F77004E69656B746F72C2
:1021C0006520706C696B69206E6965207A6F737425
:1021D000616E6120706F736F72746F77616E652EC0
:1021E000204D61782E206C69637A626120706C6981
:1021F0006B6F772077203120666F6C6465727A652B
:10220000203D203130302E00536F72746F77616E35
:102210006965205B6272616B5D00536F72746F77EA
:10222000616E6965205B637A61735D005A6E6163FC
:102230007A6E7920736B6F733A00536F72746F7795
:10224000616E69655B616C6661625D00536F72749B
:102250006F77616E696520706C696B6F7700447A87
:102260007769656B2020205B676C6F736E795D000A
:102270004C656B6B6920736B6F733A00447A7769B6
:10228000656B5B77796C61637A6F6E795D00577906
:102290006B7279746F2070726F626C656D2C207731
:1022A000796D75737A6F6E6F20706F7A696F6D6F6D
:1022B00077616E6965206F7369205A2E00447A77C2
:1022C00069656B202020205B312D72617A5D0044AE
:1022D0007A7769656B202020205B63696368795D8C
:1022E00000507265646B6F7363004B7265636920A5
:1022F00073696500506F74727A65626E61206A65F9
:1023000073742073746162696C6E612074656D70A2
:1023100065726174757261206F746F637A656E693E
:10232000612032312D323643206920737461626935
:102330006C6E6520706F646C6F7A652E00537461EB
:1023400074797374796B690050727A657277616E13
:102350006965206472756B75005A4154525A594D23
:10236000414E4F2E005773706172636965005A6168
:102370006D69656E696F6E6F005779626965727A13
:102380002066696C616D656E743A004B616C6962C0
:102390007261636A612074656D702E004B616C69B7
:1023A00062722E74656D702E205B776C5D005779BC
:1023B000626965727A2074656D7065726174757298
:1023C000652C206B746F7261206F64706F77696128
:1023D00064612054776F6A656D752066696C616D04
:1023E000656E746F77692E004B616C6962722E7432
:1023F000656D702E5B77796C5D004B616C69627204
:1024000061636A612074656D702E004B616C696256
:102410007261636A612074656D7065726174757252
:102420006F7761206E69657564616E61004B616CE8
:1024300069627261636A612074656D70657261744E
:1024400075726F7761207A616B6F6E637A6F6E6100
:10245000206920776C61637A6F6E612E204D6F7AF0
:1024600065206279632077796C61637A6F6E612091
:102470007A206D656E7520557374617769656E6934
:1024800061202D3E204B616C69627261636A61203C
:1024900074656D702E0054656D706572617475722F
:1024A000610054656D7065726174757279004D7567
:1024B00073696D792070727A6570726F7761647A72
:1024C0006963206B616C69627261636A65205A2E70
:1024D000204B696572756A207369652053616D6F61
:1024E00075637A6B69656D3A20726F7A647A696197
:1024F0006C205069657277737A65204B726F6B69D7
:102500002C2073656B636A61204B616C6962726138
:10251000636A612E005A757A796369652066696C11
:10252000616D656E7475004C61637A6E7920637AB3
:102530006173206472756B75005374726F6A656E97
:10254000696500526F7A6C6164756A0053756D61DC
:1025500020626C65646F7700616279207A616C61DA
:10256000646F772E2066696C2E0061627920726F2D
:102570007A6C61642E2066696C616D656E740052C0
:102580006F7A6C61646F77616E69652066696C2E25
:1025900000526F7A6C61646F77756A652066696C4A
:1025A000616D656E740053756D6100557A7974655F
:1025B00020706F64637A6173206472756B75004E6E
:1025C00061706965636961006E69657A6E616E65E7
:1025D00000437A656B616D206E6120757A79746B4A
:1025E0006F776E696B612E2E2E004F637A656B6973
:1025F00077616E6965206E6120777963686C6F64BE
:102600007A656E6965206479737A792069207374BC
:102610006F6C7500437A656B616D20617A20737011
:1026200061646E69652074656D702E20736F6E64D1
:10263000792050494E444100557A796A206F706381
:102640006A6920526F7A6C6164756A206A65736C7E
:10265000692066696C616D656E7420777973746149
:102660006A65207A2074796C6E656A207275726B67
:1026700069204D4D552E20557A796A206F70636A16
:102680006920577973756E206A65736C692077636A
:1026900069617A206A65737420772073726F646B46
:1026A000752E004F7374727A657A656E69653A208B
:1026B000747970206472756B61726B692069207027
:1026C0006C79746120676C6F776E6120756C6567DB
:1026D0006C79207A6D69616E69652E004F73747232
:1026E0007A657A656E69653A20706C7974612067E5
:1026F0006C6F776E6120756C65676C61207A6D69AF
:10270000616E69652E004F7374727A657A656E69C1
:10271000653A20726F647A616A206472756B6172C7
:102720006B6920756C65676C207A6D69616E69658F
:1027300000526F7A6C61646F77616E6965206669BB
:102740006C2E206F6B3F00426C616420706F6C6177
:10275000637A656E6961004173797374656E7400A4
:10276000537A637A65676F6C79206B616C2E2058A1
:10277000595A004B616C69627261636A61205859F1
:102780005A206E69657564616E612E2053707261A6
:1027900077647A2070727A79637A796E7920692009
:1027A000726F7A7769617A616E6961207720696EEC
:1027B000737472756B636A692E0054616B005A61A1
:1027C00077737A65206D6F7A65737A207572756399
:1027D000686F6D6963204173797374656E746120ED
:1027E000706F6E6F776E69652070727A657A204BB4
:1027F000616C69627261636A61202D3E2041737968
:102800007374656E742E004B616C69627261636AE9
:10281000612058595A20706F6D79736C6E612E204B
:10282000536B6F73206265647A6965206175746F9C
:102830006D617479637A6E6965206B6F7279676F09
:1028400077616E792E004B616C69627261636A61B7
:102850002058595A207072617769646C6F77612EC5
:10286000204F73696520582F59206C656B6B6F2062
:10287000736B6F736E652E20446F62726120726F8E
:10288000626F746121004B6F72656B636A612D58D2
:102890003A004B616C69627261636A612058595AEF
:1028A000206F6B2E204F73696520582F592073615C
:1028B0002070726F73746F7061646C652E20477244
:1028C0006174756C61636A6521004B616C69627249
:1028D0002E2058595A206E6965646F6B6C61646E66
:1028E000612E2050727A65646E69652070756E6B1A
:1028F0007479206B616C6962722E206E69656F73EA
:10290000696167616C6E652E004B616C6962726112
:10291000636A612058595A206E6965646F6B6C61F7
:10292000646E612E2050726177792070727A6564CE
:102930006E692070756E6B74206E69656F73696166
:1029400067616C6E792E005A616C61642E2077731A
:102950007A7973746B6965004B616C69627261634B
:102960006A612058595A206E69657564616E612EDE
:10297000204E6965207A6E616C657A696F6E6F2092
:1029800070756E6B746F77206B616C6962726163D6
:10299000796A6E7963682E004B616C6962722E20D1
:1029A00058595A206E69657564616E612E205072A7
:1029B0007A65646E69652070756E6B7479206B61E1
:1029C0006C6962722E206E69656F73696167616CF4
:1029D0006E652E204E616C657A7920706F70726121
:1029E000776963206D6F6E74617A206472756B61B4
:1029F000726B692E004B616C6962722E2058595AB5
:102A0000206E69657564616E612E20507261777900
:102A10002070727A65646E692070756E6B74206EBA
:102A200069656F73696167616C6E792E204E616CA8
:102A3000657A7920706F707261776963206D6F6E4F
:102A400074617A206472756B61726B692E004479CF
:102A50007374616E73206F6420302077206F736908
:102A6000205900004B6F72656B636A612D593A0003
:102A7000205B77796C5D0057737465637A005465E9
:102A80007374790046616C737A79777920616C612F
:102A9000726D00004669726D776172652020205B5F
:102AA0006272616B5D004669726D77617265205B71
:102AB00072657374722E5D004669726D776172651E
:102AC0005B6F7374727A657A5D00557374617769B0
:102AD000656E696120485700004B6F722E206D6152
:102AE000676E65736F775B4E2F445D004B6F722E80
:102AF000206D61676E65736F775B77796C5D004BF6
:102B00006F722E206D61676E65736F77205B776CD7
:102B10005D00536961746B61202020202020205BC0
:102B20003378335D00536961746B6120202020206D
:102B300020205B3778375D00506F7A696F6D6F7753
:102B4000616E69652073746F6C750057796B72796B
:102B5000746F206669726D77617265204D4B3353D7
:102B60002077206472756B61726365204D4B330072
:102B700054727962204D4D555B4E6F726D616C6E73
:102B80005D0054727962204D4D555B537465616CE4
:102B900074685D0054727761207A6D69616E61209E
:102BA00074727962752E2E2E004D6F64656C202034
:102BB000202020205B6272616B5D004D6F64656C4C
:102BC000205B7265737472796B632E5D004D6F6468
:102BD000656C20205B6F7374727A657A2E5D00538A
:102BE000722E206479737A7920205B302C32355D27
:102BF0000053722E206479737A7920205B302C3454
:102C0000305D0053722E206479737A7920205B3016
:102C10002C36305D004479737A61202020202020FA
:102C20005B6272616B5D004479737A61205B7265EF
:102C3000737472796B632E5D004479737A6120201E
:102C40005B6F7374727A657A2E5D0000472D636F37
:102C5000646520706F6369657479206E6120696EA8
:102C60006E796D20706F7A696F6D69652E20506F77
:102C7000746E696A206D6F64656C20706F6E6F771B
:102C80006E69652E204472756B20616E756C6F776E
:102C9000616E792E00472D636F646520706F6369E4
:102CA00065747920646C6120696E6E656A20647257
:102CB000756B61726B692E204B6F6E74796E756FD8
:102CC0007761633F00472D636F646520706F6369B0
:102CD00065747920646C61206472756B61726B69D4
:102CE00020696E6E65676F20747970752E20506F45
:102CF000746E696A206D6F64656C20706F6E6F779B
:102D00006E69652E204472756B20616E756C6F77ED
:102D1000616E792E00472D636F646520706F636963
:102D200065747920646C61206E6F77737A65676F64
:102D3000206669726D776172652E204B6F6E7479B3
:102D40006E756F7761633F00472D636F6465207018
:102D50006F636965747920646C61206E6F77737A34
:102D600065676F206669726D776172652E205A61A2
:102D70006B7475616C697A756A206669726D7761CA
:102D800072652E204472756B20616E756C6F776171
:102D90006E792E00004E6167727A6577616E6965A3
:102DA00020646F206F62636965636961004E6167CB
:102DB000727A6577616E696520646F2077797375C3
:102DC0006E696563696100537265646E6963612051
:102DD0006479737A79206472756B61726B692072A1
:102DE0006F7A6E6920736965206F642074656A204C
:102DF0007720472D636F64652E204B6F6E74796E5C
:102E0000756F7761633F00537265646E696361201B
:102E10006479737A7920726F7A6E6920736965209C
:102E20006F642074656A207720472D636F64652E78
:102E3000205370726177647A207573746177696565
:102E40006E69612E204472756B20616E756C6F77B0
:102E5000616E792E005A6D69656E206E617A7765B4
:102E6000005779626965727A00496E666F206F203B
:102E700073656E736F7261636800506C7974610082
:102E8000447A7769656B2020205B61737973742EB7
:102E90005D00506C797479207374616C6F77650094
:102EA0004B6F72656B636A612D5A3A00496C6F73A0
:102EB0006320506F6D6961726F77205B315D0049EF
:102EC0006C6F736320506F6D6961726F77205B3335
:102ED0005D00496C6F736320506F6D6961726F772D
:102EE000205B355D0072736368696C742076616E77
:102EF00020646520472D636F64652E20436F6E74D8
:102F0000726F6C65657220646520776161726465BB
:102F100020696E20646520696E7374656C6C696EDF
:102F200067656E2E2041666472756B6B656E2067F7
:102F300065616E6E756C656572642E004865726EB3
:102F40006F656D0053656C656374656572005365EC
:102F50006E736F7220696E666F00506C61617400F1
:102F600047656C7569642020205B617373697374B5
:102F70005D00537461616C706C6174656E005A2DF4
:102F8000636F727265637469653A005A2D70726F6F
:102F90006265206E722E202020205B315D005A2D4C
:102FA00070726F6265206E722E202020205B335D70
:102FB000005A2D70726F6265206E722E20202020C4
:102FC0005B355D006465206C27696D7072696D61A9
:102FD0006E74652E20566575696C6C657A20646523
:102FE000636F75706572206C65206D6F64656C65CC
:102FF0002061206E6F75766561752E204C27696D96
:103000007072657373696F6E2061206574652061ED
:103010006E6E756C65652E004C6520472D636F6480
:10302000652061206574652070726570617265202D
:10303000706F757220756E652076657273696F6E3C
:1030400020706C757320726563656E74652064759D
:10305000206669726D776172652E20436F6E7469A8
:103060006E7565723F004C6520472D636F64652067
:103070006120657465207072657061726520706F83
:10308000757220756E652076657273696F6E20703B
:103090006C757320726563656E7465206475206657
:1030A00069726D776172652E20566575696C6C6505
:1030B0007A206D65747472652061206A6F75722064
:1030C0006C65206669726D776172652E204C276988
:1030D0006D7072657373696F6E20616E6E756C656D
:1030E000652E0050494E44413A004368617566665A
:1030F0006520706F757220636F757065720043682C
:103100006175662E20706F75722072656D6F6E74BA
:103110006572004469616D65747265206465206C38
:103120006120627573652064616E73206C65732025
:103130007265676C61676573206E6520636F72727C
:103140006573706F6E642070617320612063656CBD
:1031500075692064616E73206C6520472D436F6430
:10316000652E20436F6E74696E7565723F00446909
:10317000616D65747265206465206C612062757391
:10318000652064616E73206C6573207265676C6185
:10319000676573206E6520636F72726573706F6E02
:1031A000642070617320612063656C7569206461BF
:1031B0006E73206C6520472D436F64652E204D652E
:1031C000726369206465207665726966696572203C
:1031D0006C6520706172616D657472652064616EEA
:1031E00073206C6573207265676C616765732E2050
:1031F000496D7072657373696F6E20616E6E756C68
:1032000065652E0052656E6F6D6D65720053656C5D
:10321000656374696F6E6E657200496E666F2063D8
:1032200061707465757200506C6171756500536FE3
:103230006E2020202020205B6173736973745D0011
:10324000506C617175657320656E2061636965728C
:1032500000436F72726563742D5A3A004D65737541
:1032600072657220782D666F6973205B315D004D49
:1032700065737572657220782D666F6973205B3394
:103280005D004D65737572657220782D666F697388
:10329000205B355D002020205B335D005A2D50728D
:1032A0006F6265204E722E202020205B355D00006D
:1032B000000000000000000000000000000000000E
:1032C00000000000000000000000000000000000FE
:1032D00000000000000000000000000000000000EE
:1032E00000000000000000000000000000000000DE
:1035300000000000000000006501472D636F646516
:1035400020736C6963656420666F72206120646912
:1035500066666572656E74206C6576656C2E2043B8
:103560006F6E74696E75653F006601472D636F6409
:103570006520736C6963656420666F7220612064E6
:103580006966666572656E74206C6576656C2E2062
:10359000506C656173652072652D736C696365207D
:1035A000746865206D6F64656C20616761696E2E5B
:1035B000205072696E742063616E63656C6C656423
:1035C0002E006A01472D636F646520736C69636523
:1035D0006420666F722061206E657765722066696F
:1035E000726D776172652E20506C65617365207510
:1035F000706461746520746865206669726D7761B6
:1036000072652E205072696E742063616E63656C02
:103610006C65642E006901472D636F646520736CCF
:103620006963656420666F722061206E65776572DC
:10363000206669726D776172652E20436F6E7469C2
:103640006E75653F006801472D636F646520736C7C
:103650006963656420666F722061206469666665CF
:1036600072656E74207072696E7465722074797000
:10367000652E20506C656173652072652D736C69D1
:10368000636520746865206D6F64656C2061676197
:10369000696E2E205072696E742063616E63656C72
:1036A0006C65642E006701472D636F646520736C41
:1036B0006963656420666F7220612064696666656F
:1036C00072656E74207072696E74657220747970A0
:1036D000652E20436F6E74696E75653F0067014704
:1036E0002D636F646520736C6963656420666F7217
:1036F000206120646966666572656E742070726907
:103700006E74657220747970652E20436F6E7469D3
:103710006E75653F006801472D636F646520736CAB
:103720006963656420666F722061206469666665FE
:1037300072656E74207072696E746572207479702F
:10374000652E20506C656173652072652D736C6900
:10375000636520746865206D6F64656C20616761C6
:10376000696E2E205072696E742063616E63656CA1
:103770006C65642E00C4005072657373206B6E6FAD
:103780006220746F2070726568656174206E6F7A54
:103790007A6C6520616E6420636F6E74696E756506
:1037A0002E00B800506C656173652070726573738C
:1037B00020746865206B6E6F6220746F20756E6C6C
:1037C0006F61642066696C616D656E7400E700521C
:1037D000656D6F7665206F6C642066696C616D65E0
:1037E0006E7420616E6420707265737320746865F6
:1037F000206B6E6F6220746F207374617274206C22
:103800006F6164696E67206E65772066696C616DB3
:10381000656E742E000B00616E64207072657373A8
:1038200020746865206B6E6F62007700496E736567
:1038300072742066696C616D656E74002900436F57
:103840006C6F72206E6F7420636F727265637400A8
:10385000520046696C616D656E74206E6F74206CE9
:103860006F616465640069004368616E6765642028
:10387000636F72726563746C793F0083004C6F6193
:1038800064696E6720636F6C6F72006800436861E3
:103890006E676520737563636573732100B60050AE
:1038A0006C65617365206F70656E2069646C65720C
:1038B00020616E642072656D6F76652066696C614B
:1038C0006D656E74206D616E75616C6C792E00345F
:1038D000015761732066696C616D656E7420756E49
:1038E0006C6F6164207375636365737366756C3F99
:1038F00000C300506C656173652075706772616408
:10390000652E00A4004E6577206669726D7761723E
:10391000652076657273696F6E20617661696C618E
:10392000626C653A002F0157616974696E672066A1
:103930006F722050494E44412070726F626520635F
:103940006F6F6C696E6700710043686F6F736520FD
:1039500065787472756465723A00430045787472D4
:103960007564657200720043686F6F7365206669E5
:103970006C616D656E743A009F004E6F206D6F76BE
:10398000652E002D015761697420666F7220757372
:1039900065722E2E2E000A01536F6D652070726FB6
:1039A000626C656D20656E636F756E7465726564BB
:1039B0002C205A2D6C6576656C696E6720656E6685
:1039C0006F72636564202E2E2E000F0153746162A6
:1039D0006C6520616D6269656E742074656D7065DB
:1039E0007261747572652032312D323643206973ED
:1039F000206E656564656420612072696769642072
:103A00007374616E64206973207265717569726583
:103A1000642E00BC00506C656173652072756E2069
:103A200058595A2063616C6962726174696F6E20C3
:103A300066697273742E001F01546865726520698F
:103A400073207374696C6C2061206E6565642074EA
:103A50006F206D616B65205A2063616C69627261D1
:103A600074696F6E2E20506C6561736520666F6C93
:103A70006C6F7720746865206D616E75616C2C20A9
:103A80006368617074657220466972737420737420
:103A90006570732C2073656374696F6E2043616C6D
:103AA0006962726174696F6E20666C6F772E00CEEA
:103AB000005072696E74657220686173206E6F7455
:103AC000206265656E2063616C6962726174656411
:103AD000207965742E20506C6561736520666F6C6B
:103AE0006C6F7720746865206D616E75616C2C2039
:103AF00063686170746572204669727374207374B0
:103B00006570732C2073656374696F6E2043616CFC
:103B10006962726174696F6E20666C6F772E00A99E
:103B2000004F6C642073657474696E677320666FF0
:103B3000756E642E2044656661756C74205049442E
:103B40002C20457374657073206574632E2077692B
:103B50006C6C206265207365742E003101576172B0
:103B60006E696E673A20626F7468207072696E7455
:103B70006572207479706520616E64206D6F746861
:103B80006572626F61726420747970652063686128
:103B90006E6765642E0033015761726E696E673A15
:103BA000207072696E746572207479706520636824
:103BB000616E6765642E0032015761726E696E67CF
:103BC0003A206D6F74686572626F617264207479F7
:103BD0007065206368616E6765642E003B0158590B
:103BE0005A2063616C6962726174696F6E20616CE6
:103BF0006C2072696768742E20536B657720776933
:103C00006C6C20626520636F7272656374656420FA
:103C10006175746F6D61746963616C6C792E003CC1
:103C20000158595A2063616C6962726174696F6EE0
:103C300020616C6C2072696768742E20582F59209F
:103C4000617865732061726520736C696768746C54
:103C50007920736B657765642E20476F6F64206AE7
:103C60006F6221003E0158595A2063616C6962728B
:103C70006174696F6E206F6B2E20582F5920617808
:103C80006573206172652070657270656E6469632A
:103C9000756C61722E20436F6E67726174756C6112
:103CA00074696F6E732100400158595A2063616C2A
:103CB0006962726174696F6E20636F6D70726F6D8F
:103CC000697365642E2052696768742066726F6E2E
:103CD000742063616C6962726174696F6E20706FC9
:103CE000696E74206E6F7420726561636861626CC6
:103CF000652E003F0158595A2063616C69627261F8
:103D000074696F6E20636F6D70726F6D6973656437
:103D10002E2046726F6E742063616C6962726174EA
:103D2000696F6E20706F696E7473206E6F7420728D
:103D30006561636861626C652E00440158595A20C0
:103D400063616C6962726174696F6E206661696C2F
:103D500065642E2052696768742066726F6E7420E5
:103D600063616C6962726174696F6E20706F696EF5
:103D700074206E6F7420726561636861626C652E79
:103D800000430158595A2063616C69627261746919
:103D90006F6E206661696C65642E2046726F6E746A
:103DA0002063616C6962726174696F6E20706F6903
:103DB0006E7473206E6F7420726561636861626CEB
:103DC000652E00380158595A2063616C696272612E
:103DD00074696F6E206661696C65642E20506C6535
:103DE00061736520636F6E73756C742074686520F1
:103DF0006D616E75616C2E00420158595A206361E5
:103E00006C6962726174696F6E206661696C656469
:103E10002E204265642063616C6962726174696F0F
:103E20006E20706F696E7420776173206E6F7420DE
:103E3000666F756E642E00B700506C656173652007
:103E4000706C61636520737465656C20736865656B
:103E500074206F6E20686561746265642E003600A0
:103E600044697374616E6365206265747765656E1D
:103E700020746970206F6620746865206E6F7A7A8E
:103E80006C6520616E6420746865206265642073CF
:103E900075726661636520686173206E6F7420625D
:103EA00065656E20736574207965742E20506C658D
:103EB00061736520666F6C6C6F7720746865206D28
:103EC000616E75616C2C2063686170746572204648
:103ED000697273742073746570732C2073656374D6
:103EE000696F6E204669727374206C617965722007
:103EF00063616C6962726174696F6E2E00B100500B
:103F00006C6163652061207368656574206F66204D
:103F1000706170657220756E6465722074686520CA
:103F20006E6F7A7A6C6520647572696E672074684A
:103F3000652063616C6962726174696F6E206F667F
:103F4000206669727374203420706F696E74732EEA
:103F500020496620746865206E6F7A7A6C652063EC
:103F60006174636865732074686520706170657240
:103F70002C20706F776572206F66662074686520EC
:103F80007072696E74657220696D6D6564696174C3
:103F9000656C792E00BB00506C656173652072659D
:103FA0006D6F766520737465656C207368656574E4
:103FB0002066726F6D20686561746265642E007999
:103FC00000497320737465656C207368656574209F
:103FD0006F6E20686561746265643F000100206F48
:103FE00066203400F400536561726368696E67206F
:103FF0006265642063616C6962726174696F6E20CE
:10400000706F696E74000200206F662039008900AD
:104010004D6561737572696E67207265666572655C
:104020006E636520686569676874206F66206361E8
:104030006C6962726174696F6E20706F696E740072
:10404000B300506C6561736520636C65616E2074AC
:104050006865206E6F7A7A6C6520666F7220636186
:104060006C6962726174696F6E2E20436C69636B58
:10407000207768656E20646F6E652E0010004175B4
:10408000746F20686F6D65001A00426564206C656E
:1040900076656C696E67206661696C65642E205375
:1040A000656E736F72206469646E742074726967E0
:1040B0006765722E20446562726973206F6E206E90
:1040C0006F7A7A6C653F2057616974696E67206604
:1040D0006F722072657365742E00BD00506C65614F
:1040E000736520757064617465206669726D7761AF
:1040F000726520696E20796F7572204D4D55322E94
:104100002057616974696E6720666F7220726573EB
:1041100065742E0091004D4D55204F4B2E20526559
:1041200073756D696E672E2E2E008B004D4D5520D8
:104130004F4B2E20526573756D696E6720706F73DB
:104140006974696F6E2E2E2E008C004D4D55204FD8
:104150004B2E20526573756D696E672074656D70A6
:10416000657261747572652E2E2E005A004669784C
:104170002074686520697373756520616E642074AE
:1041800068656E20707265737320627574746F6EEB
:10419000206F6E204D4D5520756E69742E00CD0038
:1041A000507265737320746865206B6E6F62207443
:1041B0006F20726573756D65206E6F7A7A6C6520FD
:1041C00074656D70657261747572652E0094004D32
:1041D0004D55206E6565647320757365722061743A
:1041E00074656E74696F6E2E00120153544F5050F7
:1041F00045442E2000A1004E2F4100FFFF2020301B
:1042000000FFFF20203100510149523A004C014685
:10421000494E44413A006B0150494E44413A000036
:104220000153656E736F722073746174650043008F
:104230004578747275646572009E004D6F766520D6
:104240005A009D004D6F76652059009C004D6F7699
:104250006520580012004175746F6C6F6164696E5F
:10426000672066696C616D656E7420617661696C4A
:1042700061626C65206F6E6C79207768656E206670
:10428000696C616D656E742073656E736F72206901
:1042900073207475726E6564206F6E2E2E2E003F33
:1042A000004552524F523A2046696C616D656E74FA
:1042B0002073656E736F72206973206E6F74207245
:1042C0006573706F6E64696E672C20706C656173C6
:1042D0006520636865636B20636F6E6E65637469E8
:1042E0006F6E2E002B00436F70792073656C6563D1
:1042F000746564206C616E67756167653F002100BD
:1043000043616C696272617465004B0146616C7354
:10431000652074726967676572696E67001401537E
:10432000776170706564005F0046726F6E742F6C09
:104330006566742066616E730015004178697300CC
:10434000140041786973206C656E6774680085009D
:104350004C6F6F73652070756C6C6579003B004520
:104360006E6473746F70206E6F7420686974003CA3
:1043700000456E6473746F70009A004D6F746F72B5
:10438000003D00456E6473746F70730035015769AA
:1043900072696E67206572726F7200160042656402
:1043A000202F2048656174657200A3004E6F742051
:1043B000636F6E6E65637465640060004865617468
:1043C00065722F546865726D6973746F7200B40002
:1043D000506C6561736520636865636B203A00F912
:1043E0000053656C6674657374206572726F722019
:1043F0002100530046696C616D656E742073656EB3
:10440000736F7200C9005072696E742066616E3AF3
:1044100000410045787472756465722066616E3A79
:10442000001E0043616C6962726174696E67206886
:104430006F6D6500FA0053656C6674657374206671
:1044400061696C65642020000800416C6C20636F1A
:104450007272656374202020202020006D00436864
:1044600065636B696E672073656E736F727320008E
:104470006C00436865636B696E6720686F74656E76
:10448000642020006A00436865636B696E67206280
:1044900065642020202020007000436865636B69FC
:1044A0006E67205A20617869732020006F0043688E
:1044B00065636B696E6720592061786973202000FD
:1044C0006E00436865636B696E6720582061786988
:1044D000732020006B00436865636B696E6720651D
:1044E0006E6473746F7073003E004572726F722059
:1044F0002D20737461746963206D656D6F7279200E
:10450000686173206265656E206F76657277726987
:104510007474656E002800436172642072656D6F6B
:10452000766564007A004C617374207072696E74F1
:10453000206661696C7572657300500046696C6134
:104540006D2E2072756E6F757473002401546F7434
:10455000616C206661696C75726573005000466914
:104560006C616D2E2072756E6F75747300FFFF5055
:10457000494E4441001E0154656D70657261747549
:1045800072657300720153656E736F7220696E6697
:104590006F004200457874727564657220696E66BA
:1045A0006F00370158595A2063616C2E206465747E
:1045B00061696C73002C01756E6B6E6F776E00997C
:1045C000004D4D553220636F6E6E656374656400F7
:1045D0003400446174653A006600686F77746F2E2A
:1045E000707275736133642E636F6D005C00666F6B
:1045F00072756D2E707275736133642E636F6D000A
:10460000FFFF5A617269626F2E636F6D002601743D
:104610006F20756E6C6F61642066696C616D656E8C
:1046200074002501746F206C6F61642066696C6191
:104630006D656E7400CB005072657373207468658D
:10464000206B6E6F620006003E43616E63656C0016
:104650006C0150726568656174696E6720746F20C3
:10466000637574006D0150726568656174696E6789
:1046700020746F20656A65637400C80050726568B5
:10468000656174696E6720746F20756E6C6F61640C
:1046900000C70050726568656174696E6720746F49
:1046A000206C6F6164002A00436F6F6C646F776EDB
:1046B00000C0005072656865617420746865206E82
:1046C0006F7A7A6C65210040004552524F523A0091
:1046D000510046696C616D656E7420657874727501
:1046E00064696E672026207769746820636F727230
:1046F00065637420636F6C6F723F001300417574C3
:104700006F6C6F6164696E672066696C616D656E60
:1047100074206973206163746976652C206A7573EF
:104720007420707265737320746865206B6E6F629D
:1047300020616E6420696E736572742066696C61B5
:104740006D656E742E2E2E002001546F74616C20E6
:1047500066696C616D656E74002101546F74616CE3
:10476000207072696E742074696D6500540046692A
:104770006C616D656E7420757365640055005072D0
:10478000696E742074696D65004501592064697310
:1047900074616E63652066726F6D206D696E007E58
:1047A000004C65667400F300526967687400390153
:1047B00059657300A2004E6F00FFFF5A6172696273
:1047C0006F204D4B32352D323230000601536F725F
:1047D00074696E672066696C6573000101536F6DC3
:1047E000652066696C65732077696C6C206E6F74E8
:1047F00020626520736F727465642E204D61782E7F
:10480000204E6F2E206F662066696C657320696E7E
:10481000203120666F6C64657220666F7220736F42
:104820007274696E67206973203130302E008D00FC
:104830004D6561737572656420736B65770008015F
:10484000536C6967687420736B65773A0004015391
:10485000657665726520736B65773A0003005B309F
:104860003B305D20706F696E74206F66667365748F
:1048700000070041646A757374696E67205A3A00D4
:10488000EA00526573657400E50052656172207339
:10489000696465205B756D5D005E0046726F6E74C5
:1048A00020736964655B756D5D00ED005269676832
:1048B0007420736964655B756D5D007F004C65668F
:1048C000742073696465205B756D5D00FD00536540
:1048D000742074656D70657261747572653A000C50
:1048E00000417265206C65667420616E6420726997
:1048F000676874205A7E63617272696167657320AC
:10490000616C6C2075703F00220043616C696272BB
:104910006174696E672058595A2E20526F74617401
:104920006520746865206B6E6F6220746F206D6FF8
:10493000766520746865205A2063617272696167C8
:104940006520757020746F2074686520656E642022
:1049500073746F70706572732E20436C69636B2083
:104960007768656E20646F6E652E00240043616C6D
:104970006962726174696E67205A2E20526F746189
:10498000746520746865206B6E6F6220746F206D93
:104990006F766520746865205A2063617272696160
:1049A000676520757020746F2074686520656E647B
:1049B0002073746F70706572732E20436C69636B23
:1049C000207768656E20646F6E652E001B0154654C
:1049D0006D70657261747572652063616C69627275
:1049E0006174696F6E206661696C6564001C0154B6
:1049F000656D70657261747572652063616C696262
:104A0000726174696F6E2069732066696E6973687C
:104A1000656420616E64206163746976652E20543C
:104A2000656D702E2063616C6962726174696F6E6E
:104A30002063616E2062652064697361626C6564E5
:104A400020696E206D656E752053657474696E679C
:104A5000732D3E54656D702E2063616C2E00BA007C
:104A6000506C656173652072656D6F76652066694F
:104A70006C616D656E7420616E64207468656E2073
:104A8000707265737320746865206B6E6F622E00A0
:104A90003A00456A656374696E672066696C616D8A
:104AA000656E74008F004D4D55206C6F61642066FB
:104AB00061696C656420202020200087004D313121
:104AC00037204669727374206C6179657220636166
:104AD0006C2E00330043757272656E74002A0155A6
:104AE00073656420647572696E67207072696E7494
:104AF00000AE005049442063616C2E2066696E69E7
:104B00007368656400AD005049442063616C2E20D9
:104B10002020202020202020202000BE00506C6576
:104B2000617365207761697400CC005072696E749E
:104B30002070617573656400CF005072696E7420D7
:104B400046414E00AB004E6F7A7A6C652046414E6E
:104B5000002901546F74616C007C004C61737420F7
:104B60007072696E74007A004C617374207072699F
:104B70006E74206661696C75726573008E004D4DB0
:104B800055206661696C730090004D4D55206C6F27
:104B90006164206661696C73002401546F74616CF8
:104BA000206661696C75726573008E004D4D5520ED
:104BB0006661696C730090004D4D55206C6F6164A7
:104BC000206661696C730095004D4D5520706F77BC
:104BD0006572206661696C7300C6005072696E74FC
:104BE0002061626F7274656400110153746F7020EC
:104BF0007072696E7400560046696C6520696E6358
:104C00006F6D706C6574652E20436F6E74696E7580
:104C10006520616E797761793F00CA005072696ED4
:104C2000742066726F6D2053440049014261636BCA
:104C30000088004D61696E003900456A6563742023
:104C400066696C616D656E7400B900506C65617366
:104C5000652070756C6C206F75742066696C616D71
:104C6000656E7420696D6D6564696174656C790049
:104C70002801556E6C6F6164696E672066696C61AE
:104C80006D656E7400EC00526573756D696E67201A
:104C90007072696E7400EA00526573657400700189
:104CA00052656E616D650058004669727374206CC0
:104CB000617965722063616C2E00710153656C65CA
:104CC0006374007501537465656C20736865657461
:104CD0007300730153686565740013015375707038
:104CE0006F72740044004661696C20737461747360
:104CF000204D4D550048004661696C207374617405
:104D000073001001537461746973746963732020B4
:104D100000260043616C6962726174696F6E0011F4
:104D2000004175746F4C6F61642066696C616D65DC
:104D30006E74003900456A6563742066696C616D44
:104D4000656E74002701556E6C6F61642066696C36
:104D5000616D656E740086004C6F616420746F2015
:104D60006E6F7A7A6C650082004C6F6164206669B0
:104D70006C616D656E7400A0004E6F20534420631B
:104D800061726400EB00526573756D652070726925
:104D90006E7400AC005061757365207072696E743A
:104DA00000EB00526573756D65207072696E74005A
:104DB000C1005072656865617400220154756E65AA
:104DC0000081004C6976652061646A757374205AAD
:104DD000007600496E666F2073637265656E006FC2
:104DE000015072696E746572206E6F7A7A6C6520FC
:104DF0006469616D65746572206469666665727365
:104E00002066726F6D2074686520472D636F64653E
:104E10002E20506C6561736520636865636B207438
:104E200068652076616C756520696E2073657474A1
:104E3000696E67732E205072696E742063616E63B1
:104E4000656C6C65642E006E015072696E746572DB
:104E5000206E6F7A7A6C65206469616D6574657225
:104E600020646966666572732066726F6D2074686F
:104E70006520472D636F64652E20436F6E74696EE5
:104E800075653F004A01436865636B730060014EBE
:104E90006F7A7A6C6520642E20205B302E34305D72
:104EA0000061014E6F7A7A6C6520642E20205B30A1
:104EB0002E36305D0060014E6F7A7A6C6520642E6C
:104EC00020205B302E34305D005F014E6F7A7A6CAB
:104ED0006520642E20205B302E32355D0075015335
:104EE0007465656C20736865657473000701536FA2
:104EF000756E642020202020205B6C6F75645D003F
:104F00007401536F756E64202020205B6173736998
:104F100073745D000C01536F756E64202020205B5C
:104F200073696C656E745D000B01536F756E642060
:104F300020202020205B6F6E63655D000701536FAA
:104F4000756E642020202020205B6C6F75645D00EE
:104F50000201536F7274202020202020205B6E6F8E
:104F60006E655D000501536F72742020205B616CDB
:104F70007068616265745D000301536F7274202074
:104F800020202020205B74696D655D00F100534492
:104F9000206361726420205B6E6F726D616C5D00D6
:104FA000F20053442063617264205B666C73684155
:104FB00069725D00F50053656C656374206C616E09
:104FC000677561676500170154656D702E20636118
:104FD0006C2E2020205B6F6E5D00190154656D7092
:104FE0002E2063616C2E20205B6F66665D0057018A
:104FF0004D65736820626564206C6576656C696ECA
:10500000670050014857205365747570004C004686
:10501000616E7320636865636B20205B6F66665DFD
:10502000004B0046616E7320636865636B2020202F
:105030005B6F6E5D004700462E206175746F6C6F6C
:105040006164205B6F66665D004500462E206175D9
:10505000746F6C6F616420205B6F6E5D004600466C
:105060002E206175746F6C6F6164205B4E2F415D03
:10507000004E0046696C2E2073656E736F72205B64
:105080004E2F415D00350044697361626C65207389
:1050900074657070657273009B004D6F766520615A
:1050A000786973001D0154656D7065726174757265
:1050B00065001A0154656D702E2063616C6962721F
:1050C0006174696F6E00E900526573657420585908
:1050D0005A2063616C6962722E00FF0053686F771B
:1050E00020656E642073746F707300AF0050494484
:1050F0002063616C6962726174696F6E00190042AD
:105100006564206C6576656C20636F72726563748C
:10511000008A004D65736820426564204C657665A1
:105120006C696E6700200043616C6962726174652E
:10513000205A001F0043616C6962726174652058D7
:10514000595A00F80053656C66746573742020200A
:1051500020202020202000360157697A61726400E7
:1051600041014C6F616420616C6C0000005B252E76
:1051700037735D4C6976652061646A2E205A0A7621
:10518000616C7565207365742C20636F6E74696E35
:1051900075650A6F722073746172742066726F6D28
:1051A000207A65726F3F0A2563436F6E74696E756E
:1051B000652563526573657400E300506C65617327
:1051C00065206C6F61642066696C616D656E74202A
:1051D00066697273742E00780049732066696C6189
:1051E0006D656E74206C6F616465643F00150153DA
:1051F000656C6563742066696C616D656E743A00F8
:10520000730046696C616D656E7400270043616EC2
:1052100063656C00F00052756E6E696E67205769A9
:105220007A6172642077696C6C2064656C65746562
:105230002063757272656E742063616C696272615D
:1052400074696F6E20726573756C747320616E641F
:105250002073746172742066726F6D2074686520AB
:10526000626567696E6E696E672E20436F6E746942
:105270006E75653F00C20050726568656174696E45
:1052800067206E6F7A7A6C652E20506C656173654D
:1052900020776169742E0084004C6F6164696E67C9
:1052A0002066696C616D656E7400E100506C65612B
:1052B000736520696E736572742066696C616D65D3
:1052C0006E7420696E746F207468652065787472DE
:1052D000756465722C207468656E207072657373D6
:1052E00020746865206B6E6F6220746F206C6F6134
:1052F000642069742E00E200506C6561736520695A
:105300006E736572742066696C616D656E74206978
:105310006E746F207468652066697273742074758A
:105320006265206F6620746865204D4D552C207491
:1053300068656E20707265737320746865206B6E8B
:105340006F6220746F206C6F61642069742E004658
:1053500001546865207072696E7465722077696C9B
:105360006C207374617274207072696E74696E67F8
:105370002061207A69672D7A6167206C696E652EDD
:1053800020526F7461746520746865206B6E6F6263
:1053900020756E74696C20796F7520726561636821
:1053A00020746865206F7074696D616C2068656930
:1053B0006768742E20436865636B2074686520708D
:1053C0006963747572657320696E207468652068FE
:1053D000616E64626F6F6B202843616C69627261F9
:1053E00074696F6E2063686170746572292E00188D
:1053F0000153656C6563742074656D7065726174CA
:10540000757265207768696368206D61746368658B
:105410007320796F7572206D6174657269616C2E8D
:10542000002D0043686F6F736520612066696C61B1
:105430006D656E7420666F722074686520466972AF
:105440007374204C617965722043616C696272618A
:1054500074696F6E20616E642073656C656374207F
:10546000697420696E20746865206F6E2D73637295
:1054700065656E206D656E752E00A6004E6F7720F7
:10548000492077696C6C2063616C69627261746534
:105490002064697374616E63652062657477656505
:1054A0006E20746970206F6620746865206E6F7A54
:1054B0007A6C6520616E6420686561746265642041
:1054C000737572666163652E003A01596F752063CA
:1054D000616E20616C7761797320726573756D659B
:1054E000207468652057697A6172642066726F6DF6
:1054F0002043616C6962726174696F6E202D3E2079
:1055000057697A6172642E00B500506C65617365ED
:1055100020636865636B206F75722068616E6462DA
:105520006F6F6B20616E64206669782074686520F7
:1055300070726F626C656D2E205468656E207265A6
:1055400073756D65207468652057697A617264208F
:105550006279207265626F6F74696E672074686526
:10556000207072696E7465722E000900416C6C20A7
:10557000697320646F6E652E2048617070792070A9
:1055800072696E74696E6721007B00496620796FCD
:10559000752068617665206164646974696F6E6105
:1055A0006C20737465656C207368656574732C205A
:1055B00063616C69627261746520746865697220E8
:1055C0007072657365747320696E205365747469B5
:1055D0006E6773202D204857205365747570202DF9
:1055E00020537465656C207368656574732E00B212
:1055F00000506C6561736520636C65616E20686541
:10560000617462656420616E64207468656E2070E8
:105610007265737320746865206B6E6F622E00373D
:1056200000446F20796F752077616E7420746F204D
:10563000726570656174206C617374207374657039
:1056400020746F20726561646A7573742064697375
:1056500074616E6365206265747765656E206E6F38
:105660007A7A6C6520616E64206865617462656435
:105670003F00FC0053656C656374206E6F7A7A6C32
:105680006520707265686561742074656D706572FF
:105690006174757265207768696368206D617463F1
:1056A00068657320796F7572206D617465726961C8
:1056B0006C2E00780049732066696C616D656E74AC
:1056C000206C6F616465643F0078004973206669EF
:1056D0006C616D656E74206C6F616465643F00A7DA
:1056E000004E6F7720492077696C6C207072656876
:1056F000656174206E6F7A7A6C6520666F722050D7
:105700004C412E007500492077696C6C2072756ED3
:10571000207A2063616C6962726174696F6E206EB9
:105720006F772E00AA004E6F772072656D6F7665D9
:10573000207468652074657374207072696E7420BB
:1057400066726F6D20737465656C2073686565742F
:105750002E00BF00506C656173652072656D6F76B9
:1057600065207368697070696E672068656C706524
:1057700072732066697273742E0074004920776911
:105780006C6C2072756E2078797A2063616C696226
:10579000726174696F6E206E6F772E204974207766
:1057A000696C6C2074616B6520617070726F782E0B
:1057B000203132206D696E732E0059004669727374
:1057C000742C20492077696C6C2072756E20746887
:1057D000652073656C667465737420746F206368EC
:1057E00065636B206D6F737420636F6D6D6F6E20DA
:1057F000617373656D626C792070726F626C656D38
:10580000732E00650048692C204920616D20796F56
:105810007572205A617269626F207072696E746568
:10582000722E20576F756C6420796F75206C696BD0
:1058300065206D6520746F20677569646520796FD8
:1058400075207468726F7567682074686520736569
:105850007475702070726F636573733F000E005330
:10586000706F6F6C4A6F696E2020205B4E2F415D18
:10587000000F0053706F6F6C4A6F696E2020205BC1
:105880006F66665D000D0053706F6F6C4A6F696ED6
:10589000202020205B6F6E5D004D014669726D77A0
:1058A0006172652020205B6E6F6E655D004E014663
:1058B00069726D77617265205B7374726963745D80
:1058C000004F014669726D776172652020205B7719
:1058D00061726E5D004D014669726D77617265207F
:1058E00020205B6E6F6E655D005C014D6F64656CC2
:1058F0002020202020205B6E6F6E655D005D014DD5
:105900006F64656C202020205B7374726963745D22
:10591000005E014D6F64656C2020202020205B77A5
:1059200061726E5D005C014D6F64656C202020200B
:1059300020205B6E6F6E655D0062014E6F7A7A6C3F
:105940006520202020205B6E6F6E655D0063014E38
:105950006F7A7A6C652020205B7374726963745D62
:105960000064014E6F7A7A6C6520202020205B77DE
:1059700061726E5D0062014E6F7A7A6C6520202044
:1059800020205B6E6F6E655D0050014857205365A7
:10599000747570005001485720536574757000B0DD
:1059A0000050494E44412048656174696E67001695
:1059B0000154656D702E2063616C2E202020202004
:1059C000202020202000250043616C6962726174F0
:1059D000696F6E20646F6E6500230043616C6962BD
:1059E000726174696E67205A001700426564206412
:1059F0006F6E650018004265642048656174696EC9
:105A00006700620048656174696E6720646F6E6547
:105A10002E00630048656174696E67006100486527
:105A20006174696E672064697361626C6564206289
:105A300079207361666574792074696D65722E00D2
:105A40002E0157616974696E6720666F72206E6FF0
:105A50007A7A6C6520616E642062656420636F6F82
:105A60006C696E6700F60053656C6620746573742C
:105A7000204F4B00F70053656C66207465737420EB
:105A80007374617274202000570046696E697368F0
:105A9000696E67206D6F76656D656E7473000701C2
:105AA000536F756E642020202020205B6C6F75641E
:105AB0005D007401536F756E64202020205B61735C
:105AC000736973745D000C01536F756E6420202040
:105AD000205B73696C656E745D000B01536F756EAE
:105AE000642020202020205B6F6E63655D0007012D
:105AF000536F756E642020202020205B6C6F7564CE
:105B00005D0097004D6F6465205B6175746F207058
:105B10006F7765725D0093004D6F646520202020D3
:105B2000205B73696C656E745D0098004D6F6465F1
:105B3000205B6869676820706F7765725D004C0054
:105B400046616E7320636865636B20205B6F6666D9
:105B50005D004B0046616E7320636865636B2020B7
:105B6000205B6F6E5D004D0046696C2E2073656E84
:105B7000736F7220205B6F6E5D004F0046696C2E64
:105B80002073656E736F72205B6F66665D006700E1
:105B90004368616E67652066696C616D656E74004F
:105BA0005B00466C6F77000D0153706565640052B1
:105BB000014D61676E65747320636F6D702E5B4E6F
:105BC0002F415D0053014D61676E65747320636FF3
:105BD0006D702E5B4F66665D0054014D61676E65AA
:105BE000747320636F6D702E205B4F6E5D007801C3
:105BF0005A2D70726F6265206E722E202020205BFD
:105C0000335D0079015A2D70726F6265206E722EBD
:105C1000202020205B355D0077015A2D70726F6265
:105C200065206E722E202020205B315D0056014DD4
:105C30006573682020202020202020205B377837C3
:105C40005D0055014D657368202020202020202014
:105C5000205B3378335D00490046616E20737065C8
:105C60006564001B0042656400A8004E6F7A7A6C80
:105C70006500FE0053657474696E677300A5004E7D
:105C80006F74207370696E6E696E67000E015370D9
:105C9000696E6E696E67007D004C65667420686F82
:105CA00074656E642066616E3F005D0046726F6EC3
:105CB00074207072696E742066616E3F004A0046FF
:105CC000616E207465737400256420627974657355
:105CD000207772697474656E20746F204545505248
:105CE0004F4D206174206164647265737320307855
:105CF00025303478004433202D20526561642F57BD
:105D00007269746520454550524F4D0A0020436F1B
:105D1000756E7420583A20005344207072696E7476
