:100000000C9468310C9499310C9499310C94993179
:100010000C9499310C9499310C9499310C94993138
:100020000C9499310C9499310C9483750C949931FA
:100030000C9499310C9499310C94619A0C94B79763
:100040000C9499310C9494B50C9499310C94993189
:100050000C9499310C9499310C9499310C948B74C3
:100060000C9499310C9479900C9499310C949931A9
:100070000C9499310C9499310C9499310C949931D8
:100080000C9499310C9499310C9499310C949931C8
:100090000C9435900C9499310C9499310C949931BD
:1000A0000C9499310C9499310C9499310C949931A8
:1000B0000C9499310C9499310C9499310C94993198
:1000C0000C9499310C9499310C9499310C949F9320
:1000D0000C9499310C9499310C9499310C94993178
:1000E0000C949931A774B174BF74CC74DE74E57448
:1000F000217503751975E6A8E8A8E6A8E8A8E6A89A
:10010000E8A8EAA8ECA847C750C7FEC6CDC69DC65A
:1001100044CA81C7A6C84DC9A1C9BDC9F4C9DA017D
:10012000CC01C601C8013E0264027C02B2028C010D
:1001300090027402D4015C016E015002040290012D
:10014000CA019E024A015A01A8018A01C201DC01CA
:100150006201CA01AC02B40228028A028002520281
:100160005A029801AA026801EE0106029A025E0193
:10017000A0028E01E401AA02B0028E0230020E0239
:100180005401BA01D6019E01A601880252019C02C7
:100190001E028802A001B8017002E0016802680234
:1001A0009201680292017802AC01BE0100027E0158
:1001B0005801C00194012A024C015001E801A2013A
:1001C0004402084AD73B3BCE016E84BCBFFDC12F21
:1001D0003D6C74319ABD56833DDA3D00C77F11BE38
:1001E000D9E4BB4C3E916BAAAABE000000803F053B
:1001F000A84CCDB2D44EB93836A9020C50B991866C
:1002000088083CA6AAAA2ABE000000803F076342D5
:1002100036B79BD8A71A39685618AEBAAB558C1D9D
:100220003CB7CC5763BD6DEDFD753EF6177231BF1F
:10023000000000803F08000000BE922449123EAB3F
:10024000AAAA2ABECDCCCC4C3E00000080BEABAAF0
:10025000AAAA3E00000000BF000000803F0000008E
:100260000000084178D3BB4387D1133D190E3CC32E
:10027000BD4282AD2B3E68EC8276BED98FE1A93EAD
:100280004C80EFFFBE01C4FF7F3F00000000000074
:100290000D94B50D0D942F1E0D9473590D94651B7F
:1002A0000D9463590D94754E0D94FC4D0D94E51805
:1002B0000D9415590D94351E0D94241E0D940C208B
:1002C0000D944F430D944B1E0D943F420D94975B3C
:1002D0000D94E81F0D9411530D94F34C0D94271EAB
:1002E0000D94370D0D94E64B0D947E3E0D94F00C5D
:1002F0000D94DB7D0D94E81C0D94FE3D0D9420596A
:100300000D94031F0D94FC350D94994B0D94FF1E15
:100310000D94DC4B0D943D1E0D947D030D94252012
:100320000D94201E0D948D540D94FF580D94EB1ECA
:100330000D94DE1F0D94F31E0D949C170D94254E05
:100340000D94894E0D949F580D9453430D94544E23
:100350000D94391E0D9473070D9493540D94FB1E48
:100360000D94D94F0D9447420D94EF1E0D945236C3
:100370000D94A64E0D940E4E0D94C80B0D94F3558E
:100380000D940A590D94431E0D94BF0D0D9427032F
:100390000D9439030D945E1E0D9421030D94475363
:1003A0000D945D0D0D944A440D94B0030D941B4EB5
:1003B0000D94691E0D9413030D94471E0D94755CE6
:1003C0000D94CC4E0D94541B0D942F200D94D654A7
:1003D0000D94CD580D94F71E0D94144B0D94F01FF1
:1003E0000D94F35B0D94AC630D94734B0D942F42FD
:1003F0000D94BF4B0D9444500D94CE520D94690C46
:100400000D9450590D9457420D941A1E0D94F81FD7
:100410000D94651E0D94B4170D94C83B0D94EB4DCF
:100420000D94AC4B0D94641C0D94A9170D94FD54C0
:100430000D94DD540D94AC3B0D94253D0D94834EED
:100440000D94E3400D94A70D0D941C7C0D94E40DC8
:100450000D94591E0D94F4580D94151C0D945F4283
:100460000D944D200D945C0E0D94610B0D945F5C0A
:100470000D940A510D9445070D94D24B0D945503DC
:100480000D941F0B0D945D1B0D9483580D94D43B5C
:100490000D94614F0D94AE0D0D944F420D94200EAE
:1004A0000D94161E0D94CA1F0D94D3520D947942CB
:1004B0000D94E9370D94D41F0D94FC0C0D94165037
:1004C0000D946E1E0D94D1400D945B030D94DD5080
:1004D0000D948A540D94025C0D94984D0D94154F13
:1004E0000D94BA4E0D94CF540D94A2030D94DA409E
:1004F0000D9490540D94140D0D9461030D94944338
:100500000D94C51F0D94FE5C0D94744A0D94C24F5A
:100510000D94D54D0D94C01F0D94C8400D944320EB
:100520000D948B030D94D3180D94E71E0D943B5B33
:100530000D9437420D9402200D94874E0D942B1E7E
:100540000D9416200D94D6360D9467420D945743A2
:100550000D945F1E0D9457200D94511E0D9425424D
:100560000D9439200D946F030D94551E0D94184A67
:100570006E616E00696E66004E414E494E49545997
:10058000494E46CDCCCC3D0AD7233C17B7D138775E
:10059000CC2B329595E6241FB14F0A000020410074
:1005A00000C84200401C4620BCBE4CCA1B0E5AAEBE
:1005B000C59D7400407A10F35A00A0724E180900CD
:1005C00010A5D4E80000E87648170000E40B5402B8
:1005D0000000CA9A3B000000E1F5050000809698F3
:1005E00000000040420F000000A086010000001043
:1005F0002700000000E80300000000640000000085
:10060000000A00000000000100000000002C76D865
:1006100088DC674F0823DFC1DFAE59E1B1B796E54B
:10062000E3E453C63AE651997696E8E6C28426EBAF
:10063000898C9B62ED407C6FFCEFBC9C9F40F2BAC2
:10064000A56FA5F490055A2AF75C936B6CF9676D5A
:10065000C11BFCE0E40D47FEF520E6B500D0ED90AF
:100660002E0300943577050080841E080000204E7C
:100670000A000000C80C333333330F986E12831115
:1006800041EF8D2114893BE65516CFFEE6DB18D1EC
:10069000844B381BF77C1D901DA4BBE424203284BE
:1006A000725E228100C9F124ECA1E53D27636469F3
:1006B0006E6F70737578585B00256420627974657D
:1006C00073207772697474656E20746F204545508D
:1006D000524F4D20617420616464726573732030E1
:1006E0007825303478004433202D20526561642F02
:1006F000577269746520454550524F4D0A0020439A
:100700006F756E7420583A20005344207072696EE1
:1007100074696E67206279746520004E6F74206979
:100720006E206661726D206D6F64652E004163748A
:100730006976652045787472756465723A2000495F
:100740006E76616C69642065787472756465720098
:100750005A204F666673657400556E6B6E6F776EC8
:1007600020636F6D6D616E643A2022004D3230302F
:1007700020496E76616C6964206578747275646571
:100780007220007A5F6D61783A20007A5F6D696E41
:100790003A2000795F6D696E3A20006F70656E00D7
:1007A00054524947474552454400785F6D696E3A57
:1007B00020005265706F7274696E6720656E647395
:1007C000746F7020737461747573000053494C45E5
:1007D0004E54004E4F524D414C002553204D4F4436
:1007E000453A2050657263656E7420646F6E653A99
:1007F0002025643B207072696E742074696D6520D9
:1008000072656D61696E696E6720696E206D696ED3
:10081000733A2025640A00456E642066696C652081
:100820006C69737400426567696E2066696C652047
:100830006C697374000A50494E44412074656D70B0
:10084000657261747572653A20252E3166205A20D2
:10085000736869667420286D6D293A20252E3366E9
:10086000000A537465703A2025642F360A000A5333
:100870007465703A2025642F362028736B69707078
:100880006564290A50494E44412074656D70657253
:1008900061747572653A202564205A207368696610
:1008A0007420286D6D293A300A000A5A45524F3A91
:1008B00020252E33660A0073746172742074656D8E
:1008C00070657261747572653A20252E31660A0072
:1008D00025642020252E326600255320583A2025F5
:1008E0002E356620593A20252E3566205A3A202585
:1008F0002E35660A00536C6565702E2E2E004E6FE5
:100900007420696E206661726D206D6F64652E00C3
:1009100025640045303A25642052504D0A50524E0D
:10092000303A25642052504D0A00256400442D3190
:10093000202D20456E646C657373206C6F6F700A98
:10094000004175746F0020452F443D00416476617D
:100950006E6365204B3D004D3232302053256900D7
:10096000255346696C616D656E7420736574746996
:100970006E67733A2044697361626C65640A00258E
:100980005346696C616D656E742073657474696E2D
:1009900067733A0A25532020204D323030204425F9
:1009A0002E32660A002553526574726163743A20D0
:1009B000533D4C656E67746820286D6D2920463A5A
:1009C000537065656420286D6D2F6D29205A3A207B
:1009D0005A4C69667420286D6D290A255320202001
:1009E0004D3230372053252E32662046252E326672
:1009F000205A252E32660A25535265636F7665723A
:100A00003A20533D4578747261206C656E67746856
:100A100020286D6D2920463A537065656420286D45
:100A20006D2F6D290A25532020204D323038205358
:100A3000252E32662046252E32660A2553417574CE
:100A40006F2D526574726163743A20533D30207487
:100A50006F2064697361626C652C203120746F2093
:100A6000696E7465727072657420657874727564ED
:100A7000652D6F6E6C79206D6F76657320617320C4
:100A80007265747261637473206F72207265636F34
:100A90007665726965730A25532020204D323039FE
:100AA000205325640A002553504944206865617429
:100AB0006265642073657474696E67733A0A2553BE
:100AC0002020204D3330342050252E3266204925F9
:100AD0002E32662044252E32660A002553504944A2
:100AE0002073657474696E67733A0A255320202059
:100AF0004D3330312050252E32662049252E326666
:100B00002044252E32660A002553537465707320E5
:100B100070657220756E69743A0A255320204D392C
:100B2000322058252E32662059252E3266205A252D
:100B30002E32662045252E32660A25534D6178698E
:100B40006D756D2066656564726174657320286DCE
:100B50006D2F73293A0A255320204D323033205807
:100B6000252E32662059252E3266205A252E3266D1
:100B70002045252E32660A25534D6178696D756DC5
:100B800020616363656C65726174696F6E20286DA6
:100B90006D2F7332293A0A255320204D32303120EF
:100BA00058256C752059256C75205A256C75204583
:100BB000256C750A2553416363656C6572617469C0
:100BC0006F6E3A20533D616363656C657261746951
:100BD0006F6E2C20543D7265747261637420616382
:100BE00063656C65726174696F6E0A255320204DD0
:100BF0003230342053252E32662054252E32660A98
:100C00002553416476616E63656420766172696123
:100C1000626C65733A20533D4D696E20666565646C
:100C20007261746520286D6D2F73292C20543D4D01
:100C3000696E2074726176656C20666565647261A8
:100C4000746520286D6D2F73292C20423D6D696ECF
:100C5000696D756D207365676D656E742074696D5F
:100C60006520286D73292C20583D6D6178696D755C
:100C70006D205859206A65726B20286D6D2F73297D
:100C80002C20205A3D6D6178696D756D205A206A5F
:100C900065726B20286D6D2F73292C2020453D6DCA
:100CA0006178696D756D2045206A65726B20286DCD
:100CB0006D2F73290A255320204D323035205325BE
:100CC0002E32662054252E32662042252E32662092
:100CD00058252E32662059252E3266205A252E326E
:100CE000662045252E32660A2553486F6D65206FB4
:100CF000666673657420286D6D293A0A2553202095
:100D00004D3230362058252E32662059252E326637
:100D1000205A252E32660A004625642025640A00E2
:100D20004D4D55203C3D2027462564202564270A4B
:100D300000504944204175746F74756E6520666972
:100D40006E6973686564212050757420746865202D
:100D50006C617374204B702C204B6920616E642091
:100D60004B6420636F6E7374616E74732066726F70
:100D70006D2061626F766520696E746F20436F6EBF
:100D800066696775726174696F6E2E6800504944B8
:100D9000204175746F74756E65206661696C656459
:100DA000212074696D656F75740020403A00543AD3
:100DB00000423A00504944204175746F74756E6565
:100DC000206661696C6564212054656D706572618F
:100DD0007475726520746F6F206869676800204BB6
:100DE000643A2000204B693A2000204B703A2000E2
:100DF00020436C6173736963205049442000205480
:100E0000753A2000204B753A2000206D61783A2019
:100E100000206D696E3A200020643A20002062694B
:100E200061733A200020453A00205A3A0020593A8E
:100E30000020453A00205A3A0020593A00583A001A
:100E4000002E0044656C6574696F6E206661696C84
:100E500065642C2046696C653A200046696C652003
:100E600064656C657465643A000A002F000A004EE0
:100E70006F74205344207072696E74696E670050FD
:100E800072696E74207361766564005344207072D9
:100E9000696E7420706175736564002228322900C0
:100EA00054004475706C696361746520542D636FE0
:100EB00064652069676E6F7265642E0A0044757000
:100EC0006C696361746520542D636F646520696784
:100ED0006E6F7265642E0A00496E76616C696420DB
:100EE0005420636F64652E00556E6B6E6F776E20B5
:100EF0004D20636F64653A202573200A006E6F20D1
:100F000076616C696420636F6D6D616E64002C2086
:100F1000002C20002C20006E2F61002C20002C20A3
:100F2000002C20006E2F61002F00503A005761699D
:100F30007420666F722050494E444120746172677C
:100F400065742074656D70657261747572653A00C0
:100F50004C414E472053454C20464F524345440098
:100F6000222831290030303030303030302D3030D0
:100F700030302D303030302D303030302D3030307A
:100F80003030303030303030300020555549443A20
:100F90000031002045585452554445525F434F5547
:100FA0004E543A005A617269626F204D4B32352DB2
:100FB00032323000204D414348494E455F5459502C
:100FC000453A00312E3000206261736564206F6EF7
:100FD000204D61726C696E204649524D5741524511
:100FE0005F55524C3A68747470733A2F2F67697466
:100FF0006875622E636F6D2F5A617269626F2F5A26
:10100000617269626F2D4669726D776172652050F9
:10101000524F544F434F4C5F56455253494F4E3AEF
:10102000004649524D574152455F4E414D453A5A4F
:10103000617269626F2D4669726D77617265200019
:101040004D31313320530020423A0020453A0054BC
:101050003A0020503A002042403A0020403A002016
:101060002F003A00205400202F0020423A00202F69
:10107000006F6B20543A002569206D696E2C202585
:10108000692073656300496E76616C6964204D2048
:10109000636F64653A202573200A00556E6B6E6F8E
:1010A000776E204720636F64653A202573200A001D
:1010B0004D65736820626564206C6576656C696E49
:1010C00067206E6F74206163746976652E000A0074
:1010D0002020000A4D6561737572656420706F6928
:1010E0006E74733A000A5A207365617263682068EF
:1010F00065696768743A20002C004E756D20582C85
:10110000593A2000206D6963726F6E7300457863F1
:1011100065737369766520626564206C6576656CBD
:10112000696E6720636F7272656374696F6E3A20CF
:1011300000426564206C6576656C696E6720666147
:10114000696C65642E2053656E736F7220747269CA
:1011500067676572656420746F6F20686967682EC1
:101160000A00426564206C6576656C696E6720666E
:1011700061696C65642E2053656E736F72206469BB
:1011800073636F6E6E6563746564206F7220636154
:10119000626C652062726F6B656E2E0A0047323892
:1011A0002057300050494E44412070726F626520D4
:1011B00063616C6962726174696F6E2073746172CD
:1011C0007400473238205730004D323400472D63C9
:1011D0006F646520736C6963656420666F7220615B
:1011E00020646966666572656E74206C6576656CF0
:1011F0002E20436F6E74696E75653F00472D636FD7
:10120000646520736C6963656420666F7220612079
:10121000646966666572656E74206C6576656C2EB1
:1012200020506C656173652072652D736C69636510
:1012300020746865206D6F64656C20616761696EFC
:101240002E205072696E742063616E63656C6C65EC
:10125000642E00472D636F646520736C6963656459
:1012600020666F722061206E6577657220666972F4
:101270006D776172652E20506C65617365207570A5
:101280006461746520746865206669726D77617247
:10129000652E205072696E742063616E63656C6C9C
:1012A00065642E00472D636F646520736C69636508
:1012B0006420666F722061206E65776572206669B2
:1012C000726D776172652E20436F6E74696E7565FD
:1012D0003F00472D636F646520736C69636564200C
:1012E000666F72206120646966666572656E74203F
:1012F0007072696E74657220747970652E20506CFE
:10130000656173652072652D736C6963652074680F
:1013100065206D6F64656C20616761696E2E205079
:1013200072696E742063616E63656C6C65642E0017
:10133000472D636F646520736C6963656420666F15
:1013400072206120646966666572656E74207072D1
:10135000696E74657220747970652E20436F6E74A7
:10136000696E75653F00472D636F646520736C6916
:1013700063656420666F72206120646966666572C9
:10138000656E74207072696E746572207479706510
:101390002E20436F6E74696E75653F00472D636F35
:1013A000646520736C6963656420666F72206120D8
:1013B000646966666572656E74207072696E7465C4
:1013C0007220747970652E20506C6561736520728F
:1013D000652D736C69636520746865206D6F646545
:1013E0006C20616761696E2E205072696E74206393
:1013F000616E63656C6C65642E005072657373205A
:101400006B6E6F6220746F20707265686561742006
:101410006E6F7A7A6C6520616E6420636F6E74699A
:101420006E75652E00506C65617365207072657312
:101430007320746865206B6E6F6220746F20756E08
:101440006C6F61642066696C616D656E74005265D5
:101450006D6F7665206F6C642066696C616D656E7A
:101460007420616E642070726573732074686520E7
:101470006B6E6F6220746F207374617274206C6F76
:101480006164696E67206E65772066696C616D6561
:101490006E742E00616E64207072657373207468C0
:1014A00065206B6E6F6200496E73657274206669A9
:1014B0006C616D656E7400436F6C6F72206E6F743B
:1014C00020636F72726563740046696C616D656E4E
:1014D00074206E6F74206C6F616465640043686192
:1014E0006E67656420636F72726563746C793F0028
:1014F0004C6F6164696E6720636F6C6F7200436844
:10150000616E676520737563636573732100506C4A
:1015100065617365206F70656E2069646C6572200B
:10152000616E642072656D6F76652066696C616DB1
:10153000656E74206D616E75616C6C792E005761FB
:10154000732066696C616D656E7420756E6C6F6179
:1015500064207375636365737366756C3F00506CCC
:101560006561736520757067726164652E004E65F4
:1015700077206669726D776172652076657273692E
:101580006F6E20617661696C61626C653A005761CB
:101590006974696E6720666F722050494E4441201D
:1015A00070726F626520636F6F6C696E670045785B
:1015B0007472756465720043686F6F736520657837
:1015C0007472756465723A0043686F6F7365206664
:1015D000696C616D656E743A004E6F206D6F766553
:1015E0002E005761697420666F7220757365722EC4
:1015F0002E2E00536F6D652070726F626C656D20CA
:10160000656E636F756E74657265642C205A2D6CFF
:101610006576656C696E6720656E666F726365647A
:10162000202E2E2E00537461626C6520616D6269FC
:10163000656E742074656D70657261747572652075
:1016400032312D323643206973206E6565646564DE
:101650002061207269676964207374616E64206917
:10166000732072657175697265642E00506C6561D6
:1016700073652072756E2058595A2063616C6962D7
:10168000726174696F6E2066697273742E005830CF
:101690000A006164635F696E69740A000A205A6116
:1016A0007269626F2052657365617263680A2020F7
:1016B00020616E6420446576656C6F706D656E7434
:1016C00000436F6E74696E75652077697468206178
:1016D0006E6F7468657220626F7764656E3F002577
:1016E0000020202020202000202020202020004535
:1016F000524153494E4720616C6C20646174610013
:10170000466163746F7279205245534554004661B7
:1017100063746F72792052455345540050525553AB
:101720004133444657004D4B322E354D4D55320016
:101730001A4F4D4B322E3500FA0044656320313983
:10174000203230313900436F6D70696C65643A2026
:1017500000286E6F6E652C2064656661756C742060
:10176000636F6E66696729004465632031392032F2
:101770003031392031333A30333A34380020332E87
:10178000382E312D323837320A007374617274008A
:101790002055706C6F616420696E2070726F677283
:1017A00065737300205A3A0020593A0020583A00D5
:1017B0004D3239005468657265206973207374690D
:1017C0006C6C2061206E65656420746F206D616BA8
:1017D00065205A2063616C6962726174696F6E2E54
:1017E00020506C6561736520666F6C6C6F77207438
:1017F0006865206D616E75616C2C20636861707422
:1018000065722046697273742073746570732C203E
:1018100073656374696F6E2043616C696272617491
:10182000696F6E20666C6F772E005072696E7465FA
:101830007220686173206E6F74206265656E20632C
:10184000616C69627261746564207965742E2050E0
:101850006C6561736520666F6C6C6F77207468656A
:10186000206D616E75616C2C2063686170746572A7
:101870002046697273742073746570732C207365CD
:101880006374696F6E2043616C6962726174696F21
:101890006E20666C6F772E004F6C642073657474D5
:1018A000696E677320666F756E642E20446566618D
:1018B000756C74205049442C2045737465707320F6
:1018C0006574632E2077696C6C2062652073657483
:1018D0002E005761726E696E673A20626F746820DD
:1018E0007072696E746572207479706520616E64BF
:1018F000206D6F74686572626F61726420747970B4
:1019000065206368616E6765642E005761726E6959
:101910006E673A207072696E7465722074797065B2
:10192000206368616E6765642E005761726E696E30
:10193000673A206D6F74686572626F6172642074BB
:10194000797065206368616E6765642E00202050A1
:101950006C616E6E65724275666665724279746519
:10196000733A20002046726565204D656D6F72796F
:101970003A2000207C20417574686F723A20002064
:101980004C61737420557064617465643A20002062
:10199000536F6674776172652052657365740020B9
:1019A0005761746368646F672052657365740020C3
:1019B00042726F776E206F75742052657365740084
:1019C0002045787465726E616C2052657365740091
:1019D000506F7765725570006572726F7220777202
:1019E0006974696E6720746F2066696C6500656E46
:1019F0006473746F7073206869743A2000446F6E6A
:101A00006520736176696E672066696C652E00508B
:101A10004154393132355F696E69743A25686875A9
:101A20000A0050415439313235206E6F742072658E
:101A300073706F6E64696E672028256429210A001F
:101A4000000E1315110E000000041209120400000C
:101A5000001C1F11111F00000006191803130C00B1
:101A6000040E1F041C000000040A0A0A0A11110EC9
:101A7000001F1511151F0000000103161C080000AF
:101A80000000110A04110A040C12120C00000000DC
:101A90002563252D31382E313853256300252E310D
:101AA000305320002563252D31382E3138732563BE
:101AB000002563252D2E31365320002563252E3138
:101AC00035533A2573253364002020202020202020
:101AD000202020202020202020202020200066738D
:101AE000656E736F725F6175746F6C6F61645F6355
:101AF0006865636B5F7374617274202D2061757407
:101B00006F6C6F616420454E41424C45440A00664B
:101B100073656E736F725F6175746F6C6F61645F14
:101B2000636865636B5F73746F70202D20617574DB
:101B30006F6C6F61642044495341424C45440A0034
:101B400058595A2063616C6962726174696F6E20C2
:101B5000616C6C2072696768742E20536B65772006
:101B600077696C6C20626520636F7272656374655F
:101B700064206175746F6D61746963616C6C792E3A
:101B80000058595A2063616C6962726174696F6EA2
:101B900020616C6C2072696768742E20582F592060
:101BA000617865732061726520736C696768746C15
:101BB0007920736B657765642E20476F6F64206AA8
:101BC0006F62210058595A2063616C6962726174B6
:101BD000696F6E206F6B2E20582F592061786573C6
:101BE000206172652070657270656E646963756CE2
:101BF00061722E20436F6E67726174756C617469D7
:101C00006F6E73210058595A2063616C696272616A
:101C100074696F6E206661696C65642E2052696715
:101C200068742066726F6E742063616C69627261A1
:101C300074696F6E20706F696E74206E6F7420729D
:101C40006561636861626C652E0058595A20636152
:101C50006C6962726174696F6E206661696C65643B
:101C60002E2046726F6E742063616C6962726174BB
:101C7000696F6E20706F696E7473206E6F7420725E
:101C80006561636861626C652E0058595A20636112
:101C90006C6962726174696F6E206661696C6564FB
:101CA0002E20506C6561736520636F6E73756C7464
:101CB00020746865206D616E75616C2E0058595AEC
:101CC0002063616C6962726174696F6E20636F6D0D
:101CD00070726F6D697365642E2052696768742035
:101CE00066726F6E742063616C6962726174696F91
:101CF0006E20706F696E74206E6F74207265616300
:101D00006861626C652E0058595A2063616C696283
:101D1000726174696F6E20636F6D70726F6D69733D
:101D200065642E2046726F6E742063616C69627206
:101D30006174696F6E20706F696E7473206E6F745A
:101D400020726561636861626C652E0058595A2083
:101D500063616C6962726174696F6E206661696C3F
:101D600065642E204265642063616C6962726174EF
:101D7000696F6E20706F696E7420776173206E6F6B
:101D80007420666F756E642E00506C6561736520FB
:101D9000706C61636520737465656C20736865653C
:101DA00074206F6E20686561746265642E004469FA
:101DB0007374616E6365206265747765656E207407
:101DC0006970206F6620746865206E6F7A7A6C6522
:101DD00020616E642074686520626564207375728A
:101DE0006661636520686173206E6F74206265654B
:101DF0006E20736574207965742E20506C65617354
:101E00006520666F6C6C6F7720746865206D616EFD
:101E100075616C2C2063686170746572204669720C
:101E200073742073746570732C2073656374696FA9
:101E30006E204669727374206C61796572206361EB
:101E40006C6962726174696F6E2E00506C616365BB
:101E50002061207368656574206F6620706170650D
:101E60007220756E64657220746865206E6F7A7A70
:101E70006C6520647572696E6720746865206361A3
:101E80006C6962726174696F6E206F662066697238
:101E90007374203420706F696E74732E204966202D
:101EA000746865206E6F7A7A6C652063617463680C
:101EB0006573207468652070617065722C20706F86
:101EC000776572206F666620746865207072696E2F
:101ED00074657220696D6D6564696174656C792ED5
:101EE00000506C656173652072656D6F7665207357
:101EF0007465656C2073686565742066726F6D200B
:101F0000686561746265642E004973207374656549
:101F10006C207368656574206F6E206865617462FB
:101F200065643F00206F662034005365617263680A
:101F3000696E67206265642063616C6962726174B6
:101F4000696F6E20706F696E7400206F66203900B3
:101F50004D6561737572696E67207265666572653D
:101F60006E636520686569676874206F66206361C9
:101F70006C6962726174696F6E20706F696E740053
:101F8000506C6561736520636C65616E2074686573
:101F9000206E6F7A7A6C6520666F722063616C695F
:101FA00062726174696F6E2E20436C69636B207777
:101FB00068656E20646F6E652E004175746F2068D1
:101FC0006F6D650078797A63616C5F6D65617373BD
:101FD0007572655F656E7465720A0078797A6361FF
:101FE0006C5F73706972616C382063783D25642082
:101FF00063793D2564207A303D256420647A3D254F
:1020000064207261646975733D25642061643D25B7
:10201000640A0078797A63616C5F736561726368E2
:102020005A206E6F207369676E616C0A20783D25B7
:102030006C6420793D256C64207A3D256C640A002F
:10204000204F4E2D5349474E414C20617420783D1E
:10205000256420793D2564207A3D25642061643D16
:1020600025640A0078797A63616C5F7365617263D5
:10207000685A20783D256C6420793D256C64207A6F
:102080003D256C640A000A00253032780078797AA0
:1020900063616C5F7363616E5F706978656C735FB9
:1020A00033327833322063783D25642063793D25CF
:1020B00064206D696E5F7A3D2564206D61785F7A7A
:1020C0003D25640A00202532642025640A000A00A8
:1020D0002530327800206D696E3D2564206D617871
:1020E0003D2564206469663D25640A006D61785F62
:1020F000633D253264206D61785F6C3D25640A0084
:102100006D61785F633D2564206D61785F723D2568
:1021100064206D61785F6D617463683D25640A00B9
:1021200020783D256420793D2564207A3D25640A88
:1021300000207061747465726E20666F756E642025
:1021400061742025642025640A000000F000F80175
:10215000FC03FE07FE07FE07FE07FC03F801F00084
:10216000000073697A656F6628746F74616C293D2D
:1021700025640A0073697A656F6628626C6F636B09
:102180005F627566666572293D25640A0078797A12
:1021900063616C5F6D656173737572655F6C6561BA
:1021A00076650A00706F696E743D256420783D2560
:1021B0006420793D2564207A3D25640A00BC02BC78
:1021C00002584D584DB004F055F055B00478797A66
:1021D00063616C5F66696E645F6265645F696E64AB
:1021E000756374696F6E5F73656E736F725F706F26
:1021F000696E745F787920783D256C6420793D257F
:102200006C64207A3D256C640A00203C2000574114
:10221000524E494E473A2046726F6E7420706F6975
:102220006E74206E6F7420726561636861626C65A4
:102230002E205920636F6F7264696E6174653A0075
:1022400000000040410000804000005C430000802E
:102250004000005C43000044430000404100004453
:1022600043497465726174696F6E3A200043616C12
:102270006962726174696F6E206661696C65642160
:1022800020436865636B20746865206178657320FE
:10229000616E642072756E20616761696E2E0050F8
:1022A0004154393132355F5245535F593D25686895
:1022B000750A00504154393132355F5245535F58E9
:1022C0003D256868750A0055534152543220727892
:1022D0002046756C6C2121210A0053657474696E67
:1022E00067732053746F7265640053746F72656412
:1022F0002073657474696E677320726574726965A2
:102300007665640048617264636F64656420446547
:102310006661756C742053657474696E6773204CC4
:102320006F6164656400563200000000C84200001E
:10233000C8420000C84300000543000048430000B5
:102340004843000040410000F042E8030000E80379
:102350000000C80000008813000000409C440040BA
:102360009C440000000000000000204E000000001F
:10237000204100002041CDCCCC3E00002040000098
:1023800000000000000000000000CDCCCC3E3D0A63
:102390008141FF08433EB099AB438F42FC42E65A6D
:1023A000343F4C62B0450000000000404000003463
:1023B000420000000000000000000000410000009A
:1023C000E03F00002C4300002C430000404100008F
:1023D000F042C0030000C0030000C80000008813E2
:1023E000000010101010627573793A2070617573D7
:1023F000656420666F7220696E7075740062757313
:10240000793A2070617573656420666F7220757308
:10241000657200627573793A2070726F63657373C9
:10242000696E670000007A430000524300005C437D
:1024300000000000000080C09A99193E00000000D2
:10244000000080C09A99193E67636F64655F4D37DD
:10245000303120626567696E0A001000C902100100
:102460002C014001220170011801B0010E01F001A0
:1024700004015002FA00B002F0003003E600D0037D
:10248000DC009004D2007005C800A006BE00000861
:10249000B400B009AA00D00BA000600E9600601135
:1024A0008C000015820020197800C01D6E00A0224B
:1024B0006400B0275A00902C500000314600E034F0
:1024C0003C0010383200903A2800603C1E00A03DCD
:1024D0001400803E0A00203F000045787472756445
:1024E00065722066616E2073706565642069732073
:1024F0006C6F776572207468616E206578706563B3
:10250000746564005072696E742066616E20737029
:10251000656564206973206C6F77657220746861EB
:102520006E206578706563746564004572723A2048
:102530004D494E54454D50003A20457874727564AB
:102540006572207377697463686564206F66662EB0
:10255000204D494E54454D5020747269676765722D
:1025600065642021004572723A204D494E54454D14
:1025700050204245440054656D70657261747572F7
:10258000652068656174656420626564207377699D
:102590007463686564206F66662E204D494E54450D
:1025A0004D5020747269676765726564202100452B
:1025B00072723A204D415854454D50003A204578AA
:1025C00074727564657220737769746368656420DA
:1025D0006F66662E204D415854454D5020747269E7
:1025E0006767657265642021004572723A204D412B
:1025F0005854454D50204245440054656D706572F5
:1026000061747572652068656174656420626564D3
:10261000207377697463686564206F66662E204D49
:10262000415854454D5020747269676765726564FE
:1026300020210000202D20496E76616C69642065A0
:1026400078747275646572206E756D626572202192
:102650000070012C0190012701B0012201C0011D71
:1026600001F00118011002130130020E016002098D
:102670000190020401C002FF000003FA004003F5CC
:10268000008003F000D003EB002004E6007004E1BA
:1026900000E004DC004005D700C005D2004006CDB4
:1026A00000D006C8008007C3003008BE00F008B99B
:1026B00000C009B400B00AAF00B00BAA00D00CA54E
:1026C00000000EA000500F9B00C010960050129109
:1026D0000000148C00C0158700B0178200B0197D6F
:1026E00000D01B7800001E730040206E009022690D
:1026F00000F024640040275F0090295A00E02B5529
:1027000000102E500020304B0010324600E03341C4
:102710000090353C001037370070383200A0392D5A
:1027200000B03A2800A03B2300603C1E00103D1979
:1027300000903D1400103E0F00703E0A00C03E05A0
:1027400000003F000020484F54454E442054484567
:10275000524D414C2052554E415741590020484559
:10276000415442454420544845524D414C20525515
:102770004E4157415900544845524D414C20525505
:102780004E415741590042454420544845524D411D
:102790004C2052554E415741590020544845524D06
:1027A000414C2052554E4157415920282050524506
:1027B0004845415420484F54454E44290020544830
:1027C00045524D414C2052554E41574159202820E9
:1027D00050524548454154204845415442454429BA
:1027E0000050524548454154204552524F520042F4
:1027F00045442050524548454154204552524F527D
:10280000004D494E54454D5020666978656400502E
:102810006C656173652072657374617274004572D2
:10282000723A205052494E542046414E2045525251
:102830004F520022206661696C65643A20427566D9
:102840006665722066756C6C21002200256920681F
:102850006F757273202569206D696E7574657300DC
:1028600054494D454F55543A004D3131300046756D
:102870006C6C205258204275666665720043757311
:10288000746F6D0054657874757200536D6F6F745A
:10289000680047312059252D2E32662045252D2EE2
:1028A0003366004731205825642059252D2E326685
:1028B0002045252D2E3366006673656E736F725F3B
:1028C00073746F705F616E645F736176655F707261
:1028D000696E740A006673656E736F725F726573FA
:1028E000746F72655F7072696E745F616E645F634E
:1028F0006F6E74696E75650A0044495341424C45D8
:10290000440A00454E41424C4544004653656E73AF
:102910006F722025530A00504154393132355F69B6
:102920006E69743A256868750A00656E7175656927
:102930006E67202200446F6E65207072696E746944
:102940006E672066696C65005072696E74657220EE
:1029500073746F707065642064756520746F206592
:1029600072726F72732E20466978207468652065D4
:1029700072726F7220616E6420757365204D3939F3
:102980003920746F20726573746172742E2028541C
:10299000656D70657261747572652069732072650A
:1029A0007365742E205365742069742061667465A4
:1029B000722072657374617274696E6729004E6F5C
:1029C000204C696E65204E756D6265722077697462
:1029D0006820636865636B73756D2C204C6173743C
:1029E000204C696E653A20004E6F20436865636B2A
:1029F00073756D2077697468206C696E65206E75DB
:102A00006D6265722C204C617374204C696E653A5E
:102A10002000636865636B73756D206D69736D610C
:102A20007463682C204C617374204C696E653A2085
:102A3000004C696E65204E756D6265722069732069
:102A40006E6F74204C617374204C696E65204E75F6
:102A50006D6265722B312C204C617374204C696E51
:102A6000653A200053544F505045442E200024F422
:102A7000D43050C38E20C2A24017828B7011127ABC
:102A8000910D816CD90AA861E108C75866076151A8
:102A900043061E4B5D05C145A7041A411104093DBB
:102AA0009803713931034036DB0265339102D4302B
:102AB0005402802E1D02632CEE01752AC501B02838
:102AC000A001102781018F2564012B244B01E022F6
:102AD0003401AC211F018D200D01801FFC00841EDC
:102AE000ED00971DDF00B81CD200E61BC600201BBE
:102AF000BC00641AB200B219A8000A19A0006A1832
:102B00009900D117910040178B00B516840031163B
:102B10007E00B31579003A157300C7146F0058147E
:102B20006A00EE1366008813630025135E00C71267
:102B30005B006C12570015125400C1115100701146
:102B40004F0021114B00D61049008D104700461050
:102B5000440002104200C00F4000800F3E00420FB0
:102B60003C00060F3B00CB0E3800930E37005C0E86
:102B70003500270E3400F30D3200C10D3100900DE9
:102B80003000600D2E00320D2D00050D2C00D90CEB
:102B90002B00AE0C2900850C29005C0C2700350C9D
:102BA00027000E0C2600E80B2400C40B2400A00B09
:102BB00023007D0B23005A0B2100390B2100180B39
:102BC0002000F80A1F00D90A1E00BB0A1E009D0A39
:102BD0001D00800A1D00630A1C00470A1B002C0A06
:102BE0001B00110A1A00F7091A00DD091900C409AF
:102BF0001900AB091900920917007B091800630935
:102C000017004C09160036091600200916000A099B
:102C10001500F5081500E0081400CC081400B808E9
:102C20001400A4081400900813007D0812006B081B
:102C30001300580812004608120034081100230837
:102C400011001208110001081100F0071000E00740
:102C50001000D0071000C0071000B0070F00A10738
:102C6000100091070E0083070F0074070F0065071F
:102C70000E0057070E0049070E003B070D002E07F8
:102C80000E0020070D0013070D0006070D00F906C2
:102C90000C00ED060D00E0060C00D4060C00C80682
:102CA0000C00BC060C00B0060C00A4060B00990634
:102CB0000C008D060B0082060B0077060B006C06DD
:102CC0000B0061060A0057060B004C060A0042067C
:102CD0000A0038060A002E060A0024060A001A0610
:102CE0000A001006090007060A00FD050900F405A0
:102CF0000900EB050900E2050900D9050900D00526
:102D00000900C7050900BE050900B5050800AD05A5
:102D10000800A50509009C050800940508008C051D
:102D20000800840508007C050800740508006C058F
:102D30000700650508005D050700560508004E05FB
:102D40000700470507004005080038050700310562
:102D500007002A050700230507001C0506001605C5
:102D600007000F0507000805060002050700FB0421
:102D70000600F5040700EE040600E8040600E2047D
:102D80000700DB040600D5040600CF040600C904D2
:102D90000600C3040600BD040600B7040600B10423
:102DA0000500AC040600A6040600A00405009B0470
:102DB000060095040500900406008A0405008504B9
:102DC0000500800406007A040500750405007004FF
:102DD00005006B04050066040500610405005C0441
:102DE000050057040500520405004D040500480481
:102DF0000500430405003E0404003A0405003504C0
:102E00000500300404002C040500270404002304FA
:102E100005001E0404001A04040016040500110431
:102E200004000D0404000904050004040400000467
:102E30000400FC030400F8030400F4030400F0039E
:102E40000400EC030400E8030400E4030400E003CE
:102E50000400DC030400D8030400D4030400D003FE
:102E60000400CC030400C8030300C503030024F4DA
:102E700004D9201BC40C5C0E9804C4095F026507CA
:102E80007101F405F900FB04B30048048700C10395
:102E900069005803550003034500BE023A0084024E
:102EA000310053022A002902250004022000E40117
:102EB0001C00C8011900AF0117009801140084011B
:102EC0001300710110006101100051010E00430157
:102ED0000D0036010B002B010B0020010B0015012A
:102EE00009000C01090003010800FB000800F300C1
:102EF0000800EB000700E4000600DE000600D80032
:102F00000600D2000600CC000500C7000500C20084
:102F10000500BD000400B9000400B5000400B100C4
:102F20000400AD000400A9000400A5000300A200F5
:102F300003009F0004009B0003009800030095001D
:102F4000020093000300900003008D0002008B003C
:102F50000300880002008600020084000300810054
:102F600002007F0002007D0002007B000200790069
:102F70000200770001007600020074000200720077
:102F80000100710002006F0002006D0001006C0082
:102F900002006A000100690002006700010066008B
:102FA0000100650001006400020062000100610090
:102FB0000100600001005F0002005D0001005C0094
:102FC00001005B0001005A00010059000100580097
:102FD0000100570001005600010055000100540097
:102FE0000100530000005300010052000100510095
:102FF0000100500001004F0001004E0000004E0093
:1030000001004D0001004C0001004B0000004B008E
:1030100001004A000100490001004800000048008A
:103020000100470001004600000046000100450085
:10303000000045000100440001004300000043007F
:103040000100420000004200010041000000410078
:103050000100400001003F0000003F0001003E0071
:1030600000003E0001003D0000003D0001003C006A
:1030700000003C0000003C0001003B0000003B0061
:1030800001003A0000003A00010039000000390058
:10309000010038000000380000003800010037004F
:1030A0000000370001003600000036000000360046
:1030B000010035000000350000003500010034003B
:1030C0000000340000003400010033000000330031
:1030D0000000330001003200000032000000320026
:1030E000010031000000310000003100010030001B
:1030F000000030000000300001002F0000002F0011
:1031000000002F0000002F0001002E0000002E0004
:1031100000002E0001002D0000002D0000002D00F9
:1031200000002D0001002C0000002C0000002C00ED
:1031300000002C0001002B0000002B0000002B00E1
:1031400000002B0001002A0000002A0000002A00D5
:1031500000002A00010029000000290000002900C9
:1031600000002900000029000100280000002800BC
:1031700000002800000028000000280001002700AF
:1031800000002700000027000000270000002700A3
:103190000100260000002600000026000000260096
:1031A0000000260001002500000025000000250089
:1031B000000025000000250000002500010024007B
:1031C000000024000000240000002400000024006F
:1031D0000100230000002300000023000000230062
:1031E0000000230000002300000023000100220053
:1031F0000000220000002200000022000000220047
:103200000000220001002100000021000000210038
:10321000000021000000210000002100000021002A
:10322000010020000000200000002000000020001D
:10323000000020000000200000002000000020000E
:1032400001001F0000001F0000001F0000001F0001
:1032500000001F0000001F0000001F0001001E00F2
:1032600000001E0000001E0000001E000000457847
:1032700072656D65207370616E206F66207468657D
:10328000205A2076616C75657321006F6B0A00739C
:10329000746172740A004D4D5532206669726D7703
:1032A0006172652076657273696F6E20696E7661F2
:1032B0006C69642E2052657175697265642076654B
:1032C0007273696F6E3A206275696C64206E756DF9
:1032D000626572202564206F722068696768657274
:1032E0002E004D4D55203D3E20276F6B270A004D87
:1032F0004D55203D3E20276F6B270A002564004D69
:103300004D55203D3E20276F6B272C20726573752D
:103310006D65207072696E740A004D4D552072659E
:1033200074727920617474656D7074206E722E20D1
:1033300025640A004D4D55203D3E20276F6B270A1E
:1033400000410A004D4D55203C3D202741270A00F1
:103350004D363030004D363030204155544F0050FE
:1033600052555341206673656E736F725F72656369
:103370006F766572002568687500410A004D4D55ED
:10338000203C3D202741270A0050300A004D25648B
:103390000A004D4D55203C3D20274D2564270A004D
:1033A00057300A004D4D55203C3D20275730270A05
:1033B0000053330A004D4D55203C3D202753332701
:1033C0000A0052300A004D4D55203C3D2027523016
:1033D000270A004B25640A004D4D55203C3D20270F
:1033E0004B2564270A004525640A004D4D55203CB5
:1033F0003D2027452564270A0055300A004D4D55CC
:10340000203C3D20275530270A0043300A004D4D0F
:1034100055203C3D20274330270A004C25640A00F4
:103420004D4D55203C3D20274C2564270A0054254E
:10343000640A004D4D55203C3D2027542564270A41
:10344000004D4D55202D20454E41424C4544002510
:103450006868750050300A004D310A004D4D552006
:103460003C3D20274D3127004D4D55207665727328
:10347000696F6E2076616C6964004D4D55203D3E4C
:10348000202725646F6B270A0025750053320A0038
:103490004D4D55203C3D2027533227004D4D5520A2
:1034A0003D3E202725646F6B270A002575004D4D92
:1034B00055206E6F7420726573706F6E64696E67ED
:1034C000202D2044495341424C45440053310A00C9
:1034D0004D4D55203C3D2027533127004D4D552063
:1034E0003D3E2027737461727427006572726F729B
:1034F0003A20756E6B6E6F776E206D6F76650A0081
:103500006E6F206D6F76650A00542D636F64650AD7
:1035100000756E6C6F61640A006C6F61640A006D07
:103520006D755F6765745F726573706F6E7365202C
:103530002D20626567696E206D6F76653A20006D9B
:103540006D755F6765745F726573706F6E73652804
:10355000292072657475726E696E673A2025640A57
:1035600000556E6C6F6164696E672066696E697381
:1035700068656420320A00556E6C6F616420320AFF
:1035800000556E6C6F6164696E672066696E697361
:1035900068656420310A00556E6C6F616420310AE1
:1035A000004D4D5520737461727473207265737091
:1035B0006F6E64696E670A004D4D55206E6F742002
:1035C000726573706F6E64696E670A0046696C613C
:1035D0006D656E74206F7574206F662072616E6702
:1035E00065202564200A00426564206C6576656C60
:1035F000696E67206661696C65642E2053656E7321
:103600006F72206469646E74207472696767657292
:103610002E20446562726973206F6E206E6F7A7A15
:103620006C653F2057616974696E6720666F722010
:1036300072657365742E00506C65617365207570DA
:1036400064617465206669726D7761726520696E68
:1036500020796F7572204D4D55322E205761697457
:10366000696E6720666F722072657365742E004DF7
:103670004D55204F4B2E20526573756D696E672E28
:103680002E2E004D4D55204F4B2E20526573756DDB
:10369000696E6720706F736974696F6E2E2E2E00CD
:1036A0004D4D55204F4B2E20526573756D696E67D9
:1036B0002074656D70657261747572652E2E2E00B2
:1036C0004669782074686520697373756520616E3A
:1036D00064207468656E20707265737320627574FF
:1036E000746F6E206F6E204D4D5520756E69742E6F
:1036F00000507265737320746865206B6E6F622072
:10370000746F20726573756D65206E6F7A7A6C6563
:103710002074656D70657261747572652E004D4D13
:1037200055206E65656473207573657220617474CD
:10373000656E74696F6E2E0025632533642F2564D2
:103740002563000000803F555585410000803F0003
:1037500000C84100000040555505420000C03F0030
:103760000048420000204055558542000070C1AB22
:10377000AAA642000060C10000A0410000C0C00035
:1037800000204100002041ABAA3A41000020C15571
:1037900055D540000048C2555505424D37303120BF
:1037A0004534004D373031204533004D373031201E
:1037B0004532004D373031204531004D3730312012
:1037C00045300046696C616D656E74206E72206FC5
:1037D0007574206F662072616E67652100206661D6
:1037E000696C65642E002073756363656564656448
:1037F0002E004D4D552063616E5F6C6F61643A0021
:103800004164646974696F6E616C206C6F616420DF
:10381000617474656D7074206E722E2025640A00C8
:10382000506C656173652072656D6F7665206669A1
:103830006C616D656E7420616E64207468656E20C5
:10384000707265737320746865206B6E6F622E00F2
:10385000456A656374696E672066696C616D656E43
:1038600074004D4D55206C6F6164206661696C6514
:103870006420202020200020746F6F206C6F6E6702
:1038800020657874727573696F6E207072657665E5
:103890006E7465640020636F6C6420657874727563
:1038A00073696F6E2070726576656E746564004E24
:1038B0006F00596573005A617269626F204D4B3217
:1038C000352D32323000536F7274696E672066692D
:1038D0006C657300536F6D652066696C6573207746
:1038E000696C6C206E6F7420626520736F727465F2
:1038F000642E204D61782E204E6F2E206F6620663C
:10390000696C657320696E203120666F6C64657226
:1039100020666F7220736F7274696E6720697320FE
:103920003130302E003E003E0020003E003E0020A0
:10393000001F1F1F1F1F1F1F1F0000A0400000A00F
:10394000400000004000007A43000056439AD95BD3
:1039500043FFFFFF6F6B0053442063617264206F6D
:103960006B006F70656E526F6F74206661696C6575
:103970006400766F6C756D652E696E697420666182
:10398000696C656400534420696E697420666169DE
:103990006C004D36303000505255534120667365EF
:1039A0006E736F725F7265636F76657200667365C2
:1039B0006E736F725F757064617465202D204D3673
:1039C00030300A006673656E736F725F6F715F6D82
:1039D000656173737572655F73746F702C202568F1
:1039E00068752073616D706C65730A006673656E2F
:1039F000736F725F6F715F6D656173737572655F11
:103A000073746172740A006673656E736F725F65BA
:103A100072725F636E74203D20300A00473120458A
:103A200033204632303000473120452D3320463296
:103A300030300020573A0020453A00543A005A20CE
:103A40006C6976652061646A757374206F75742083
:103A50006F662072616E67652E2053657474696E9F
:103A60006720746F20302E20436C69636B20746F65
:103A700020636F6E74696E75652E005A206C6976CE
:103A8000652061646A757374206F7574206F662099
:103A900072616E67652E2053657474696E67207459
:103AA0006F2030002079645F6D696E3D2575207947
:103AB000645F6D61783D25752079645F6176673D4F
:103AC00025752073685F6176673D25750A00207350
:103AD000745F73756D3D25752079645F73756D3DF9
:103AE00025752065725F73756D3D25752065725F64
:103AF0006D61783D256868750A00004B494C4C455E
:103B0000442E20005072696E7465722068616C7476
:103B100065642E206B696C6C28292063616C6C6570
:103B20006421004B494C4C3A2025640A004D323246
:103B30003120496E76616C696420657874727564B1
:103B4000657220004D32313820496E76616C6964AF
:103B500020657874727564657220004D31303920AB
:103B6000496E76616C6964206578747275646572FB
:103B700020004D31303520496E76616C69642065D6
:103B80007874727564657220004D31303420496E4E
:103B900076616C6964206578747275646572200062
:103BA00048656174696E672064697361626C6564FD
:103BB000206279207361666574792074696D65721D
:103BC0002E006C63645F73656C66636865636B5F2E
:103BD000617869732025642C2025640A002D2D2D21
:103BE0002D2D2D2D2D2D2D2D2D2D2D2D2D2D2D2D05
:103BF0002D000000000000110A0446616C7365206E
:103C000074726967676572696E6700537761707077
:103C100065640046726F6E742F6C65667420666111
:103C20006E7300417869730041786973206C656E2A
:103C3000677468004C6F6F73652070756C6C657984
:103C400000456E6473746F70206E6F7420686974C1
:103C500000456E6473746F70004D6F746F72004531
:103C60006E6473746F707300576972696E67206554
:103C700072726F7200426564202F2048656174651E
:103C800072004E6F7420636F6E6E656374656400BE
:103C90004865617465722F546865726D6973746FDD
:103CA0007200506C6561736520636865636B203AD0
:103CB0000053656C6674657374206572726F722050
:103CC000210046696C616D656E742073656E736F5B
:103CD00072005072696E742066616E3A00457874A5
:103CE00072756465722066616E3A0043616C696248
:103CF000726174696E6720686F6D650053656C66EC
:103D000074657374206661696C6564202000416C81
:103D10006C20636F72726563742020202020200065
:103D2000436865636B696E672073656E736F72734A
:103D30002000436865636B696E6720686F74656E09
:103D400064202000436865636B696E672062656468
:103D5000202020202000436865636B696E67205A2D
:103D60002061786973202000436865636B696E6722
:103D700020592061786973202000436865636B696E
:103D80006E6720582061786973202000436865635E
:103D90006B696E6720656E6473746F707300457233
:103DA000726F72202D20737461746963206D656D6C
:103DB0006F727920686173206265656E206F766529
:103DC000727772697474656E004361726420726503
:103DD0006D6F766564004D61676E65747320636F07
:103DE0006D702E5B4E2F415D004D61676E65747383
:103DF00020636F6D702E5B4F66665D004D61676E70
:103E000065747320636F6D702E205B4F6E5D005A7A
:103E10002D70726F6265206E722E202020205B3321
:103E20005D005A2D70726F6265206E722E20202008
:103E3000205B355D005A2D70726F6265206E722EA8
:103E4000202020205B315D004D65736820202020FC
:103E500020202020205B3778375D004D6573682077
:103E600020202020202020205B3378335D00466115
:103E70006E20737065656400426564004E6F7A7AE7
:103E80006C650053657474696E6773005072696E77
:103E9000742061626F727465640053746F70207077
:103EA00072696E740046696C6520696E636F6D702F
:103EB0006C6574652E20436F6E74696E7565206144
:103EC0006E797761793F004261636B004D61696E85
:103ED000002F2F20616374696F6E3A63616E6365B2
:103EE0006C0043616E6E6F7420656E746572207332
:103EF00075626469723A20004D3234004D323320CD
:103F0000257300052E2E0045787472756465720065
:103F10004D6F7665205A004D6F76652059004D6FC4
:103F200076652058004175746F6C6F6164696E67C7
:103F30002066696C616D656E7420617661696C6183
:103F4000626C65206F6E6C79207768656E2066699B
:103F50006C616D656E742073656E736F722069732A
:103F6000207475726E6564206F6E2E2E2E00455281
:103F7000524F523A2046696C616D656E74207365CC
:103F80006E736F72206973206E6F74207265737028
:103F90006F6E64696E672C20706C65617365206359
:103FA0006865636B20636F6E6E656374696F6E2EF8
:103FB0000043616C69627261746500473830004D7E
:103FC0003435004D3435205A0020423A0020453A1D
:103FD00000543A0000002110422063308440A55074
:103FE000C660E770088129914AA16BB18CC1ADD13F
:103FF000CEE1EFF13112100273325222B5529442E7
:10400000F772D662399318837BB35AA3BDD39CC38E
:10401000FFF3DEE36224433420040114E664C77432
:10402000A44485546AA54BB528850995EEE5CFF5DE
:10403000ACC58DD55336722611163006D776F66686
:104040009556B4465BB77AA719973887DFF7FEE72E
:104050009DD7BCC7C448E5588668A7784008611852
:1040600002282338CCC9EDD98EE9AFF9488969997E
:104070000AA92BB9F55AD44AB77A966A711A500A26
:10408000333A122AFDDBDCCBBFFB9EEB799B588BCE
:104090003BBB1AABA66C877CE44CC55C222C033C72
:1040A000600C411CAEED8FFDECCDCDDD2AAD0BBD1E
:1040B000688D499D977EB66ED55EF44E133E322EC6
:1040C000511E700E9FFFBEEFDDDFFCCF1BBF3AAF6E
:1040D000599F788F8891A981CAB1EBA10CD12DC1CC
:1040E0004EF16FE18010A100C230E3200450254062
:1040F00046706760B9839893FBA3DAB33DC31CD3C2
:104100007FE35EF3B1029012F322D23235421452B1
:1041100077625672EAB5CBA5A89589856EF54FE50D
:104120002CD50DC5E234C324A01481046674476401
:1041300024540544DBA7FAB79987B8975FE77EF761
:104140001DC73CD7D326F2369106B0165766767651
:10415000154634564CD96DC90EF92FE9C899E9892D
:104160008AB9ABA94458654806782768C018E108A1
:104170008238A3287DCB5CDB3FEB1EFBF98BD89B01
:10418000BBAB9ABB754A545A376A167AF10AD01AF1
:10419000B32A923A2EFD0FED6CDD4DCDAABD8BAD4D
:1041A000E89DC98D267C076C645C454CA23C832C41
:1041B000E01CC10C1FEF3EFF5DCF7CDF9BAFBABFA1
:1041C000D98FF89F176E367E554E745E932EB23E91
:1041D000D10EF01E7C3C3E3F2F2A225C00457272BD
:1041E0003A20455854522E2046414E204552524FB7
:1041F00052002F2F20616374696F6E3A7265737578
:104200006D656400526573756D696E6720707269C3
:104210006E740052657365740052656E616D650061
:104220004669727374206C617965722063616C2ECB
:104230000053656C65637400537465656C20736826
:104240006565747300536865657400537570706FAD
:104250007274004661696C207374617473204D4DF3
:1042600055004661696C2073746174730053746106
:104270007469737469637320200043616C696272AE
:104280006174696F6E004175746F4C6F6164206674
:10429000696C616D656E7400456A6563742066695A
:1042A0006C616D656E7400556E6C6F61642066693B
:1042B0006C616D656E74004C6F616420746F206E6C
:1042C0006F7A7A6C65004C6F61642066696C616D11
:1042D000656E74004E6F2053442063617264005019
:1042E00072696E742066726F6D205344005265735C
:1042F000756D65207072696E74005061757365200C
:104300007072696E7400526573756D6520707269A4
:104310006E7400507265686561740054756E650056
:104320004C6976652061646A757374205A00496E21
:10433000666F2073637265656E0046696E697368A7
:10434000696E67206D6F76656D656E747300536F6F
:10435000756E642020202020205B6C6F75645D00EA
:10436000536F756E64202020205B617373697374D2
:104370005D00536F756E64202020205B73696C654F
:104380006E745D00536F756E642020202020205BCA
:104390006F6E63655D00536F756E64202020202072
:1043A000205B6C6F75645D004D6F6465205B6175AB
:1043B000746F20706F7765725D004D6F64652020AB
:1043C0002020205B73696C656E745D004D6F6465C1
:1043D000205B6869676820706F7765725D00466171
:1043E0006E7320636865636B20205B6F66665D009B
:1043F00046616E7320636865636B2020205B6F6E7F
:104400005D0046696C2E2073656E736F7220205BB1
:104410006F6E5D0046696C2E2073656E736F72203F
:104420005B6F66665D004368616E67652066696CF8
:10443000616D656E7400466C6F77005370656564DE
:1044400000252D392E39535B002563252D31382E5B
:104450003138732563004661726D206E756D62653B
:1044600072004D363030005072696E746572206E85
:104470006F7A7A6C65206469616D65746572206419
:104480006966666572732066726F6D207468652058
:10449000472D636F64652E20506C656173652063E2
:1044A0006865636B207468652076616C756520694A
:1044B0006E2073657474696E67732E205072696E16
:1044C000742063616E63656C6C65642E0050726964
:1044D0006E746572206E6F7A7A6C65206469616DA6
:1044E0006574657220646966666572732066726FB2
:1044F0006D2074686520472D636F64652E20436FBF
:104500006E74696E75653F002079303D25640A0040
:104510002078303D25640A004F4B0A004552524F27
:10452000522061643D25640A002020207A303D2518
:10453000640A00207A303D25640A002079303D2548
:10454000640A002078303D25640A0078797A636136
:104550006C5F66696E645F706F696E745F63656ED1
:10456000746572320A0000002100240027002A002E
:104570002D003000330001010000040107010A0191
:1045800000002200250028002B002E0031003400FE
:1045900002010000050108010B01000020002300BA
:1045A000260029002C002F0032000001000003012A
:1045B00006010901050505050705080808080202A6
:1045C00002020A0A080804040404010101010101AD
:1045D00001010303030303030303040707070C0C90
:1045E0000C0C0C0C0C0C0202020206060606060657
:1045F00006060B0B0B0B0B0B0B0B07070A0A0A0A21
:104600000A0A050505040404080801021020200810
:10461000081020401020408002010201080402011D
:10462000010204081020408080402010080402018C
:1046300080040201804020100804020108040201E5
:10464000010204081020408001020408102040806C
:10465000100804088010204004408010204004808E
:1046600000000A0B02090C0D0E08070304010000EC
:10467000000000000000000000000000000000003A
:1046800000000000000000000000000012111000F7
:10469000000000000000000000000000000000001A
:1046A000000000000000000000000000000000000A
:1046B0000000000000004D3234004D3233202573DD
:1046C000006175746F25692E670022206661696C30
:1046D00065643A204275666665722066756C6C2169
:1046E00000456E717565696E6720746F207468652A
:1046F0002066726F6E743A2022004572726F723AB1
:10470000002200456E717565696E6720746F2074B4
:1047100068652066726F6E743A2022006563686F68
:104720003A00454550524F4D204572726F7200332A
:104730002E382E31007263006265746100616C7006
:104740006861006465760078797A63616C5F737084
:104750006972616C322063783D25642063793D2560
:1047600064207A303D256420647A3D25642072619E
:10477000646975733D25642061643D25640A002EDB
:10478000002E004E6F772066726573682066696C34
:10479000653A20004E6F7720646F696E6720666906
:1047A0006C653A20002220706F73002220706172C5
:1047B000656E743A2200535542524F5554494E4546
:1047C0002043414C4C207461726765743A22007436
:1047D0007279696E6720746F2063616C6C207375E9
:1047E000622D67636F64652066696C657320776905
:1047F000746820746F6F206D616E79206C657665CA
:104800006C732E204D4158206C6576656C20697361
:104810003A002E0057726974696E6720746F2066C3
:10482000696C653A200046696C652073656C656348
:10483000746564002053697A653A200046696C65A6
:10484000206F70656E65643A20006F70656E20663B
:1048500061696C65642C2046696C653A200052657C
:1048600073657400526561722073696465205B75BD
:104870006D5D0046726F6E7420736964655B756D63
:104880005D00526967687420736964655B756D5D6E
:10489000004C6566742073696465205B756D5D000E
:1048A0005365742074656D70657261747572653AD4
:1048B00000417265206C65667420616E64207269C7
:1048C000676874205A7E63617272696167657320DC
:1048D000616C6C2075703F0043616C696272617439
:1048E000696E672058595A2E20526F746174652082
:1048F000746865206B6E6F6220746F206D6F7665D3
:1049000020746865205A206361727269616765204E
:10491000757020746F2074686520656E64207374F0
:104920006F70706572732E20436C69636B207768BB
:10493000656E20646F6E652E0043616C6962726102
:1049400074696E67205A2E20526F746174652074EA
:104950006865206B6E6F6220746F206D6F766520C6
:10496000746865205A206361727269616765207599
:104970007020746F2074686520656E642073746F96
:1049800070706572732E20436C69636B2077686565
:104990006E20646F6E652E0054656D706572617473
:1049A0007572652063616C6962726174696F6E20F3
:1049B0006661696C65640054656D706572617475DB
:1049C00072652063616C6962726174696F6E2069DF
:1049D000732066696E697368656420616E64206126
:1049E00063746976652E2054656D702E2063616C4A
:1049F0006962726174696F6E2063616E2062652006
:104A000064697361626C656420696E206D656E75A2
:104A10002053657474696E67732D3E54656D702EF6
:104A20002063616C2E004E2F41002020300020209A
:104A3000310049523A0046494E44413A0050494EED
:104A400044413A0053656E736F72207374617465EC
:104A50000020003E003E0020003E003E0054656DF8
:104A600070657261747572652063616C69627261F0
:104A700074696F6E206661696C65642E20436F6E89
:104A800074696E75652077697468207072657373D8
:104A9000696E6720746865206B6E6F622E005465C6
:104AA0006D70657261747572652063616C696272A4
:104AB0006174696F6E20646F6E652E20436F6E7433
:104AC000696E7565207769746820707265737369A3
:104AD0006E6720746865206B6E6F622E005A30001E
:104AE0005A310059300059310058300058310045D2
:104AF0006E642073746F7073206469616700436F24
:104B00006F6C646F776E00507265686561742074B5
:104B10006865206E6F7A7A6C6521004552524F525B
:104B20003A0046696C616D656E74206578747275C3
:104B300064696E672026207769746820636F7272DB
:104B400065637420636F6C6F723F004175746F6CA6
:104B50006F6164696E672066696C616D656E742053
:104B60006973206163746976652C206A757374209B
:104B7000707265737320746865206B6E6F6220615C
:104B80006E6420696E736572742066696C616D6510
:104B90006E742E2E2E00546F74616C207072696ECC
:104BA000742074696D6500546F74616C2066696C63
:104BB000616D656E74005072696E742074696D6504
:104BC0000046696C616D656E742075736564005292
:104BD00069676874004C6566740059206469737471
:104BE000616E63652066726F6D206D696E0053653E
:104BF0007665726520736B65773A00536C696768F8
:104C00007420736B65773A004D65617375726564E6
:104C100020736B6577005B303B305D20706F696E91
:104C200074206F66667365740041646A7573746995
:104C30006E67205A3A00464C4558202D20203234C9
:104C4000302F35300050502020202D202032353498
:104C50002F3130300048495053202D20203232303F
:104C60002F3130300041425320202D202032353565
:104C70002F3130300041534120202D20203236305A
:104C80002F3130350050455420202D202032333034
:104C90002F383500504C4120202D20203231352F27
:104CA0003630006E6F7A7A6C65202D2020323530D8
:104CB0002F30006661726D2020202D20203235308B
:104CC0002F383000252D31322E313253252B382EFE
:104CD00031660045787472756465723A006D6D00D6
:104CE00059005800583A00593A005A3A00256325AD
:104CF0002D31332E313353252B352E33660025537A
:104D00003A0A2531372E32666D20200A25533A0A99
:104D100025376C6464203A253268686468203A2537
:104D200030326868646D0025533A0A2531372E32D7
:104D3000666D20200A25533A0A2532646820253002
:104D400032646D2025303264730025362E32666D54
:104D50006D004E2F410025533A0A25530A25533A38
:104D60000A25533A004E2F410025332E32660100AA
:104D700025533A0A25530A252D31352E3135532531
:104D8000332E3266010A252D31352E313553253328
:104D90002E3266010025632533642F2564256300C8
:104DA0005A25362E326620005A2020202D2D2D2007
:104DB0000025632533642525002D2D2D002533681E
:104DC000686400253353253373252500555342006D
:104DD00020202000205344002025753E257500200A
:104DE0003F3E257500204625750020463F002046A1
:104DF0003020200025632D2D3A2D2D202000256305
:104E000025337568202563256300256325303275B9
:104E10003A2530327525632563003A200020202092
:104E20002020202020202020202020202020202082
:104E300000203A2000202020202020202020202098
:104E40002020202020202020200020202020202082
:104E5000202020202020200025730050494E44416E
:104E60002048656174696E670054656D702E20631B
:104E7000616C2E2020202020202020202000436153
:104E80006C6962726174696F6E20646F6E65004355
:104E9000616C6962726174696E67205A0042656470
:104EA00020646F6E65004265642048656174696EB8
:104EB000670048656174696E6720646F6E652E00D7
:104EC00048656174696E67004737360057697A61D3
:104ED00072642073746174653A2025640A005B254E
:104EE0002E37735D4C6976652061646A2E205A0AFC
:104EF00076616C7565207365742C20636F6E7469C0
:104F00006E75650A6F722073746172742066726FB9
:104F10006D207A65726F3F0A2563436F6E74696E08
:104F200075652563526573657400506C65617365C2
:104F3000206C6F61642066696C616D656E742066BB
:104F4000697273742E0049732066696C616D656EB9
:104F500074206C6F616465643F0043616E63656CCF
:104F60000046696C616D656E740053656C656374B1
:104F70002066696C616D656E743A0052756E6E697B
:104F80006E672057697A6172642077696C6C20645F
:104F9000656C6574652063757272656E74206361FB
:104FA0006C6962726174696F6E20726573756C747E
:104FB0007320616E642073746172742066726F6D09
:104FC0002074686520626567696E6E696E672E2061
:104FD000436F6E74696E75653F00507265686561F8
:104FE00074696E67206E6F7A7A6C652E20506C65DE
:104FF00061736520776169742E004C6F6164696E1E
:10500000672066696C616D656E7400506C656173D4
:105010006520696E736572742066696C616D656E7A
:105020007420696E746F2074686520657874727579
:105030006465722C207468656E20707265737320CD
:10504000746865206B6E6F6220746F206C6F616492
:105050002069742E00506C6561736520696E7365FC
:1050600072742066696C616D656E7420696E746F10
:105070002074686520666972737420747562652097
:105080006F6620746865204D4D552C207468656EE0
:1050900020707265737320746865206B6E6F622078
:1050A000746F206C6F61642069742E0054686520F1
:1050B0007072696E7465722077696C6C20737461AC
:1050C0007274207072696E74696E672061207A69EB
:1050D000672D7A6167206C696E652E20526F74614E
:1050E000746520746865206B6E6F6220756E7469DC
:1050F0006C20796F75207265616368207468652023
:105100006F7074696D616C206865696768742E20C2
:10511000436865636B207468652070696374757299
:10512000657320696E207468652068616E64626FC3
:105130006F6B202843616C6962726174696F6E20C5
:1051400063686170746572292E0053656C656374C1
:105150002074656D70657261747572652077686919
:105160006368206D61746368657320796F75722060
:105170006D6174657269616C2E0043686F6F736551
:1051800020612066696C616D656E7420666F7220A7
:10519000746865204669727374204C617965722069
:1051A00043616C6962726174696F6E20616E642024
:1051B00073656C65637420697420696E207468651A
:1051C000206F6E2D73637265656E206D656E752E32
:1051D000004E6F7720492077696C6C2063616C69A1
:1051E00062726174652064697374616E63652062C4
:1051F00065747765656E20746970206F66207468C9
:1052000065206E6F7A7A6C6520616E6420686561D6
:105210007462656420737572666163652E00596FF0
:10522000752063616E20616C77617973207265739C
:10523000756D65207468652057697A6172642066AF
:10524000726F6D2043616C6962726174696F6E2068
:105250002D3E2057697A6172642E00506C6561732F
:105260006520636865636B206F75722068616E648A
:10527000626F6F6B20616E64206669782074686568
:105280002070726F626C656D2E205468656E20729E
:105290006573756D65207468652057697A617264FD
:1052A000206279207265626F6F74696E672074681E
:1052B00065207072696E7465722E00416C6C206995
:1052C0007320646F6E652E20486170707920707253
:1052D000696E74696E672100496620796F75206870
:1052E000617665206164646974696F6E616C2073B6
:1052F0007465656C207368656574732C2063616CDC
:105300006962726174652074686569722070726583
:105310007365747320696E2053657474696E677366
:10532000202D204857205365747570202D2053740C
:1053300065656C207368656574732E00506C6561DB
:10534000736520636C65616E206865617462656475
:1053500020616E64207468656E20707265737320BE
:10536000746865206B6E6F622E00446F20796F75D4
:105370002077616E7420746F20726570656174208F
:105380006C617374207374657020746F2072656132
:10539000646A7573742064697374616E63652062F6
:1053A00065747765656E206E6F7A7A6C6520616EC4
:1053B0006420686561746265643F0053656C656371
:1053C00074206E6F7A7A6C6520707265686561749E
:1053D0002074656D70657261747572652077686997
:1053E0006368206D61746368657320796F757220DE
:1053F0006D6174657269616C2E0049732066696C19
:10540000616D656E74206C6F616465643F00497303
:105410002066696C616D656E74206C6F6164656493
:105420003F004E6F7720492077696C6C2070726561
:1054300068656174206E6F7A7A6C6520666F722081
:10544000504C412E00492077696C6C2072756E209B
:105450007A2063616C6962726174696F6E206E6F2D
:10546000772E004E6F772072656D6F7665207468B9
:10547000652074657374207072696E742066726F33
:105480006D20737465656C2073686565742E0050BB
:105490006C656173652072656D6F766520736869F0
:1054A0007070696E672068656C70657273206669DC
:1054B0007273742E00492077696C6C2072756E20AF
:1054C00078797A2063616C6962726174696F6E20A9
:1054D0006E6F772E2049742077696C6C2074616B35
:1054E0006520617070726F782E203132206D696E88
:1054F000732E0046697273742C20492077696C6C96
:105500002072756E207468652073656C66746573AF
:105510007420746F20636865636B206D6F737420F3
:10552000636F6D6D6F6E20617373656D626C792052
:1055300070726F626C656D732E0048692C20492073
:10554000616D20796F7572205A617269626F207087
:1055500072696E7465722E20576F756C6420796F56
:1055600075206C696B65206D6520746F20677569A7
:10557000646520796F75207468726F756768207430
:1055800068652073657475702070726F63657373DE
:105590003F0053706F6F6C4A6F696E2020205B4E26
:1055A0002F415D0053706F6F6C4A6F696E20202031
:1055B0005B6F66665D0053706F6F6C4A6F696E203B
:1055C0002020205B6F6E5D004669726D77617265A9
:1055D0002020205B6E6F6E655D004669726D77619D
:1055E0007265205B7374726963745D004669726DE5
:1055F000776172652020205B7761726E5D0046697D
:10560000726D776172652020205B6E6F6E655D0044
:105610004D6F64656C2020202020205B6E6F6E65CE
:105620005D004D6F64656C202020205B737472698F
:1056300063745D004D6F64656C2020202020205B2A
:105640007761726E5D004D6F64656C2020202020B4
:10565000205B6E6F6E655D004E6F7A7A6C65202000
:105660002020205B6E6F6E655D004E6F7A7A6C65F0
:105670002020205B7374726963745D004E6F7A7AC8
:105680006C6520202020205B7761726E5D004E6F7C
:105690007A7A6C6520202020205B6E6F6E655D003D
:1056A00048572053657475700048572053657475CA
:1056B0007000436865636B73004E6F7A7A6C652087
:1056C000642E20205B302E34305D004E6F7A7A6C71
:1056D0006520642E20205B302E36305D004E6F7AC0
:1056E0007A6C6520642E20205B302E34305D004EB5
:1056F0006F7A7A6C6520642E20205B302E32355D07
:1057000000537465656C2073686565747300576930
:105710007A61726420656E642073746174653A20E6
:1057200025640A002F2F20616374696F6E3A7061DF
:10573000757365640046696C2E2058643A2533649D
:105740002059643A2533640A496E743A202533643B
:105750002020536875743A202533640046696C61D3
:105760006D656E742073656E736F720A6973206461
:10577000697361626C65642E002573202534642092
:1057800052504D0A2573202534642052504D0A0092
:105790005072696E742046414E004E6F7A7A6C6585
:1057A0002046414E00546F74616C004C617374204C
:1057B0007072696E74004D4D55206C6F6164206687
:1057C00061696C73004D4D55206661696C73004CC6
:1057D000617374207072696E74206661696C757291
:1057E0006573004D4D5520706F7765722066616955
:1057F0006C73004D4D55206C6F6164206661696C5F
:1058000073004D4D55206661696C7300546F74616F
:105810006C206661696C757265730046696C616DB8
:105820002E2072756E6F75747300546F74616C20E6
:105830006661696C757265730046696C616D2E20D6
:1058400072756E6F757473004C6173742070726939
:105850006E74206661696C757265730050494E44C0
:10586000410054656D7065726174757265730053A3
:10587000656E736F7220696E666F0045787472751D
:1058800064657220696E666F0058595A2063616CB6
:105890002E2064657461696C7300756E6B6E6F7732
:1058A0006E004D4D553220636F6E6E656374656496
:1058B00000446174653A00686F77746F2E7072757A
:1058C000736133642E636F6D00666F72756D2E7039
:1058D0007275736133642E636F6D005A6172696211
:1058E0006F2E636F6D00746F20756E6C6F61642036
:1058F00066696C616D656E7400746F206C6F6164B5
:105900002066696C616D656E7400507265737320FA
:10591000746865206B6E6F62003E43616E63656CF8
:105920000050726568656174696E6720746F2063EA
:1059300075740050726568656174696E6720746F74
:1059400020656A6563740050726568656174696E8C
:105950006720746F20756E6C6F61640050726568AB
:10596000656174696E6720746F206C6F61640025D7
:10597000530A20252D31362E313653252D33640A16
:1059800020252D31362E313653252D3364002553F5
:105990000A20252D31362E313653252D33640A2029
:1059A000252D31362E313653252D33640A20252DF1
:1059B00031362E313653252D33640025530A2025E8
:1059C0002D31362E313653252D33640A25530A20C6
:1059D000252D31362E313653252D33640A002025EE
:1059E0007325336401200A00466C61736841697253
:1059F00020495020416464723A004D4D55322020B8
:105A000020202020204E2F410025642E25642E25A5
:105A1000642D2564002046573A00446563203139DF
:105A2000203230313900453344763666756C6C006F
:105A300052414D426F31336100315F37356D6D5FDB
:105A40004D4B3235002D2D2D2D2D2D2D2D2D2D2D68
:105A50002D0020332E382E312D3238373200466952
:105A6000726D776172653A0025642E25642E256477
:105A70002E2564004D373032004D373031004D3720
:105A80003032004D3730310047312058352E30202C
:105A900045342E302046313030302E300047312012
:105AA0005A302E32302046313030302E30004731DF
:105AB000205835352E3020453235204631343030AF
:105AC0002E3000473120592D322E302046313030D3
:105AD000302E3000473120583234302E30204532BD
