:100000000C94724A0C94A34A0C94A34A0C94A34AED
:100010000C94A34A0C94A34A0C94A34A0C94A34AAC
:100020000C94A34A0C94A34A0C94A34A0C94A34A9C
:100030000C94A34A0C94A34A0C9431DC0C94DBF589
:100040000C94A34A0D9466170C94A34A0C94A34AEB
:100050000C94A34A0C94A34A0C94A34A0C941E98A3
:100060000C94A34A0C949FEE0C94A34A0C94A34ABC
:100070000C94A34A0C94A34A0C94A34A0C94A34A4C
:100080000C94A34A0C94A34A0C94A34A0C94A34A3C
:100090000C945BEE0C94A34A0C94A34A0C94A34AD0
:1000A0000C94A34A0C94A34A0C94A34A0C94A34A1C
:1000B0000C94A34A0C94A34A0C94A34A0C94A34A0C
:1000C0000C94A34A0C94A34A0C94A34A0C94C3F135
:1000D0000C94A34A0C94A34A0C94A34A0C94A34AEC
:1000E0000C94A34A3A98449852985F9871987898DB
:1000F000B4989698AC984099429940994299409901
:10010000429944994699E3FDF5FD07FE14FE1EFE53
:100110004DFECDFD6EFE80FE7CFECDFD82FE8EFE90
:1001200094FEA7FE5C025C0278025C0278029001F9
:10013000D401A601740252019401CC01D801F2014C
:10014000CE019402720132028C012A022C027E013D
:100150000C02C001EC015802560110027A01C601DE
:10016000B0015001EA01CA01DC0112023C029A010D
:100170007A0286014202B20108024A0260023C028F
:100180006A0292017401AA01EE0176027002540221
:100190009C01960136027C01E6014E015A01B40130
:1001A0004C029C016C026E0166028A011E02500222
:1001B000380268018A02D00158017001A4012E02A0
:1001C0002002084AD73B3BCE016E84BCBFFDC12F45
:1001D0003D6C74319ABD56833DDA3D00C77F11BE38
:1001E000D9E4BB4C3E916BAAAABE000000803F053B
:1001F000A84CCDB2D44EB93836A9020C50B991866C
:1002000088083CA6AAAA2ABE000000803F076342D5
:1002100036B79BD8A71A39685618AEBAAB558C1D9D
:100220003CB7CC5763BD6DEDFD753EF6177231BF1F
:10023000000000803F08000000BE922449123EAB3F
:10024000AAAA2ABECDCCCC4C3E00000080BEABAAF0
:10025000AAAA3E00000000BF000000803F0000008E
:100260000000084178D3BB4387D1133D190E3CC32E
:10027000BD4282AD2B3E68EC8276BED98FE1A93EAD
:100280004C80EFFFBE01C4FF7F3F00000000000074
:100290000D948C3E0D94110D0D94210D0D94794506
:1002A0000D9491430D946D310D942F0D0D94EA3BF7
:1002B0000D94665F0D9483450D948A020D945F3E04
:1002C0000D9466580D946D0D0D9470440D94A30318
:1002D0000D94FB5E0D9448560D9485390D94B045F0
:1002E0000D94565F0D94DF310D94C6430D94B755B0
:1002F0000D94730B0D94C43C0D9465450D94363AE2
:100300000D94280D0D94630D0D94EE130D94A243DE
:100310000D94813E0D94C05B0D940A320D944511ED
:100320000D94CE0C0D94C2430D9483310D9455451C
:100330000D947C580D9498430D94C4450D94137CF2
:100340000D94A1070D94A73D0D94BE5E0D945731F9
:100350000D9400110D942D450D94DB430D948942AD
:100360000D94193D0D94AA430D9492450D94644447
:100370000D94793D0D946C3E0D94520D0D94CC432B
:100380000D94D2390D9404120D944D140D94E13C4A
:100390000D94D2810D9483430D94A3310D94BF31FC
:1003A0000D94E55E0D944B0D0D94D10C0D945C44B1
:1003B0000D94A9310D9484570D9487430D946909C8
:1003C0000D9476020D94440D0D9458440D946F4590
:1003D0000D94FB570D9494430D94733D0D94324549
:1003E0000D94D2430D94AF310D943D0D0D94150134
:1003F0000D941A0D0D94D6430D946F0B0D94881423
:100400000D94564D0D9480020D94DE2C0D941C57C6
:100410000D94B0430D9470140D94033A0D946981BA
:100420000D946F3C0D948D430D94EC570D9459121F
:100430000D94CA800D9460120D946C440D94415F2C
:100440000D945E5E0D9430080D942C140D94072EBF
:100450000D9499340D94833A0D948E3A0D94905ED8
:100460000D9407550D94FA310D947B0F0D945D4555
:100470000D94065F0D949B490D94CB430D94544409
:100480000D94FC100D94A6430D94590D0D94EC2C75
:100490000D94F23D0D94B4430D949C450D940D8143
:1004A0000D94115F0D94F43F0D944B450D94D20AB9
:1004B0000D94C03A0D94DA110D94C80C0D94684453
:1004C0000D94B8430D94F8100D9480340D94BA45F2
:1004D0000D94B8940D94BE430D94A6450D94351318
:1004E0000D9441450D94C0550D9467310D943745D9
:1004F0000D94CB0C0D949C430D9440820D94B854F4
:100500000D945F820D9434000D9467120D94360D96
:100510000D9460440D94F05E0D94BF0A0D943398D1
:100520000D9478800D946C020D94CF310D945D097B
:100530000D94E03F5F5345435F4C414E4700000040
:1005400000000000000000000000000000000000AB
:10055000000000000000000000000000000000009B
:10056000000000000000000000000000000000008B
:10057000000000000000000000000000000000007B
:1035300000000000FFFF472D636F646520736C6916
:1035400063656420666F72206120646966666572D7
:10355000656E74206C6576656C2E20436F6E7469A1
:103560006E75653F00FFFF472D636F646520736CC8
:103570006963656420666F722061206469666665B0
:1035800072656E74206C6576656C2E20506C65617A
:1035900073652072652D736C69636520746865209E
:1035A0006D6F64656C20616761696E2E2050726971
:1035B0006E742063616E63656C6C65642E00FFFF42
:1035C000472D636F646520736C6963656420666F63
:1035D000722061206E65776572206669726D776111
:1035E00072652E20506C656173652075706461741E
:1035F0006520746865206669726D776172652E203A
:103600005072696E742063616E63656C6C65642EC4
:1036100000FFFF472D636F646520736C6963656409
:1036200020666F722061206E657765722066697210
:103630006D776172652E20436F6E74696E75653F9C
:1036400000FFFF472D636F646520736C69636564D9
:1036500020666F72206120646966666572656E74AB
:10366000207072696E74657220747970652E2050B6
:103670006C656173652072652D736C696365207478
:103680006865206D6F64656C20616761696E2E20CE
:103690005072696E742063616E63656C6C65642E34
:1036A00000FFFF472D636F646520736C6963656479
:1036B00020666F72206120646966666572656E744B
:1036C000207072696E74657220747970652E204363
:1036D0006F6E74696E75653F00FFFF472D636F6401
:1036E0006520736C6963656420666F722061206475
:1036F0006966666572656E74207072696E74657253
:1037000020747970652E20436F6E74696E75653F05
:1037100000FFFF472D636F646520736C6963656408
:1037200020666F72206120646966666572656E74DA
:10373000207072696E74657220747970652E2050E5
:103740006C656173652072652D736C6963652074A7
:103750006865206D6F64656C20616761696E2E20FD
:103760005072696E742063616E63656C6C65642E63
:1037700000FFFF5072657373206B6E6F6220746F71
:103780002070726568656174206E6F7A7A6C65204E
:10379000616E6420636F6E74696E75652E00FFFF45
:1037A000506C656173652070726573732074686511
:1037B000206B6E6F6220746F20756E6C6F61642079
:1037C00066696C616D656E7400FFFF52656D6F76A2
:1037D00065206F6C642066696C616D656E74206134
:1037E0006E6420707265737320746865206B6E6FF1
:1037F0006220746F207374617274206C6F616469ED
:103800006E67206E65772066696C616D656E742EDB
:1038100000FFFF616E6420707265737320746865C9
:10382000206B6E6F6200FFFF496E736572742066D5
:10383000696C616D656E7400FFFF436F6C6F722081
:103840006E6F7420636F727265637400FFFF466968
:103850006C616D656E74206E6F74206C6F61646551
:103860006400FFFF4368616E67656420636F727276
:103870006563746C793F00FFFF4C6F6164696E672C
:1038800020636F6C6F7200FFFF4368616E67652095
:10389000737563636573732100FFFF506C6561731B
:1038A00065206F70656E2069646C657220616E645E
:1038B0002072656D6F76652066696C616D656E74EA
:1038C000206D616E75616C6C792E00FFFF5761731E
:1038D0002066696C616D656E7420756E6C6F6164D5
:1038E000207375636365737366756C3F00FFFF50EB
:1038F0006C6561736520757067726164652E00FF89
:10390000FF4E6577206669726D7761726520766516
:103910007273696F6E20617661696C61626C653A81
:1039200000FFFF57616974696E6720666F722050EF
:10393000494E44412070726F626520636F6F6C69FD
:103940006E6700FFFF43686F6F7365206578747260
:10395000756465723A00FFFF45787472756465722C
:1039600000FFFF43686F6F73652066696C616D656A
:103970006E743A00FFFF4E6F206D6F76652E00FF6C
:10398000FF5761697420666F7220757365722E2E01
:103990002E00FFFF536F6D652070726F626C656D56
:1039A00020656E636F756E74657265642C205A2D88
:1039B0006C6576656C696E6720656E666F726365AF
:1039C00064202E2E2E00FFFF537461626C6520610F
:1039D0006D6269656E742074656D70657261747571
:1039E00072652032312D323643206973206E656551
:1039F0006465642061207269676964207374616E14
:103A0000642069732072657175697265642E00FFA8
:103A1000FF506C656173652072756E2058595A208D
:103A200063616C6962726174696F6E20666972733A
:103A3000742E00FFFF5468657265206973207374EB
:103A4000696C6C2061206E65656420746F206D6107
:103A50006B65205A2063616C6962726174696F6E74
:103A60002E20506C6561736520666F6C6C6F7720DB
:103A7000746865206D616E75616C2C20636861707F
:103A80007465722046697273742073746570732C48
:103A90002073656374696F6E2043616C6962726143
:103AA00074696F6E20666C6F772E00FFFF5072692D
:103AB0006E74657220686173206E6F742062656534
:103AC0006E2063616C6962726174656420796574EB
:103AD0002E20506C6561736520666F6C6C6F77206B
:103AE000746865206D616E75616C2C20636861700F
:103AF0007465722046697273742073746570732CD8
:103B00002073656374696F6E2043616C69627261D2
:103B100074696F6E20666C6F772E00FFFF4F6C64C8
:103B20002073657474696E677320666F756E642E9A
:103B30002044656661756C74205049442C2045739F
:103B400074657073206574632E2077696C6C2062D5
:103B500065207365742E00FFFF5761726E696E6792
:103B60003A20626F7468207072696E746572207496
:103B700079706520616E64206D6F74686572626F24
:103B80006172642074797065206368616E67656432
:103B90002E00FFFF5761726E696E673A207072697E
:103BA0006E7465722074797065206368616E6765F4
:103BB000642E00FFFF5761726E696E673A206D6F69
:103BC00074686572626F61726420747970652063D5
:103BD00068616E6765642E00FFFF58595A20636163
:103BE0006C6962726174696F6E20616C6C207269BD
:103BF0006768742E20536B65772077696C6C206240
:103C00006520636F72726563746564206175746F9B
:103C10006D61746963616C6C792E00FFFF58595AAD
:103C20002063616C6962726174696F6E20616C6C93
:103C30002072696768742E20582F59206178657347
:103C40002061726520736C696768746C7920736B8E
:103C5000657765642E20476F6F64206A6F6221006C
:103C6000FFFF58595A2063616C6962726174696F11
:103C70006E206F6B2E20582F59206178657320615C
:103C800072652070657270656E646963756C6172CF
:103C90002E20436F6E67726174756C6174696F6E0C
:103CA000732100FFFF58595A2063616C6962726189
:103CB00074696F6E20636F6D70726F6D6973656488
:103CC0002E2052696768742066726F6E742063617B
:103CD0006C6962726174696F6E20706F696E7420B6
:103CE0006E6F7420726561636861626C652E00FF9F
:103CF000FF58595A2063616C6962726174696F6E12
:103D000020636F6D70726F6D697365642E204672EB
:103D10006F6E742063616C6962726174696F6E208A
:103D2000706F696E7473206E6F7420726561636862
:103D300061626C652E00FFFF58595A2063616C69FF
:103D400062726174696F6E206661696C65642E20B1
:103D500052696768742066726F6E742063616C6963
:103D600062726174696F6E20706F696E74206E6F1D
:103D70007420726561636861626C652E00FFFF5894
:103D8000595A2063616C6962726174696F6E206652
:103D900061696C65642E2046726F6E742063616C7D
:103DA0006962726174696F6E20706F696E747320DE
:103DB0006E6F7420726561636861626C652E00FFCE
:103DC000FF58595A2063616C6962726174696F6E41
:103DD000206661696C65642E20506C656173652096
:103DE000636F6E73756C7420746865206D616E7599
:103DF000616C2E00FFFF58595A2063616C69627232
:103E00006174696F6E206661696C65642E2042651D
:103E1000642063616C6962726174696F6E20706F97
:103E2000696E7420776173206E6F7420666F756E93
:103E3000642E00FFFF506C6561736520706C6163D8
:103E40006520737465656C207368656574206F6E9A
:103E500020686561746265642E00FFFF44697374B5
:103E6000616E6365206265747765656E2074697044
:103E7000206F6620746865206E6F7A7A6C652061A9
:103E80006E64207468652062656420737572666173
:103E9000636520686173206E6F74206265656E20B3
:103EA000736574207965742E20506C65617365208C
:103EB000666F6C6C6F7720746865206D616E7561DC
:103EC0006C2C20636861707465722046697273742B
:103ED0002073746570732C2073656374696F6E2032
:103EE0004669727374206C617965722063616C69D4
:103EF00062726174696F6E2E00FFFF506C616365C2
:103F00002061207368656574206F6620706170653C
:103F10007220756E64657220746865206E6F7A7A9F
:103F20006C6520647572696E6720746865206361D2
:103F30006C6962726174696F6E206F662066697267
:103F40007374203420706F696E74732E204966205C
:103F5000746865206E6F7A7A6C652063617463683B
:103F60006573207468652070617065722C20706FB5
:103F7000776572206F666620746865207072696E5E
:103F800074657220696D6D6564696174656C792E04
:103F900000FFFF506C656173652072656D6F76651B
:103FA00020737465656C2073686565742066726F34
:103FB0006D20686561746265642E00FFFF4973209F
:103FC000737465656C207368656574206F6E206816
:103FD0006561746265643F00FFFF206F66203400F6
:103FE000FFFF536561726368696E672062656420D4
:103FF00063616C6962726174696F6E20706F696E63
:104000007400FFFF206F66203900FFFF4D6561736C
:104010007572696E67207265666572656E6365208C
:10402000686569676874206F662063616C69627295
:104030006174696F6E20706F696E7400FFFF506C61
:104040006561736520636C65616E20746865206EC0
:104050006F7A7A6C6520666F722063616C69627238
:104060006174696F6E2E20436C69636B207768659D
:104070006E20646F6E652E00FFFF4175746F2068BF
:104080006F6D6500FFFF53544F505045442E200084
:10409000FFFF426564206C6576656C696E6720661B
:1040A00061696C65642E2053656E736F722064695C
:1040B000646E7420747269676765722E204465624D
:1040C000726973206F6E206E6F7A7A6C653F20572D
:1040D000616974696E6720666F72207265736574BA
:1040E0002E00FFFF506C656173652072656D6F7601
:1040F000652066696C616D656E7420616E64207404
:1041000068656E20707265737320746865206B6ECD
:104110006F622E00FFFF456A656374696E672066F3
:10412000696C616D656E7400FFFF4D4D55206C6FBD
:104130006164206661696C6564202020202000FF96
:10414000FF50494E44412048656174696E6700FF25
:10415000FF54656D702E2063616C2E20202020207E
:10416000202020202000FFFF43616C69627261748F
:10417000696F6E20646F6E6500FFFF43616C69625A
:10418000726174696E67205A00FFFF4265642064A3
:104190006F6E6500FFFF4265642048656174696E5B
:1041A0006700FFFF48656174696E6720646F6E6524
:1041B0002E00FFFF48656174696E6700FFFF5B2595
:1041C0002E37735D4C6976652061646A2E205A0A29
:1041D00076616C7565207365742C20636F6E7469ED
:1041E0006E75650A6F722073746172742066726FE7
:1041F0006D207A65726F3F0A2563436F6E74696E36
:1042000075652563526573657400FFFF506C6561C9
:104210007365206C6F61642066696C616D656E7496
:104220002066697273742E00FFFF49732066696C03
:10423000616D656E74206C6F616465643F00FFFFA3
:1042400053656C6563742066696C616D656E743A64
:1042500000FFFF46696C616D656E7400FFFF43618E
:104260006E63656C00FFFF52756E6E696E67205756
:10427000697A6172642077696C6C2064656C65741E
:10428000652063757272656E742063616C69627219
:104290006174696F6E20726573756C747320616EE2
:1042A000642073746172742066726F6D2074686527
:1042B00020626567696E6E696E672E20436F6E744B
:1042C000696E75653F00FFFF5072656865617469CE
:1042D0006E67206E6F7A7A6C652E20506C65617304
:1042E0006520776169742E00FFFF4C6F6164696E11
:1042F000672066696C616D656E7400FFFF506C65C8
:1043000061736520696E736572742066696C616D96
:10431000656E7420696E746F2074686520657874AA
:1043200072756465722C207468656E207072657396
:104330007320746865206B6E6F6220746F206C6FE1
:1043400061642069742E00FFFF506C656173652005
:10435000696E736572742066696C616D656E742038
:10436000696E746F20746865206669727374207456
:10437000756265206F6620746865204D4D552C2050
:104380007468656E20707265737320746865206B45
:104390006E6F6220746F206C6F61642069742E00F0
:1043A000FFFF546865207072696E746572207769CA
:1043B0006C6C207374617274207072696E74696EB3
:1043C000672061207A69672D7A6167206C696E6564
:1043D0002E20526F7461746520746865206B6E6F57
:1043E0006220756E74696C20796F752072656163E7
:1043F0006820746865206F7074696D616C206865F1
:10440000696768742E20436865636B207468652053
:10441000706963747572657320696E2074686520B5
:1044200068616E64626F6F6B202843616C696272B1
:104430006174696F6E2063686170746572292E0003
:10444000FFFF53656C6563742074656D7065726100
:1044500074757265207768696368206D617463683C
:10446000657320796F7572206D6174657269616C16
:104470002E00FFFF43686F6F736520612066696CD3
:10448000616D656E7420666F722074686520466980
:10449000727374204C617965722043616C69627239
:1044A0006174696F6E20616E642073656C656374FE
:1044B00020697420696E20746865206F6E2D7363A7
:1044C0007265656E206D656E752E00FFFF4E6F770D
:1044D00020492077696C6C2063616C696272617439
:1044E000652064697374616E6365206265747765C5
:1044F000656E20746970206F6620746865206E6F29
:104500007A7A6C6520616E642068656174626564A6
:1045100020737572666163652E00FFFF596F752009
:1045200063616E20616C7761797320726573756D5C
:1045300065207468652057697A6172642066726FBD
:104540006D2043616C6962726174696F6E202D3EEB
:104550002057697A6172642E00FFFF506C656173A9
:104560006520636865636B206F75722068616E6497
:10457000626F6F6B20616E64206669782074686575
:104580002070726F626C656D2E205468656E2072AB
:104590006573756D65207468652057697A6172640A
:1045A000206279207265626F6F74696E672074682B
:1045B00065207072696E7465722E00FFFF416C6C2D
:1045C00020697320646F6E652E20486170707920B9
:1045D0007072696E74696E672100FFFF4966207909
:1045E0006F752068617665206164646974696F6EB7
:1045F000616C20737465656C207368656574732CD9
:104600002063616C696272617465207468656972A7
:10461000207072657365747320696E2053657474BD
:10462000696E6773202D204857205365747570207C
:104630002D20537465656C207368656574732E0056
:10464000FFFF506C6561736520636C65616E206867
:1046500065617462656420616E64207468656E20B3
:10466000707265737320746865206B6E6F622E00C4
:10467000FFFF446F20796F752077616E7420746F2F
:1046800020726570656174206C6173742073746549
:104690007020746F20726561646A75737420646938
:1046A0007374616E6365206265747765656E206EF4
:1046B0006F7A7A6C6520616E6420686561746265EA
:1046C000643F00FFFF53656C656374206E6F7A7AF8
:1046D0006C6520707265686561742074656D7065C5
:1046E000726174757265207768696368206D6174A2
:1046F0006368657320796F7572206D617465726986
:10470000616C2E00FFFF49732066696C616D656EF8
:1047100074206C6F616465643F00FFFF497320661D
:10472000696C616D656E74206C6F616465643F00D7
:10473000FFFF4E6F7720492077696C6C207072659F
:1047400068656174206E6F7A7A6C6520666F72207E
:10475000504C412E00FFFF492077696C6C20727528
:104760006E207A2063616C6962726174696F6E2079
:104770006E6F772E00FFFF4E6F772072656D6F763C
:1047800065207468652074657374207072696E7436
:104790002066726F6D20737465656C207368656543
:1047A000742E00FFFF506C656173652072656D6F3C
:1047B0007665207368697070696E672068656C70D3
:1047C0006572732066697273742E00FFFF4920774B
:1047D000696C6C2072756E2078797A2063616C69DF
:1047E00062726174696F6E206E6F772E204974203B
:1047F00077696C6C2074616B6520617070726F7882
:104800002E203132206D696E732E00FFFF466972D3
:1048100073742C20492077696C6C2072756E20743B
:1048200068652073656C667465737420746F2063AB
:104830006865636B206D6F737420636F6D6D6F6E51
:1048400020617373656D626C792070726F626C6544
:104850006D732E00FFFF48692C204920616D20797F
:104860006F7572205A617269626F207072696E741E
:1048700065722E20576F756C6420796F75206C6996
:104880006B65206D6520746F20677569646520799C
:104890006F75207468726F7567682074686520731F
:1048A000657475702070726F636573733F00FFFFEE
:1048B00053706F6F6C4A6F696E2020205B4E2F41E2
:1048C0005D00FFFF53706F6F6C4A6F696E20202090
:1048D0005B6F66665D00FFFF53706F6F6C4A6F69B8
:1048E0006E202020205B6F6E5D00FFFF4669726DB9
:1048F000776172652020205B6E6F6E655D00FFFF43
:104900004669726D77617265205B73747269637456
:104910005D00FFFF4669726D776172652020205B44
:104920007761726E5D00FFFF4669726D7761726537
:104930002020205B6E6F6E655D00FFFF4D6F64652C
:104940006C2020202020205B6E6F6E655D00FFFFD5
:104950004D6F64656C202020205B737472696374F2
:104960005D00FFFF4D6F64656C2020202020205BE0
:104970007761726E5D00FFFF4D6F64656C202020D3
:104980002020205B6E6F6E655D00FFFF4E6F7A7AB0
:104990006C6520202020205B6E6F6E655D00FFFF40
:1049A0004E6F7A7A6C652020205B73747269637431
:1049B0005D00FFFF4E6F7A7A6C6520202020205B1F
:1049C0007761726E5D00FFFF4E6F7A7A6C65202012
:1049D0002020205B6E6F6E655D00FFFF48572053FF
:1049E0006574757000FFFF4857205365747570003B
:1049F000FFFF436865636B7300FFFF4E6F7A7A6C4D
:104A00006520642E20205B302E34305D00FFFF4E89
:104A10006F7A7A6C6520642E20205B302E36305DF4
:104A200000FFFF4E6F7A7A6C6520642E20205B3089
:104A30002E34305D00FFFF4E6F7A7A6C6520642E55
:104A400020205B302E32355D00FFFF537465656CAE
:104A50002073686565747300FFFF536F756E642083
:104A600020202020205B6C6F75645D00FFFF536F7A
:104A7000756E64202020205B6173736973745D0020
:104A8000FFFF536F756E64202020205B73696C6597
:104A90006E745D00FFFF536F756E64202020202030
:104AA000205B6F6E63655D00FFFF536F756E642062
:104AB00020202020205B6C6F75645D00FFFF536F2A
:104AC0007274202020202020205B6E6F6E655D00B8
:104AD000FFFF536F72742020205B616C706861620D
:104AE00065745D00FFFF536F72742020202020202A
:104AF000205B74696D655D00FFFF53442063617244
:104B00006420205B6E6F726D616C5D00FFFF53442B
:104B10002063617264205B666C73684169725D003A
:104B2000FFFF53656C656374206C616E6775616728
:104B30006500FFFF54656D702E2063616C2E202090
:104B4000205B6F6E5D00FFFF54656D702E2063610A
:104B50006C2E20205B6F66665D00FFFF4D657368FD
:104B600020626564206C6576656C696E6700FFFF86
:104B7000485720536574757000FFFF46616E7320BF
:104B8000636865636B20205B6F66665D00FFFF46B0
:104B9000616E7320636865636B2020205B6F6E5DC0
:104BA00000FFFF462E206175746F6C6F6164205B9F
:104BB0006F66665D00FFFF462E206175746F6C6F37
:104BC000616420205B6F6E5D00FFFF462E206175E3
:104BD000746F6C6F6164205B4E2F415D00FFFF447A
:104BE000697361626C6520737465707065727300BF
:104BF000FFFF4D6F7665206178697300FFFF546594
:104C00006D706572617475726500FFFF5B303B30DB
:104C10005D20706F696E74206F666673657400FF47
:104C2000FF41646A757374696E67205A3A00FFFF2A
:104C3000526573657400FFFF526561722073696489
:104C400065205B756D5D00FFFF46726F6E742073AB
:104C50006964655B756D5D00FFFF5269676874206C
:104C6000736964655B756D5D00FFFF4C656674205C
:104C700073696465205B756D5D00FFFF536574208B
:104C800074656D70657261747572653A00FFFF41FD
:104C90007265206C65667420616E64207269676855
:104CA00074205A7E63617272696167657320616CFA
:104CB0006C2075703F00FFFF43616C696272617424
:104CC000696E672058595A2E20526F74617465209E
:104CD000746865206B6E6F6220746F206D6F7665EF
:104CE00020746865205A206361727269616765206B
:104CF000757020746F2074686520656E642073740D
:104D00006F70706572732E20436C69636B207768D7
:104D1000656E20646F6E652E00FFFF43616C6962F3
:104D2000726174696E67205A2E20526F74617465C7
:104D300020746865206B6E6F6220746F206D6F76D3
:104D40006520746865205A206361727269616765C5
:104D500020757020746F2074686520656E64207300
:104D6000746F70706572732E20436C69636B20776B
:104D700068656E20646F6E652E00FFFF54656D7070
:104D8000657261747572652063616C6962726174C9
:104D9000696F6E206661696C656400FFFF54656D24
:104DA00070657261747572652063616C69627261AD
:104DB00074696F6E2069732066696E6973686564D3
:104DC00020616E64206163746976652E2054656D80
:104DD000702E2063616C6962726174696F6E20630A
:104DE000616E2062652064697361626C656420692C
:104DF0006E206D656E752053657474696E67732DD2
:104E00003E54656D702E2063616C2E00FFFF4E2FA7
:104E10004100FFFF20203000FFFF20203100FFFF76
:104E200049523A00FFFF46494E44413A00FFFF50C5
:104E3000494E44413A00FFFF53656E736F72207311
:104E40007461746500FFFF50494E444100FFFF54F8
:104E5000656D70657261747572657300FFFF5365EF
:104E60006E736F7220696E666F00FFFF4578747213
:104E70007564657220696E666F00FFFF58595A208D
:104E800063616C2E2064657461696C7300FFFF754B
:104E90006E6B6E6F776E00FFFF4D4D553220636F66
:104EA0006E6E656374656400FFFF446174653A006B
:104EB000FFFF686F77746F2E707275736133642EA5
:104EC000636F6D00FFFF666F72756D2E7072757384
:104ED0006133642E636F6D00FFFF5A617269626F08
:104EE0002E636F6D00FFFF746F20756E6C6F6164D1
:104EF0002066696C616D656E7400FFFF746F206CD5
:104F00006F61642066696C616D656E7400FFFF50AF
:104F10007265737320746865206B6E6F6200FFFFAB
:104F20003E43616E63656C00FFFF507265686561AA
:104F300074696E6720746F2063757400FFFF507290
:104F40006568656174696E6720746F20656A656362
:104F50007400FFFF50726568656174696E67207444
:104F60006F20756E6C6F616400FFFF50726568653D
:104F70006174696E6720746F206C6F616400FFFF5D
:104F8000436F6F6C646F776E00FFFF5072656865EA
:104F9000617420746865206E6F7A7A6C652100FFF9
:104FA000FF4552524F523A00FFFF46696C616D65F2
:104FB0006E7420657874727564696E672026207738
:104FC00069746820636F727265637420636F6C6FBD
:104FD000723F00FFFF4175746F6C6F6164696E67AB
:104FE0002066696C616D656E7420697320616374FD
:104FF0006976652C206A75737420707265737320EE
:10500000746865206B6E6F6220616E6420696E73D8
:105010006572742066696C616D656E742E2E2E004B
:10502000FFFF546F74616C2066696C616D656E740E
:1050300000FFFF546F74616C207072696E7420748D
:10504000696D6500FFFF46696C616D656E74207562
:1050500073656400FFFF5072696E742074696D653A
:1050600000FFFF592064697374616E636520667286
:105070006F6D206D696E00FFFF4C65667400FFFF69
:10508000526967687400FFFF4D65617375726564EE
:1050900020736B657700FFFF536C6967687420733A
:1050A0006B65773A00FFFF53657665726520736B19
:1050B00065773A00FFFF457874727564657200FF8A
:1050C000FF4D6F7665205A00FFFF4D6F76652059C2
:1050D00000FFFF4D6F7665205800FFFF4175746F2C
:1050E0006C6F6164696E672066696C616D656E7472
:1050F00020617661696C61626C65206F6E6C7920ED
:105100007768656E2066696C616D656E7420736585
:105110006E736F72206973207475726E6564206F90
:105120006E2E2E2E00FFFF4552524F523A204669F6
:105130006C616D656E742073656E736F7220697338
:10514000206E6F7420726573706F6E64696E672C69
:1051500020706C6561736520636865636B20636FA5
:105160006E6E656374696F6E2E00FFFF436F70791A
:105170002073656C6563746564206C616E6775612E
:1051800067653F00FFFF43616C696272617465008F
:10519000FFFF5A617269626F204D4B3235532D42C9
:1051A0004D482D32323000FFFF536F7274696E67C5
:1051B0002066696C657300FFFF536F6D652066693B
:1051C0006C65732077696C6C206E6F74206265204B
:1051D000736F727465642E204D61782E204E6F2E91
:1051E000206F662066696C657320696E20312066C9
:1051F0006F6C64657220666F7220736F7274696E73
:1052000067206973203130302E00FFFF46616C73D8
:10521000652074726967676572696E6700FFFF5386
:1052200077617070656400FFFF46726F6E742F6C5B
:105230006566742066616E7300FFFF4178697300D4
:10524000FFFF41786973206C656E67746800FFFF2B
:105250004C6F6F73652070756C6C657900FFFF454E
:105260006E6473746F70206E6F742068697400FFD1
:10527000FF456E6473746F7000FFFF4D6F746F7243
:1052800000FFFF456E6473746F707300FFFF576912
:1052900072696E67206572726F7200FFFF4265640B
:1052A000202F2048656174657200FFFF4E6F7420E7
:1052B000636F6E6E656374656400FFFF48656174BB
:1052C00065722F546865726D6973746F7200FFFFA9
:1052D000506C6561736520636865636B203A00FFFD
:1052E000FF53656C6674657374206572726F72200B
:1052F0002100FFFF46696C616D656E742073656EF9
:10530000736F7200FFFF5072696E742066616E3AAF
:1053100000FFFF45787472756465722066616E3AAD
:1053200000FFFF43616C6962726174696E67206897
:105330006F6D6500FFFF53656C667465737420665E
:1053400061696C6564202000FFFF416C6C20636F15
:10535000727265637420202020202000FFFF4368C4
:1053600065636B696E672073656E736F727320007F
:10537000FFFF436865636B696E6720686F74656ED5
:1053800064202000FFFF436865636B696E672062DD
:105390006564202020202000FFFF436865636B695F
:1053A0006E67205A2061786973202000FFFF4368F0
:1053B00065636B696E6720592061786973202000EE
:1053C000FFFF436865636B696E67205820617869E9
:1053D00073202000FFFF436865636B696E6720657B
:1053E0006E6473746F707300FFFF4572726F72208A
:1053F0002D20737461746963206D656D6F727920FF
:10540000686173206265656E206F76657277726978
:105410007474656E00FFFF436172642072656D6F86
:1054200076656400FFFF506C65617365207570647C
:10543000617465206669726D7761726520696E209E
:10544000796F7572204D4D55322E20576169746900
:105450006E6720666F722072657365742E00FFFFA1
:105460004D4D55204F4B2E20526573756D696E67FB
:105470002E2E2E00FFFF4D4D55204F4B2E205265F6
:1054800073756D696E6720706F736974696F6E2EC6
:105490002E2E00FFFF4D4D55204F4B2E2052657391
:1054A000756D696E672074656D7065726174757273
:1054B000652E2E2E00FFFF466978207468652069EE
:1054C0007373756520616E64207468656E207072F8
:1054D00065737320627574746F6E206F6E204D4D0E
:1054E0005520756E69742E00FFFF5072657373202E
:1054F000746865206B6E6F6220746F2072657375BF
:105500006D65206E6F7A7A6C652074656D7065725A
:1055100061747572652E00FFFF4D4D55206E6565F7
:105520006473207573657220617474656E74696F3D
:105530006E2E00FFFF526573657400FFFF52656EAB
:10554000616D6500FFFF4669727374206C61796557
:10555000722063616C2E00FFFF53656C65637400FD
:10556000FFFF537465656C2073686565747300FF95
:10557000FF536865657400FFFF537570706F727438
:1055800000FFFF4661696C207374617473204D4D98
:105590005500FFFF4661696C20737461747300FFEE
:1055A000FF53746174697374696373202000FFFF93
:1055B00043616C6962726174696F6E00FFFF4175CF
:1055C000746F4C6F61642066696C616D656E740008
:1055D000FFFF456A6563742066696C616D656E7472
:1055E00000FFFF556E6C6F61642066696C616D65CC
:1055F0006E7400FFFF4C6F616420746F206E6F7AD1
:105600007A6C6500FFFF4C6F61642066696C616DA8
:10561000656E7400FFFF4E6F205344206361726417
:1056200000FFFF526573756D65207072696E7400BE
:10563000FFFF5061757365207072696E7400FFFF23
:10564000526573756D65207072696E7400FFFF504E
:1056500072656865617400FFFF54756E6500FFFF39
:105660004C6976652061646A757374205A00FFFF87
:10567000496E666F2073637265656E00FFFF466951
:105680006E697368696E67206D6F76656D656E749F
:105690007300FFFF536F756E642020202020205B75
:1056A0006C6F75645D00FFFF536F756E6420202082
:1056B000205B6173736973745D00FFFF536F756ED8
:1056C00064202020205B73696C656E745D00FFFFB1
:1056D000536F756E642020202020205B6F6E636501
:1056E0005D00FFFF536F756E642020202020205B3B
:1056F0006C6F75645D00FFFF4D6F6465205B6175C5
:10570000746F20706F7765725D00FFFF4D6F646589
:1057100020202020205B73696C656E745D00FFFFA4
:105720004D6F6465205B6869676820706F7765728C
:105730005D00FFFF46616E7320636865636B202028
:105740005B6F66665D00FFFF46616E732063686590
:10575000636B2020205B6F6E5D00FFFF46696C2E3F
:105760002073656E736F7220205B6F6E5D00FFFFAC
:1057700046696C2E2073656E736F72205B6F666670
:105780005D00FFFF4368616E67652066696C616D4F
:10579000656E7400FFFF466C6F7700FFFF53706506
:1057A000656400FFFF4D61676E65747320636F6D04
:1057B000702E5B4E2F415D00FFFF4D61676E65747B
:1057C0007320636F6D702E5B4F66665D00FFFF4D4B
:1057D00061676E65747320636F6D702E205B4F6E12
:1057E0005D00FFFF5A2D70726F6265206E722E2071
:1057F0002020205B335D00FFFF5A2D70726F6265C1
:10580000206E722E202020205B355D00FFFF5A2D78
:1058100070726F6265206E722E202020205B315DD9
:1058200000FFFF4D657368202020202020202020CD
:105830005B3778375D00FFFF4D65736820202020BF
:1058400020202020205B3378335D00FFFF46616E0F
:1058500020737065656400FFFF42656400FFFF4EC2
:105860006F7A7A6C6500FFFF53657474696E6773B5
:1058700000FFFF5072696E742061626F727465641C
:1058800000FFFF5072696E746572206E6F7A7A6CD9
:1058900065206469616D657465722064696666651A
:1058A00072732066726F6D2074686520472D636F78
:1058B00064652E20506C6561736520636865636B59
:1058C000207468652076616C756520696E2073654B
:1058D0007474696E67732E205072696E74206361F0
:1058E0006E63656C6C65642E00FFFF5072696E74A8
:1058F0006572206E6F7A7A6C65206469616D65747B
:10590000657220646966666572732066726F6D20C9
:1059100074686520472D636F64652E20436F6E7435
:10592000696E75653F00FFFF53746F702070726978
:105930006E7400FFFF46696C6520696E636F6D7061
:105940006C6574652E20436F6E74696E7565206199
:105950006E797761793F00FFFF5072696E7420663F
:10596000726F6D20534400FFFF4261636B00FFFFC5
:105970004D61696E00FFFF54656D702E2063616C90
:105980006962726174696F6E00FFFF5265736574BE
:105990002058595A2063616C6962722E00FFFF53D0
:1059A000686F7720656E642073746F707300FFFFFB
:1059B0005049442063616C6962726174696F6E0062
:1059C000FFFF426564206C6576656C20636F7272C0
:1059D00065637400FFFF4D65736820426564204C69
:1059E0006576656C696E6700FFFF43616C69627282
:1059F000617465205A00FFFF43616C6962726174D3
:105A0000652058595A00FFFF53656C6674657374BE
:105A100020202020202020202000FFFF57697A61CD
:105A2000726400FFFF4C6F616420616C6C00FFFFCB
:105A3000456A6563742066696C616D656E7400FF0C
:105A4000FF506C656173652070756C6C206F7574A8
:105A50002066696C616D656E7420696D6D65646941
:105A60006174656C7900FFFF556E6C6F6164696EDF
:105A7000672066696C616D656E7400FFFF52657327
:105A8000756D696E67207072696E7400FFFF4D312D
:105A90003137204669727374206C617965722063B6
:105AA000616C2E00FFFF43757272656E7400FFFF1C
:105AB0005573656420647572696E67207072696ED3
:105AC0007400FFFF5049442063616C2E2066696EAC
:105AD000697368656400FFFF5049442063616C2E60
:105AE000202020202020202020202000FFFF506C9C
:105AF00065617365207761697400FFFF5072696E9C
:105B0000742070617573656400FFFF59657300FF51
:105B1000FF4E6F00FFFF48656174696E672064691E
:105B20007361626C65642062792073616665747963
:105B30002074696D65722E00FFFF57616974696E8C
:105B40006720666F72206E6F7A7A6C6520616E6472
:105B50002062656420636F6F6C696E6700FFFF539E
:105B6000656C662074657374204F4B00FFFF5365AE
:105B70006C662074657374207374617274202000E5
:105B8000FFFF4E6F74207370696E6E696E6700FF61
:105B9000FF5370696E6E696E6700FFFF4C65667437
:105BA00020686F74656E642066616E3F00FFFF467B
:105BB000726F6E74207072696E742066616E3F0041
:105BC000FFFF46616E207465737400FFFF507269B9
:105BD0006E742046414E00FFFF4E6F7A7A6C65204E
:105BE00046414E00FFFF546F74616C00FFFF4C6133
:105BF0007374207072696E7400FFFF4C61737420BF
:105C00007072696E74206661696C7572657300FFED
:105C1000FF4D4D55206661696C7300FFFF4D4D557A
:105C2000206C6F6164206661696C7300FFFF546FC4
:105C300074616C206661696C7572657300FFFF4D5D
:105C40004D55206661696C7300FFFF4D4D55206C0A
:105C50006F6164206661696C7300FFFF4D4D5520D4
:105C6000706F776572206661696C7300FFFF4C612D
:105C70007374207072696E74206661696C757265E8
:105C80007300FFFF46696C616D2E2072756E6F7533
:105C9000747300FFFF546F74616C206661696C75EA
:105CA00072657300FFFF46696C616D2E2072756E20
:105CB0006F75747300256420627974657320777240
:105CC000697474656E20746F20454550524F4D20A5
:105CD0006174206164647265737320307825303498
:105CE00078004433202D20526561642F5772697407
:105CF0006520454550524F4D0A0020436F756E7424
:105D000020583A20005344207072696E74696E679F
:105D1000206279746520004E6F7420696E20666180
:105D2000726D206D6F64652E004163746976652025
:105D300045787472756465723A2000496E76616CBC
:105D40006964206578747275646572005A204F66C4
:105D50006673657400556E6B6E6F776E20636F6D42
:105D60006D616E643A2022004D32303020496E76EB
:105D7000616C696420657874727564657220007A5C
:105D80005F6D61783A20007A5F6D696E3A20007924
:105D90005F6D696E3A20006F70656E00545249471E
:105DA000474552454400785F6D696E3A2000526560
:105DB000706F7274696E6720656E6473746F7020A3
:105DC000737461747573000053494C454E54004E12
:105DD0004F524D414C002553204D4F44453A2050E1
:105DE000657263656E7420646F6E653A2025643B4E
:105DF000207072696E742074696D652072656D61C2
:105E0000696E696E6720696E206D696E733A202530
:105E1000640A00456E642066696C65206C69737461
:105E200000426567696E2066696C65206C697374F1
:105E3000000A50494E44412074656D70657261746A
:105E40007572653A20252E3166205A20736869667E
:105E50007420286D6D293A20252E3366000A53746C
:105E600065703A2025642F360A000A537465703A2B
:105E70002025642F362028736B6970706564290AA9
:105E800050494E44412074656D706572617475723D
:105E9000653A202564205A20736869667420286D4D
:105EA0006D293A300A000A5A45524F3A20252E33BE
:105EB000660A0073746172742074656D7065726136
:105EC000747572653A20252E31660A0025642020FB
:105ED000252E326600255320583A20252E3566207F
:105EE000593A20252E3566205A3A20252E35660A45
:105EF00000536C6565702E2E2E004E6F7420696EF7
:105F0000206661726D206D6F64652E00256400450A
:105F1000303A25642052504D0A50524E303A256492
:105F20002052504D0A002564002020506C616E6E96
:105F3000657242756666657242797465733A2000CF
:105F40002046726565204D656D6F72793A2000209C
:105F50007C20417574686F723A2000204C61737424
:105F600020557064617465643A200020536F667434
:105F700077617265205265736574002057617463A0
:105F800068646F67205265736574002042726F7792
:105F90006E206F75742052657365740020457874A7
:105FA00065726E616C20526573657400506F776521
:105FB000725570006572726F722077726974696EC3
:105FC0006720746F2066696C6500656E6473746F1A
:105FD0007073206869743A2000446F6E65207361A5
:105FE00076696E672066696C652E00656E717565F1
:105FF000696E67202200446F6E65207072696E744E
:10600000696E672066696C65005072696E746572AE
:106010002073746F707065642064756520746F20E0
:106020006572726F72732E204669782074686520DD
:106030006572726F7220616E6420757365204D39D0
:10604000393920746F20726573746172742E202840
:1060500054656D7065726174757265206973207224
:10606000657365742E2053657420697420616674AD
:1060700065722072657374617274696E6729004E6F
:106080006F204C696E65204E756D62657220776970
:10609000746820636865636B73756D2C204C617345
:1060A00074204C696E653A20004E6F20436865632A
:1060B0006B73756D2077697468206C696E65206EEE
:1060C000756D6265722C204C617374204C696E652D
:1060D0003A2000636865636B73756D206D69736D3D
:1060E000617463682C204C617374204C696E653A4E
:1060F00020004C696E65204E756D62657220697373
:10610000206E6F74204C617374204C696E65204E54
:10611000756D6265722B312C204C617374204C6953
:106120006E653A20004D32323120496E76616C69DD
:106130006420657874727564657220004D32313860
:1061400020496E76616C6964206578747275646547
:106150007220004D31303920496E76616C696420BF
:10616000657874727564657220004D313035204950
:106170006E76616C696420657874727564657220EE
:10618000004D31303420496E76616C696420657849
:10619000747275646572200020746F6F206C6F6E6E
:1061A0006720657874727573696F6E20707265769A
:1061B000656E7465640020636F6C6420657874722A
:1061C0007573696F6E2070726576656E74656400B4
:1061D00025632533642F25642563005A25362E3226
:1061E0006620005A2020202D2D2D200025632533E8
:1061F000642525002D2D2D00253368686400253386
:1062000053253373252500555342002020200020BC
:106210005344002025753E257500203F3E2575001E
:10622000204625750020463F0020463020200025CE
:10623000632D2D3A2D2D20200025632533756820F0
:1062400025632563002563253032753A2530327584
:1062500025632563004572723A205052494E5420FE
:1062600046414E204552524F52003F3F00506F6C06
:10627000736B69004E656465726C616E647300498E
:1062800074616C69616E6F004672616E63616973FF
:1062900000457370616E6F6C00446575747363685C
:1062A0000043657374696E6100456E676C6973685D
:1062B0000057697A61726420656E6420737461743A
:1062C000653A2025640A0025533A0A2531372E32D3
:1062D000666D20200A25533A0A25376C6464203AFB
:1062E000253268686468203A2530326868646D0039
:1062F00025533A0A2531372E32666D20200A255360
:106300003A0A2532646820253032646D2025303207
:1063100064730025362E32666D6D004E2F410025C8
:10632000533A0A25530A25533A0A25533A004E2F69
:10633000410025332E3266010025533A0A25530ABF
:10634000252D31352E31355325332E3266010A2560
:106350002D31352E31355325332E326601006F6BCA
:106360000053442063617264206F6B006F70656E30
:10637000526F6F74206661696C656400766F6C752E
:106380006D652E696E6974206661696C6564005381
:106390004420696E6974206661696C005772697483
:1063A000696E6720746F2066696C653A20004669E3
:1063B0006C652073656C6563746564002053697A4D
:1063C000653A200046696C65206F70656E65643AB9
:1063D00020006F70656E206661696C65642C2046D4
:1063E000696C653A200025632533642F2564256395
:1063F000002F2F20616374696F6E3A63616E63656D
:106400006C0043616E6E6F7420656E7465722073EC
:1064100075626469723A20004572723A2045585498
:10642000522E2046414E204552524F52002F2F20CF
:10643000616374696F6E3A726573756D656400525D
:106440006573656E640025533A20256C640A2553F4
:106450000A00004B494C4C45442E20005072696E96
:106460007465722068616C7465642E206B696C6C55
:1064700028292063616C6C656421004B494C4C3ABF
:106480002025640A002F2F20616374696F6E3A70B3
:106490006175736564002573202534642052504D66
:1064A0000A2573202534642052504D0A006E616E17
:1064B00000696E66004E414E494E495459494E4658
:1064C000CDCCCC3D0AD7233C17B7D13877CC2B3273
:1064D0009595E6241FB14F0A000020410000C842F4
:1064E00000401C4620BCBE4CCA1B0E5AAEC59D7453
:1064F00000407A10F35A00A0724E18090010A5D47B
:10650000E80000E87648170000E40B54020000CAD7
:106510009A3B000000E1F50500008096980000001D
:1065200040420F000000A08601000000102700007C
:106530000000E803000000006400000000000A0002
:10654000000000000100000000002C76D888DC6705
:106550004F0823DFC1DFAE59E1B1B796E5E3E4535D
:10656000C63AE651997696E8E6C28426EB898C9B7A
:1065700062ED407C6FFCEFBC9C9F40F2BAA56FA51A
:10658000F490055A2AF75C936B6CF9676DC11BFC9C
:10659000E0E40D47FEF520E6B500D0ED902E0300B7
:1065A000943577050080841E080000204E0A000004
:1065B00000C80C333333330F986E12831141EF8DC3
:1065C0002114893BE65516CFFEE6DB18D1844B3803
:1065D0001BF77C1D901DA4BBE424203284725E2234
:1065E0008100C9F124ECA1E53D276364696E6F70F9
:1065F000737578585B00442D31202D20456E646CF6
:10660000657373206C6F6F700A004175746F0020A2
:10661000452F443D00416476616E6365204B3D002B
:106620004D3232302053256900255346696C616D27
:10663000656E742073657474696E67733A2044697B
:106640007361626C65640A00255346696C616D650F
:106650006E742073657474696E67733A0A255320EB
:1066600020204D3230302044252E32660A0025533A
:10667000526574726163743A20533D4C656E677461
:106680006820286D6D2920463A537065656420287E
:106690006D6D2F6D29205A3A205A4C696674202856
:1066A0006D6D290A25532020204D32303720532587
:1066B0002E32662046252E3266205A252E32660A54
:1066C00025535265636F7665723A20533D45787461
:1066D0007261206C656E67746820286D6D29204694
:1066E0003A537065656420286D6D2F6D290A255316
:1066F0002020204D3230382053252E32662046256A
:106700002E32660A25534175746F2D52657472617D
:1067100063743A20533D3020746F20646973616262
:106720006C652C203120746F20696E7465727072F4
:10673000657420657874727564652D6F6E6C792050
:106740006D6F766573206173207265747261637416
:1067500073206F72207265636F7665726965730A64
:1067600025532020204D323039205325640A00253E
:106770005350494420686561746265642073657490
:1067800074696E67733A0A25532020204D333034E4
:106790002050252E32662049252E32662044252E93
:1067A00032660A0025535049442073657474696E3B
:1067B00067733A0A25532020204D3330312050256D
:1067C0002E32662049252E32662044252E32660A56
:1067D00000255353746570732070657220756E695F
:1067E000743A0A255320204D39322058252E32661E
:1067F0002059252E3266205A252E32662045252E18
:1068000032660A25534D6178696D756D2066656540
:1068100064726174657320286D6D2F73293A0A259F
:106820005320204D3230332058252E3266205925F2
:106830002E3266205A252E32662045252E32660AD3
:1068400025534D6178696D756D20616363656C6575
:10685000726174696F6E20286D6D2F7332293A0A48
:10686000255320204D3230312058256C7520592574
:106870006C75205A256C752045256C750A25534189
:106880006363656C65726174696F6E3A20533D6134
:106890006363656C65726174696F6E2C20543D7220
:1068A00065747261637420616363656C65726174A1
:1068B000696F6E0A255320204D3230342053252E27
:1068C00032662054252E32660A2553416476616E65
:1068D000636564207661726961626C65733A205306
:1068E0003D4D696E20666565647261746520286D32
:1068F0006D2F73292C20543D4D696E207472617682
:10690000656C20666565647261746520286D6D2F05
:1069100073292C20423D6D696E696D756D2073651C
:10692000676D656E742074696D6520286D73292C00
:1069300020583D6D6178696D756D205859206A65E4
:10694000726B20286D6D2F73292C20205A3D6D61AC
:1069500078696D756D205A206A65726B20286D6D9F
:106960002F73292C2020453D6D6178696D756D2050
:1069700045206A65726B20286D6D2F73290A255397
:1069800020204D3230352053252E32662054252EBE
:1069900032662042252E32662058252E3266205936
:1069A000252E3266205A252E32662045252E326647
:1069B0000A2553486F6D65206F66667365742028DD
:1069C0006D6D293A0A255320204D32303620582546
:1069D0002E32662059252E3266205A252E32660A1E
:1069E000004625642025640A004D4D55203C3D207D
:1069F00027462564202564270A0050494420417514
:106A0000746F74756E652066696E6973686564215C
:106A10002050757420746865206C617374204B700D
:106A20002C204B6920616E64204B6420636F6E7371
:106A300074616E74732066726F6D2061626F76652B
:106A400020696E746F20436F6E666967757261743A
:106A5000696F6E2E6800504944204175746F7475DB
:106A60006E65206661696C6564212074696D656F6F
:106A700075740020403A00543A00423A00504944AC
:106A8000204175746F74756E65206661696C65640C
:106A9000212054656D706572617475726520746F24
:106AA0006F206869676800204B643A2000204B69BA
:106AB0003A2000204B703A200020436C61737369C8
:106AC000632050494420002054753A2000204B7523
:106AD0003A2000206D61783A2000206D696E3A20DE
:106AE0000020643A200020626961733A200020454A
:106AF0003A00205A3A0020593A0020453A00205ADC
:106B00003A0020593A00583A00002E0044656C655E
:106B100074696F6E206661696C65642C2046696CCF
:106B2000653A200046696C652064656C657465642F
:106B30003A000A002F000A004E6F74205344207060
:106B400072696E74696E67005072696E7420736149
:106B5000766564005344207072696E7420706175AC
:106B6000736564006673656E736F725F72657374CC
:106B70006F72655F7072696E745F616E645F636F80
:106B80006E74696E75650A0022283229005400442B
:106B900075706C696361746520542D636F64652042
:106BA00069676E6F7265642E0A004475706C696364
:106BB00061746520542D636F64652069676E6F7220
:106BC00065642E0A00496E76616C69642054206306
:106BD0006F64652E00556E6B6E6F776E204D20636F
:106BE0006F64653A202573200A006E6F2076616C11
:106BF000696420636F6D6D616E64002C20002C2031
:106C0000002C20006E2F61002C20002C20002C2056
:106C1000006E2F61002F00503A00576169742066A2
:106C20006F722050494E4441207461726765742030
:106C300074656D70657261747572653A004C414E91
:106C4000472053454C20464F5243454400222831AB
:106C5000290030303030303030302D303030302D71
:106C6000303030302D303030302D3030303030302A
:106C70003030303030300020555549443A00310032
:106C80002045585452554445525F434F554E543A4F
:106C9000005A617269626F204D4B3235532D424D5F
:106CA000482D32323000204D414348494E455F5413
:106CB0005950453A00312E300020626173656420DE
:106CC0006F6E204D61726C696E204649524D57417E
:106CD00052455F55524C3A68747470733A2F2F675F
:106CE00069746875622E636F6D2F5A617269626F85
:106CF0002F5A617269626F2D4669726D7761726594
:106D00002050524F544F434F4C5F56455253494FBA
:106D10004E3A004649524D574152455F4E414D450E
:106D20003A5A617269626F2D4669726D7761726558
:106D300020004D31313320530020423A0020453AA3
:106D400000543A0020503A002042403A0020403A95
:106D500000202F003A00205400202F0020423A004B
:106D6000202F006F6B20543A002569206D696E2C2E
:106D70002025692073656300496E76616C69642023
:106D80004D20636F64653A202573200A00556E6BB1
:106D90006E6F776E204720636F64653A20257320FD
:106DA0000A004D65736820626564206C6576656CC9
:106DB000696E67206E6F74206163746976652E005A
:106DC0000A002020000A4D656173757265642070A9
:106DD0006F696E74733A000A5A2073656172636852
:106DE000206865696768743A20002C004E756D2034
:106DF000582C593A2000206D6963726F6E730045FC
:106E0000786365737369766520626564206C657666
:106E1000656C696E6720636F7272656374696F6E0B
:106E20003A2000426564206C6576656C696E672067
:106E30006661696C65642E2053656E736F72207491
:106E4000726967676572656420746F6F206869672F
:106E5000682E0A00426564206C6576656C696E6711
:106E6000206661696C65642E2053656E736F7220B5
:106E7000646973636F6E6E6563746564206F7220FE
:106E80006361626C652062726F6B656E2E0A0047EB
:106E900032382057300050494E44412070726F62A2
:106EA000652063616C6962726174696F6E207374CE
:106EB00061727400473238205730004D3234005828
:106EC000300A006164635F696E69740A000A205ABF
:106ED000617269626F2052657365617263680A202E
:106EE0002020616E6420446576656C6F706D656E00
:106EF0007400436F6E74696E7565207769746820DD
:106F0000616E6F7468657220626F7764656E3F00B2
:106F100025002020202020200020202020202000CC
:106F200045524153494E4720616C6C206461746145
:106F300000466163746F7279205245534554004690
:106F40006163746F7279205245534554004449532C
:106F500041424C45440A00454E41424C454400469E
:106F600053656E736F722025530A0050525553417A
:106F700033444657004D4B322E35534D4D55325309
:106F8000001C4F4D4B322E355300FC0044656320EE
:106F90003139203230313900436F6D70696C65646E
:106FA0003A2000286E6F6E652C2064656661756CF2
:106FB0007420636F6E666967290044656320313908
:106FC00020323031392031333A31333A31370020F1
:106FD000332E382E312D323837320A0073746172F5
:106FE00074002055706C6F616420696E2070726F40
:106FF000677265737300205A3A0020593A0020588E
:107000003A004D32390078797A63616C5F6D656161
:1070100073737572655F656E7465720A0078797A4C
:1070200063616C5F73706972616C382063783D25B1
:10703000642063793D2564207A303D256420647A9C
:107040003D2564207261646975733D256420616427
:107050003D25640A0078797A63616C5F73656172BB
:1070600063685A206E6F207369676E616C0A2078BE
:107070003D256C6420793D256C64207A3D256C6447
:107080000A00204F4E2D5349474E414C2061742039
:10709000783D256420793D2564207A3D2564206172
:1070A000643D25640A0078797A63616C5F73656179
:1070B0007263685A20783D256C6420793D256C64A4
:1070C000207A3D256C640A000A0025303278007869
:1070D000797A63616C5F7363616E5F706978656C08
:1070E000735F33327833322063783D2564206379CF
:1070F0003D2564206D696E5F7A3D2564206D617861
:107100005F7A3D25640A00202532642025640A0048
:107110000A002530327800206D696E3D2564206DAF
:1071200061783D2564206469663D25640A006D61CF
:10713000785F633D253264206D61785F6C3D256426
:107140000A006D61785F633D2564206D61785F7230
:107150003D2564206D61785F6D617463683D2564D1
:107160000A0020783D256420793D2564207A3D255C
:10717000640A00207061747465726E20666F756EAB
:10718000642061742025642025640A000000F0005A
:10719000F801FC03FE07FE07FE07FE07FC03F801EB
:1071A000F000000073697A656F6628746F74616C13
:1071B000293D25640A0073697A656F6628626C6FE1
:1071C000636B5F627566666572293D25640A0078A7
:1071D000797A63616C5F6D656173737572655F6CFD
:1071E000656176650A00706F696E743D256420786C
:1071F0003D256420793D2564207A3D25640A00BC44
:1072000002BC02584D584DB004F055F055B004780A
:10721000797A63616C5F66696E645F6265645F69F9
:107220006E64756374696F6E5F73656E736F725FA2
:10723000706F696E745F787920783D256C64207971
:107240003D256C64207A3D256C640A00203C2000BA
:107250005741524E494E473A2046726F6E74207025
:107260006F696E74206E6F7420726561636861620D
:107270006C652E205920636F6F7264696E6174654E
:107280003A0000000040410000804000005C4300E4
:1072900000804000005C4300004443000040410087
:1072A000004443497465726174696F6E3A2000430B
:1072B000616C6962726174696F6E206661696C6588
:1072C000642120436865636B20746865206178657C
:1072D0007320616E642072756E20616761696E2E25
:1072E0000022206661696C65643A204275666665B5
:1072F000722066756C6C21002200256920686F750C
:107300007273202569206D696E7574657300544928
:107310004D454F55543A004D3131300046756C6C37
:107320002052582042756666657200437573746F0B
:107330006D0054657874757200536D6F6F746800DA
:1073400047312059252D2E32662045252D2E3366B6
:10735000004731205825642059252D2E32662045BE
:10736000252D2E3366006673656E736F725F7374BE
:107370006F705F616E645F736176655F7072696E76
:10738000740A00000E1315110E00000004120912F9
:10739000040000001C1F11111F0000000619180333
:1073A000130C00040E1F041C000000040A0A0A0A41
:1073B00011110E001F1511151F0000000103161CEE
:1073C0000800000000110A04110A040C12120C003B
:1073D0000000002563252D31382E313853256300F8
:1073E000252E31305320002563252D31382E31389C
:1073F000732563002563252D2E3136532000256328
:10740000252E3135533A2573253364002020202062
:10741000202020202020202020202020202020206C
:1074200000457872656D65207370616E206F66200F
:10743000746865205A2076616C75657321006F6BE6
:107440000A0020573A0020453A00543A005A206C6E
:107450006976652061646A757374206F7574206F36
:10746000662072616E67652E2053657474696E675D
:1074700020746F20302E20436C69636B20746F2062
:10748000636F6E74696E75652E005A206C6976653F
:107490002061646A757374206F7574206F66207242
:1074A000616E67652E2053657474696E6720746F12
:1074B00020300020423A0020453A00543A000000B3
:1074C0002110422063308440A550C660E7700881D7
:1074D00029914AA16BB18CC1ADD1CEE1EFF131124E
:1074E000100273325222B5529442F772D662399327
:1074F00018837BB35AA3BDD39CC3FFF3DEE362249E
:10750000433420040114E664C774A44485546AA576
:107510004BB528850995EEE5CFF5ACC58DD553362D
:10752000722611163006D776F6669556B4465BB7C6
:107530007AA719973887DFF7FEE79DD7BCC7C448FD
:10754000E5588668A7784008611802282338CCC916
:10755000EDD98EE9AFF9488969990AA92BB9F55A8D
:10756000D44AB77A966A711A500A333A122AFDDB66
:10757000DCCBBFFB9EEB799B588B3BBB1AABA66C5D
:10758000877CE44CC55C222C033C600C411CAEEDB6
:107590008FFDECCDCDDD2AAD0BBD688D499D977E6D
:1075A000B66ED55EF44E133E322E511E700E9FFF06
:1075B000BEEFDDDFFCCF1BBF3AAF599F788F8891BC
:1075C000A981CAB1EBA10CD12DC14EF16FE18010A0
:1075D000A100C230E3200450254046706760B983A3
:1075E0009893FBA3DAB33DC31CD37FE35EF3B102F0
:1075F0009012F322D2323542145277625672EAB5B3
:10760000CBA5A89589856EF54FE52CD50DC5E2343F
:10761000C324A01481046674476424540544DBA782
:10762000FAB79987B8975FE77EF71DC73CD7D3268F
:10763000F2369106B01657667676154634564CD912
:107640006DC90EF92FE9C899E9898AB9ABA94458DF
:10765000654806782768C018E1088238A3287DCBE2
:107660005CDB3FEB1EFBF98BD89BBBAB9ABB754A2F
:10767000545A376A167AF10AD01AB32A923A2EFD72
:107680000FED6CDD4DCDAABD8BADE89DC98D267C7F
:10769000076C645C454CA23C832CE01CC10C1FEFC2
:1076A0003EFF5DCF7CDF9BAFBABFD98FF89F176ECF
:1076B000367E554E745E932EB23ED10EF01E7C3C4B
:1076C0003E3F2F2A225C0046696C616D656E742016
:1076D0006E72206F7574206F662072616E6765210F
:1076E00000206661696C65642E00207375636365B4
:1076F000656465642E004D4D552063616E5F6C6F4F
:1077000061643A004164646974696F6E616C206CF5
:107710006F616420617474656D7074206E722E20C8
:1077200025640A0020484F54454E44205448455291
:107730004D414C2052554E4157415900204845413A
:107740005442454420544845524D414C2052554ED8
:107750004157415900544845524D414C2052554ED5
:10776000415741590042454420544845524D414CEF
:107770002052554E415741590020544845524D41E1
:107780004C2052554E4157415920282050524548CF
:1077900045415420484F54454E4429002054484503
:1077A000524D414C2052554E4157415920282050AE
:1077B00052454845415420484541544245442900DA
:1077C00050524548454154204552524F520042457F
:1077D000442050524548454154204552524F520092
:1077E0004D494E54454D5020666978656400506C93
:1077F000656173652072657374617274003A20006C
:107800002020202020202020202020202020202078
:1078100020202000203A200020202020202020208E
:107820002020202020202020202020200020202078
:10783000202020202020202020200025730060010F
:10784000F4017001EA019001E001B001D601D0011C
:10785000CC010002C2013002B8016002AE01900208
:10786000A401D0029A012003900170038601C00395
:107870007C0130047201A004680120055E01B0059E
:10788000540160064A0120074001F0073601F00864
:107890002C01100A2201500B1801C00C0E01500ED1
:1078A00004013010FA002012F0005014E600C01657
:1078B000DC007019D200501CC800501FBE0070229E
:1078C000B400B025AA00F028A000202C9600302F8C
:1078D0008C0010328200A0347800F0366E00E03860
:1078E0006400803A5A00403B5500E03B5000F03CB9
:1078F0004600C03D3C00603E3200E03E2800303F84
:107900001E00503F1900703F1400A03F0F00C03F01
:107910000A00D03F0500E03F000045303A20005A01
:107920003A2000593A2000583A20004D53312C4D4E
:1079300053322050696E730A00457874727564651D
:10794000722066616E207370656564206973206CB7
:107950006F776572207468616E20657870656374F6
:107960006564005072696E742066616E2073706584
:107970006564206973206C6F776572207468616E2E
:10798000206578706563746564004572723A204DB5
:10799000494E54454D50003A2045787472756465DF
:1079A00072207377697463686564206F66662E2041
:1079B0004D494E54454D5020747269676765726534
:1079C000642021004572723A204D494E54454D5075
:1079D000204245440054656D70657261747572652E
:1079E00020686561746564206265642073776974DA
:1079F00063686564206F66662E204D494E54454D80
:107A00005020747269676765726564202100457251
:107A1000723A204D415854454D50003A20457874F3
:107A20007275646572207377697463686564206F2A
:107A300066662E204D415854454D5020747269673A
:107A400067657265642021004572723A204D415885
:107A500054454D50204245440054656D7065726137
:107A60007475726520686561746564206265642060
:107A70007377697463686564206F66662E204D4174
:107A80005854454D5020747269676765726564206B
:107A9000210000202D20496E76616C696420657894
:107AA000747275646572206E756D62657220210056
:107AB00070012C0190012701B0012201C0011D01BC
:107AC000F00118011002130130020E0160020901D9
:107AD00090020401C002FF000003FA004003F50019
:107AE0008003F000D003EB002004E6007004E10006
:107AF000E004DC004005D700C005D2004006CD0000
:107B0000D006C8008007C3003008BE00F008B900E6
:107B1000C009B400B00AAF00B00BAA00D00CA50099
:107B2000000EA000500F9B00C01096005012910054
:107B300000148C00C0158700B0178200B0197D00BA
:107B4000D01B7800001E730040206E009022690058
:107B5000F024640040275F0090295A00E02B550074
:107B6000102E500020304B0010324600E033410010
:107B700090353C001037370070383200A0392D00A6
:107B8000B03A2800A03B2300603C1E00103D1900C5
:107B9000903D1400103E0F00703E0A00C03E0500EC
:107BA000003F0000FFFFFFFF555341525432207247
:107BB000782046756C6C2121210A00536574746924
:107BC0006E67732053746F7265640053746F7265CF
:107BD000642073657474696E67732072657472696A
:107BE000657665640048617264636F64656420440F
:107BF000656661756C742053657474696E67732073
:107C00004C6F6164656400563200000000C8420099
:107C100000C8420000C8430080CF43000048430032
:107C2000004843000040410000F042E8030000E843
:107C3000030000C80000008813000000409C4400BE
:107C4000409C440000000000000000204E000000A6
:107C500000204100002041CDCCCC3E00002040005F
:107C60000000000000000000000000CDCCCC3E521F
:107C7000B8E841B6A3133F403AB7438F42FC42E60F
:107C80005A343F4C62B04500000000004040000004
:107C9000344200000000000000000000004100002D
:107CA00000E03F00002C4300002C43000040410056
:107CB00000F042C0030000C0030000C800000088BC
:107CC00013000010101010627573793A20706175FE
:107CD00073656420666F7220696E707574006275DA
:107CE00073793A2070617573656420666F722075D0
:107CF00073657200627573793A2070726F63657391
:107D000073696E670000007A430000524300005917
:107D10004300000000000080C09A99193E00000056
:107D200000000080C09A99193E67636F64655F4DDB
:107D300037303120626567696E0A00473736005771
:107D4000697A6172642073746174653A2025640AEB
:107D50000044697361626C65206661726D206D6FAD
:107D60006465004661726D206E756D626572004DCE
:107D70003834006D6D0059005800583A00593A00E7
:107D80005A3A002563252D31332E313353252B35B7
:107D90002E33660020003E003E0020003E003E00E4
:107DA00054656D70657261747572652063616C698C
:107DB00062726174696F6E206661696C65642E2001
:107DC000436F6E74696E7565207769746820707290
:107DD000657373696E6720746865206B6E6F622EC1
:107DE0000054656D70657261747572652063616CB5
:107DF0006962726174696F6E20646F6E652E2043D4
:107E00006F6E74696E75652077697468207072652D
:107E10007373696E6720746865206B6E6F622E00E5
:107E20005A30005A3100593000593100583000584A
:107E30003100456E642073746F70732064696167EC
:107E40000020257325336401200A00466C617368A5
:107E500041697220495020416464723A004D4D5589
:107E600032202020202020204E2F410025642E2566
:107E7000642E25642D2564002046573A004465632E
:107E80002031392032303139004D6F73717569748A
:107E90006F0052414D426F31336100315F37356DB4
:107EA0006D5F4D4B3235002D2D2D2D2D2D2D2D2D72
:107EB0002D2D2D0020332E382E312D323837320023
:107EC0004669726D776172653A0025642E25642ECD
:107ED00025642E2564004D373032004D3730310097
:107EE0004D373032004D37303100464C4558202D4B
:107EF00020203234302F35300050502020202D20CB
:107F0000203235342F3130300048495053202D2055
:107F1000203232302F3130300041425320202D208A
:107F2000203235352F3130300041534120202D2073
:107F3000203236302F3130350050455420202D204E
:107F4000203233302F383500504C4120202D202056
:107F50003231352F3630006E6F7A7A6C65202D20E5
:107F6000203235302F30006661726D2020202D20A8
:107F7000203235302F383000252D31322E3132531A
:107F8000252B382E31660045787472756465723A17
:107F900000626F6F745F6170705F6D61676963200D
:107FA0003D30782530386C780A00626F6F745F61FD
:107FB00070705F666C616773203D30782530327871
:107FC0000A00626F6F745F72657365727665642014
:107FD000203D3078253032780A00626F6F745F631D
:107FE0006F70795F73697A65203D30782530347819
:107FF0000A00626F6F745F6473745F6164647220FF
:10800000203D30782530386C780A00626F6F745FDD
:108010007372635F6164647220203D30782530386C
:108020006C780A00473830004D3435004D34352027
:108030005A0024F4D43050C38E20C2A24017828B41
:108040007011127A910D816CD90AA861E108C758A4
:108050006607615143061E4B5D05C145A7041A41E1
:108060001104093D9803713931034036DB02653351
:108070009102D4305402802E1D02632CEE01752A29
:10808000C501B028A001102781018F2564012B2490
:108090004B01E0223401AC211F018D200D01801F16
:1080A000FC00841EED00971DDF00B81CD200E61B0B
:1080B000C600201BBC00641AB200B219A8000A193D
:1080C000A0006A189900D117910040178B00B516CF
:1080D000840031167E00B31579003A157300C71479
:1080E0006F0058146A00EE136600881363002513AE
:1080F0005E00C7125B006C12570015125400C111CC
:10810000510070114F0021114B00D61049008D1005
:1081100047004610440002104200C00F4000800F8C
:108120003E00420F3C00060F3B00CB0E3800930E82
:1081300037005C0E3500270E3400F30D3200C10D00
:108140003100900D3000600D2E00320D2D00050D18
:108150002C00D90C2B00AE0C2900850C29005C0CDE
:108160002700350C27000E0C2600E80B2400C40B5A
:108170002400A00B23007D0B23005A0B2100390B98
:108180002100180B2000F80A1F00D90A1E00BB0AA4
:108190001E009D0A1D00800A1D00630A1C00470A7C
:1081A0001B002C0A1B00110A1A00F7091A00DD092E
:1081B0001900C4091900AB091900920917007B09BD
:1081C0001800630917004C0916003609160020092B
:1081D00016000A091500F5081500E0081400CC087F
:1081E0001400B8081400A4081400900813007D08B7
:1081F00012006B08130058081200460812003408D9
:108200001100230811001208110001081100F007E5
:108210001000E0071000D0071000C0071000B007E2
:108220000F00A107100091070E0083070F007407CD
:108230000F0065070E0057070E0049070E003B07A9
:108240000D002E070E0020070D0013070D00060776
:108250000D00F9060C00ED060D00E0060C00D4063A
:108260000C00C8060C00BC060C00B0060C00A406EE
:108270000B0099060C008D060B0082060B0077069A
:108280000B006C060B0061060A0057060B004C063B
:108290000A0042060A0038060A002E060A002406D2
:1082A0000A001A060A001006090007060A00FD0562
:1082B0000900F4050900EB050900E2050900D905EC
:1082C0000900D0050900C7050900BE050900B5056C
:1082D0000800AD050800A50509009C0508009405E7
:1082E00008008C050800840508007C05080074055A
:1082F00008006C050700650508005D0507005605C8
:1083000008004E050700470507004005080038052E
:108310000700310507002A050700230507001C0593
:108320000600160507000F050700080506000205F0
:108330000700FB040600F5040700EE040600E8044D
:108340000600E2040700DB040600D5040600CF04A3
:108350000600C9040600C3040600BD040600B704F5
:108360000600B1040500AC040600A6040600A00443
:1083700005009B04060095040500900406008A048D
:10838000050085040500800406007A0405007504D4
:108390000500700405006B04050066040500610417
:1083A00005005C04050057040500520405004D0457
:1083B000050048040500430405003E0404003A0497
:1083C000050035040500300404002C0405002704D2
:1083D0000400230405001E0404001A04040016040B
:1083E0000500110404000D04040009040500040440
:1083F000040000040400FC030400F8030400F40378
:108400000400F0030400EC030400E8030400E403A8
:108410000400E0030400DC030400D8030400D403D8
:108420000400D0030400CC030400C8030300C50308
:10843000030024F404D9201BC40C5C0E9804C40966
:108440005F0265077101F405F900FB04B3004804FD
:108450008700C10369005803550003034500BE02AD
:108460003A008402310053022A0029022500040246
:108470002000E4011C00C8011900AF011700980199
:1084800014008401130071011000610110005101FA
:108490000E0043010D0036010B002B010B002001E3
:1084A0000B00150109000C01090003010800FB0085
:1084B0000800F3000800EB000700E4000600DE00FF
:1084C0000600D8000600D2000600CC000500C70058
:1084D0000500C2000500BD000400B9000400B5009D
:1084E0000400B1000400AD000400A9000400A500D0
:1084F0000300A20003009F0004009B0003009800FB
:1085000003009500020093000300900003008D001B
:1085100002008B0003008800020086000200840035
:108520000300810002007F0002007D0002007B004A
:10853000020079000200770001007600020074005A
:10854000020072000100710002006F0002006D0065
:1085500001006C0002006A0001006900020067006F
:108560000100660001006500010064000200620075
:10857000010061000100600001005F0002005D0079
:1085800001005C0001005B0001005A00010059007D
:10859000010058000100570001005600010055007D
:1085A000010054000100530000005300010052007C
:1085B000010051000100500001004F0001004E0079
:1085C00000004E0001004D0001004C0001004B0076
:1085D00000004B0001004A00010049000100480072
:1085E000000048000100470001004600000046006E
:1085F0000100450000004500010044000100430067
:108600000000430001004200000042000100410060
:10861000000041000100400001003F0000003F0059
:1086200001003E0000003E0001003D0000003D0052
:1086300001003C0000003C0000003C0001003B0049
:1086400000003B0001003A0000003A000100390040
:108650000000390001003800000038000000380038
:10866000010037000000370001003600000036002E
:108670000000360001003500000035000000350024
:108680000100340000003400000034000100330019
:10869000000033000000330001003200000032000F
:1086A0000000320001003100000031000000310004
:1086B00001003000000030000000300001002F00F9
:1086C00000002F0000002F0000002F0001002E00EE
:1086D00000002E0000002E0001002D0000002D00E3
:1086E00000002D0000002D0001002C0000002C00D7
:1086F00000002C0000002C0001002B0000002B00CB
:1087000000002B0000002B0001002A0000002A00BE
:1087100000002A0000002A000100290000002900B2
:1087200000002900000029000000290001002800A5
:108730000000280000002800000028000000280099
:10874000010027000000270000002700000027008C
:10875000000027000100260000002600000026007F
:108760000000260000002600010025000000250072
:108770000000250000002500000025000000250065
:108780000100240000002400000024000000240058
:10879000000024000100230000002300000023004B
:1087A000000023000000230000002300000023003D
:1087B0000100220000002200000022000000220030
:1087C0000000220000002200010021000000210022
:1087D0000000210000002100000021000000210015
:1087E0000000210001002000000020000000200007
:1087F00000002000000020000000200000002000F9
:108800000000200001001F0000001F0000001F00EA
:1088100000001F0000001F0000001F0000001F00DC
:1088200001001E0000001E0000001E0000001E00CF
:108830000000332E382E31007263006265746100CF
:10884000616C70686100646576001F1F1F1F1F1F29
:108850001F1F2E002E004E6F7720667265736820F2
:1088600066696C653A20004E6F7720646F696E67A9
:108870002066696C653A20002220706F7300222008
:10888000706172656E743A2200535542524F5554CE
:10889000494E452043414C4C207461726765743ADF
:1088A0002200747279696E6720746F2063616C6C4A
:1088B000207375622D67636F64652066696C6573EC
:1088C000207769746820746F6F206D616E79206CF9
:1088D0006576656C732E204D4158206C6576656C0D
:1088E0002069733A002E002D2D2D2D2D2D2D2D2D8F
:1088F0002D2D2D2D2D2D2D2D2D2D2D000000000089
:1089000000110A0473746172740A004D4D553220CF
:108910006669726D776172652076657273696F6ED4
:1089200020696E76616C69642E205265717569727A
:1089300065642076657273696F6E3A206275696C42
:1089400064206E756D626572202564206F722068E8
:1089500069676865722E004D4D55203D3E20276F9A
:108960006B270A004D4D55203D3E20276F6B270A8F
:10897000002564004D4D55203D3E20276F6B272C70
:1089800020726573756D65207072696E740A004D92
:108990004D5520726574727920617474656D7074C0
:1089A000206E722E2025640A004D4D55203D3E203C
:1089B000276F6B270A00410A004D4D55203C3D2092
:1089C0002741270A004D363030004D3630302041E7
:1089D00055544F005052555341206673656E736F66
:1089E000725F7265636F7665720025686875004115
:1089F0000A004D4D55203C3D202741270A005030AC
:108A00000A004D25640A004D4D55203C3D20274D60
:108A10002564270A0057300A004D4D55203C3D2063
:108A2000275730270A0053330A004D4D55203C3D4F
:108A300020275333270A0052300A004D4D55203C61
:108A40003D20275230270A004B25640A004D4D5522
:108A5000203C3D20274B2564270A004525640A0059
:108A60004D4D55203C3D2027452564270A005530B3
:108A70000A004D4D55203C3D20275530270A004324
:108A8000300A004D4D55203C3D20274330270A0039
