:100000000C94534E0C94844E0C94844E0C94844E59
:100010000C94844E0C94E1F40C94844E0C94844E15
:100020000C9456F80C94844E0C94844E0C94844E8C
:100030000C94844E0C94844E0D9428530D94D42328
:100040000C94844E0D94E5260C94844E0C94844EAE
:100050000C94844E0C94844E0C94844E0C94F8DED4
:100060000C94844E0D94A61E0C94844E0C94844ED5
:100070000C94844E0C94844E0C94844E0C94844EB8
:100080000C94844E0C94844E0C94844E0C94844EA8
:100090000D94621E0C94844E0C94844E0C94844EE9
:1000A0000C94844E0C94844E0C94844E0C94844E88
:1000B0000C94844E0C94844E0C94844E0C94844E78
:1000C0000C94844E0C94844E0C94844E0D94922285
:1000D0000C94844E0C94844E0C94844E0C94844E58
:1000E0000C94844E79677F67856790679B6720686B
:1000F000A667AF67B867C367CE67D967E967F46774
:100100002068FF670A681568F6A0FFA0A2A071A08A
:1001100041A0E4A330A14FA2D5A22BA347A37EA365
:1001200014DF1EDF2CDF39DF4BDF52DF8EDF70DFA5
:1001300086DF05E107E105E107E105E107E109E106
:100140000BE194F3A7F3B9F3C8F3D4F30FF47EF300
:1001500032F446F442F47EF348F454F45AF472F460
:10016000DC01EA0158025602B401000232026601C3
:10017000A801F801F601A401580194010002280227
:100180007C01040248028A011C023002C2015001B3
:100190006801F0018001C60188014202C401C40166
:1001A0009601C4019601E0013E0214028E01B201E3
:1001B000CC010C02D80134024E0220029A016201E5
:1001C000BC01084AD73B3BCE016E84BCBFFDC12FAA
:1001D0003D6C74319ABD56833DDA3D00C77F11BE38
:1001E000D9E4BB4C3E916BAAAABE000000803F053B
:1001F000A84CCDB2D44EB93836A9020C50B991866C
:1002000088083CA6AAAA2ABE000000803F076342D5
:1002100036B79BD8A71A39685618AEBAAB558C1D9D
:100220003CB7CC5763BD6DEDFD753EF6177231BF1F
:10023000000000803F08000000BE922449123EAB3F
:10024000AAAA2ABECDCCCC4C3E00000080BEABAAF0
:10025000AAAA3E00000000BF000000803F0000008E
:100260000000084178D3BB4387D1133D190E3CC32E
:10027000BD4282AD2B3E68EC8276BED98FE1A93EAD
:100280004C80EFFFBE01C4FF7F3F00000000000074
:100290000D9456050D94C14A0D9448050D94D3163E
:1002A0000D946D330D9418500D9430050D943B78DA
:1002B0000D9481040D94F7460D9489150D94D50F76
:1002C0000D9457490D94CE950D941C500D946904CE
:1002D0000D9473330D948C5B0D941D0B0D94984EFF
:1002E0000D94227E0D94025A0D942B050D943C7CA6
:1002F0000D94776C0D943A050D948F040D9471460E
:100300000D9493330D94274D0D94EC1B0D942314F1
:100310000D94BE330D942B330D940C780D947F9671
:100320000D94D4A30D94F1780D9485040D94CE7D95
:100330000D9461500D94FC950D94320E0D94591648
:100340000D94A05B0D94355E0D947D040D94B84E14
:100350000D946F040D943F050D94FCBF0D94B719D7
:100360000D94A8040D944F960D945A040D942605EF
:100370000D94CE770D943D5E0D949C950D94051CC7
:100380000D949F040D9467330D94CB7D0D94A3338E
:100390000D9461680D94D8770D9444960D94187B54
:1003A0000D94E8160D9421050D94B04E0D94FE1E8B
:1003B0000D942E960D94B6140D945E040D94F4478E
:1003C0000D94D17D0D94CF7B0D9435050D947F7CDC
:1003D0000D9458170D9461040D94A84E0D949168D6
:1003E0000D9483330D941A140D941B7E0D94770491
:1003F0000D9473040D9474C00D945F770D94145094
:100400000D9498040D94904E0D9493040D94DEA2D7
:100410000D94147E0D94ED590D9439960D94B5A359
:100420000D94A3040D941E4D0D94FE920D94E0596D
:100430000D9463680D94DF7A0D9431330D94324A34
:100440000D9494960D946E7B0D9400480D9428594C
:100450000D948B040D9447A30D94A04E0D94D44E8F
:100460000D9447330D9465040D9423960D946816EE
:100470000D9413470D94F1170D94C04E0D94D47D37
:100480000D946A130D94CE330D9473590D94304D21
:100490000D941B330D940D5A0D94F1150D94A496E3
:1004A0000D94C4770D9499040D94864E0D945404C4
:1004B0000D9450040D94154D0D9444055F53454320
:1004C0005F4C414E470000000000000000000000AB
:1004D000000000000000000000000000000000001C
:1004E000000000000000000000000000000000000C
:1004F00000000000000000000000000000000000FC
:1005000000000000000000000000000000000000EB
:1034B000000000000000000000000000FFFF472D9A
:1034C000636F646520736C6963656420666F722046
:1034D0006120646966666572656E74206C657665E8
:1034E0006C2E20436F6E74696E75653F00FFFF4759
:1034F0002D636F646520736C6963656420666F7209
:10350000206120646966666572656E74206C6576FC
:10351000656C2E20506C656173652072652D736C2F
:1035200069636520746865206D6F64656C206167F0
:1035300061696E2E205072696E742063616E6365DE
:103540006C6C65642E00FFFF472D636F646520730C
:103550006C6963656420666F722061206E657765B3
:1035600072206669726D776172652E20506C65619C
:103570007365207570646174652074686520666980
:10358000726D776172652E205072696E742063616E
:103590006E63656C6C65642E00FFFF472D636F647E
:1035A0006520736C6963656420666F722061206EAC
:1035B00065776572206669726D776172652E20434A
:1035C0006F6E74696E75653F00FFFF472D636F6412
:1035D0006520736C6963656420666F722061206486
:1035E0006966666572656E74207072696E74657264
:1035F00020747970652E20506C656173652072654A
:103600002D736C69636520746865206D6F64656CEB
:1036100020616761696E2E205072696E742063614B
:103620006E63656C6C65642E00FFFF472D636F64ED
:103630006520736C6963656420666F722061206425
:103640006966666572656E74207072696E74657203
:1036500020747970652E20436F6E74696E75653FB6
:1036600000FFFF472D636F646520736C69636564B9
:1036700020666F72206120646966666572656E748B
:10368000207072696E74657220747970652E2043A3
:103690006F6E74696E75653F00FFFF472D636F6441
:1036A0006520736C6963656420666F7220612064B5
:1036B0006966666572656E74207072696E74657293
:1036C00020747970652E20506C6561736520726579
:1036D0002D736C69636520746865206D6F64656C1B
:1036E00020616761696E2E205072696E742063617B
:1036F0006E63656C6C65642E00FFFF5072657373BA
:10370000206B6E6F6220746F2070726568656174E3
:10371000206E6F7A7A6C6520616E6420636F6E74C0
:10372000696E75652E00FFFF506C656173652070D2
:103730007265737320746865206B6E6F6220746F9E
:1037400020756E6C6F61642066696C616D656E7466
:1037500000FFFF52656D6F7665206F6C64206669AF
:103760006C616D656E7420616E6420707265737338
:1037700020746865206B6E6F6220746F20737461B3
:103780007274206C6F6164696E67206E6577206665
:10379000696C616D656E742E00FFFF616E64207050
:1037A0007265737320746865206B6E6F6200FFFF33
:1037B000496E736572742066696C616D656E740024
:1037C000FFFF436F6C6F72206E6F7420636F7272B5
:1037D00065637400FFFF46696C616D656E74206EF1
:1037E0006F74206C6F6164656400FFFF4368616EF5
:1037F00067656420636F72726563746C793F00FF64
:10380000FF4C6F6164696E6720636F6C6F7200FFBD
:10381000FF4368616E676520737563636573732129
:1038200000FFFF506C65617365206F70656E2069E5
:10383000646C657220616E642072656D6F766520C0
:1038400066696C616D656E74206D616E75616C6C1E
:10385000792E00FFFF5761732066696C616D656E9C
:103860007420756E6C6F6164207375636365737328
:1038700066756C3F00FFFF506C6561736520757065
:1038800067726164652E00FFFF4E6577206669727E
:103890006D776172652076657273696F6E206176EF
:1038A00061696C61626C653A00FFFF576169746918
:1038B0006E6720666F722050494E44412070726FCF
:1038C000626520636F6F6C696E6700FFFF43726112
:1038D00073682064657465637465642E2052657333
:1038E000756D65207072696E743F00FFFF437261F1
:1038F00073682064657465637465642E00FFFF431C
:10390000686F6F73652065787472756465723A00CC
:10391000FFFF457874727564657200FFFF43686F3E
:103920006F73652066696C616D656E743A00FFFFA8
:103930004E6F206D6F76652E00FFFF576169742012
:10394000666F7220757365722E2E2E00FFFF536F07
:103950006D652070726F626C656D20656E636F754A
:103960006E74657265642C205A2D6C6576656C6981
:103970006E6720656E666F72636564202E2E2E0062
:10398000FFFF537461626C6520616D6269656E74DE
:103990002074656D70657261747572652032312DA9
:1039A000323643206973206E65656465642061204A
:1039B0007269676964207374616E64206973207230
:1039C000657175697265642E00FFFF506C656173E7
:1039D000652072756E2058595A2063616C69627255
:1039E0006174696F6E2066697273742E00FFFF4DFB
:1039F0004B3353206669726D77617265206465741C
:103A00006563746564206F6E204D4B33207072695E
:103A10006E74657200FFFF5A617269626F204D4BD0
:103A200033532D42452D34323000FFFF426C616329
:103A30006B6F7574206F636375727265642E2052AC
:103A400065636F766572207072696E743F00FFFF68
:103A500053656C66746573742077696C6C2062655D
:103A60002072756E20746F2063616C69627261747C
:103A7000652061636375726174652073656E736F31
:103A8000726C657373207265686F6D696E672E0066
:103A9000FFFF5468657265206973207374696C6CEC
:103AA0002061206E65656420746F206D616B6520F8
:103AB0005A2063616C6962726174696F6E2E205066
:103AC0006C6561736520666F6C6C6F7720746865D8
:103AD000206D616E75616C2C206368617074657215
:103AE0002046697273742073746570732C2073653B
:103AF0006374696F6E2043616C6962726174696F8F
:103B00006E20666C6F772E00FFFF5072696E7465D1
:103B10007220686173206E6F74206265656E206329
:103B2000616C69627261746564207965742E2050DD
:103B30006C6561736520666F6C6C6F772074686567
:103B4000206D616E75616C2C2063686170746572A4
:103B50002046697273742073746570732C207365CA
:103B60006374696F6E2043616C6962726174696F1E
:103B70006E20666C6F772E00FFFF4F6C64207365BC
:103B80007474696E677320666F756E642E20446569
:103B90006661756C74205049442C204573746570BF
:103BA00073206574632E2077696C6C2062652073C6
:103BB00065742E00FFFF5761726E696E673A20626E
:103BC0006F7468207072696E7465722074797065A4
:103BD00020616E64206D6F74686572626F617264DB
:103BE0002074797065206368616E6765642E00FFDC
:103BF000FF5761726E696E673A207072696E746504
:103C0000722074797065206368616E6765642E0048
:103C1000FFFF5761726E696E673A206D6F74686559
:103C200072626F6172642074797065206368616E7E
:103C30006765642E00FFFF53544F505045442E20BB
:103C400000FFFF426564206C6576656C696E6720D5
:103C50006661696C65642E2053656E736F722064B3
:103C600069646E7420747269676765722E2044659A
:103C700062726973206F6E206E6F7A7A6C653F2076
:103C800057616974696E6720666F7220726573652B
:103C9000742E00FFFF506C65617365207570646160
:103CA0007465206669726D7761726520696E20792E
:103CB0006F7572204D4D55322E2057616974696EB3
:103CC0006720666F722072657365742E00FFFF4D6A
:103CD0004D55204F4B2E20526573756D696E672EC2
:103CE0002E2E00FFFF4D4D55204F4B2E2052657359
:103CF000756D696E6720706F736974696F6E2E2EB3
:103D00002E00FFFF4D4D55204F4B2E2052657375F1
:103D10006D696E672074656D70657261747572652A
:103D20002E2E2E00FFFF4669782074686520697387
:103D300073756520616E64207468656E20707265AD
:103D4000737320627574746F6E206F6E204D4D55C5
:103D500020756E69742E00FFFF50726573732074B6
:103D60006865206B6E6F6220746F20726573756D6D
:103D700065206E6F7A7A6C652074656D706572610E
:103D8000747572652E00FFFF4D4D55206E6565649C
:103D900073207573657220617474656E74696F6EDB
:103DA0002E00FFFF506C656173652072656D6F7644
:103DB000652066696C616D656E7420616E64207447
:103DC00068656E20707265737320746865206B6E11
:103DD0006F622E00FFFF456A656374696E67206637
:103DE000696C616D656E7400FFFF4D4D55206C6F01
:103DF0006164206661696C6564202020202000FFDA
:103E0000FF58595A2063616C6962726174696F6E00
:103E100020616C6C2072696768742E20536B657723
:103E20002077696C6C20626520636F7272656374C1
:103E30006564206175746F6D61746963616C6C7920
:103E40002E00FFFF58595A2063616C6962726174D9
:103E5000696F6E20616C6C2072696768742E2058DF
:103E60002F5920617865732061726520736C6967D2
:103E700068746C7920736B657765642E20476F6F6B
:103E800064206A6F622100FFFF58595A2063616CF9
:103E90006962726174696F6E206F6B2E20582F59A2
:103EA0002061786573206172652070657270656E3F
:103EB000646963756C61722E20436F6E6772617402
:103EC000756C6174696F6E732100FFFF58595A2039
:103ED00063616C6962726174696F6E20636F6D708B
:103EE000726F6D697365642E20526967687420660D
:103EF000726F6E742063616C6962726174696F6E57
:103F000020706F696E74206E6F74207265616368D3
:103F100061626C652E00FFFF58595A2063616C691D
:103F200062726174696F6E20636F6D70726F6D691C
:103F30007365642E2046726F6E742063616C6962D3
:103F4000726174696F6E20706F696E7473206E6F2A
:103F50007420726561636861626C652E00FFFF58B2
:103F6000595A2063616C6962726174696F6E206670
:103F700061696C65642E2052696768742066726F8F
:103F80006E742063616C6962726174696F6E207017
:103F90006F696E74206E6F74207265616368616210
:103FA0006C652E00FFFF58595A2063616C6962727C
:103FB0006174696F6E206661696C65642E2046725B
:103FC0006F6E742063616C6962726174696F6E20D8
:103FD000706F696E7473206E6F74207265616368B0
:103FE00061626C652E00FFFF58595A2063616C694D
:103FF00062726174696F6E206661696C65642E20FF
:10400000506C6561736520636F6E73756C7420749A
:104010006865206D616E75616C2E00FFFF58595AFE
:104020002063616C6962726174696F6E2066616998
:104030006C65642E204265642063616C6962726104
:1040400074696F6E20706F696E7420776173206E73
:104050006F7420666F756E642E00FFFF506C656193
:10406000736520706C61636520737465656C207383
:1040700068656574206F6E20686561746265642E82
:1040800000FFFF44697374616E6365206265747735
:1040900065656E20746970206F6620746865206E97
:1040A0006F7A7A6C6520616E642074686520626541
:1040B00064207375726661636520686173206E6F3A
:1040C00074206265656E20736574207965742E2096
:1040D000506C6561736520666F6C6C6F77207468D7
:1040E00065206D616E75616C2C206368617074650C
:1040F000722046697273742073746570732C207318
:10410000656374696F6E204669727374206C61799F
:1041100065722063616C6962726174696F6E2E00F2
:10412000FFFF506C616365206120736865657420D2
:104130006F6620706170657220756E6465722074A0
:104140006865206E6F7A7A6C6520647572696E6737
:10415000207468652063616C6962726174696F6E56
:10416000206F66206669727374203420706F696EE8
:1041700074732E20496620746865206E6F7A7A6C9D
:10418000652063617463686573207468652070617D
:104190007065722C20706F776572206F6666207470
:1041A0006865207072696E74657220696D6D6564F2
:1041B000696174656C792E00FFFF506C65617365F1
:1041C0002072656D6F766520737465656C20736809
:1041D0006565742066726F6D2068656174626564E0
:1041E0002E00FFFF497320737465656C207368654A
:1041F0006574206F6E20686561746265643F00FFBE
:10420000FF206F66203400FFFF53656172636869A9
:104210006E67206265642063616C696272617469B3
:104220006F6E20706F696E7400FFFF206F6620391B
:1042300000FFFF4D6561737572696E672072656678
:104240006572656E636520686569676874206F666E
:104250002063616C6962726174696F6E20706F694E
:104260006E7400FFFF506C6561736520636C65615F
:104270006E20746865206E6F7A7A6C6520666F7246
:104280002063616C6962726174696F6E2E20436C89
:1042900069636B207768656E20646F6E652E00FF22
:1042A000FF4175746F20686F6D6500FFFF205B6FC5
:1042B00066665D00FFFF50494E44412048656174C9
:1042C000696E6700FFFF54656D702E2063616C2E70
:1042D0002020202020202020202000FFFF43616C90
:1042E0006962726174696F6E20646F6E6500FFFFB2
:1042F00043616C6962726174696E67205A00FFFFE6
:1043000042656420646F6E6500FFFF42656420486B
:10431000656174696E6700FFFF48656174696E6767
:1043200020646F6E652E00FFFF48656174696E67DB
:1043300000FFFF437261736820646574656374698C
:104340006F6E2063616E0A6265207475726E6564BB
:10435000206F6E206F6E6C7920696E0A4E6F726DE1
:10436000616C206D6F646500FFFF5741524E494EEE
:10437000473A0A43726173682064657465637469BF
:104380006F6E0A64697361626C656420696E0A53BA
:104390007465616C7468206D6F646500FFFF417522
:1043A000746F6C6F6164696E672066696C616D65BE
:1043B0006E7420617661696C61626C65206F6E6CF1
:1043C00079207768656E2066696C616D656E742012
:1043D00073656E736F72206973207475726E656495
:1043E000206F6E2E2E2E00FFFF4552524F523A2064
:1043F00046696C616D656E742073656E736F7220B3
:104400006973206E6F7420726573706F6E64696E6D
:10441000672C20706C6561736520636865636B2031
:10442000636F6E6E656374696F6E2E00FFFF4D6F74
:104430006465206368616E676520696E2070726FC5
:104440006772657373202E2E2E00FFFF436F707905
:104450002073656C6563746564206C616E6775615B
:1044600067653F00FFFF43616C69627261746500BC
:10447000FFFF5B252E37735D4C6976652061646AAA
:104480002E205A0A76616C7565207365742C206342
:104490006F6E74696E75650A6F72207374617274E1
:1044A0002066726F6D207A65726F3F0A2563436FD5
:1044B0006E74696E75652563526573657400FFFFE0
:1044C000506C65617365206C6F61642066696C6116
:1044D0006D656E742066697273742E00FFFF4973F8
:1044E0002066696C616D656E74206C6F61646564D3
:1044F0003F00FFFF53656C6563742066696C616DF6
:10450000656E743A00FFFF46696C616D656E7400FC
:10451000FFFF43616E63656C00FFFF52756E6E694D
:104520006E672057697A6172642077696C6C2064C9
:10453000656C6574652063757272656E7420636165
:104540006C6962726174696F6E20726573756C74E8
:104550007320616E642073746172742066726F6D73
:104560002074686520626567696E6E696E672E20CB
:10457000436F6E74696E75653F00FFFF507265682A
:10458000656174696E67206E6F7A7A6C652E205053
:104590006C6561736520776169742E00FFFF4C6F55
:1045A0006164696E672066696C616D656E7400FF99
:1045B000FF506C6561736520696E73657274206667
:1045C000696C616D656E7420696E746F20746865C6
:1045D0002065787472756465722C207468656E202D
:1045E000707265737320746865206B6E6F622074DF
:1045F0006F206C6F61642069742E00FFFF506C6542
:1046000061736520696E736572742066696C616D93
:10461000656E7420696E746F2074686520666972B7
:1046200073742074756265206F6620746865204D10
:104630004D552C207468656E2070726573732074FC
:104640006865206B6E6F6220746F206C6F616420F0
:1046500069742E00FFFF546865207072696E74657E
:10466000722077696C6C2073746172742070726947
:104670006E74696E672061207A69672D7A616720A0
:104680006C696E652E20526F746174652074686564
:10469000206B6E6F6220756E74696C20796F752067
:1046A000726561636820746865206F7074696D61FC
:1046B0006C206865696768742E20436865636B20A9
:1046C00074686520706963747572657320696E2003
:1046D0007468652068616E64626F6F6B2028436147
:1046E0006C6962726174696F6E2063686170746571
:1046F00072292E00FFFF53656C6563742074656D2D
:104700007065726174757265207768696368206D81
:1047100061746368657320796F7572206D6174656B
:104720007269616C2E00FFFF43686F6F73652061D3
:104730002066696C616D656E7420666F72207468A6
:1047400065204669727374204C61796572204361FB
:104750006C6962726174696F6E20616E642073654A
:104760006C65637420697420696E20746865206FBD
:104770006E2D73637265656E206D656E752E00FF1C
:10478000FF4E6F7720492077696C6C2063616C69FC
:1047900062726174652064697374616E636520621E
:1047A00065747765656E20746970206F6620746823
:1047B00065206E6F7A7A6C6520616E642068656131
:1047C0007462656420737572666163652E00FFFF15
:1047D000596F752063616E20616C77617973207207
:1047E0006573756D65207468652057697A617264B8
:1047F0002066726F6D2043616C6962726174696FCB
:104800006E202D3E2057697A6172642E00FFFF50A2
:104810006C6561736520636865636B206F757220DA
:1048200068616E64626F6F6B20616E642066697888
:10483000207468652070726F626C656D2E205468FC
:10484000656E20726573756D6520746865205769A3
:104850007A617264206279207265626F6F74696E2A
:104860006720746865207072696E7465722E00FF2F
:10487000FF416C6C20697320646F6E652E20486167
:10488000707079207072696E74696E672100FFFF25
:10489000496620796F752068617665206164646976
:1048A00074696F6E616C20737465656C20736865E4
:1048B0006574732C2063616C696272617465207425
:1048C00068656972207072657365747320696E2003
:1048D00053657474696E6773202D204857205365A3
:1048E000747570202D20537465656C207368656540
:1048F00074732E00FFFF506C6561736520636C65F7
:10490000616E206865617462656420616E64207404
:1049100068656E20707265737320746865206B6EB5
:104920006F622E00FFFF446F20796F752077616EF4
:104930007420746F20726570656174206C6173748B
:10494000207374657020746F20726561646A75737A
:10495000742064697374616E636520626574776541
:10496000656E206E6F7A7A6C6520616E6420686572
:1049700061746265643F00FFFF53656C656374207A
:104980006E6F7A7A6C6520707265686561742074E8
:10499000656D7065726174757265207768696368AA
:1049A000206D61746368657320796F7572206D6125
:1049B00074657269616C2E00FFFF49732066696C33
:1049C000616D656E74206C6F616465643F00FFFF0C
:1049D00049732066696C616D656E74206C6F6164EB
:1049E00065643F00FFFF4E6F7720492077696C6C4C
:1049F0002070726568656174206E6F7A7A6C6520CC
:104A0000666F7220504C412E00FFFF492077696C81
:104A10006C2072756E207A2063616C6962726174B9
:104A2000696F6E206E6F772E00FFFF4E6F772072DA
:104A3000656D6F7665207468652074657374207089
:104A400072696E742066726F6D20737465656C2078
:104A500073686565742E00FFFF506C656173652097
:104A600072656D6F7665207368697070696E672016
:104A700068656C706572732066697273742E00FFCE
:104A8000FF492077696C6C2072756E2078797A20E6
:104A900063616C6962726174696F6E206E6F772EEC
:104AA0002049742077696C6C2074616B652061709B
:104AB00070726F782E203132206D696E732E00FF78
:104AC000FF46697273742C20492077696C6C2072E0
:104AD000756E207468652073656C667465737420E8
:104AE000746F20636865636B206D6F737420636FF0
:104AF0006D6D6F6E20617373656D626C792070727D
:104B00006F626C656D732E00FFFF48692C20492091
:104B1000616D20796F7572205A617269626F2070C1
:104B200072696E7465722E20576F756C6420796F90
:104B300075206C696B65206D6520746F20677569E1
:104B4000646520796F75207468726F75676820746A
:104B500068652073657475702070726F6365737318
:104B60003F00FFFF452D636F72726563743A00FF6B
:104B7000FF5A2D636F72726563743A00FFFF592DFF
:104B8000636F72726563743A00FFFF582D636F7232
:104B9000726563743A00FFFF53706F6F6C4A6F6900
:104BA0006E2020205B4E2F415D00FFFF53706F6F22
:104BB0006C4A6F696E2020205B6F66665D00FFFFA8
:104BC00053706F6F6C4A6F696E202020205B6F6E90
:104BD0005D00FFFF4669726D776172652020205B82
:104BE0006E6F6E655D00FFFF4669726D776172657D
:104BF000205B7374726963745D00FFFF4669726DB8
:104C0000776172652020205B7761726E5D00FFFF27
:104C10004669726D776172652020205B6E6F6E65EC
:104C20005D00FFFF4D6F64656C2020202020205B1D
:104C30006E6F6E655D00FFFF4D6F64656C20202018
:104C4000205B7374726963745D00FFFF4D6F646570
:104C50006C2020202020205B7761726E5D00FFFFBA
:104C60004D6F64656C2020202020205B6E6F6E6588
:104C70005D00FFFF4E6F7A7A6C6520202020205B5C
:104C80006E6F6E655D00FFFF4E6F7A7A6C65202057
:104C9000205B7374726963745D00FFFF4E6F7A7AF4
:104CA0006C6520202020205B7761726E5D00FFFF25
:104CB0004E6F7A7A6C6520202020205B6E6F6E65C7
:104CC0005D00FFFF485720536574757000FFFF4873
:104CD000656174696E672064697361626C656420E4
:104CE0006279207361666574792074696D65722ECE
:104CF00000FFFF46696C616D656E742073656E73AD
:104D00006F7200FFFF5072696E742066616E3A0028
:104D1000FFFF45787472756465722066616E3A00B3
:104D2000FFFF43616C6962726174696E6720686F2E
:104D30006D6500FFFF53656C667465737420666172
:104D4000696C6564202000FFFF416C6C20636F720A
:104D50007265637420202020202000FFFF436865D7
:104D6000636B696E672073656E736F72732000FFEB
:104D7000FF436865636B696E6720686F74656E6476
:104D8000202000FFFF436865636B696E67206265E2
:104D900064202020202000FFFF436865636B696E5C
:104DA00067205A2061786973202000FFFF436865FF
:104DB000636B696E6720592061786973202000FF5A
:104DC000FF436865636B696E67205820617869737B
:104DD000202000FFFF436865636B696E6720656E86
:104DE0006473746F707300FFFF4572726F72202DD1
:104DF00020737461746963206D656D6F72792068CA
:104E00006173206265656E206F7665727772697472
:104E100074656E00FFFF436172642072656D6F768A
:104E2000656400FFFF5072696E746572206E6F7A60
:104E30007A6C65206469616D657465722064696669
:104E4000666572732066726F6D2074686520472DE9
:104E5000636F64652E20506C6561736520636865BF
:104E6000636B207468652076616C756520696E20BF
:104E700073657474696E67732E205072696E742046
:104E800063616E63656C6C65642E00FFFF50726930
:104E90006E746572206E6F7A7A6C65206469616DDC
:104EA0006574657220646966666572732066726FE8
:104EB0006D2074686520472D636F64652E20436FF5
:104EC0006E74696E75653F00FFFF54656D706572A5
:104ED00061747572652063616C6962726174696F77
:104EE0006E206661696C656400FFFF54656D7065D6
:104EF0007261747572652063616C69627261746954
:104F00006F6E2069732066696E69736865642061DD
:104F10006E64206163746976652E2054656D702E11
:104F20002063616C6962726174696F6E2063616E87
:104F30002062652064697361626C656420696E201B
:104F40006D656E752053657474696E67732D3E547C
:104F5000656D702E2063616C2E00FFFF4E2F4100A7
:104F6000FFFF20203000FFFF20203100FFFF4952CB
:104F70003A00FFFF46494E44413A00FFFF50494E78
:104F800044413A00FFFF53656E736F722073746182
:104F9000746500FFFF457874727564657200FFFFE9
:104FA0004D6F7665205A00FFFF4D6F7665205900E2
:104FB000FFFF4D6F7665205800FFFF48572053656F
:104FC00074757000FFFF436865636B7300FFFF4EED
:104FD0006F7A7A6C6520642E20205B302E34305D31
:104FE00000FFFF4E6F7A7A6C6520642E20205B30C4
:104FF0002E36305D00FFFF4E6F7A7A6C6520642E8E
:1050000020205B302E34305D00FFFF4E6F7A7A6CCB
:105010006520642E20205B302E32355D00FFFF536B
:105020007465656C2073686565747300FFFF536F6A
:10503000756E642020202020205B6C6F75645D00FD
:10504000FFFF536F756E64202020205B61737369CE
:1050500073745D00FFFF536F756E64202020205B2A
:1050600073696C656E745D00FFFF536F756E64202D
:1050700020202020205B6F6E63655D00FFFF536F73
:10508000756E642020202020205B6C6F75645D00AD
:10509000FFFF536F7274202020202020205B6E6F52
:1050A0006E655D00FFFF536F72742020205B616CA2
:1050B0007068616265745D00FFFF536F7274202039
:1050C00020202020205B74696D655D00FFFF534444
:1050D000206361726420205B6E6F726D616C5D0095
:1050E000FFFF53442063617264205B666C73684108
:1050F00069725D00FFFF53656C656374206C616EBF
:10510000677561676500FFFF52506920706F7274A8
:1051100020202020205B6F6E5D00FFFF5250692031
:10512000706F7274202020205B6F66665D00FFFF49
:1051300054656D702E2063616C2E2020205B6F6E95
:105140005D00FFFF54656D702E2063616C2E202082
:105150005B6F66665D00FFFF4C696E2E20636F72A9
:1051600072656374696F6E00FFFF4D65736820623E
:105170006564206C6576656C696E6700FFFF4D4D58
:1051800055204D6F64655B537465616C74685D0098
:10519000FFFF4D4D55204D6F6465205B4E6F726D66
:1051A000616C5D00FFFF485720536574757000FF08
:1051B000FF46616E7320636865636B20205B6F66DA
:1051C000665D00FFFF46616E7320636865636B2058
:1051D00020205B6F6E5D00FFFF462E206175746FAF
:1051E0006C6F6164205B6F66665D00FFFF462E207A
:1051F0006175746F6C6F616420205B6F6E5D00FF82
:10520000FF462E206175746F6C6F6164205B4E2FBA
:10521000415D00FFFF44697361626C6520737465D2
:10522000707065727300FFFF4D6F7665206178695D
:105230007300FFFF54656D7065726174757265006F
:10524000FFFF54656D702E2063616C69627261743A
:10525000696F6E00FFFF52657365742058595A20BC
:1052600063616C6962722E00FFFF504944206361E4
:105270006C6962726174696F6E00FFFF4265642041
:105280006C6576656C20636F727265637400FFFFF6
:105290004D65736820426564204C6576656C696E67
:1052A0006700FFFF43616C696272617465205A0098
:1052B000FFFF43616C6962726174652058595A003E
:1052C000FFFF53656C6674657374202020202020D6
:1052D00020202000FFFF57697A61726400FFFF4CB5
:1052E0006F616420616C6C00FFFF456A6563742028
:1052F00066696C616D656E7400FFFF506C6561736B
:10530000652070756C6C206F75742066696C616DBA
:10531000656E7420696D6D6564696174656C790092
:10532000FFFF556E6C6F6164696E672066696C6122
:105330006D656E7400FFFF526573756D696E672051
:105340007072696E7400FFFF57616974696E67203F
:10535000666F72206E6F7A7A6C6520616E6420626F
:10536000656420636F6F6C696E6700FFFF53656C47
:10537000662074657374204F4B00FFFF53656C66A5
:105380002074657374207374617274202000FFFFB1
:1053900046616C73652074726967676572696E67D0
:1053A00000FFFF5377617070656400FFFF46726F06
:1053B0006E742F6C6566742066616E7300FFFF412A
:1053C00078697300FFFF41786973206C656E6774BC
:1053D0006800FFFF4C6F6F73652070756C6C6579AA
:1053E00000FFFF456E6473746F70206E6F742068E9
:1053F000697400FFFF456E6473746F7000FFFF4DAA
:105400006F746F7200FFFF456E6473746F7073008A
:10541000FFFF576972696E67206572726F7200FFD5
:10542000FF426564202F2048656174657200FFFFAC
:105430004E6F7420636F6E6E656374656400FFFF6A
:105440004865617465722F546865726D6973746F15
:105450007200FFFF506C6561736520636865636B64
:10546000203A00FFFF53656C6674657374206572A3
:10547000726F72202100FFFF5265636F766572695B
:105480006E67207072696E742020202000FFFF4339
:105490006F6F6C646F776E00FFFF507265686561B7
:1054A0007420746865206E6F7A7A6C652100FFFF46
:1054B0004552524F523A00FFFF46696C616D656E6E
:1054C0007420657874727564696E67202620776928
:1054D000746820636F727265637420636F6C6F729F
:1054E0003F00FFFF4175746F6C6F6164696E6720E8
:1054F00066696C616D656E7420697320616374699F
:1055000076652C206A7573742070726573732074CD
:105510006865206B6E6F6220616E6420696E7365D2
:1055200072742066696C616D656E742E2E2E00FF9C
:10553000FF546F74616C2066696C616D656E7400F8
:10554000FFFF546F74616C207072696E742074690F
:105550006D6500FFFF46696C616D656E7420757343
:10556000656400FFFF5072696E742074696D650098
:10557000FFFF592064697374616E63652066726F02
:105580006D206D696E00FFFF4C65667400FFFF5271
:105590006967687400FFFF4D65617375726564200B
:1055A000736B657700FFFF536C6967687420736BDA
:1055B00065773A00FFFF53657665726520736B650A
:1055C000773A00FFFF5B303B305D20706F696E748F
:1055D000206F666673657400FFFF41646A757374BB
:1055E000696E67205A3A00FFFF526573657400FFC9
:1055F000FF526561722073696465205B756D5D00A3
:10560000FFFF46726F6E7420736964655B756D5D34
:1056100000FFFF526967687420736964655B756D8C
:105620005D00FFFF4C6566742073696465205B75DF
:105630006D5D00FFFF5365742074656D7065726168
:10564000747572653A00FFFF526573657400FFFF61
:1056500052656E616D6500FFFF4669727374206C60
:10566000617965722063616C2E00FFFF53656C6584
:10567000637400FFFF537465656C2073686565741F
:105680007300FFFF536865657400FFFF537570700A
:105690006F727400FFFF4661696C207374617473EC
:1056A000204D4D5500FFFF4661696C207374617495
:1056B0007300FFFF5374617469737469637320200E
:1056C00000FFFF43616C6962726174696F6E00FF75
:1056D000FF4175746F4C6F61642066696C616D6524
:1056E0006E7400FFFF456A6563742066696C616DC6
:1056F000656E7400FFFF556E6C6F61642066696CA7
:10570000616D656E7400FFFF4C6F616420746F20E3
:105710006E6F7A7A6C6500FFFF4C6F61642066697A
:105720006C616D656E7400FFFF4E6F205344206303
:1057300061726400FFFF526573756D652070726958
:105740006E7400FFFF5061757365207072696E742E
:1057500000FFFF526573756D65207072696E74008D
:10576000FFFF5072656865617400FFFF54756E65D8
:1057700000FFFF4C6976652061646A757374205A76
:1057800000FFFF496E666F2073637265656E00FFF0
:10579000FF46696E697368696E67206D6F76656D27
:1057A000656E747300FFFF536F756E6420202020B8
:1057B00020205B6C6F75645D00FFFF536F756E6436
:1057C000202020205B6173736973745D00FFFF53B9
:1057D0006F756E64202020205B73696C656E745D4C
:1057E00000FFFF536F756E642020202020205B6F28
:1057F0006E63655D00FFFF536F756E64202020208F
:1058000020205B6C6F75645D00FFFF4D4D55204D92
:105810006F64655B537465616C74685D00FFFF4D78
:105820004D55204D6F6465205B4E6F726D616C5DF0
:1058300000FFFF4372617368206465742E20205B53
:105840004E2F415D00FFFF437261736820646574F1
:105850002E20205B6F66665D00FFFF4372617368F8
:10586000206465742E2020205B6F6E5D00FFFF4D6D
:105870006F6465202020205B537465616C74685DE3
:1058800000FFFF4D6F646520202020205B4E6F726B
:105890006D616C5D00FFFF46616E73206368656338
:1058A0006B20205B6F66665D00FFFF46616E7320B4
:1058B000636865636B2020205B6F6E5D00FFFF46B1
:1058C000696C2E2073656E736F7220205B6F6E5D46
:1058D00000FFFF46696C2E2073656E736F72205B4C
:1058E0006F66665D00FFFF4368616E6765206669ED
:1058F0006C616D656E7400FFFF466C6F7700FFFF93
:10590000537065656400FFFF4D61676E65747320B9
:10591000636F6D702E5B4E2F415D00FFFF4D616721
:105920006E65747320636F6D702E5B4F66665D00ED
:10593000FFFF4D61676E65747320636F6D702E207D
:105940005B4F6E5D00FFFF5A2D70726F6265206EB7
:10595000722E202020205B335D00FFFF5A2D7072D5
:105960006F6265206E722E202020205B355D00FF67
:10597000FF5A2D70726F6265206E722E20202020DB
:105980005B315D00FFFF4D657368202020202020E3
:105990002020205B3778375D00FFFF4D657368205E
:1059A00020202020202020205B3378335D00FFFF63
:1059B00046616E20737065656400FFFF4265640098
:1059C000FFFF4E6F7A7A6C6500FFFF536574746950
:1059D0006E677300FFFF5072696E742061626F72B0
:1059E00074656400FFFF53746F70207072696E7489
:1059F00000FFFF46696C6520696E636F6D706C65B2
:105A000074652E20436F6E74696E756520616E79C2
:105A10007761793F00FFFF5072696E742066726F84
:105A20006D20534400FFFF4261636B00FFFF4D6137
:105A3000696E00FFFF4C617374207072696E742090
:105A40006661696C7572657300FFFF4D4D55206688
:105A500061696C7300FFFF4D4D55206C6F616420D0
:105A60006661696C7300FFFF546F74616C2066613E
:105A7000696C7572657300FFFF4D4D552066616955
:105A80006C7300FFFF4D4D55206C6F6164206661A3
:105A9000696C7300FFFF4D4D5520706F7765722064
:105AA0006661696C7300FFFF546F74616C206661FE
:105AB000696C7572657300FFFF506F7765722066C1
:105AC00061696C7572657300FFFF46696C616D2ECC
:105AD0002072756E6F75747300FFFF437261736897
:105AE00000FFFF4C617374207072696E74206661F0
:105AF000696C7572657300FFFF506F776572206681
:105B000061696C7572657300FFFF46696C616D2E8B
:105B10002072756E6F75747300FFFF437261736856
:105B200000FFFF546F74616C00FFFF4C61737420C1
:105B30007072696E7400FFFF50494E444100FFFFD0
:105B4000416D6269656E7400FFFF42656C7420737D
:105B5000746174757300FFFF566F6C7461676573D1
:105B600000FFFF54656D7065726174757265730036
:105B7000FFFF42656C742073746174757300FFFFDE
:105B800053656E736F7220696E666F00FFFF457814
:105B900074727564657220696E666F00FFFF5859F4
:105BA0005A2063616C2E2064657461696C7300FF18
:105BB000FF756E6B6E6F776E00FFFF4D4D55322097
:105BC000636F6E6E656374656400FFFF44617465A6
:105BD0003A00FFFF686F77746F2E707275736133D0
:105BE000642E636F6D00FFFF666F72756D2E7072AD
:105BF00075736133642E636F6D00FFFF5A617269C4
:105C0000626F2E636F6D00FFFF746F20756E6C6F97
:105C100061642066696C616D656E7400FFFF746F6E
:105C2000206C6F61642066696C616D656E7400FF45
:105C3000FF507265737320746865206B6E6F62002D
:105C4000FFFF3E43616E63656C00FFFF5072656845
:105C5000656174696E6720746F2063757400FFFF5F
:105C600050726568656174696E6720746F20656A3B
:105C700065637400FFFF50726568656174696E67E3
:105C800020746F20756E6C6F616400FFFF50726549
:105C900068656174696E6720746F206C6F61640061
:105CA000FFFF536F7274696E672066696C657300DD
:105CB000FFFF536F6D652066696C65732077696CB3
:105CC0006C206E6F7420626520736F727465642E31
:105CD000204D61782E204E6F2E206F662066696CF5
:105CE000657320696E203120666F6C646572206672
:105CF0006F7220736F7274696E6720697320313020
:105D0000302E00FFFF4D3131372046697273742009
:105D10006C617965722063616C2E00FFFF437572C0
:105D200072656E7400FFFF55736564206475726957
:105D30006E67207072696E7400FFFF5049442063E3
:105D4000616C2E2066696E697368656400FFFF50A0
:105D500049442063616C2E20202020202020202018
:105D6000202000FFFF506C656173652077616974C6
:105D700000FFFF5072696E74207061757365640076
:105D8000FFFF59657300FFFF4E6F00FFFF4E6F74FA
:105D9000207370696E6E696E6700FFFF5370696EE5
:105DA0006E696E6700FFFF4C65667420686F7465EE
:105DB0006E642066616E3F00FFFF46726F6E742056
:105DC0007072696E742066616E3F00FFFF46616EFF
:105DD000207465737400FFFF5072696E7420464131
:105DE0004E00FFFF4E6F7A7A6C652046414E00FFF1
:105DF000FF546F74616C00FFFF4C6173742070720C
:105E0000696E740025642062797465732077726905
:105E10007474656E20746F20454550524F4D20615B
:105E2000742061646472657373203078253034782F
:105E3000004433202D20526561642F5772697465C8
:105E400020454550524F4D0A0020436F756E742017
:105E5000583A20005344207072696E74696E67204E
:105E60006279746520004E6F7420696E20666172DD
:105E70006D206D6F64652E00416374697665204501
:105E8000787472756465723A2000496E76616C6947
:105E900064206578747275646572005A204F666676
:105EA00073657400556E6B6E6F776E20636F6D6DEA
:105EB000616E643A2022004D32303020496E7661A6
:105EC0006C696420657874727564657220007A5F0D
:105ED0006D61783A20007A5F6D696E3A2000795FD3
:105EE0006D61783A2000795F6D696E3A2000785FC5
:105EF0006D61783A20006F70656E005452494747D3
:105F00004552454400785F6D696E3A2000526570D5
:105F10006F7274696E6720656E6473746F7020733E
:105F20007461747573000053494C454E54004E4FD4
:105F3000524D414C002553204D4F44453A20506569
:105F40007263656E7420646F6E653A2025643B2031
:105F50007072696E742074696D652072656D616917
:105F60006E696E6720696E206D696E733A202564D4
:105F70000A00456E642066696C65206C6973740064
:105F8000426567696E2066696C65206C6973740090
:105F90000A50494E44412074656D70657261747594
:105FA00072653A20252E3166205A2073686966741E
:105FB00020286D6D293A20252E3366000A5374651A
:105FC000703A2025642F360A000A537465703A200F
:105FD00025642F362028736B6970706564290A5018
:105FE000494E44412074656D7065726174757265C7
:105FF0003A202564205A20736869667420286D6DE4
:10600000293A300A000A5A45524F3A20252E336663
:106010000A0073746172742074656D7065726174C6
:106020007572653A20252E31660A002564202025E8
:106030002E326600255320583A20252E35662059E9
:106040003A20252E3566205A3A20252E35660A003C
:10605000536C6565702E2E2E004E6F7420696E2075
:106060006661726D206D6F64652E00256400453099
:106070003A25642052504D0A50524E303A25642041
:1060800052504D0A0025640045787465726E616C4B
:106090002053504920666C6173680A573235583274
:1060A00030434C206973206E6F74207265732D0A23
:1060B000706F6E64696E672E204C616E67756167E4
:1060C000650A73776974636820756E617661696CBF
:1060D00061626C652E004372617368446574656328
:1060E000742044495341424C4544004372617368F3
:1060F00044657465637420454E41424C454421001B
:10610000573235583230434C206E6F7420726573AD
:10611000706F6E64696E672E0A002020506C616E8D
:106120006E657242756666657242797465733A206F
:10613000002046726565204D656D6F72793A2000CA
:10614000207C20417574686F723A2000204C617386
:106150007420557064617465643A200020536F6642
:10616000747761726520526573657400205761749D
:106170006368646F67205265736574002042726FB4
:10618000776E206F757420526573657400204578B2
:106190007465726E616C20526573657400506F7720
:1061A00065725570006572726F72207772697469DA
:1061B0006E6720746F2066696C6500656E64737429
:1061C0006F7073206869743A2000446F6E652073A5
:1061D0006176696E672066696C652E006F6B00657D
:1061E0006E717565696E67202200446F6E65207060
:1061F00072696E74696E672066696C6500507269B9
:106200006E7465722073746F707065642064756558
:1062100020746F206572726F72732E204669782029
:10622000746865206572726F7220616E6420757388
:1062300065204D39393920746F207265737461722D
:10624000742E202854656D706572617475726520B6
:1062500069732072657365742E20536574206974A8
:106260002061667465722072657374617274696E00
:106270006729004E6F204C696E65204E756D626512
:1062800072207769746820636865636B73756D2C21
:10629000204C617374204C696E653A20004E6F206B
:1062A000436865636B73756D2077697468206C69EA
:1062B0006E65206E756D6265722C204C6173742062
:1062C0004C696E653A2000636865636B73756D2079
:1062D0006D69736D617463682C204C617374204C1C
:1062E000696E653A20004C696E65204E756D626579
:1062F00072206973206E6F74204C617374204C6936
:106300006E65204E756D6265722B312C204C617369
:1063100074204C696E653A200025632533642F256F
:106320006425630020746F6F206C6F6E6720657842
:1063300074727573696F6E2070726576656E7465C0
:10634000640020636F6C6420657874727573696F84
:106350006E2070726576656E74656400544D4320DE
:10636000445249564552204F56455254454D5000CF
:1063700025632533642F25642563005A25362E3284
:106380006620005A2020202D2D2D20002563253346
:10639000642525002D2D2D002533686864002533E4
:1063A000532533732525005553420020202000201B
:1063B0005344002025753E257500203F3E2575007D
:1063C000204625750020463F00204630202000252D
:1063D000632D2D3A2D2D202000256325337568204F
:1063E00025632563002563253032753A25303275E3
:1063F000256325630057697A61726420656E6420A5
:1064000073746174653A2025640A00004B494C4C52
:1064100045442E20005072696E7465722068616C6C
:106420007465642E206B696C6C28292063616C6C28
:10643000656421004B494C4C3A2025640A004D32DA
:10644000323120496E76616C6964206578747275AA
:1064500064657220004D32313820496E76616C6976
:106460006420657874727564657220004D3130392E
:1064700020496E76616C6964206578747275646514
:106480007220004D31303520496E76616C69642090
:10649000657874727564657220004D31303420491E
:1064A0006E76616C696420657874727564657220BB
:1064B0000055564C4F202D20656E642025640A003F
:1064C0007374707325640A004572723A2050524901
:1064D0004E542046414E204552524F520045727252
:1064E0003A20455854522E2046414E204552524F94
:1064F00052002F2F20616374696F6E3A7265737555
:106500006D6564003F3F00506F6C736B69004E65B2
:106510006465726C616E6473004974616C69616E6C
:106520006F004672616E6361697300457370616EDE
:106530006F6C0044657574736368004365737469B8
:106540006E6100456E676C697368004178697320FD
:106550006C656E67746820646966666572656E63F3
:10656000653A252E33660A004D6561737572656460
:106570002061786973206C656E6774683A252E33E4
:10658000660A00776F726C6420636F6F7264696E65
:10659000617465733A2028252E33662C20252E330E
:1065A000662C20252E3366290A007068797369638A
:1065B000616C20636F6F7264696E617465733A20F9
:1065C00028252E33662C20252E33662C20252E33AD
:1065D00066290A0043757272656E7420706F7320AD
:1065E0005A5F415849533A252E33660A43757272F1
:1065F000656E7420706F7320455F415849533A258A
:106600002E33660A00416674657220776169746989
:106610006E6720666F722074656D703A0A437572FA
:1066200072656E7420706F7320585F415849533AF9
:10663000252E33660A43757272656E7420706F730F
:1066400020595F415849533A252E33660A00255395
:106650003A0A2531372E32666D20200A25533A0A30
:1066600025376C6464203A253268686468203A25CE
:1066700030326868646D0025533A0A2531372E326E
:10668000666D20200A25533A0A2532646820253099
:1066900032646D2025303264730025362E32666DEB
:1066A0006D004E2F410025533A0A25530A25533ACF
:1066B0000A25533A004E2F410025332E3266010041
:1066C00025533A0A25530A252D31352E31355325C8
:1066D000332E3266010A252D31352E3135532533BF
:1066E0002E326601002F2F20616374696F6E3A634A
:1066F000616E63656C0053442063617264206F6B4C
:10670000006F70656E526F6F74206661696C6564AE
:1067100000766F6C756D652E696E697420666169AF
:106720006C656400534420696E6974206661696C0D
:106730000057726974696E6720746F2066696C65B2
:106740003A200046696C652073656C656374656406
:10675000002053697A653A200046696C65206F70A5
:10676000656E65643A20006F70656E206661696CC5
:1067700065642C2046696C653A200043616E6E6F3B
:106780007420656E746572207375626469723A2054
:10679000002F2F20616374696F6E3A7061757365A5
:1067A00064002573202534642052504D0A2573203F
:1067B0002534642052504D0A00526573656E6400A2
:1067C00025533A20256C640A25530A006E616E0039
:1067D000696E66004E414E494E495459494E46CD68
:1067E000CCCC3D0AD7233C17B7D13877CC2B329588
:1067F00095E6241FB14F0A000020410000C8420066
:10680000401C4620BCBE4CCA1B0E5AAEC59D74002F
:10681000407A10F35A00A0724E18090010A5D4E86F
:106820000000E87648170000E40B54020000CA9A02
:106830003B000000E1F50500008096980000004054
:10684000420F000000A08601000000102700000099
:1068500000E803000000006400000000000A0000DF
:106860000000000100000000002C76D888DC674F93
:106870000823DFC1DFAE59E1B1B796E5E3E453C6C3
:106880003AE651997696E8E6C28426EB898C9B62BB
:10689000ED407C6FFCEFBC9C9F40F2BAA56FA5F465
:1068A00090055A2AF75C936B6CF9676DC11BFCE08D
:1068B000E40D47FEF520E6B500D0ED902E030094E0
:1068C0003577050080841E080000204E0A00000075
:1068D000C80C333333330F986E12831141EF8D217F
:1068E00014893BE65516CFFEE6DB18D1844B381BE6
:1068F000F77C1D901DA4BBE424203284725E2281AB
:1069000000C9F124ECA1E53D276364696E6F7073E3
:106910007578585B00442D31202D20456E646C65E0
:106920007373206C6F6F700A004175746F0020459F
:106930002F443D00416476616E6365204B3D004D00
:106940003232302053256900255346696C616D65EC
:106950006E742073657474696E67733A204469734A
:1069600061626C65640A00255346696C616D656EF1
:10697000742073657474696E67733A0A2553202016
:10698000204D3230302044252E32660A00255352E5
:106990006574726163743A20533D4C656E67746828
:1069A00020286D6D2920463A537065656420286D56
:1069B0006D2F6D29205A3A205A4C69667420286D33
:1069C0006D290A25532020204D3230372053252EA3
:1069D00032662046252E3266205A252E32660A253A
:1069E000535265636F7665723A20533D45787472F1
:1069F00061206C656E67746820286D6D2920463AA9
:106A0000537065656420286D6D2F6D290A2553200C
:106A100020204D3230382053252E32662046252E38
:106A200032660A25534175746F2D52657472616325
:106A3000743A20533D3020746F2064697361626C36
:106A4000652C203120746F20696E746572707265D8
:106A50007420657874727564652D6F6E6C79206D25
:106A60006F766573206173207265747261637473ED
:106A7000206F72207265636F7665726965730A258F
:106A8000532020204D323039205325640A002553ED
:106A9000504944206865617462656420736574744C
:106AA000696E67733A0A25532020204D3330342015
:106AB00050252E32662049252E32662044252E325E
:106AC000660A0025535049442073657474696E67E3
:106AD000733A0A25532020204D3330312050252E83
:106AE00032662049252E32662044252E32660A0061
:106AF000255353746570732070657220756E6974C8
:106B00003A0A255320204D39322058252E3266204E
:106B100059252E3266205A252E32662045252E32E2
:106B2000660A25535553746570207265736F6C75D2
:106B300074696F6E3A200A2553204D333530205842
:106B4000256420592564205A2564204525640A259A
:106B5000534D6178696D756D206665656472617409
:106B60006573202D206E6F726D616C20286D6D2F06
:106B700073293A0A255320204D3230332058252ED0
:106B800032662059252E3266205A252E326620453F
:106B9000252E32660A25534D6178696D756D206624
:106BA0006565647261746573202D20737465616C12
:106BB000746820286D6D2F73293A0A255320204DC3
:106BC0003230332058252E32662059252E32662049
:106BD0005A252E32662045252E32660A25534D61F0
:106BE00078696D756D20616363656C657261746948
:106BF0006F6E202D206E6F726D616C20286D6D2F71
:106C00007332293A0A255320204D3230312058253D
:106C10006C752059256C75205A256C752045256C9E
:106C2000750A25534D6178696D756D2061636365E3
:106C30006C65726174696F6E202D20737465616C70
:106C4000746820286D6D2F7332293A0A255320204D
:106C50004D3230312058256C752059256C75205ADD
:106C6000256C752045256C750A2553416363656C59
:106C700065726174696F6E3A20533D616363656C40
:106C800065726174696F6E2C20543D726574726117
:106C9000637420616363656C65726174696F6E0A09
:106CA000255320204D3230342053252E3266205477
:106CB000252E32660A2553416476616E6365642031
:106CC0007661726961626C65733A20533D4D696EFD
:106CD00020666565647261746520286D6D2F732967
:106CE0002C20543D4D696E2074726176656C20666F
:106CF0006565647261746520286D6D2F73292C2081
:106D0000423D6D696E696D756D207365676D656E69
:106D1000742074696D6520286D73292C20583D6D91
:106D20006178696D756D205859206A65726B2028ED
:106D30006D6D2F73292C20205A3D6D6178696D751A
:106D40006D205A206A65726B20286D6D2F73292C77
:106D50002020453D6D6178696D756D2045206A651F
:106D6000726B20286D6D2F73290A255320204D3218
:106D700030352053252E32662054252E326620428F
:106D8000252E32662058252E32662059252E326651
:106D9000205A252E32662045252E32660A25534874
:106DA0006F6D65206F666673657420286D6D293A76
:106DB0000A255320204D3230362058252E326620A9
:106DC00059252E3266205A252E32660A0046256441
:106DD0002025640A004D4D55203C3D202746256462
:106DE000202564270A00504944204175746F74754A
:106DF0006E652066696E69736865642120507574DC
:106E000020746865206C617374204B702C204B6972
:106E100020616E64204B6420636F6E7374616E74C6
:106E2000732066726F6D2061626F766520696E7483
:106E30006F20436F6E66696775726174696F6E2E3D
:106E40006800504944204175746F74756E65206602
:106E500061696C6564212074696D656F75740020CB
:106E6000403A00543A00423A005049442041757477
:106E70006F74756E65206661696C65642120546568
:106E80006D706572617475726520746F6F206869CA
:106E9000676800204B643A2000204B693A200020AC
:106EA0004B703A200020436C617373696320504932
:106EB0004420002054753A2000204B753A200020D1
:106EC0006D61783A2000206D696E3A200020643AA6
:106ED000200020626961733A200020453A00205A60
:106EE0003A0020593A0020453A00205A3A002059E9
:106EF0003A00583A00005A30005A310059300059CF
:106F00003100583000583100456E642073746F7042
:106F1000732064696167002E0044656C6574696F55
:106F20006E206661696C65642C2046696C653A2048
:106F30000046696C652064656C657465643A000A96
:106F4000002F000A004E6F74205344207072696E47
:106F500074696E67005072696E742073617665643F
:106F6000005344207072696E74207061757365649B
:106F7000006673656E736F725F726573746F7265AE
:106F80005F7072696E745F616E645F636F6E746967
:106F90006E75650A004F4B004241440052414D421C
:106FA0006F2046414E200043524153485F43414EBB
:106FB00043454C0043524153485F5245434F564569
:106FC000520043524153485F5245434F5645520089
:106FD000222832290054004475706C69636174651D
:106FE00020542D636F64652069676E6F7265642E2F
:106FF0000A004475706C696361746520542D636F79
:1070000064652069676E6F7265642E0A00496E764A
:10701000616C6964205420636F64652E00556E6B4B
:107020006E6F776E204D20636F64653A2025732064
:107030000A006E6F2076616C696420636F6D6D610C
:107040006E64002C20002C20002C20006E2F61008C
:107050002C20002C20002C20006E2F61002F0050CF
:107060003A005761697420666F722050494E44415E
:10707000207461726765742074656D7065726174E7
:107080007572653A004C414E472053454C20464F9F
:10709000524345440022283129003030303030300E
:1070A00030302D303030302D303030302D303030E9
:1070B000302D303030303030303030303030002013
:1070C000555549443A0031002045585452554445DD
:1070D000525F434F554E543A005A617269626F20B5
:1070E0004D4B33532D42452D34323000204D41431A
:1070F00048494E455F545950453A00312E300020E2
:107100006261736564206F6E204D61726C696E20E0
:107110004649524D574152455F55524C3A68747436
:1071200070733A2F2F6769746875622E636F6D2FC5
:107130005A617269626F2F5A617269626F2D466976
:10714000726D776172652050524F544F434F4C5FC0
:1071500056455253494F4E3A004649524D574152B7
:10716000455F4E414D453A5A617269626F2D4669DD
:10717000726D7761726520004D31313320530020EC
:10718000423A0020453A00543A0020413A0020504B
:107190003A002042403A0020403A00202F003A00B6
:1071A000205400202F0020423A00202F006F6B2037
:1071B000543A002569206D696E2C2025692073657D
:1071C0006300496E76616C6964204D20636F64656D
:1071D0003A202573200A00556E6B6E6F776E20473C
:1071E00020636F64653A202573200A004D6573683B
:1071F00020626564206C6576656C696E67206E6FD1
:1072000074206163746976652E000A002020000AEC
:107210004D6561737572656420706F696E74733A41
:10722000000A5A207365617263682068656967683F
:10723000743A20002C004E756D20582C593A2000CD
:10724000206D6963726F6E7300457863657373694F
:10725000766520626564206C6576656C696E672072
:10726000636F7272656374696F6E3A200042656481
:10727000206C6576656C696E67206661696C656413
:107280002E2053656E736F72207472696767657222
:10729000656420746F6F20686967682E0A00426514
:1072A00064206C6576656C696E67206661696C65E3
:1072B000642E2053656E736F7220646973636F6E02
:1072C0006E6563746564206F72206361626C652013
:1072D00062726F6B656E2E0A00473238205730009D
:1072E00050494E44412070726F62652063616C6941
:1072F00062726174696F6E207374617274004732D8
:1073000038205730004D3234005345545F43484FC6
:10731000505F005345545F535445505F00534554EC
:107320005F574156455F00544D435F004352415300
:10733000485F0073746172740A004C616E67756116
:107340006765207570646174652E006164635F69B0
:107350006E69740A000A205A617269626F20526570
:107360007365617263680A202020616E6420446541
:1073700076656C6F706D656E7400436F6E74696EC8
:107380007565207769746820616E6F746865722016
:10739000626F7764656E3F0025002020202020204A
:1073A000002020202020200045524153494E4720F4
:1073B000616C6C206461746100466163746F727902
:1073C00020524553455400466163746F72792052D0
:1073D000455345540044495341424C45440A0045F5
:1073E0004E41424C4544004653656E736F722025F2
:1073F000530A004D4B33534D4D553253004E4F4DB4
:107400004B3353002E014465632031392032303133
:107410003900436F6D70696C65643A2000286E6FA7
:107420006E652C2064656661756C7420636F6E6692
:1074300069672900446563203139203230313920B1
:1074400031333A32323A34350020332E382E312D52
:10745000323837320A002055706C6F616420696ED3
:107460002070726F677265737300205A3A0020595A
:107470003A0020583A0043524153485F444554452E
:107480004354454458590043524153485F4445547E
:107490004543544544590043524153485F44455481
:1074A000454354454458004D3239007C3C3E3F2F03
:1074B0002A225C0022206661696C65643A2042756C
:1074C000666665722066756C6C2100220025692055
:1074D000686F757273202569206D696E75746573A8
:1074E0000054494D454F55543A004D313130004616
:1074F000756C6C205258204275666665720045783E
:1075000072656D65207370616E206F6620746865AA
:10751000205A2076616C75657321006F6B0A0073C9
:10752000746172740A004D4D5532206669726D7730
:107530006172652076657273696F6E20696E76611F
:107540006C69642E20526571756972656420766578
:107550007273696F6E3A206275696C64206E756D26
:10756000626572202564206F7220686967686572A1
:107570002E006673656E736F725F73746F705F61F8
:107580006E645F736176655F7072696E740A004D38
:107590004D55203D3E20276F6B270A004D4D55204D
:1075A0003D3E20276F6B270A002564004D4D552076
:1075B0003D3E20276F6B272C20726573756D65200B
:1075C0007072696E740A004D4D552072657472793F
:1075D00020617474656D7074206E722E2025640AAB
:1075E000004D4D55203D3E20276F6B270A00410A74
:1075F000004D4D55203C3D202741270A004D363097
:1076000030004D363030204155544F0050525553C4
:1076100041206673656E736F725F7265636F766526
:1076200072002568687500410A004D4D55203C3DAB
:10763000202741270A0050300A004D25640A004DDA
:107640004D55203C3D20274D2564270A0057300A20
:10765000004D4D55203C3D20275730270A0053331D
:107660000A004D4D55203C3D20275333270A005238
:10767000300A004D4D55203C3D20275230270A004E
:107680004B25640A004D4D55203C3D20274B256479
:10769000270A004525640A004D4D55203C3D202712
:1076A000452564270A0055300A004D4D55203C3DC4
:1076B00020275530270A0043300A004D4D55203C05
:1076C0003D20274330270A004C25640A004D4D55C4
:1076D000203C3D20274C2564270A005425640A00DD
:1076E0004D4D55203C3D2027542564270A004D4D23
:1076F00055202D20454E41424C4544002568687573
:107700000050300A004D310A004D4D55203C3D20BF
:10771000274D31270050300A004D4D5520766572B7
:1077200073696F6E2076616C6964004D4D55203D24
:107730003E202725646F6B270A0025750053320A07
:10774000004D4D55203C3D2027533227004D4D55CF
:10775000203D3E202725646F6B270A002575004DCC
:107760004D55206E6F7420726573706F6E64696E14
:1077700067202D2044495341424C45440053310A6F
:10778000004D4D55203C3D2027533127004D4D5590
:10779000203D3E2027737461727427006572726FFA
:1077A000723A20756E6B6E6F776E206D6F76650A1C
:1077B000006E6F206D6F76650A00542D636F6465EF
:1077C0000A00756E6C6F61640A006C6F61640A0078
:1077D0006D6D755F6765745F726573706F6E7365ED
:1077E000202D20626567696E206D6F76653A2000F6
:1077F0006D6D755F6765745F726573706F6E7365CD
:1078000028292072657475726E696E673A20256446
:107810000A00556E6C6F6164696E672066696E69F7
:107820007368656420320A00556E6C6F61642032A3
:107830000A00556E6C6F6164696E672066696E69D7
:107840007368656420310A00556E6C6F6164203185
:107850000A004D4D55207374617274732072657304
:10786000706F6E64696E670A004D4D55206E6F74BF
:1078700020726573706F6E64696E670A0046696C8A
:10788000616D656E74206F7574206F662072616E15
:107890006765202564200A000000803F555585411A
:1078A0000000803F0000C8410000004055550542DF
:1078B0000000C03F0000484200002040555585426E
:1078C000000070C1ABAAA642000060C10000A04148
:1078D0000000C0C00000204100002041ABAA3A4196
:1078E000000020C15555D540000048C255550542FD
:1078F0004D373031204534004D373031204533008D
:107900004D373031204532004D3730312045310080
:107910004D3730312045300046696C616D656E74BD
:10792000206E72206F7574206F662072616E6765BD
:107930002100206661696C65642E002073756363A5
:1079400065656465642E004D4D552063616E5F6C06
:107950006F61643A004164646974696F6E616C20A0
:107960006C6F616420617474656D7074206E722E2A
:107970002025640A00773235783230636C5F6366A5
:107980006D0A00773235783230636C5F656E7465EE
:10799000720A0078797A63616C5F6D6561737375E3
:1079A00072655F656E7465720A0078797A63616CDE
:1079B0005F73706972616C382063783D2564206361
:1079C000793D2564207A303D256420647A3D256424
:1079D000207261646975733D25642061643D25648E
:1079E0000A0078797A63616C5F7365617263685AC3
:1079F000206E6F207369676E616C0A20783D256C7C
:107A00006420793D256C64207A3D256C640A002051
:107A10004F4E2D5349474E414C20617420783D25EF
:107A20006420793D2564207A3D25642061643D25EC
:107A3000640A0078797A63616C5F73656172636868
:107A40005A20783D256C6420793D256C64207A3D70
:107A5000256C640A000A00253032780078797A6350
:107A6000616C5F7363616E5F706978656C735F33BF
:107A7000327833322063783D25642063793D256474
:107A8000206D696E5F7A3D2564206D61785F7A3D77
:107A900025640A00202532642025640A000A002596
:107AA00030327800206D696E3D2564206D61783D2F
:107AB0002564206469663D25640A006D61785F6312
:107AC0003D253264206D61785F6C3D25640A006D50
:107AD00061785F633D2564206D61785F723D256448
:107AE000206D61785F6D617463683D25640A0020D4
:107AF000783D256420793D2564207A3D25640A007F
:107B0000207061747465726E20666F756E6420619A
:107B1000742025642025640A000000F000F801FCB0
:107B200003FE07FE07FE07FE07FC03F801F0000056
:107B30000073697A656F6628746F74616C293D25DE
:107B4000640A0073697A656F6628626C6F636B5FA5
:107B5000627566666572293D25640A0078797A63E4
:107B6000616C5F6D656173737572655F6C6561767D
:107B7000650A00706F696E743D256420783D256448
:107B800020793D2564207A3D25640A005802580278
:107B9000584D584DB004F055F055B00478797A63DB
:107BA000616C5F66696E645F6265645F696E64756F
:107BB0006374696F6E5F73656E736F725F706F6908
:107BC0006E745F787920783D256C6420793D256C52
:107BD00064207A3D256C640A00203C200057415205
:107BE0004E494E473A2046726F6E7420706F696E30
:107BF00074206E6F7420726561636861626C652EBB
:107C0000205920636F6F7264696E6174653A000079
:107C1000000040410000C04000005C430000C04044
:107C200000005C4300004643000040410000464322
:107C3000497465726174696F6E3A200043616C69C2
:107C400062726174696F6E206661696C656421207F
:107C5000436865636B207468652061786573206193
:107C60006E642072756E20616761696E2E004375C7
:107C700073746F6D0054657874757200536D6F6F17
:107C800074680047312059252D2E32662045252D58
:107C90002E3366004731205825642059252D2E3279
:107CA000662045252D2E336600000E1315110E009B
:107CB000000004120912040000001C1F11111F0013
:107CC000000006191803130C00040E1F041C00000A
:107CD00000040A0A0A0A11110E001F1511151F00CF
:107CE00000000103161C0800000000110A04110A1C
:107CF000040C12120C000000002563252D31382ED3
:107D0000313853256300252E31305320002563255B
:107D10002D31382E3138732563002563252D2E3102
:107D2000365320002563252E3135533A25732533EC
:107D3000640020202020202020202020202020201F
:107D4000202020202020002563252D31332E3133A3
:107D50005325362E365300746D63323133305F68ED
:107D60006F6D655F656E74657228617865735F6DB0
:107D700061736B3D307825303278290A00746D6369
:107D8000323133305F686F6D655F65786974207478
:107D90006D63323133305F73675F686F6D696E6733
:107DA0005F617865735F6D61736B3D30782530324C
:107DB000780A00726573756C742076616C75653A2B
:107DC0002025640A0020693D25326420636E743DDD
:107DD0002532642076616C3D2532640A00636C753F
:107DE00073746572733A0A0020693D25326420730A
:107DF0007465703D2532640A00736F727465642087
:107E000073616D706C65733A0A003A20002020207F
:107E10002020202020202020202020202020202062
:107E200000203A2000202020202020202020202078
:107E30002020202020202020200020202020202062
:107E40002020202020202000257300473830004DBE
:107E50003435004D3435205A004737360057697A9B
:107E60006172642073746174653A2025640A004D60
:107E7000363030005052555341206673656E736F33
:107E8000725F7265636F766572006673656E736F9D
:107E9000725F757064617465202D204D3630300A34
:107EA0000020573A0020453A00543A005A206C69A5
:107EB00076652061646A757374206F7574206F66CF
:107EC0002072616E67652E2053657474696E672039
:107ED000746F20302E20436C69636B20746F2063B5
:107EE0006F6E74696E75652E005A206C6976652018
:107EF00061646A757374206F7574206F6620726197
:107F00006E67652E2053657474696E6720746F20E8
:107F1000300020423A0020453A00543A00494E547D
:107F200034002D2D2D2D2D2D2D2D2D2D2D2D2D2DA7
:107F30002D2D2D2D2D2D000000000000110A0450C4
:107F40005255534133444657002079303D25640A49
:107F5000002078303D25640A004F4B0A00455252FC
:107F60004F522061643D25640A002020207A303D74
:107F700025640A00207A303D25640A002079303DCE
:107F800025640A002078303D25640A0078797A63F8
:107F9000616C5F66696E645F706F696E745F636564
:107FA0006E746572320A0000002100240027002A46
:107FB000002D003000330001010000040107010A18
:107FC0000100002200250028002B002E0031003483
:107FD0000002010000050108010B01000020002340
:107FE00000260029002C002F0032000001000003B1
:107FF000010601090105050505070508080808022D
:108000000202020A0A080804040404010101010131
:108010000101010303030303030303040707070C20
:108020000C0C0C0C0C0C0C020202020606060606D6
:108030000606060B0B0B0B0B0B0B0B07070A0A0AAA
:108040000A0A0A0505050404040808010210202094
:10805000080810204010204080020102010804029C
:108060000101020408102040808040201008040212
:10807000018004020180402010080402010804026B
:108080000101020408102040800102040810204071
:108090008010080408801020400440801020400414
:1080A0008000000A0B02090C0D0E080703040100F2
:1080B00000000000000000000000000000000000C0
:1080C000000000000000000000000000001211107D
:1080D00000000000000000000000000000000000A0
:1080E0000000000000000000000000000000000090
:1080F0000000000000000020003E003E0020003E86
:10810000003E0054656D7065726174757265206320
:10811000616C6962726174696F6E206661696C6519
:10812000642E20436F6E74696E756520776974687C
:10813000207072657373696E6720746865206B6E5A
:108140006F622E0054656D70657261747572652082
:1081500063616C6962726174696F6E20646F6E65D1
:108160002E20436F6E74696E756520776974682080
:108170007072657373696E6720746865206B6E6FCB
:10818000622E0044697361626C65206661726D20C5
:108190006D6F6465004661726D206E756D6265720B
:1081A000004D3834004D34340047323820570047F2
:1081B00039390044697361626C65206661726D20B3
:1081C0006D6F64653F00626F6F745F6170705F6DAB
:1081D00061676963203D30782530386C780A006229
:1081E0006F6F745F6170705F666C616773203D30A4
:1081F00078253032780A00626F6F745F726573653C
:108200007276656420203D3078253032780A00622D
:108210006F6F745F636F70795F73697A65203D304B
:1082200078253034780A00626F6F745F6473745F0E
:108230006164647220203D30782530386C780A0003
:10824000626F6F745F7372635F6164647220203D5C
:1082500030782530386C780A00555341525432201A
:1082600072782046756C6C2121210A005365747464
:10827000696E67732053746F7265640053746F7214
:1082800065642073657474696E67732072657472B7
:1082900069657665640048617264636F6465642033
:1082A00044656661756C742053657474696E677398
:1082B000204C6F6164656400563200000000C842C3
:1082C0000000C8420000C8430080CF43000048437C
:1082D00000004843000040410000F042E803000075
:1082E000E8030000C80000008813000000409C4420
:1082F00000409C440000000000000000204E0000F0
:108300000000204100002041CDCCCC3E00002040A8
:10831000000000000000000000000000CDCCCC3EBA
:108320003D0A8141FF08433EB099AB438F42FC4276
:10833000E65A343F4C62B045000000000040400067
:108340000034420000000000000000000000410076
:108350000000E03F0000C8420000C8420000404169
:108360000000F042C0030000C0030000C80000008D
:108370008813000010101010627573793A20706134
:108380007573656420666F7220696E707574006223
:108390007573793A2070617573656420666F722019
:1083A0007573657200627573793A2070726F6365D8
:1083B0007373696E6700FFFFFFFF24F4D43050C36E
:1083C0008E20C2A24017828B7011127A910D816C9F
:1083D000D90AA861E108C7586607615143061E4BD8
:1083E0005D05C145A7041A411104093D980371397F
:1083F00031034036DB0265339102D4305402802EC3
:108400001D02632CEE01752AC501B028A0011027BA
:1084100081018F2564012B244B01E0223401AC2122
:108420001F018D200D01801FFC00841EED00971D93
:10843000DF00B81CD200E61BC600201BBC00641A7B
:10844000B200B219A8000A19A0006A189900D11741
:10845000910040178B00B516840031167E00B315CD
:1084600079003A157300C7146F0058146A00EE13B0
:1084700066008813630025135E00C7125B006C1250
:10848000570015125400C111510070114F002111F5
:108490004B00D61049008D104700461044000210D2
:1084A0004200C00F4000800F3E00420F3C00060F0C
:1084B0003B00CB0E3800930E37005C0E3500270EC4
:1084C0003400F30D3200C10D3100900D3000600D0D
:1084D0002E00320D2D00050D2C00D90C2B00AE0CFA
:1084E0002900850C29005C0C2700350C27000E0C98
:1084F0002600E80B2400C40B2400A00B23007D0BF6
:1085000023005A0B2100390B2100180B2000F80A18
:108510001F00D90A1E00BB0A1E009D0A1D00800A0A
:108520001D00630A1C00470A1B002C0A1B00110ACD
:108530001A00F7091A00DD091900C4091900AB096E
:108540001900920917007B091800630917004C09EC
:10855000160036091600200916000A091500F5084C
:108560001500E0081400CC081400B8081400A40892
:108570001400900813007D0812006B0813005808BF
:1085800012004608120034081100230811001208D6
:10859000110001081100F0071000E0071000D007DB
:1085A0001000C0071000B0070F00A10710009107CE
:1085B0000E0083070F0074070F0065070E005707B2
:1085C0000E0049070E003B070D002E070E00200786
:1085D0000D0013070D0006070D00F9060C00ED064F
:1085E0000D00E0060C00D4060C00C8060C00BC060A
:1085F0000C00B0060C00A4060B0099060C008D06BA
:108600000B0082060B0077060B006C060B00610660
:108610000A0057060B004C060A0042060A003806FC
:108620000A002E060A0024060A001A060A0010068E
:10863000090007060A00FD050900F4050900EB051D
:108640000900E2050900D9050900D0050900C705A0
:108650000900BE050900B5050800AD050800A5051F
:1086600009009C050800940508008C050800840595
:1086700008007C050800740508006C050700650506
:1086800008005D050700560508004E050700470570
:1086900007004005080038050700310507002A05D6
:1086A0000700230507001C050600160507000F0537
:1086B00007000805060002050700FB040600F50494
:1086C0000700EE040600E8040600E2040700DB04ED
:1086D0000600D5040600CF040600C9040600C30442
:1086E0000600BD040600B7040600B1040500AC0492
:1086F0000600A6040600A00405009B0406009504DD
:108700000500900406008A04050085040500800425
:1087100006007A04050075040500700405006B046A
:10872000050066040500610405005C0405005704AB
:108730000500520405004D040500480405004304EB
:1087400005003E0404003A04050035040500300429
:1087500004002C04050027040400230405001E0463
:1087600004001A04040016040500110404000D049A
:108770000400090405000404040000040400FC03D0
:108780000400F8030400F4030400F0030400EC0305
:108790000400E8030400E4030400E0030400DC0335
:1087A0000400D8030400D4030400D0030400CC0365
:1087B0000400C8030300C503030024F404D9201BEC
:1087C000C40C5C0E9804C4095F0265077101F405CE
:1087D000F900FB04B30048048700C1036900580393
:1087E000550003034500BE023A00840231005302E3
:1087F0002A002902250004022000E4011C00C8010F
:108800001900AF01170098011400840113007101D1
:1088100010006101100051010E0043010D003601EE
:108820000B002B010B0020010B00150109000C01AE
:10883000090003010800FB000800F3000800EB003A
:108840000700E4000600DE000600D8000600D200A3
:108850000600CC000500C7000500C2000500BD00F1
:108860000400B9000400B5000400B1000400AD002C
:108870000400A9000400A5000300A20003009F005B
:1088800004009B0003009800030095000200930081
:108890000300900003008D0002008B00030088009D
:1088A00002008600020084000300810002007F00B5
:1088B00002007D0002007B000200790002007700C8
:1088C00001007600020074000200720001007100D5
:1088D00002006F0002006D0001006C0002006A00DF
:1088E00001006900020067000100660001006500E8
:1088F00001006400020062000100610001006000EC
:1089000001005F0002005D0001005C0001005B00EF
:1089100001005A00010059000100580001005700F1
:1089200001005600010055000100540001005300F1
:1089300000005300010052000100510001005000EE
:1089400001004F0001004E0000004E0001004D00EC
:1089500001004C0001004B0000004B0001004A00E8
:1089600001004900010048000000480001004700E4
:1089700001004600000046000100450000004500DF
:1089800001004400010043000000430001004200D8
:1089900000004200010041000000410001004000D1
:1089A00001003F0000003F0001003E0000003E00CB
:1089B00001003D0000003D0001003C0000003C00C3
:1089C00000003C0001003B0000003B0001003A00B9
:1089D00000003A00010039000000390001003800B1
:1089E00000003800000038000100370000003700A8
:1089F000010036000000360000003600010035009E
:108A00000000350000003500010034000000340093
:108A10000000340001003300000033000000330088
:108A2000010032000000320000003200010031007D
:108A30000000310000003100010030000000300073
:108A40000000300001002F0000002F0000002F0068
:108A500000002F0001002E0000002E0000002E005C
:108A600001002D0000002D0000002D0000002D0051
:108A700001002C0000002C0000002C0000002C0045
