:100000000C94434A0C94744A0C94744A0C94744AA9
:100010000C94744A0C94744A0C94744A0C94744A68
:100020000C94744A0C94744A0C94744A0C94744A58
:100030000C94744A0C94744A0C9402DC0C94ACF545
:100040000C94744A0D9437170C94744A0C94744AA7
:100050000C94744A0C94744A0C94744A0C94EF9760
:100060000C94744A0C9470EE0C94744A0C94744A78
:100070000C94744A0C94744A0C94744A0C94744A08
:100080000C94744A0C94744A0C94744A0C94744AF8
:100090000C942CEE0C94744A0C94744A0C94744A8C
:1000A0000C94744A0C94744A0C94744A0C94744AD8
:1000B0000C94744A0C94744A0C94744A0C94744AC8
:1000C0000C94744A0C94744A0C94744A0C9494F1F1
:1000D0000C94744A0C94744A0C94744A0C94744AA8
:1000E0000C94744A0B981598239830984298499824
:1000F000859867987D981199139911991399119979
:10010000139915991799B4FDC6FDD8FDE5FDEFFDCE
:100110001EFE9EFD3FFE51FE4DFE9EFD53FE5FFE08
:1001200065FE78FE5C025C0278025C027802900157
:10013000D401A601740252019401CC01D801F2014C
:10014000CE019402720132028C012A022C027E013D
:100150000C02C001EC015802560110027A01C601DE
:10016000B0015001EA01CA01DC0112023C029A010D
:100170007A0286014202B20108024A0260023C028F
:100180006A0292017401AA01EE0176027002540221
:100190009C01960136027C01E6014E015A01B40130
:1001A0004C029C016C026E0166028A011E02500222
:1001B000380268018A02D00158017001A4012E02A0
:1001C0002002084AD73B3BCE016E84BCBFFDC12F45
:1001D0003D6C74319ABD56833DDA3D00C77F11BE38
:1001E000D9E4BB4C3E916BAAAABE000000803F053B
:1001F000A84CCDB2D44EB93836A9020C50B991866C
:1002000088083CA6AAAA2ABE000000803F076342D5
:1002100036B79BD8A71A39685618AEBAAB558C1D9D
:100220003CB7CC5763BD6DEDFD753EF6177231BF1F
:10023000000000803F08000000BE922449123EAB3F
:10024000AAAA2ABECDCCCC4C3E00000080BEABAAF0
:10025000AAAA3E00000000BF000000803F0000008E
:100260000000084178D3BB4387D1133D190E3CC32E
:10027000BD4282AD2B3E68EC8276BED98FE1A93EAD
:100280004C80EFFFBE01C4FF7F3F00000000000074
:100290000D945D3E0D94E20C0D94F20C0D944A45C4
:1002A0000D9462430D943E310D94000D0D94BB3BB3
:1002B0000D94375F0D9454450D945B020D94303EC0
:1002C0000D9437580D943E0D0D9441440D947403D4
:1002D0000D94CC5E0D9419560D9456390D948145AC
:1002E0000D94275F0D94B0310D9497430D9488556C
:1002F0000D94440B0D94953C0D9436450D94073A9E
:100300000D94F90C0D94340D0D94BF130D9473439B
:100310000D94523E0D94915B0D94DB310D941611AA
:100320000D949F0C0D9493430D9454310D942645D8
:100330000D944D580D9469430D9495450D94E47BAF
:100340000D9472070D94783D0D948F5E0D942831B5
:100350000D94D1100D94FE440D94AC430D945A426B
:100360000D94EA3C0D947B430D9463450D94354404
:100370000D944A3D0D943D3E0D94230D0D949D43E7
:100380000D94A3390D94D5110D941E140D94B23C07
:100390000D94A3810D9454430D9474310D949031B8
:1003A0000D94B65E0D941C0D0D94A20C0D942D446D
:1003B0000D947A310D9455570D9458430D943A0984
:1003C0000D9447020D94150D0D9429440D9440454C
:1003D0000D94CC570D9465430D94443D0D94034505
:1003E0000D94A3430D9480310D940E0D0D94E600F1
:1003F0000D94EB0C0D94A7430D94400B0D945914E0
:100400000D94274D0D9451020D94AF2C0D94ED5683
:100410000D9481430D9441140D94D4390D943A8177
:100420000D94403C0D945E430D94BD570D942A12DB
:100430000D949B800D9431120D943D440D94125FE8
:100440000D942F5E0D9401080D94FD130D94D82D7D
:100450000D946A340D94543A0D945F3A0D94615E94
:100460000D94D8540D94CB310D944C0F0D942E4512
:100470000D94D75E0D946C490D949C430D942544C6
:100480000D94CD100D9477430D942A0D0D94BD2C31
:100490000D94C33D0D9485430D946D450D94DE8000
:1004A0000D94E25E0D94C53F0D941C450D94A30A76
:1004B0000D94913A0D94AB110D94990C0D9439440F
:1004C0000D9489430D94C9100D9451340D948B45AE
:1004D0000D9489940D948F430D9477450D940613D4
:1004E0000D9412450D9491550D9438310D94084595
:1004F0000D949C0C0D946D430D9411820D948954B0
:100500000D9430820D9405000D9438120D94070D52
:100510000D9431440D94C15E0D94900A0D9404988D
:100520000D9449800D943D020D94A0310D942E0937
:100530000D94B13F5F5345435F4C414E470000006F
:1005400000000000000000000000000000000000AB
:10055000000000000000000000000000000000009B
:10056000000000000000000000000000000000008B
:10057000000000000000000000000000000000007B
:10058000000000000000000000000000000000006B
:10059000000000000000000000000000000000005B
:1005A000000000000000000000000000000000004B
:1005B000000000000000000000000000000000003B
:1005C000000000000000000000000000000000002B
:1005D000000000000000000000000000000000001B
:1005E000000000000000000000000000000000000B
:1005F00000000000000000000000000000000000FB
:10060000A55AB44B952C7A012F1172667A011465A4
:100610000403500356035C036F03AF03E703F003C7
:10062000FB030C042D0435044A0474047504760499
:10063000770489049C04E9043305450549055905F7
:10064000690578058D05DE05E205F2051A062A061C
:10065000370642064B06C506D3064B0760076107FF
:10066000690777078A079A07B807CA0738084A0848
:100670005C086B08930894089B08A108B4086309F8
:10068000CB09D609E709F7090A0A100A170A420A2C
:10069000890A910AA40AB40ABE0AD00AE20AF40A34
:1006A000060B140B220B360B480B5A0B6C0B7E0BF4
:1006B000900BA10BC90BDD0BF10B020C150C3B0CC5
:1006C0004B0C5C0CBC0CF60CFB0CFC0C100D1B0D4D
:1006D0002F0D440D760D880D900D0A0E7A0E7B0EAF
:1006E0008C0E9F0EB40EC80EDC0EED0E010F140F13
:1006F000270F3A0F4D0F600F610FAC0FD80FE50FAA
:10070000F90F0D1037104C10BF10D010E510EC1081
:10071000F81008111A112B114011531160117011AA
:1007200086119511CF11D011F311151224122F1229
:10073000441256126A126B127D12AC12BD12CF1205
:10074000E112F31201130813171322132D13381398
:100750004A135A135B135F136C139513A3130A14F4
:100760003E1443148E14CD14D814E914F41408154F
:1007700018152C15BF15F51532163C16B216E616CF
:100780001A174B176D17A617D71703184C185F18B1
:100790008D18A218AF18DC18F1182E193E1951192E
:1007A00066197B1987199A19AE19C219F119661AB7
:1007B000711A721A731A741A751A761A771A781AC5
:1007C000791A7A1A7B1A7C1A7D1A7E1A7F1A801A75
:1007D000811A821ADD1A431B691B6A1B771B891B4E
:1007E000D71BD81BEB1BF91B0E1C211C2D1C3F1CFF
:1007F000511CBD1CCF1CE11CE81C111D201D2D1D12
:100800003D1D471D591D6E1DB91D111E1F1E281EA1
:10081000381E451E901EA21EB41EC11ED31EE41E0D
:10082000F61E031F151F581F6A1F7C1F841F8B1F76
:10083000D71FE41FF71FFF1F0020082022202F20B2
:1008400041207E209020A220C920562157215821E6
:10085000D921E821FA2101220B221C223122452232
:10086000542266226722792282228A22A122D02261
:10087000FD228523BD23E42309242A243C24462485
:10088000592485248924D1240B255E256925B0258A
:10089000092660267226C02614276627782779271E
:1008A00084278B279227A027B327BA27CC27DE27B8
:1008B000F027FA27FE271128242837283828392836
:1008C0003A28632875288728A628B828CA28DC284B
:1008D000EE280029122924293629482949294A299C
:1008E0009529182A662AE32AEA2AFE2A132B6E2B58
:1008F000042C0D2C1A2C272C2E2C402C512C5C2C2B
:100900006F2C822C5B252E37735D416A7573742EB4
:10091000206475205A0A56616C65757220656E7286
:1009200065672C20636F6E74696E0A6F752064654D
:10093000706172742061207A65726F3F0A2563438B
:100940006F6E74696E7565722563526573657400A8
:100950002064652034002064652039004F6666738A
:10096000657420706F696E74205B303B305D004CA5
:100970006120646574656374696F6E2064650A63E1
:1009800072617368207065757420657472650A61A0
:100990006374697665207365756C656D656E74202A
:1009A000656E0A6D6F6465204E6F726D616C0041FB
:1009B0005454454E54494F4E3A0A44657465637425
:1009C000696F6E2064652063726173680A64657381
:1009D0006163746976656520656E0A6D6F64652074
:1009E000666575747265003E416E6E756C65720069
:1009F000416A7573746572205A3A00546F75742099
:100A000065737420636F727265637400546F7574DC
:100A10002065737420707265742E20426F6E6E654F
:100A200020696D7072657373696F6E2100416D622C
:100A300069616E74006574207072657373657A20E5
:100A40006C6520626F75746F6E005A7E636172729E
:100A5000696167657320676175636865202B206431
:100A6000726F69746520746F757420656E2068619B
:100A700075743F000000004D6973652061203020CF
:100A80006465732061786573004175746F63686194
:100A90007267652064752066696C2E004368617218
:100AA00067656D656E74206175746F20647520666E
:100AB000696C616D656E7420756E697175656D65C3
:100AC0006E74207369206C65206361707465757243
:100AD0002064652066696C616D656E742065737451
:100AE000206163746976652E004368617267656D85
:100AF000656E74206175746F2E2064752066696C54
:100B00002E206163746976652C206170707579653B
:100B10007A20737572206C6520626F75746F6E2019
:100B2000657420696E736572657A206C65206669EC
:100B30006C2E004C6F6E6775657572206465206C55
:100B40002761786500417865004C6974202F204347
:100B5000686175666661676500506C617465617592
:100B6000207465726D696E650043686175666665BF
:100B7000206475206C697400436F72722E206E6958
:100B80007665617520706C61746561750045636898
:100B9000656320626564206C6576656C696E672E9E
:100BA00020436170742E206E6F6E206465636C65E7
:100BB0006E6368652E204465627269732073757276
:100BC00020627573653F20456E20617474656E7494
:100BD00065206427756E2072657365742E004C69FC
:100BE000740053746174757420636F7572726F69E9
:100BF0006500436F75707572652064657465637414
:100C000065652E2052657072656E64726520696D2F
:100C10007072657373696F6E3F0043616C69622E19
:100C2000206D697365206120300043616C696272D8
:100C300065722058595A0043616C6962726572206E
:100C40005A0043616C69627265720043616C69624B
:100C5000726174696F6E2064652058595A2E205451
:100C60006F75726E657A206C6520626F75746F6E39
:100C700020706F7572206661697265206D6F6E7489
:100C80006572206C2765787472756465757220646E
:100C9000616E73206C27617865205A206A757371C4
:100CA0007527617578206275746565732E20436CB5
:100CB000697175657A20756E6520666F6973206647
:100CC0006169742E0043616C6962726174696F6E50
:100CD000205A0043616C6962726174696F6E2064AE
:100CE00065205A2E20546F75726E657A206C6520CF
:100CF000626F75746F6E20706F75722066616972B5
:100D000065206D6F6E746572206C276578747275DE
:100D1000646575722064616E73206C27617865204C
:100D20005A206A75737175276175782062757465CC
:100D300065732E20436C697175657A20756E652028
:100D4000666F697320666169742E0043616C696225
:100D5000726174696F6E207465726D696E6565008D
:100D600000416E6E756C657200436172746520722D
:100D700065746972656500436F756C65757220698D
:100D80006E636F72726563746500526566726F6937
:100D900064697373656D656E7400436F7069657225
:100DA000206C61206C616E6775652073656C65638E
:100DB00074696F6E6E653F004465746563742E637D
:100DC00072617368205B6F6E5D0043686F69736961
:100DD0007373657A20756E2066696C616D656E74DB
:100DE00020706F7572206C612043616C6962726162
:100DF00074696F6E206465206C61205072656D6946
:100E000065726520436F756368652065742073653E
:100E10006C656374696F6E6E657A2D6C65206465B0
:100E200070756973206C65206D656E752061206C2E
:100E300027656372616E2E004465746563742E636A
:100E4000726173685B4E2F415D0044657465637425
:100E50002E63726173685B6F66665D0043726173D7
:100E60006820646574656374652E004372617368FD
:100E700020646574656374652E20506F7572737598
:100E800069767265206C27696D7072657373696F1E
:100E90006E3F000041637475656C00446174653A8F
:100EA0000044657361637469766572206D6F746563
:100EB000757273004C612064697374616E636520A0
:100EC000656E747265206C6120706F696E74652048
:100ED0006465206C612062757365206574206C61A7
:100EE000207375726661636520647520706C61742F
:100EF000656175206E27612070617320656E636F78
:100F0000726520657465207265676C65652E205377
:100F1000756976657A206C65206D616E75656C2CDF
:100F2000206368617069747265205072656D6965CF
:100F30007273207061732C2073656374696F6E2007
:100F400043616C6962726174696F6E206465206CC4
:100F500061207072656D6965726520636F75636885
:100F6000652E00566F756C657A2D766F75732072DD
:100F7000657065746572206C61206465726E696568
:100F8000726520657461706520706F75722072657E
:100F9000616A7573746572206C6120646973746131
:100FA0006E636520656E747265206C612062757376
:100FB00065206574206C6520706C617465617520B6
:100FC000636861756666616E743F00436F72726537
:100FD00063742D453A0052656D6F6E746572206CB6
:100FE000652066696C2E004C652066696C2E207247
:100FF000656D6F6E7465004275746565206E6F6E09
:101000002061747465696E7465004275746565006D
:1010100042757465657300457272657572202D2086
:101020006C61206D656D6F697265207374617469A0
:1010300071756520612065746520656372617365F3
:1010400065004552524555523A204C652063617007
:10105000746575722064652066696C616D656E7477
:10106000206E65207265706F6E64207061732C2035
:10107000766572696669657A206C65206272616E58
:101080006368656D656E742E004552524555523A3F
:101090000056656E74696C6F20657874727564654E
:1010A00075723A00496E666F732065787472756464
:1010B0006575720045787472756465757200537455
:1010C00061742E2064276563686563204D4D55006B
:1010D0004175746F6368617267657572205B6F6ECE
:1010E0005D004175746F63686172676575725B4E10
:1010F0002F415D004175746F636861726765757239
:101100005B6F66665D00537461742E2064276563AF
:1011100068656300566974657373652076656E74DF
:101120002E00546573742064752076656E74696C46
:1011300061746575720056657269662076656E74B5
:101140002E20205B6F6E5D005665726966207665A5
:101150006E742E205B6F66665D004361707465750A
:10116000722046696C2E205B6F6E5D004361707467
:101170006575722046696C2E5B4E2F415D004361A0
:1011800070746575722046696C2E5B6F66665D00D3
:1011900046696E732064652066696C616D656E7466
:1011A0000046696C616D656E742065787472756453
:1011B00065206574206176656320626F6E6E6520C0
:1011C000636F756C6575723F0046696C616D656E25
:1011D00074206E6F6E206368617267650043617092
:1011E000746575722064652066696C616D656E74E6
:1011F0000046696C616D656E74207574696C697305
:10120000650054656D7073206427696D7072657335
:1012100073696F6E004669636869657220696E6301
:101220006F6D706C65742E20436F6E74696E75659A
:1012300072207164206D656D653F004D6F75766538
:101240006D656E742066696E616C0043616C2E2062
:101250003165726520636F7563686500442761625C
:101260006F72642C206A652076616973206C616EF0
:10127000636572206C65204175746F2D746573749D
:1012800020706F7572207665726966696572206C70
:1012900065732070726F626C656D65732064276181
:1012A0007373656D626C616765206C657320706C2B
:1012B000757320636F6D6D756E732E00436F727260
:1012C0006967657A206C652070726F626C656D6508
:1012D000206574206170707579657A20737572204D
:1012E0006C6520626F75746F6E20737572206C610F
:1012F000204D4D552E00466C7578000056656E7475
:10130000696C6F20696D7072206176616E743F0048
:101310004176616E74205B756D5D0056656E746913
:101320006C6F73206176742F676175636865004325
:1013300068617566666167652F546865726D69736B
:10134000746F7200436861756666616765206465E5
:10135000736163746976656520706172206C6520C5
:10136000636F6D7074657572206465207365637555
:10137000726974652E0043686175666665207465E0
:10138000726D696E65652E004368617566666500FD
:10139000426F6E6A6F75722C206A6520737569736F
:1013A00020766F74726520696D7072696D616E74FC
:1013B00065204F726967696E616C20507275736148
:1013C0002069332E20566F756C657A2D766F757394
:1013D00020717565206A6520766F75732067756961
:1013E000646520612074726176657273206C65207B
:1013F00070726F636573737573206427696E73749D
:10140000616C6C6174696F6E3F00426F6E6A6F75DC
:10141000722C206A65207375697320766F7472650B
:1014200020696D7072696D616E7465205A617269B0
:10143000626F2E20566F756C657A2D766F757320EE
:10144000717565206A6520766F75732067756964AC
:101450006520612074726176657273206C652070FE
:10146000726F636573737573206427696E7374613B
:101470006C6C6174696F6E203F00004368616E6739
:1014800065722066696C616D656E74004368616E9B
:1014900067656D656E7420726575737369210043AD
:1014A00068616E676520636F7272656374656D65F0
:1014B0006E743F00566572696669636174696F6E28
:1014C000206475206C697400566572696669636191
:1014D00074696F6E20627574656573005665726914
:1014E000662E20647520686F74656E6400566572A0
:1014F00069662E206465732063617074657572730C
:1015000000566572696669636174696F6E206178FF
:1015100065205800566572696669636174696F6E0B
:101520002061786520590056657269666963617447
:10153000696F6E20617865205A0043686F6973692E
:1015400072206578747275646575723A0043686FCD
:1015500069782064752066696C616D656E743A0007
:10156000004A652076616973206D61696E74656EED
:10157000616E74206C616E636572206C61206361C2
:101580006C6962726174696F6E2058595A2E2043DB
:10159000656C61207072656E647261203132206DFD
:1015A000696E20656E7669726F6E2E004A652076D0
:1015B000616973206D61696E74656E616E74206C13
:1015C000616E636572206C612063616C6962726137
:1015D00074696F6E205A2E00456372616E20642715
:1015E000696E666F00496E736572657A206C65205E
:1015F00066696C616D656E740046696C2E2065735A
:10160000742D696C206368617267653F00506C617E
:10161000717565206427696D7072657373696F6E8B
:1016200020737572206C65206C6974206368617525
:101630006666616E743F0045636865637320646528
:10164000726E6965726520696D702E00536920762F
:101650006F7573206176657A206427617574726591
:101660007320666575696C6C6573206427616369B6
:1016700065722C202063616C696272657A206C65EA
:10168000757273207072652D7265676C6167657322
:101690002064616E73205265676C61676573202DED
:1016A00020436F6E666967204857202D2046657578
:1016B000696C6C657320642761636965722E0044F0
:1016C00065726E6965726520696D707265732E0052
:1016D00056656E74696C6F207465746520676175FA
:1016E0006368653F004761756368650047617563BE
:1016F0006865205B756D5D00436F72726563746928
:101700006F6E206C696E2E00416A7573746572206D
:101710005A20656E206469722E00436861726765A5
:10172000722066696C616D656E74004368617267F2
:101730002E206465206C6120636F756C6575720086
:101740004368617267656D656E74206475206669B3
:101750006C2E00506F756C6965206C616368650064
:1017600043686172676572206C6120627573650001
:101770004D3131372043616C2E2031657265206315
:101780006F75636865004D656E75207072696E6374
:101790006970616C004D6573757265206465206CBD
:1017A0006120686175746575722064652072656674
:1017B0006572656E636520647520706F696E742054
:1017C00064652063616C6962726174696F6E0000A8
:1017D0004D4D55204F4B2E20526570726973652018
:1017E0006465206C6120706F736974696F6E202E60
:1017F0002E2E004D4D55204F4B2E205265636861B3
:10180000756666616765206465206C61206275732A
:10181000652E2E2E004465766961742E6D65737594
:1018200072656500456368656373204D4D550045DD
:1018300063686563206368617267656D656E7420B7
:101840004D4D550045636865637320636861726739
:101850002E204D4D55004D4D55204F4B2E2052659D
:101860007072697365202E2E2E00004D6F64652006
:10187000202020205B6665757472655D004C6520D4
:101880004D4D55206E6563657373697465206C27D3
:10189000617474656E74696F6E206465206C277561
:1018A00074696C697361746575722E00456368654F
:1018B000637320616C696D2E204D4D55004D6F6432
:1018C0006520202020205B6675727469665D004D7E
:1018D0006F6465205B70756973732E6175746F5DDD
:1018E000004D6F64655B6861757465207075697320
:1018F000735D004D4D553220636F6E6E6563746588
:10190000004D6F74657572004465706C616365723B
:10191000206C27617865004465706C616365722096
:1019200058004465706C61636572205900446570AD
:101930006C61636572205A00506173206465206D8C
:101940006F7576656D656E742E00506173206465E9
:1019500020636172746520534400004E6F6E004E28
:101960006F6E20636F6E6E65637465004E6F757683
:10197000656C6C652076657273696F6E2064652096
:101980006669726D7761726520646973706F6E69E4
:10199000626C653A004E6520746F75726E652070DA
:1019A0006173004D61696E74656E616E74206A6565
:1019B00020766169732063616C6962726572206C64
:1019C000612064697374616E636520656E7472650D
:1019D000206C6120706F696E7465206465206C6195
:1019E0002062757365206574206C61207375726662
:1019F00061636520647520706C6174656175206336
:101A00006861756666616E742E004D61696E7465FD
:101A10006E616E74206A65207661697320707265EC
:101A20006368617566666572206C612062757365B6
:101A300020706F757220647520504C412E004275E5
:101A4000736500416E6369656E73207265676C61D2
:101A50006765732074726F757665732E204C6520F0
:101A60005049442C206C6573204573746570732055
:101A70006574632E207061722064656661757420E0
:101A80007365726F6E74207265676C657300526562
:101A9000746972657A206D61696E74656E616E74C9
:101AA000206C27696D7072657373696F6E20646551
:101AB0002074657374206465206C6120706C6171A2
:101AC000756520656E2061636965722E0056656ECE
:101AD000742E2062757365005061757365206465AE
:101AE000206C27696D70722E0043616C69622E2034
:101AF0005049440043616C69622E2050494420746F
:101B000065726D696E65650043616C6962726174CE
:101B1000696F6E20504944004368617566666520B0
:101B20006465206C612050494E444100506C6163F3
:101B3000657A20756E6520666575696C6C652064D4
:101B4000652070617069657220736F7573206C61B8
:101B500020627573652070656E64616E74206C61BF
:101B60002063616C6962726174696F6E2064657371
:101B70002034207072656D6965727320706F696EB4
:101B800074732E205369206C612062757365206127
:101B90006363726F636865206C652070617069654E
:101BA000722C2065746569676E657A207669746544
:101BB000206C27696D7072696D616E74652E004EC0
:101BC0006574746F79657A206C6120706C617175D1
:101BD0006520656E2061636965722065742061709F
:101BE000707579657A20737572206C6520626F75E7
:101BF000746F6E2E004E6574746F79657A206C6117
:101C0000206275736520706F7572206C612063614E
:101C10006C6962726174696F6E2E20436C697175B4
:101C2000657A20756E6520666F69732066616974D8
:101C30002E00566572696669657A3A004D65726371
:101C40006920646520636F6E73756C746572206EB5
:101C50006F747265206D616E75656C2065742064AB
:101C60006520636F727269676572206C652070729F
:101C70006F626C656D652E20506F75727375697635
:101C8000657A20616C6F7273206C2761737369735E
:101C900074616E7420656E20726564656D61727228
:101CA000616E74206C27696D7072696D616E746508
:101CB0002E004F757672657A206C2769646C6572A8
:101CC000206574207265746972657A206C6520667F
:101CD000696C616D656E74206D616E75656C6C65A7
:101CE0006D656E742E00506C6163657A206C6120A6
:101CF000706C6171756520656E2061636965722025
:101D0000737572206C6520706C61746561752063F9
:101D10006861756666616E742E00417070757965D4
:101D20007A20737572206C6520626F75746F6E20F7
:101D3000706F757220646563686172676572206C8C
:101D4000652066696C616D656E74005265746972B8
:101D5000657A20696D6D6564696174656D656E7421
:101D6000206C652066696C616D656E7400566575E2
:101D7000696C6C657A2072657469726572206C6535
:101D80002066696C616D656E742070756973206181
:101D900070707579657A20737572206C6520626F3A
:101DA00075746F6E2E005265746972657A206C616D
:101DB00020706C6171756520656E20616369657264
:101DC00020647520706C617465617520636861754D
:101DD0006666616E742E00566575696C6C657A2056
:101DE000642761626F7264206C616E636572206C3F
:101DF000612063616C6962726174696F6E20585909
:101E00005A2E00566575696C6C657A206D65747420
:101E100072652061206A6F7572206C652066697238
:101E20006D7761726520646520766F747265204DF0
:101E30004D55322E20456E20617474656E74652098
:101E40006427756E2072657365742E004D6572632C
:101E5000692064652070617469656E7465720052F2
:101E600065746972657A20642761626F7264206CA0
:101E700065732070726F74656374696F6E7320642C
:101E800065207472616E73706F72742E005072658B
:101E9000636861756666657A206C6120627573653A
:101EA0002100507265636861756666616765005000
:101EB0007265636861756666616765206465206C3C
:101EC0006120627573652E204D65726369206465BB
:101ED0002070617469656E7465722E004D6574744E
:101EE000657A2061206A6F7572206C652046572ED6
:101EF000004170707579657A20737572206C652069
:101F0000626F75746F6E20706F757220707265638A
:101F100068617566666572206C6120627573652004
:101F2000657420636F6E74696E7565722E00436F01
:101F300075702E646520636F7572616E7400496DF3
:101F40007072657373696F6E20616E6E756C656516
:101F5000004368617566666520706F7572206368FE
:101F600061726765720043686175662E706F757285
:101F7000206465636861726765720056656E742ED1
:101F800020696D70723A00496D70722E2064657020
:101F9000756973206C61205344004170702E20736A
:101FA00075722073757220626F75746F6E00496D63
:101FB0007072657373696F6E20656E2070617573E2
:101FC00065004170707579657A20737572206C6553
:101FD00020626F75746F6E20706F7572207265630A
:101FE00068617566666572206C6120627573652E26
:101FF000004C27696D7072696D616E7465206E2783
:10200000612070617320656E636F72652065746511
:102010002063616C69627265652E2053756976650F
:102020007A206C65206D616E75656C2C206368612B
:102030007069747265205072656D69657273207085
:1020400061732C2073656374696F6E2050726F63C7
:1020500065737375732064652063616C6962726176
:1020600074696F6E2E0056656E742E20696D7072E5
:102070000000000000000000000000000000000060
:102080000000566575696C6C657A20696E736572BF
:102090006572206C652066696C616D656E74206484
:1020A000616E73206C276578747275646575722C27
:1020B0002070756973206170707579657A20737509
:1020C00072206C6520626F75746F6E20706F757210
:1020D000206C6520636861726765722E00566575B5
:1020E000696C6C657A20696E7365726572206C65C7
:1020F0002066696C616D656E742064616E73206C1E
:1021000065207072656D6965722074756265206402
:1021100075204D4D552C2070756973206170707558
:1021200079657A20737572206C6520626F75746FA3
:102130006E20706F7572206C6520636861726765D0
:10214000722E00566575696C6C657A206427616231
:102150006F7264206368617267657220756E2066B5
:10216000696C616D656E742E0000417272696572F2
:1021700065205B756D5D0052656375702E20696D1D
:102180007072657373696F6E005265746972657AF7
:10219000206C27616E6369656E2066696C616D6590
:1021A0006E742070756973206170707579657A201E
:1021B000737572206C6520626F75746F6E20706F1E
:1021C00075722063686172676572206C65206E6F3E
:1021D00075766561752E00005265696E69742E20F2
:1021E00063616C69622E2058595A005265696E69A4
:1021F0007469616C697365720052657072656E64B2
:10220000726520696D7072657373696F6E005265D7
:102210007072697365206465206C27696D70722E19
:102220000044726F697465205B756D5D00506F725C
:10223000742052506920202020205B6F6E5D00507A
:102240006F727420525069202020205B6F66665D9B
:10225000004C616E63656D656E74206465206C274B
:10226000417373697374616E7420737570707269F1
:102270006D657261206C657320726573756C746135
:1022800074732061637475656C7320646520636189
:102290006C6962726174696F6E20657420636F6D22
:1022A0006D656E6365726120647520646562757426
:1022B0002E20436F6E74696E7565723F00436172C4
:1022C0007465205344205B6E6F726D616C5D0043DA
:1022D000617274652053445B666C73684169725D1A
:1022E0000044726F69746500526563686572636863
:1022F0006520647520706F696E7420646520636169
:102300006C6962726174696F6E206475206C6974A7
:102310000043686F69736972206C616E6775650050
:102320004175746F2D74657374204F4B0044656262
:102330007574206175746F2D7465737400417574C4
:102340006F2D7465737400457272657572206175C6
:10235000746F2D7465737421004563686563206430
:1023600065206C276175746F2D74657374004C65FE
:102370002053656C66746573742073657261206C9C
:10238000616E636520706F75722063616C69627243
:102390006572206C612072656D6973652061207AB9
:1023A00065726F20707265636973652073616E7307
:1023B00020636170746575720053656C6563746940
:1023C0006F6E6E657A206C612074656D70657261E8
:1023D00074757265206465207072656368617566E6
:1023E00066616765206465206C6120627573652095
:1023F00071756920636F72726573706F6E642061AE
:1024000020766F747265206D617465726961752ED6
:10241000005265676C65722074656D702E3A0052CB
:1024200065676C61676573004166666963686572BC
:102430002062757465657300457461742063617012
:1024400074657572004365727461696E73206669A4
:10245000636869657273206E65207365726F6E7450
:10246000207061732074726965732E204D6178202D
:1024700031303020666963686965727320747269EF
:1024800065732070617220646F73736965722E00CA
:10249000547269202020202020205B617563756EB6
:1024A0005D00547269202020202020205B68657523
:1024B00072655D004465766961742E7365762E3AA7
:1024C00000547269202020205B616C706861626535
:1024D000745D00547269206465732066696368697D
:1024E00065727300536F6E20202020202020205B17
:1024F000666F72745D004465766961742E6C656701
:102500002E3A00536F6E20202020202020205B6D6B
:102510007565745D0050726F626C656D65207265E3
:102520006E636F6E7472652C20636C697175657A69
:1025300020737572206C6520626F75746F6E2070E9
:102540006F7572206E6976656C6C6572206C2761A0
:102550007865205A2E2E2E00536F6E202020205B8F
:10256000756E6520666F69735D00536F6E20202065
:102570002020205B6665757472655D005669746520
:1025800073736500546F75726E6500556E652074C7
:10259000656D706572617475726520616D626961E7
:1025A0006E746520737461626C65206465203231DD
:1025B0002D32364320657420756E20737570706FF0
:1025C000727420737461626C6520736F6E74207214
:1025D00065717569732E00537461746973746971E0
:1025E000756573004172726574657220696D7072F1
:1025F000657373696F6E004152524554452E000059
:10260000456368616E67650053656C656374696FE7
:102610006E6E657A206C652066696C616D656E749E
:102620003A0043616C69622E2054656D702E004340
:10263000616C69622E2054656D702E205B6F6E5D3B
:102640000053656C656374696F6E6E657A206C61AA
:102650002074656D7065726174757265207175693D
:1026600020636F72726573706F6E64206120766F85
:10267000747265206D617465726961752E004361C5
:102680006C69622E2054656D702E5B6F66665D000E
:1026900043616C6962726174696F6E2074656D70FC
:1026A0002E004563686563206465206C612063616A
:1026B0006C6962726174696F6E20656E2074656DFD
:1026C0007065726174757265004C612063616C693C
:1026D00062726174696F6E20656E2074656D7065DD
:1026E00072617475726520657374207465726D69AA
:1026F0006E656520657420616374697665652E205A
:102700004C612063616C6962726174696F6E2065EF
:102710006E2074656D706572617475726520706588
:10272000757420657472652064657361637469767D
:1027300065652064616E73206C65206D656E752023
:102740005265676C616765732D3E2043616C2E2076
:1027500054656D702E000000496C20666175742010
:10276000746F756A6F7572732065666665637475DC
:102770006572206C612043616C6962726174696F7B
:102780006E205A2E20566575696C6C657A207375BB
:1027900069767265206C65206D616E75656C2C20A4
:1027A0006368617069747265205072656D696572E5
:1027B00073207061732C2073656374696F6E205091
:1027C000726F6365737375732064652063616C69F0
:1027D00062726174696F6E2E0046696C616D656E20
:1027E0007420746F74616C0054656D707320746F25
:1027F00074616C20696D70722E005265676C657231
:102800000044656368617267657200546F74616C3F
:10281000206465732065636865637300706F75720B
:102820002063686172676572206C652066696C2E32
:1028300000706F75722064656368617267657220ED
:1028400066696C2E00446563686172676572206614
:10285000696C2E0044656368617267656D656E74AE
:102860002066696C2E00005574696C697365207070
:10287000647420696D70722E0054656E73696F6E9A
:102880007300696E636F6E6E7500417474656E746B
:1028900065207574696C697361746575722E2E2E6E
:1028A00000417474656E746520647520726566728B
:1028B0006F6964697373656D656E742064657320F8
:1028C0006275736520657420706C61746561750054
:1028D000417474656E746520647520726566726FEC
:1028E0006964697373656D656E74206465206C61DD
:1028F00020736F6E64652050494E444100557469E1
:102900006C6973657A2052656D6F6E746572206CA8
:10291000652066696C2E20706F757220726574690F
:10292000726572206C652066696C616D656E7420DD
:1029300031207327696C206465706173736520644E
:1029400075207475626520617272696572652064B4
:1029500075204D4D552E205574696C6973657A202C
:10296000656A6563746572207327696C206573748A
:102970002063616368652064616E73206C652074F8
:102980007562652E00417474656E74696F6E3A20CD
:102990005479706573206427696D7072696D616E1A
:1029A0007465206574206465206361727465206DB0
:1029B000657265206D6F6469666965730041747442
:1029C000656E74696F6E3A20547970652064652075
:1029D0006361727465206D657265206D6F646966F0
:1029E00069652E00417474656E74696F6E3A205487
:1029F000797065206427696D7072696D616E7465A8
:102A0000206D6F646966696500446563686172671B
:102A1000656D656E742064752066696C616D656EA8
:102A200074207265757373693F00457272657572C3
:102A3000206465206361626C61676500417373693E
:102A40007374616E740044657461696C73206361B2
:102A50006C69622E2058595A00456368656320638B
:102A6000616C6962726174696F6E2058595A2E20C8
:102A7000436F6E73756C74657A206C65206D616E42
:102A800075656C2E004F756900566F757320706FF9
:102A90007576657A20746F756A6F757273207265CA
:102AA0006C616E636572206C274173736973746126
:102AB0006E742064616E732043616C69627261742C
:102AC000696F6E203E20417373697374616E742E5A
:102AD0000043616C6962726174696F6E2058595A63
:102AE000204F4B2E204C27656361727420736572F2
:102AF0006120636F7272696765206175746F6D61C3
:102B000074697175656D656E742E0043616C6962E0
:102B1000726174696F6E2058595A204F4B2E204CA9
:102B20006573206178657320582F5920736F6E7418
:102B3000206C65676572656D656E74206E6F6E20C2
:102B400070657270656E646963756C6169726573D6
:102B50002E20426F6E20626F756C6F742100436F80
:102B600072726563742D583A0043616C69627261D8
:102B700074696F6E2058595A204F4B2E204C657344
:102B8000206178657320582F5920736F6E74207000
:102B9000657270656E646963756C61697265732EC8
:102BA0002046656C696369746174696F6E73210096
:102BB00043616C6962726174696F6E2058595A2062
:102BC000636F6D70726F6D6973652E204C65732035
:102BD000706F696E74732064652063616C696272E2
:102BE0006174696F6E20656E206176616E74206E0F
:102BF0006520736F6E7420706173206174746569F1
:102C0000676E61626C65732E0043616C696272610C
:102C100074696F6E2058595A20636F6D70726F6DB2
:102C20006973652E204C6520706F696E7420646531
:102C30002063616C6962726174696F6E2061766194
:102C40006E742064726F6974206E276573742070CF
:102C50006173206174746569676E61626C652E00D2
:102C60004368617267657220756E207061722075AD
:102C70006E0045636865632063616C6962726174AC
:102C8000696F6E2058595A2E204C6520706F696EFE
:102C9000742064652063616C6962726174696F6E2F
:102CA00020647520706C6174656175206E276120E9
:102CB000706173206574652074726F7576652E007F
:102CC00045636865632063616C6962726174696FF2
:102CD0006E2058595A2E204C657320706F696E749F
:102CE000732064652063616C6962726174696F6EE0
:102CF00020656E206176616E74206E6520736F6E44
:102D00007420706173206174746569676E61626CB0
:102D100065732E0045636865632063616C69627248
:102D20006174696F6E2058595A2E204C6520706F5F
:102D3000696E742064652063616C69627261746994
:102D40006F6E206176616E742064726F6974206E9C
:102D50002765737420706173206174746569676E90
:102D600061626C652E0044697374616E63652059FD
:102D7000206475206D696E0000436F727265637424
:102D80002D593A00205B6F66665D005265746F7561
:102D90007200566572696669636174696F6E73006B
:102DA00046617578206465636C656E6368656D6502
:102DB0006E740046494E44413A004669726D77612F
:102DC0007265205B617563756E655D004669726D45
:102DD000776172655B737472696374655D004669DF
:102DE000726D7761726520205B61766572745D003B
:102DF000436F6E6669672048570049523A00436F37
:102E00006D70656E732E2061696D2E5B4E2F415D76
:102E100000436F6D70656E732E2061696D2E5B6F60
:102E200066665D00436F6D70656E732E2061696D1F
:102E30002E205B6F6E5D000000004669726D776149
:102E40007265204D4B33532064657465637465204F
:102E500073757220696D7072696D616E7465204D55
:102E60004B33004D6F6465204D4D55205B6E6F7286
:102E70006D616C5D004D6F6465204D4D55205B6646
:102E800065757472655D004368616E67656D656E3A
:102E900074206465206D6F646520656E20636F75B6
:102EA00072732E2E2E004D6F64656C652020205BA2
:102EB000617563756E655D004D6F64656C6520209E
:102EC0005B737472696374655D004D6F64656C65F6
:102ED000202020205B61766572745D004469616D1D
:102EE0002E2062757365205B302E32355D0044699B
:102EF000616D2E2062757365205B302E34305D006D
:102F00004469616D2E2062757365205B302E36300A
:102F10005D004275736520202020205B617563751C
:102F20006E655D0042757365202020205B737472AE
:102F3000696374655D004275736520202020202040
:102F40005B61766572745D0000004C6520472D63FF
:102F50006F646520612065746520707265706172B0
:102F60006520706F757220756E652061757472656D
:102F70002076657273696F6E206465206C27696DB9
:102F80007072696D616E74652E20436F6E74696E28
:102F90007565723F004C6520472D636F6465206145
:102FA00020657465207072657061726520706F7540
:102FB0007220756E65206175747265207665727316
:102FC000696F6E206465206C27696D7072696D6130
:102FD0006E74652E20566575696C6C657A20646523
:102FE000636F75706572206C65206D6F64656C65CC
:102FF0002061206E6F75766561752E204C27696D96
:103000007072657373696F6E2061206574652061ED
:103010006E6E756C65652E004C6520472D636F6480
:10302000652061206574652070726570617265202D
:10303000706F757220756E652076657273696F6E3C
:1030400020706C757320726563656E74652064759D
:10305000206669726D776172652E20436F6E7469A8
:103060006E7565723F004C6520472D636F64652067
:103070006120657465207072657061726520706F83
:10308000757220756E652076657273696F6E20703B
:103090006C757320726563656E7465206475206657
:1030A00069726D776172652E20566575696C6C6505
:1030B0007A206D65747472652061206A6F75722064
:1030C0006C65206669726D776172652E204C276988
:1030D0006D7072657373696F6E20616E6E756C656D
:1030E000652E0050494E44413A004368617566665A
:1030F0006520706F757220636F757065720043682C
:103100006175662E20706F75722072656D6F6E74BA
:103110006572004469616D65747265206465206C38
:103120006120627573652064616E73206C65732025
:103130007265676C61676573206E6520636F72727C
:103140006573706F6E642070617320612063656CBD
:1031500075692064616E73206C6520472D436F6430
:10316000652E20436F6E74696E7565723F00446909
:10317000616D65747265206465206C612062757391
:10318000652064616E73206C6573207265676C6185
:10319000676573206E6520636F72726573706F6E02
:1031A000642070617320612063656C7569206461BF
:1031B0006E73206C6520472D436F64652E204D652E
:1031C000726369206465207665726966696572203C
:1031D0006C6520706172616D657472652064616EEA
:1031E00073206C6573207265676C616765732E2050
:1031F000496D7072657373696F6E20616E6E756C68
:1032000065652E0052656E6F6D6D65720053656C5D
:10321000656374696F6E6E657200496E666F2063D8
:1032200061707465757200506C6171756500536FE3
:103230006E2020202020205B6173736973745D0011
:10324000506C617175657320656E2061636965728C
:1032500000436F72726563742D5A3A004D65737541
:1032600072657220782D666F6973205B315D004D49
:1032700065737572657220782D666F6973205B3394
:103280005D004D65737572657220782D666F697388
:10329000205B355D002020205B335D005A2D50728D
:1032A0006F6265204E722E202020205B355D00006D
:1032B000000000000000000000000000000000000E
:1032C00000000000000000000000000000000000FE
:1032D00000000000000000000000000000000000EE
:1032E00000000000000000000000000000000000DE
:10353000000000006501472D636F646520736C69AE
:1035400063656420666F72206120646966666572D7
:10355000656E74206C6576656C2E20436F6E7469A1
:103560006E75653F006601472D636F646520736C5F
:103570006963656420666F722061206469666665B0
:1035800072656E74206C6576656C2E20506C65617A
:1035900073652072652D736C69636520746865209E
:1035A0006D6F64656C20616761696E2E2050726971
:1035B0006E742063616E63656C6C65642E006A01D5
:1035C000472D636F646520736C6963656420666F63
:1035D000722061206E65776572206669726D776111
:1035E00072652E20506C656173652075706461741E
:1035F0006520746865206669726D776172652E203A
:103600005072696E742063616E63656C6C65642EC4
:10361000006901472D636F646520736C696365649D
:1036200020666F722061206E657765722066697210
:103630006D776172652E20436F6E74696E75653F9C
:10364000006801472D636F646520736C696365646E
:1036500020666F72206120646966666572656E74AB
:10366000207072696E74657220747970652E2050B6
:103670006C656173652072652D736C696365207478
:103680006865206D6F64656C20616761696E2E20CE
:103690005072696E742063616E63656C6C65642E34
:1036A000006701472D636F646520736C696365640F
:1036B00020666F72206120646966666572656E744B
:1036C000207072696E74657220747970652E204363
:1036D0006F6E74696E75653F006701472D636F6497
:1036E0006520736C6963656420666F722061206475
:1036F0006966666572656E74207072696E74657253
:1037000020747970652E20436F6E74696E75653F05
:10371000006801472D636F646520736C696365649D
:1037200020666F72206120646966666572656E74DA
:10373000207072696E74657220747970652E2050E5
:103740006C656173652072652D736C6963652074A7
:103750006865206D6F64656C20616761696E2E20FD
:103760005072696E742063616E63656C6C65642E63
:1037700000C4005072657373206B6E6F6220746FAB
:103780002070726568656174206E6F7A7A6C65204E
:10379000616E6420636F6E74696E75652E00B8008B
:1037A000506C656173652070726573732074686511
:1037B000206B6E6F6220746F20756E6C6F61642079
:1037C00066696C616D656E7400E70052656D6F76B9
:1037D00065206F6C642066696C616D656E74206134
:1037E0006E6420707265737320746865206B6E6FF1
:1037F0006220746F207374617274206C6F616469ED
:103800006E67206E65772066696C616D656E742EDB
:10381000000B00616E6420707265737320746865BC
:10382000206B6E6F62007700496E7365727420665C
:10383000696C616D656E74002900436F6C6F722056
:103840006E6F7420636F7272656374005200466914
:103850006C616D656E74206E6F74206C6F61646551
:10386000640069004368616E67656420636F72720B
:103870006563746C793F0083004C6F6164696E67A7
:1038800020636F6C6F720068004368616E6765202B
:10389000737563636573732100B600506C65617363
:1038A00065206F70656E2069646C657220616E645E
:1038B0002072656D6F76652066696C616D656E74EA
:1038C000206D616E75616C6C792E003401576173E7
:1038D0002066696C616D656E7420756E6C6F6164D5
:1038E000207375636365737366756C3F00C3005026
:1038F0006C6561736520757067726164652E00A4E4
:10390000004E6577206669726D7761726520766515
:103910007273696F6E20617661696C61626C653A81
:10392000002F0157616974696E6720666F722050BD
:10393000494E44412070726F626520636F6F6C69FD
:103940006E6700710043686F6F73652065787472ED
:10395000756465723A0043004578747275646572E7
:1039600000720043686F6F73652066696C616D65F6
:103970006E743A009F004E6F206D6F76652E002D9D
:10398000015761697420666F7220757365722E2EFF
:103990002E000A01536F6D652070726F626C656D49
:1039A00020656E636F756E74657265642C205A2D88
:1039B0006C6576656C696E6720656E666F726365AF
:1039C00064202E2E2E000F01537461626C652061FD
:1039D0006D6269656E742074656D70657261747571
:1039E00072652032312D323643206973206E656551
:1039F0006465642061207269676964207374616E14
:103A0000642069732072657175697265642E00BCEB
:103A100000506C656173652072756E2058595A208C
:103A200063616C6962726174696F6E20666972733A
:103A3000742E001F015468657265206973207374C9
:103A4000696C6C2061206E65656420746F206D6107
:103A50006B65205A2063616C6962726174696F6E74
:103A60002E20506C6561736520666F6C6C6F7720DB
:103A7000746865206D616E75616C2C20636861707F
:103A80007465722046697273742073746570732C48
:103A90002073656374696F6E2043616C6962726143
:103AA00074696F6E20666C6F772E00CE005072695D
:103AB0006E74657220686173206E6F742062656534
:103AC0006E2063616C6962726174656420796574EB
:103AD0002E20506C6561736520666F6C6C6F77206B
:103AE000746865206D616E75616C2C20636861700F
:103AF0007465722046697273742073746570732CD8
:103B00002073656374696F6E2043616C69627261D2
:103B100074696F6E20666C6F772E00A9004F6C641D
:103B20002073657474696E677320666F756E642E9A
:103B30002044656661756C74205049442C2045739F
:103B400074657073206574632E2077696C6C2062D5
:103B500065207365742E0031015761726E696E675E
:103B60003A20626F7468207072696E746572207496
:103B700079706520616E64206D6F74686572626F24
:103B80006172642074797065206368616E67656432
:103B90002E0033015761726E696E673A2070726948
:103BA0006E7465722074797065206368616E6765F4
:103BB000642E0032015761726E696E673A206D6F34
:103BC00074686572626F61726420747970652063D5
:103BD00068616E6765642E003B0158595A20636125
:103BE0006C6962726174696F6E20616C6C207269BD
:103BF0006768742E20536B65772077696C6C206240
:103C00006520636F72726563746564206175746F9B
:103C10006D61746963616C6C792E003C0158595A6E
:103C20002063616C6962726174696F6E20616C6C93
:103C30002072696768742E20582F59206178657347
:103C40002061726520736C696768746C7920736B8E
:103C5000657765642E20476F6F64206A6F6221006C
:103C60003E0158595A2063616C6962726174696FD0
:103C70006E206F6B2E20582F59206178657320615C
:103C800072652070657270656E646963756C6172CF
:103C90002E20436F6E67726174756C6174696F6E0C
:103CA000732100400158595A2063616C6962726146
:103CB00074696F6E20636F6D70726F6D6973656488
:103CC0002E2052696768742066726F6E742063617B
:103CD0006C6962726174696F6E20706F696E7420B6
:103CE0006E6F7420726561636861626C652E003F5F
:103CF0000158595A2063616C6962726174696F6E10
:103D000020636F6D70726F6D697365642E204672EB
:103D10006F6E742063616C6962726174696F6E208A
:103D2000706F696E7473206E6F7420726561636862
:103D300061626C652E00440158595A2063616C69B8
:103D400062726174696F6E206661696C65642E20B1
:103D500052696768742066726F6E742063616C6963
:103D600062726174696F6E20706F696E74206E6F1D
:103D70007420726561636861626C652E004301584E
:103D8000595A2063616C6962726174696F6E206652
:103D900061696C65642E2046726F6E742063616C7D
:103DA0006962726174696F6E20706F696E747320DE
:103DB0006E6F7420726561636861626C652E003895
:103DC0000158595A2063616C6962726174696F6E3F
:103DD000206661696C65642E20506C656173652096
:103DE000636F6E73756C7420746865206D616E7599
:103DF000616C2E00420158595A2063616C696272ED
:103E00006174696F6E206661696C65642E2042651D
:103E1000642063616C6962726174696F6E20706F97
:103E2000696E7420776173206E6F7420666F756E93
:103E3000642E00B700506C6561736520706C61631F
:103E40006520737465656C207368656574206F6E9A
:103E500020686561746265642E003600446973747D
:103E6000616E6365206265747765656E2074697044
:103E7000206F6620746865206E6F7A7A6C652061A9
:103E80006E64207468652062656420737572666173
:103E9000636520686173206E6F74206265656E20B3
:103EA000736574207965742E20506C65617365208C
:103EB000666F6C6C6F7720746865206D616E7561DC
:103EC0006C2C20636861707465722046697273742B
:103ED0002073746570732C2073656374696F6E2032
:103EE0004669727374206C617965722063616C69D4
:103EF00062726174696F6E2E00B100506C6163650F
:103F00002061207368656574206F6620706170653C
:103F10007220756E64657220746865206E6F7A7A9F
:103F20006C6520647572696E6720746865206361D2
:103F30006C6962726174696F6E206F662066697267
:103F40007374203420706F696E74732E204966205C
:103F5000746865206E6F7A7A6C652063617463683B
:103F60006573207468652070617065722C20706FB5
:103F7000776572206F666620746865207072696E5E
:103F800074657220696D6D6564696174656C792E04
:103F900000BB00506C656173652072656D6F76655E
:103FA00020737465656C2073686565742066726F34
:103FB0006D20686561746265642E00790049732024
:103FC000737465656C207368656574206F6E206816
:103FD0006561746265643F000100206F66203400F3
:103FE000F400536561726368696E672062656420DE
:103FF00063616C6962726174696F6E20706F696E63
:1040000074000200206F6620390089004D656173DD
:104010007572696E67207265666572656E6365208C
:10402000686569676874206F662063616C69627295
:104030006174696F6E20706F696E7400B300506CAC
:104040006561736520636C65616E20746865206EC0
:104050006F7A7A6C6520666F722063616C69627238
:104060006174696F6E2E20436C69636B207768659D
:104070006E20646F6E652E0010004175746F2068AD
:104080006F6D6500120153544F505045442E20006F
:104090001A00426564206C6576656C696E672066FF
:1040A00061696C65642E2053656E736F722064695C
:1040B000646E7420747269676765722E204465624D
:1040C000726973206F6E206E6F7A7A6C653F20572D
:1040D000616974696E6720666F72207265736574BA
:1040E0002E00BA00506C656173652072656D6F7645
:1040F000652066696C616D656E7420616E64207404
:1041000068656E20707265737320746865206B6ECD
:104110006F622E003A00456A656374696E672066B7
:10412000696C616D656E74008F004D4D55206C6F2C
:104130006164206661696C6564202020202000B0E5
:104140000050494E44412048656174696E6700160D
:104150000154656D702E2063616C2E20202020207C
:10416000202020202000250043616C696272617468
:10417000696F6E20646F6E6500230043616C696235
:10418000726174696E67205A00170042656420648A
:104190006F6E650018004265642048656174696E41
:1041A0006700620048656174696E6720646F6E65C0
:1041B0002E00630048656174696E670000005B252E
:1041C0002E37735D4C6976652061646A2E205A0A29
:1041D00076616C7565207365742C20636F6E7469ED
:1041E0006E75650A6F722073746172742066726FE7
:1041F0006D207A65726F3F0A2563436F6E74696E36
:1042000075652563526573657400E300506C6561E4
:104210007365206C6F61642066696C616D656E7496
:104220002066697273742E00780049732066696C89
:10423000616D656E74206C6F616465643F0015018B
:1042400053656C6563742066696C616D656E743A64
:1042500000730046696C616D656E740027004361F0
:104260006E63656C00F00052756E6E696E67205764
:10427000697A6172642077696C6C2064656C65741E
:10428000652063757272656E742063616C69627219
:104290006174696F6E20726573756C747320616EE2
:1042A000642073746172742066726F6D2074686527
:1042B00020626567696E6E696E672E20436F6E744B
:1042C000696E75653F00C20050726568656174690A
:1042D0006E67206E6F7A7A6C652E20506C65617304
:1042E0006520776169742E0084004C6F6164696E8B
:1042F000672066696C616D656E7400E100506C65E5
:1043000061736520696E736572742066696C616D96
:10431000656E7420696E746F2074686520657874AA
:1043200072756465722C207468656E207072657396
:104330007320746865206B6E6F6220746F206C6FE1
:1043400061642069742E00E200506C656173652021
:10435000696E736572742066696C616D656E742038
:10436000696E746F20746865206669727374207456
:10437000756265206F6620746865204D4D552C2050
:104380007468656E20707265737320746865206B45
:104390006E6F6220746F206C6F61642069742E00F0
:1043A0004601546865207072696E74657220776981
:1043B0006C6C207374617274207072696E74696EB3
:1043C000672061207A69672D7A6167206C696E6564
:1043D0002E20526F7461746520746865206B6E6F57
:1043E0006220756E74696C20796F752072656163E7
:1043F0006820746865206F7074696D616C206865F1
:10440000696768742E20436865636B207468652053
:10441000706963747572657320696E2074686520B5
:1044200068616E64626F6F6B202843616C696272B1
:104430006174696F6E2063686170746572292E0003
:10444000180153656C6563742074656D70657261E5
:1044500074757265207768696368206D617463683C
:10446000657320796F7572206D6174657269616C16
:104470002E002D0043686F6F736520612066696CA4
:10448000616D656E7420666F722074686520466980
:10449000727374204C617965722043616C69627239
:1044A0006174696F6E20616E642073656C656374FE
:1044B00020697420696E20746865206F6E2D7363A7
:1044C0007265656E206D656E752E00A6004E6F7765
:1044D00020492077696C6C2063616C696272617439
:1044E000652064697374616E6365206265747765C5
:1044F000656E20746970206F6620746865206E6F29
:104500007A7A6C6520616E642068656174626564A6
:1045100020737572666163652E003A01596F7520CC
:1045200063616E20616C7761797320726573756D5C
:1045300065207468652057697A6172642066726FBD
:104540006D2043616C6962726174696F6E202D3EEB
:104550002057697A6172642E00B500506C656173F2
:104560006520636865636B206F75722068616E6497
:10457000626F6F6B20616E64206669782074686575
:104580002070726F626C656D2E205468656E2072AB
:104590006573756D65207468652057697A6172640A
:1045A000206279207265626F6F74696E672074682B
:1045B00065207072696E7465722E000900416C6C22
:1045C00020697320646F6E652E20486170707920B9
:1045D0007072696E74696E6721007B00496620798C
:1045E0006F752068617665206164646974696F6EB7
:1045F000616C20737465656C207368656574732CD9
:104600002063616C696272617465207468656972A7
:10461000207072657365747320696E2053657474BD
:10462000696E6773202D204857205365747570207C
:104630002D20537465656C207368656574732E0056
:10464000B200506C6561736520636C65616E2068B3
:1046500065617462656420616E64207468656E20B3
:10466000707265737320746865206B6E6F622E00C4
:104670003700446F20796F752077616E7420746FF6
:1046800020726570656174206C6173742073746549
:104690007020746F20726561646A75737420646938
:1046A0007374616E6365206265747765656E206EF4
:1046B0006F7A7A6C6520616E6420686561746265EA
:1046C000643F00FC0053656C656374206E6F7A7AFA
:1046D0006C6520707265686561742074656D7065C5
:1046E000726174757265207768696368206D6174A2
:1046F0006368657320796F7572206D617465726986
:10470000616C2E00780049732066696C616D656E7E
:1047100074206C6F616465643F00780049732066A3
:10472000696C616D656E74206C6F616465643F00D7
:10473000A7004E6F7720492077696C6C20707265F6
:1047400068656174206E6F7A7A6C6520666F72207E
:10475000504C412E007500492077696C6C207275B1
:104760006E207A2063616C6962726174696F6E2079
:104770006E6F772E00AA004E6F772072656D6F7690
:1047800065207468652074657374207072696E7436
:104790002066726F6D20737465656C207368656543
:1047A000742E00BF00506C656173652072656D6F7B
:1047B0007665207368697070696E672068656C70D3
:1047C0006572732066697273742E007400492077D5
:1047D000696C6C2072756E2078797A2063616C69DF
:1047E00062726174696F6E206E6F772E204974203B
:1047F00077696C6C2074616B6520617070726F7882
:104800002E203132206D696E732E00590046697278
:1048100073742C20492077696C6C2072756E20743B
:1048200068652073656C667465737420746F2063AB
:104830006865636B206D6F737420636F6D6D6F6E51
:1048400020617373656D626C792070726F626C6544
:104850006D732E00650048692C204920616D207918
:104860006F7572205A617269626F207072696E741E
:1048700065722E20576F756C6420796F75206C6996
:104880006B65206D6520746F20677569646520799C
:104890006F75207468726F7567682074686520731F
:1048A000657475702070726F636573733F000E00DE
:1048B00053706F6F6C4A6F696E2020205B4E2F41E2
:1048C0005D000F0053706F6F6C4A6F696E2020207F
:1048D0005B6F66665D000D0053706F6F6C4A6F69A9
:1048E0006E202020205B6F6E5D004D014669726D69
:1048F000776172652020205B6E6F6E655D004E01F2
:104900004669726D77617265205B73747269637456
:104910005D004F014669726D776172652020205BF2
:104920007761726E5D004D014669726D77617265E7
:104930002020205B6E6F6E655D005C014D6F6465CD
:104940006C2020202020205B6E6F6E655D005D0175
:104950004D6F64656C202020205B737472696374F2
:104960005D005E014D6F64656C2020202020205B7F
:104970007761726E5D005C014D6F64656C20202074
:104980002020205B6E6F6E655D0062014E6F7A7A4B
:104990006C6520202020205B6E6F6E655D006301DA
:1049A0004E6F7A7A6C652020205B73747269637431
:1049B0005D0064014E6F7A7A6C6520202020205BB8
:1049C0007761726E5D0062014E6F7A7A6C652020AD
:1049D0002020205B6E6F6E655D00500148572053AC
:1049E00065747570005001485720536574757000E8
:1049F0004A01436865636B730060014E6F7A7A6C9D
:104A00006520642E20205B302E34305D0061014E25
:104A10006F7A7A6C6520642E20205B302E36305DF4
:104A20000060014E6F7A7A6C6520642E20205B3026
:104A30002E34305D005F014E6F7A7A6C6520642EF3
:104A400020205B302E32355D007501537465656C36
:104A500020736865657473000701536F756E642079
:104A600020202020205B6C6F75645D007401536F03
:104A7000756E64202020205B6173736973745D0020
:104A80000C01536F756E64202020205B73696C6588
:104A90006E745D000B01536F756E64202020202022
:104AA000205B6F6E63655D000701536F756E642058
:104AB00020202020205B6C6F75645D000201536F25
:104AC0007274202020202020205B6E6F6E655D00B8
:104AD0000501536F72742020205B616C7068616205
:104AE00065745D000301536F727420202020202024
:104AF000205B74696D655D00F10053442063617251
:104B00006420205B6E6F726D616C5D00F200534437
:104B10002063617264205B666C73684169725D003A
:104B2000F50053656C656374206C616E6775616731
:104B30006500170154656D702E2063616C2E202076
:104B4000205B6F6E5D00190154656D702E206361EE
:104B50006C2E20205B6F66665D0057014D657368A3
:104B600020626564206C6576656C696E6700500133
:104B70004857205365747570004C0046616E732071
:104B8000636865636B20205B6F66665D004B004663
:104B9000616E7320636865636B2020205B6F6E5DC0
:104BA000004700462E206175746F6C6F6164205B56
:104BB0006F66665D004500462E206175746F6C6FF0
:104BC000616420205B6F6E5D004600462E2061759B
:104BD000746F6C6F6164205B4E2F415D0035004443
:104BE000697361626C6520737465707065727300BF
:104BF0009B004D6F76652061786973001D015465D7
:104C00006D70657261747572650003005B303B30D6
:104C10005D20706F696E74206F666673657400073F
:104C20000041646A757374696E67205A3A00EA003D
:104C3000526573657400E5005265617220736964A2
:104C400065205B756D5D005E0046726F6E7420734B
:104C50006964655B756D5D00ED005269676874207D
:104C6000736964655B756D5D007F004C65667420DB
:104C700073696465205B756D5D00FD00536574208C
:104C800074656D70657261747572653A000C0041EF
:104C90007265206C65667420616E64207269676855
:104CA00074205A7E63617272696167657320616CFA
:104CB0006C2075703F00220043616C696272617400
:104CC000696E672058595A2E20526F74617465209E
:104CD000746865206B6E6F6220746F206D6F7665EF
:104CE00020746865205A206361727269616765206B
:104CF000757020746F2074686520656E642073740D
:104D00006F70706572732E20436C69636B207768D7
:104D1000656E20646F6E652E00240043616C6962CD
:104D2000726174696E67205A2E20526F74617465C7
:104D300020746865206B6E6F6220746F206D6F76D3
:104D40006520746865205A206361727269616765C5
:104D500020757020746F2074686520656E64207300
:104D6000746F70706572732E20436C69636B20776B
:104D700068656E20646F6E652E001B0154656D7052
:104D8000657261747572652063616C6962726174C9
:104D9000696F6E206661696C6564001C0154656D05
:104DA00070657261747572652063616C69627261AD
:104DB00074696F6E2069732066696E6973686564D3
:104DC00020616E64206163746976652E2054656D80
:104DD000702E2063616C6962726174696F6E20630A
:104DE000616E2062652064697361626C656420692C
:104DF0006E206D656E752053657474696E67732DD2
:104E00003E54656D702E2063616C2E00A1004E2F04
:104E10004100FFFF20203000FFFF20203100510122
:104E200049523A004C0146494E44413A006B015008
:104E3000494E44413A00000153656E736F7220730E
:104E40007461746500FFFF50494E4441001E0154D7
:104E5000656D70657261747572657300720153657A
:104E60006E736F7220696E666F00420045787472CF
:104E70007564657220696E666F00370158595A2053
:104E800063616C2E2064657461696C73002C01751C
:104E90006E6B6E6F776E0099004D4D553220636FCB
:104EA0006E6E6563746564003400446174653A0035
:104EB0006600686F77746F2E707275736133642E3D
:104EC000636F6D005C00666F72756D2E7072757326
:104ED0006133642E636F6D00FFFF5A617269626F08
:104EE0002E636F6D002601746F20756E6C6F6164A8
:104EF0002066696C616D656E74002501746F206CAD
:104F00006F61642066696C616D656E7400CB0050E2
:104F10007265737320746865206B6E6F62000600A3
:104F20003E43616E63656C006C015072656865613B
:104F300074696E6720746F20637574006D01507220
:104F40006568656174696E6720746F20656A656362
:104F50007400C80050726568656174696E6720747A
:104F60006F20756E6C6F616400C700507265686574
:104F70006174696E6720746F206C6F6164002A0031
:104F8000436F6F6C646F776E00C000507265686528
:104F9000617420746865206E6F7A7A6C65210040B8
:104FA000004552524F523A00510046696C616D659E
:104FB0006E7420657874727564696E672026207738
:104FC00069746820636F727265637420636F6C6FBD
:104FD000723F0013004175746F6C6F6164696E6796
:104FE0002066696C616D656E7420697320616374FD
:104FF0006976652C206A75737420707265737320EE
:10500000746865206B6E6F6220616E6420696E73D8
:105010006572742066696C616D656E742E2E2E004B
:105020002001546F74616C2066696C616D656E74EB
:10503000002101546F74616C207072696E74207469
:10504000696D6500540046696C616D656E7420750C
:105050007365640055005072696E742074696D65E3
:10506000004501592064697374616E63652066723E
:105070006F6D206D696E007E004C65667400F300F4
:105080005269676874008D004D656173757265645F
:1050900020736B6577000801536C6967687420732F
:1050A0006B65773A00040153657665726520736B12
:1050B00065773A0043004578747275646572009EA6
:1050C000004D6F7665205A009D004D6F7665205922
:1050D000009C004D6F766520580012004175746F7A
:1050E0006C6F6164696E672066696C616D656E7472
:1050F00020617661696C61626C65206F6E6C7920ED
:105100007768656E2066696C616D656E7420736585
:105110006E736F72206973207475726E6564206F90
:105120006E2E2E2E003F004552524F523A204669B5
:105130006C616D656E742073656E736F7220697338
:10514000206E6F7420726573706F6E64696E672C69
:1051500020706C6561736520636865636B20636FA5
:105160006E6E656374696F6E2E002B00436F7079ED
:105170002073656C6563746564206C616E6775612E
:1051800067653F00210043616C696272617465006C
:10519000FFFF5A617269626F204D4B3235532D42C9
:1051A0004D2D333230000601536F7274696E6720E3
:1051B00066696C6573000101536F6D652066696CEB
:1051C00065732077696C6C206E6F74206265207344
:1051D0006F727465642E204D61782E204E6F2E20E4
:1051E0006F662066696C657320696E203120666F7A
:1051F0006C64657220666F7220736F7274696E677B
:10520000206973203130302E004B0146616C73658C
:105210002074726967676572696E6700140153775D
:105220006170706564005F0046726F6E742F6C650C
:1052300066742066616E730015004178697300140E
:105240000041786973206C656E6774680085004C56
:105250006F6F73652070756C6C6579003B00456EEF
:105260006473746F70206E6F7420686974003C0002
:10527000456E6473746F70009A004D6F746F7200A6
:105280003D00456E6473746F707300350157697229
:10529000696E67206572726F720016004265642045
:1052A0002F2048656174657200A3004E6F742063FF
:1052B0006F6E6E6563746564006000486561746557
:1052C000722F546865726D6973746F7200B4005008
:1052D0006C6561736520636865636B203A00F90053
:1052E00053656C6674657374206572726F722021E9
:1052F00000530046696C616D656E742073656E7352
:105300006F7200C9005072696E742066616E3A0057
:10531000410045787472756465722066616E3A006A
:105320001E0043616C6962726174696E6720686F08
:105330006D6500FA0053656C667465737420666170
:10534000696C65642020000800416C6C20636F72FA
:1053500072656374202020202020006D0043686562
:10536000636B696E672073656E736F727320006C78
:1053700000436865636B696E6720686F74656E646F
:105380002020006A00436865636B696E6720626570
:10539000642020202020007000436865636B696EE4
:1053A00067205A20617869732020006F0043686588
:1053B000636B696E67205920617869732020006EE5
:1053C00000436865636B696E672058206178697374
:1053D0002020006B00436865636B696E6720656E13
:1053E0006473746F7073003E004572726F72202D8B
:1053F00020737461746963206D656D6F72792068C4
:105400006173206265656E206F766572777269746C
:1054100074656E002800436172642072656D6F765A
:10542000656400BD00506C656173652075706461D2
:105430007465206669726D7761726520696E207986
:105440006F7572204D4D55322E2057616974696E0B
:105450006720666F722072657365742E0091004D2F
:105460004D55204F4B2E20526573756D696E672E1A
:105470002E2E008B004D4D55204F4B2E2052657324
:10548000756D696E6720706F736974696F6E2E2E0B
:105490002E008C004D4D55204F4B2E2052657375BC
:1054A0006D696E672074656D706572617475726583
:1054B0002E2E2E005A004669782074686520697384
:1054C00073756520616E64207468656E2070726506
:1054D000737320627574746F6E206F6E204D4D551E
:1054E00020756E69742E00CD005072657373207440
:1054F0006865206B6E6F6220746F20726573756DC6
:1055000065206E6F7A7A6C652074656D7065726166
:10551000747572652E0094004D4D55206E6565645E
:1055200073207573657220617474656E74696F6E33
:105530002E00EA00526573657400700152656E6159
:105540006D650058004669727374206C61796572EC
:105550002063616C2E00710153656C656374007586
:1055600001537465656C207368656574730073011D
:105570005368656574001301537570706F72740021
:1055800044004661696C207374617473204D4D55FD
:105590000048004661696C207374617473001001E7
:1055A0005374617469737469637320200026004327
:1055B000616C6962726174696F6E0011004175748B
:1055C0006F4C6F61642066696C616D656E74003943
:1055D00000456A6563742066696C616D656E740070
:1055E0002701556E6C6F61642066696C616D656E34
:1055F000740086004C6F616420746F206E6F7A7A3D
:105600006C650082004C6F61642066696C616D6539
:105610006E7400A0004E6F205344206361726400DA
:10562000EB00526573756D65207072696E7400AC25
:10563000005061757365207072696E7400EB0052E2
:105640006573756D65207072696E7400C10050726B
:10565000656865617400220154756E650081004CB7
:105660006976652061646A757374205A0076004912
:105670006E666F2073637265656E00570046696ED3
:10568000697368696E67206D6F76656D656E74739A
:10569000000701536F756E642020202020205B6C72
:1056A0006F75645D007401536F756E642020202057
:1056B0005B6173736973745D000C01536F756E6485
:1056C000202020205B73696C656E745D000B0153B4
:1056D0006F756E642020202020205B6F6E63655DF7
:1056E000000701536F756E642020202020205B6C22
:1056F0006F75645D0097004D6F6465205B61757424
:105700006F20706F7765725D0093004D6F64652048
:10571000202020205B73696C656E745D0098004DDD
:105720006F6465205B6869676820706F7765725D7C
:10573000004C0046616E7320636865636B20205BDC
:105740006F66665D004B0046616E7320636865633B
:105750006B2020205B6F6E5D004D0046696C2E2033
:1057600073656E736F7220205B6F6E5D004F004635
:10577000696C2E2073656E736F72205B6F66665D59
:105780000067004368616E67652066696C616D65DE
:105790006E74005B00466C6F77000D015370656599
:1057A000640052014D61676E65747320636F6D70A4
:1057B0002E5B4E2F415D0053014D61676E65747322
:1057C00020636F6D702E5B4F66665D0054014D6106
:1057D000676E65747320636F6D702E205B4F6E5D16
:1057E0000078015A2D70726F6265206E722E202033
:1057F00020205B335D0079015A2D70726F62652045
:105800006E722E202020205B355D0077015A2D70AE
:10581000726F6265206E722E202020205B315D0049
:1058200056014D6573682020202020202020205B19
:105830003778375D0055014D6573682020202020A2
:10584000202020205B3378335D00490046616E20C4
:105850007370656564001B0042656400A8004E6FAC
:105860007A7A6C6500FE0053657474696E67730024
:10587000C6005072696E742061626F727465640054
:105880006F015072696E746572206E6F7A7A6C6502
:10589000206469616D65746572206469666665720D
:1058A000732066726F6D2074686520472D636F6486
:1058B000652E20506C6561736520636865636B209D
:1058C0007468652076616C756520696E20736574F7
:1058D00074696E67732E205072696E742063616EF6
:1058E00063656C6C65642E006E015072696E746540
:1058F00072206E6F7A7A6C65206469616D6574657B
:105900007220646966666572732066726F6D2074BA
:10591000686520472D636F64652E20436F6E746940
:105920006E75653F00110153746F70207072696E5F
:105930007400560046696C6520696E636F6D706C0B
:105940006574652E20436F6E74696E756520616E97
:10595000797761793F00CA005072696E742066726F
:105960006F6D2053440049014261636B0088004D14
:1059700061696E001A0154656D702E2063616C6957
:1059800062726174696F6E00E9005265736574201C
:1059900058595A2063616C6962722E00FF00536887
:1059A0006F7720656E642073746F707300AF005062
:1059B00049442063616C6962726174696F6E001999
:1059C00000426564206C6576656C20636F72726559
:1059D0006374008A004D65736820426564204C65DD
:1059E00076656C696E6700200043616C6962726164
:1059F0007465205A001F0043616C696272617465AE
:105A00002058595A00F80053656C66746573742009
:105A1000202020202020202000360157697A617242
:105A2000640041014C6F616420616C6C0039004579
:105A30006A6563742066696C616D656E7400B90097
:105A4000506C656173652070756C6C206F75742087
:105A500066696C616D656E7420696D6D6564696100
:105A600074656C79002801556E6C6F6164696E67AE
:105A70002066696C616D656E7400EC00526573752B
:105A80006D696E67207072696E740087004D3131E8
:105A900037204669727374206C6179657220636186
:105AA0006C2E00330043757272656E74002A0155C6
:105AB00073656420647572696E67207072696E74B4
:105AC00000AE005049442063616C2E2066696E6907
:105AD0007368656400AD005049442063616C2E20FA
:105AE0002020202020202020202000BE00506C6597
:105AF000617365207761697400CC005072696E74BF
:105B00002070617573656400390159657300A200E6
:105B10004E6F00610048656174696E672064697347
:105B200061626C65642062792073616665747920B6
:105B300074696D65722E002E0157616974696E6714
:105B400020666F72206E6F7A7A6C6520616E6420B9
:105B500062656420636F6F6C696E6700F600536561
:105B60006C662074657374204F4B00F70053656CAE
:105B7000662074657374207374617274202000A5AC
:105B8000004E6F74207370696E6E696E67000E014F
:105B90005370696E6E696E67007D004C6566742097
:105BA000686F74656E642066616E3F005D004672CA
:105BB0006F6E74207072696E742066616E3F004A69
:105BC0000046616E207465737400CF005072696E78
:105BD000742046414E00AB004E6F7A7A6C652046C9
:105BE000414E002901546F74616C007C004C61735C
:105BF00074207072696E74007A004C617374207046
:105C000072696E74206661696C75726573008E00CE
:105C10004D4D55206661696C730090004D4D5520C7
:105C20006C6F6164206661696C73002401546F7449
:105C3000616C206661696C75726573008E004D4DF4
:105C400055206661696C730090004D4D55206C6F56
:105C50006164206661696C730095004D4D5520703C
:105C60006F776572206661696C73007A004C6173AE
:105C700074207072696E74206661696C75726573E8
:105C800000500046696C616D2E2072756E6F7574E0
:105C900073002401546F74616C206661696C7572C5
:105CA000657300500046696C616D2E2072756E6FD1
:105CB0007574730025642062797465732077726946
:105CC0007474656E20746F20454550524F4D2061AD
:105CD0007420616464726573732030782530347881
:105CE000004433202D20526561642F57726974651A
:105CF00020454550524F4D0A0020436F756E742069
:105D0000583A20005344207072696E74696E67209F
:105D10006279746520004E6F7420696E206661722E
