:100000000C94394B0C946A4B0C946A4B0C946A4BCD
:100010000C946A4B0C946A4B0C946A4B0C946A4B8C
:100020000C946A4B0C946A4B0C940E900C946A4B93
:100030000C946A4B0C946A4B0C9420C30C94789DDE
:100040000C946A4B0C941FDE0C946A4B0C946A4B14
:100050000C946A4B0C946A4B0C946A4B0C94168F5C
:100060000C946A4B0C943A960C946A4B0C946A4B21
:100070000C946A4B0C946A4B0C946A4B0C946A4B2C
:100080000C946A4B0C946A4B0C946A4B0C946A4B1C
:100090000C94F6950C946A4B0C946A4B0C946A4B36
:1000A0000C946A4B0C946A4B0C946A4B0C946A4BFC
:1000B0000C946A4B0C946A4B0C946A4B0C946A4BEC
:1000C0000C946A4B0C946A4B0C946A4B0C94609998
:1000D0000C946A4B0C946A4B0C946A4B0C946A4BCC
:1000E0000C946A4B328F3C8F4A8F578F698F708F79
:1000F000AC8F8E8FA48FFCBC05BDB1BC80BC50BC46
:10010000F9BF36BD5BBE02BF56BF72BFA9BF1DD1CE
:100110001FD11DD11FD11DD11FD121D123D1FE014E
:100120009801E601BC017C01D8012C02CA014402FD
:100130008A02FA01C201EA01EA016202EA016202EC
:10014000E201F60194028C0264022202D2010E0244
:10015000180254019C01AC01820146029A02680116
:100160008801A40168021C02EE016C014C015C02D2
:10017000820204029201DA011C0278026002320259
:10018000FC015E01700170020002F8017202960229
:100190006201D601DC019802AA010802F8013802C6
:1001A000EC014E01B001A0013602A8018E015E02F1
:1001B000C4015C01E4014202C40190016C025A02D4
:1001C000B801084AD73B3BCE016E84BCBFFDC12FAE
:1001D0003D6C74319ABD56833DDA3D00C77F11BE38
:1001E000D9E4BB4C3E916BAAAABE000000803F053B
:1001F000A84CCDB2D44EB93836A9020C50B991866C
:1002000088083CA6AAAA2ABE000000803F076342D5
:1002100036B79BD8A71A39685618AEBAAB558C1D9D
:100220003CB7CC5763BD6DEDFD753EF6177231BF1F
:10023000000000803F08000000BE922449123EAB3F
:10024000AAAA2ABECDCCCC4C3E00000080BEABAAF0
:10025000AAAA3E00000000BF000000803F0000008E
:100260000000084178D3BB4387D1133D190E3CC32E
:10027000BD4282AD2B3E68EC8276BED98FE1A93EAD
:100280004C80EFFFBE01C4FF7F3F00000000000074
:100290000D948B0A0D947A480D94744C0D948C4EE9
:1002A0000D94081D0D94B30E0D94013F0D94EC1C9C
:1002B0000D94CC0A0D945B830D94E6620D94044E6C
:1002C0000D9496390D94374E0D949B5E0D94B9851F
:1002D0000D94664C0D944F450D946E4C0D947148E1
:1002E0000D94094E0D94000F0D94695F0D94DC5927
:1002F0000D94264D0D94CD5A0D9489010D949E4C6C
:100300000D94CB080D942B3E0D94434B0D948149D5
:100310000D94554C0D94A00A0D94463A0D948862A4
:100320000D94FC620D94864C0D94475A0D94A84C84
:100330000D944D010D94D8400D94F13E0D94324929
:100340000D945B620D94E6850D94594C0D94CF0885
:100350000D947C620D94644E0D94593E0D94D60A12
:100360000D9448620D946F1E0D94D01F0D942E08AD
:100370000D9426630D9413610D9469010D943E4D07
:100380000D94AD4C0D94F0010D9432620D94424DDC
:100390000D94E75F0D94A5010D9474590D94840A92
:1003A0000D94DB4A0D94963E0D94324D0D94414EC2
:1003B0000D948F010D948A4C0D944B4E0D94995FC2
:1003C0000D94B8060D942A0A0D94FA620D94530107
:1003D0000D94663A0D94240A0D94824E0D946A4C45
:1003E0000D94920A0D94DB850D947B630D942D0A78
:1003F0000D94964E0D94E0010D94FF4D0D943D012A
:100400000D941D4E0D94C61F0D94824C0D948E1D9F
:100410000D946E4E0D94389C0D942A4D0D948B3E88
:100420000D94074A0D9406410D94A70A0D944C6152
:100430000D94803E0D941A080D949D4C0D948B05DF
:100440000D94280D0D94A13E0D94D1380D947D0A84
:100450000D94B50A0D943A4D0D9495010D945D5A85
:100460000D9401850D94984C0D942D390D946D6269
:100470000D94784E0D94DC450D948E380D94BB0E82
:100480000D942E4D0D94F6620D94B5010D94F93D29
:100490000D94705B0D948F5F0D94E40C0D94E41F2C
:1004A0000D94BF200D9482480D943A5E0D94A35F85
:1004B0000D946D0A0D940E630D94784C0D94C362E7
:1004C0000D94944C0D94270A0D94AC3E0D94B39E5C
:1004D0000D945F4C0D9439870D9408630D94636EF1
:1004E0000D94134E0D94274E0D94990A0D94C40645
:1004F0000D94904C0D94760A0D94565F0D94AE0AAF
:100500000D94B70E0D947C4C0D94A44C0D94C6859F
:100510000D947C5F0D94C5010D94DC3E0D944C85CB
:100520000D94364D0D94DA1F0D945B3B0D942F4EB8
:100530000D94554E0D94634C5F5345435F4C414EB3
:100540004700000000000000000000000000000064
:10055000000000000000000000000000000000009B
:10056000000000000000000000000000000000008B
:10057000000000000000000000000000000000007B
:10058000000000000000000000000000000000006B
:10059000000000000000000000000000000000005B
:1005A000000000000000000000000000000000004B
:1005B000000000000000000000000000000000003B
:1005C000000000000000000000000000000000002B
:1005D000000000000000000000000000000000001B
:1005E000000000000000000000000000000000000B
:1005F00000000000000000000000000000000000FB
:10060000A55AB44BA22B7A0185B873657A0114659B
:100610000403500356035C036F03A203D503DF03F7
:10062000EA03F4031004190422044A044B044C04A2
:100630004D045E047C04C9041405250529053B0509
:100640004A055A056B05B805BD05D105F805140620
:1006500021062C0635069D06AA0610071F072B0744
:1006600034074507580760077C078E07F007020824
:10067000140826084D0854085B08620871080E0922
:100680005809640977098C09A109A209A309D309AA
:100690001F0A200A2F0A480A500A6A0A7C0A8E0A90
:1006A000A00AB60AC60AD80AEA0AFC0A0E0B200BF0
:1006B000320B410B5B0B6F0B830B930BA30BD20B1A
:1006C000E40BF60B450C7C0C820C830C920C9F0CFB
:1006D000BE0CD30C0F0D260D340D900DE10DE20D67
:1006E000F40D040E150E270E380E460E5F0E700E1A
:1006F000810E920EA30EB40EBE0EF80E190F250F2A
:100700003A0F550F860FA30F0A101B102C1036102E
:1007100045105E106E1080109010A510B210C7101A
:10072000DE10ED1016112C114C116F117F118A1172
:100730009C11AC11C211D411E6110912211233120D
:10074000451257126612671272127A1282128A12B8
:100750009912AB12AF12B012C112DC12EF12451394
:100760006E137713CD13FB130614171421143414CE
:1007700044145514011538156F157A15D815281617
:1007800064169916C416FB1637176517A717B817FE
:10079000E817FE170A18321846187D188F18A31884
:1007A000BB18D618E218F218001913195619BE19F9
:1007B000C919CA19CB19CC19CD19CE19CF19D0190D
:1007C000D119D219D319D419D519D619D719D819BD
:1007D000D919DA192F1A8E1AB71AC21ACF1AE51AAE
:1007E0003D1B3E1B3F1B401B511B671B741B861B85
:1007F000981BF81B0A1C1C1C241C471C591C5A1C47
:100800006B1C741C851C941CF81C4D1D5F1D6D1DFC
:100810007E1D901DE11DF31D051E121E241E371E98
:10082000491E561E681E961EA81EBA1EC41ED71E3E
:100830001F1F2D1F3F1F461F4E1F5C1F721F7E1F55
:10084000901FC21FD41FE61F0D2049205520622093
:10085000E220F220FF2007211121202139215521FA
:10086000662179217A218D219621A221B421E221CC
:100870000B229A22E3220A23352356236823692375
:100880008523BC23BF23FF2346249B24A724E224E3
:10089000212564257525BF25F925362652265326A0
:1008A0005F2666266C267B268C269326A526B726F1
:1008B000C926DA26DB26EE260127142727273A2722
:1008C000502779278B279D27BC27CE27E027F227A3
:1008D0000428162828283A284C285E289528FC2821
:1008E0003F29AB29DE293B2A422A5D2A772AAF2AF3
:1008F000122B1C2B282B342B3B2B4D2B5D2B692BC8
:100900007C2B8F2B5B252E37735D416A7573746565
:10091000205A0A416A75737461646F2C20636F6E8C
:1009200074696E7561720A6F20656D70657A6172A7
:10093000206465206E7565766F3F0A2563436F6E90
:1009400074696E75617225635265706574697200B1
:100950002064652034002064652039005B303B3022
:100960005D2070756E746F206F66667365740044E9
:1009700065632E2063686F717565207075656465A9
:100980000A73657220616374697661646120736FB4
:100990006C6F20656E0A4D6F646F206E6F726D61B3
:1009A0006C004154454E43494F4E3A0A4465632E0C
:1009B0002063686F7175650A646573616374697635
:1009C00061646120656E0A4D6F646F2073696C65A8
:1009D0006E63696F003E43616E63656C61720041D6
:1009E0006A75737461722D5A3A00546F646F206295
:1009F00069656E005465726D696E61646F21204691
:100A0000656C697A20696D70726573696F6E21001B
:100A1000416D6269656E74650048617A20636C6936
:100A20006300436172726F73205A20697A712E2FAE
:100A30006465722E20657374616E206172726962E2
:100A400061206D6178696D6F3F000000004C6C653E
:100A500076617220616C206F726967656E00436118
:100A6000726761206175746F6D6174696361206480
:100A7000652066696C616D656E746F004C61206302
:100A800061726761206175746F6D61746963612063
:100A9000736F6C6F2066756E63696F6E612073692A
:100AA00020656C2073656E736F72206465206669C3
:100AB0006C616D656E746F20657374612061637421
:100AC000697661646F2E2E2E004C6120636172671F
:100AD00061206175746F6D61746963612065737401
:100AE000612061637469766164612C2070756C7338
:100AF0006520656C206469616C206520696E736592
:100B000072746520656C2066696C616D656E746FCA
:100B10002E2E2E004C6F6E67697475642064656CB0
:100B200020656A6500456A650042617365202F2073
:100B300043616C656E7461646F720042617365201D
:100B40007072657061726164610043616C656E749E
:100B5000616E646F204261736500436F72722E2074
:100B60006465206C612063616D61004E6976656C1F
:100B70006163696F6E2066616C6C6164612E2053E5
:100B8000656E736F72206E6F2066756E63696F6E2F
:100B9000612E20526573746F7320656E20626F71D1
:100BA00075696C6C613F204573706572616E646F2E
:100BB0002072657365742E0042617365004573741D
:100BC00061646F206465206C6120636F727265617F
:100BD00000536520667565206C61206C757A2E2047
:100BE0003F5265616E75646172206C6120696D7041
:100BF000726573696F6E3F0043616C696272616E0A
:100C0000646F20706F736963696F6E20696E6963CA
:100C100069616C0043616C69627261722058595A53
:100C20000043616C6962726172205A0043616C69B1
:100C3000627261720043616C696272616E646F20FE
:100C400058595A2E204769726120656C2064696189
:100C50006C207061726120737562697220656C200E
:100C60006578747275736F72206861737461207433
:100C70006F636172206C6F7320746F706573207383
:100C800075706572696F7265732E20446573707537
:100C900065732068617A20636C69632E0043616C20
:100CA000696272616E646F205A0043616C6962729E
:100CB000616E646F205A2E204769726120656C2036
:100CC0006469616C20706172612073756269722061
:100CD000656C206578747275736F722068617374C7
:100CE0006120746F636172206C6F7320746F706524
:100CF00073207375706572696F7265732E20446519
:100D000073707565732068617A20636C69632E0067
:100D100043616C6962726163696F6E204F4B00437F
:100D2000616C6962726163696F6E0043616E6365D5
:100D30006C6172005461726A6574612072657469D5
:100D40007261646100436F6C6F72206E6F20686F18
:100D50006D6F67656E656F00456E667269617200E2
:100D6000436F70696172206964696F6D612073659A
:100D70006C656363696F6E61646F3F004465742ED8
:100D80002063686F717565205B6163745D004573F6
:100D9000636F676520756E2066696C616D656E7442
:100DA0006F2070617261206C612043616C696272B6
:100DB0006163696F6E206465206C61205072696D9B
:100DC000657261204361706120792073656C656391
:100DD00063696F6E616C6F20656E20656C206D6558
:100DE0006E7520656E2070616E74616C6C612E0092
:100DF0004465632E2063686F717565205B4E2F44D8
:100E00005D004465742E2063686F717565205B69B1
:100E10006E615D0043686F7175652064657465631C
:100E20007461646F2E0043686F717565206465742A
:100E300065637461646F2E20436F6E74696E7561B3
:100E40007220696D70726573696F6E3F0043686FE1
:100E50007175650041637475616C00466563686116
:100E60003A00417061676172206D6F746F726573D3
:100E70000044697374616E63696120656E747265A4
:100E8000206C612070756E74612064656C20626FE7
:100E90007175696C6C612079206C61207375706567
:100EA000726669636965206465206C6120626173A4
:100EB000652061756E206E6F2066696A6164612EBF
:100EC00020506F72206661766F72207369676120AF
:100ED000656C206D616E75616C2C20636170697446
:100EE000756C6F205072696D65726F7320506173FD
:100EF0006F732C2043616C6962726163696F6E204D
:100F00007072696D65726120636170612E00517548
:100F10006965726573207265706574697220656CAD
:100F200020756C74696D6F207061736F20706172D1
:100F300061207265616A7573746172206C612064EE
:100F4000697374616E63696120626F7175696C6C3D
:100F5000612D626173653F00436F727265676972EC
:100F60002D453A00457870756C7361722066696C26
:100F7000616D656E746F00457870756C73616E6439
:100F80006F2066696C616D656E746F00456E647389
:100F9000746F70206E6F20616C63616E7A61646F34
:100FA0000000004572726F72202D20736520686109
:100FB00020736F6272652D6573637269746F206C44
:100FC00061206D656D6F726961206573746174690C
:100FD0006361004552524F523A20456C2073656E52
:100FE000736F722064652066696C616D656E746FE5
:100FF000206E6F20726573706F6E64652C20706F49
:1010000072206661766F7220636F6D7072756562B3
:1010100061206C6120636F6E6578696F6E2E0000D1
:1010200056656E742E6578747275736F723A0049E6
:101030006E666F726D6163696F6E2064656C2065AA
:1010400078747275736F7200457874727569720086
:1010500045737461646973746963612064652066B3
:10106000616C6C6F73204D4D55004175746F6361F9
:1010700072672E46696C5B6163745D004175746FC5
:10108000636172672E46696C5B4E2F445D0041754B
:10109000746F636172672E46696C5B696E615D0097
:1010A0004573746164697374696361206465206663
:1010B000616C6C6F730056656C6F6369646164206A
:1010C00056656E742E00546573742076656E74696F
:1010D0006C61646F72657300436F6D70726F622E26
:1010E00076656E745B6163745D00436F6D70726FE3
:1010F000622E76656E745B696E615D0053656E731A
:101100006F722046696C2E205B6163745D005365CD
:101110006E736F722046696C2E205B4E2F445D000B
:1011200053656E736F722046696C2E205B696E6129
:101130005D0046696C616D2E206163616261646F60
:10114000004573206E697469646F20656C20636F5D
:101150006C6F72206E7565766F3F0046696C2E204D
:101160006E6F20696E74726F64756369646F00538B
:10117000656E736F722064652066696C616D656E63
:10118000746F0046696C616D656E746F2075736174
:10119000646F005469656D706F20646520696D70BF
:1011A0002E3A004172636869766F20696E636F6DD5
:1011B000706C65746F2E203F436F6E74696E75613D
:1011C0007220646520746F646F73206D6F646F7339
:1011D0003F005465726D2E206D6F76696D69656E86
:1011E000746F730043616C2E207072696D6572615B
:1011F000206361702E005072696D65726F2C2068DB
:1012000061726520656C2053656C6674657374202B
:101210007061726120636F6D70726F626172206CB9
:101220006F732070726F626C656D617320646520EE
:101230006D6F6E74616A65206D617320636F6D758B
:101240006E65732E00436F727269676520656C204E
:1012500070726F626C656D6120792070756C73615E
:1012600020656C20626F746F6E20656E206C61204B
:10127000756E69646164204D4D552E00466C756A2B
:101280006F000056656E742E2066726F6E74616C0E
:101290003F0046726F6E74616C205B756D5D005629
:1012A000656E74696C61646F7265732066726F6ECF
:1012B00074616C2F697A7175696572646F0043613E
:1012C0006C656E7461646F722F5465726D697374AE
:1012D0006F720043616C656E7461646F7265732038
:1012E000646573616374697661646F7320706F7293
:1012F00020656C2074656D706F72697A61646F72BD
:10130000206465207365677572696461642E0043AB
:10131000616C656E74616D69656E746F2061636187
:101320006261646F2E0043616C656E74616E646F00
:101330002E2E2E00486F6C612C20736F79207475EF
:1013400020696D707265736F7261204F7269676991
:101350006E616C2050727573612069332E20517557
:10136000696572657320717565207465206775699C
:1013700065206120747261766573206465206C61FC
:1013800020636F6E66696775726163696F6E3F0097
:10139000486F6C612C20736F7920747520696D70B3
:1013A0007265736F7261205A617269626F2E20518B
:1013B0007569657265732071756520746520677540
:1013C0006965206120747261766573206465206CA4
:1013D0006120636F6E66696775726163696F6E3FE6
:1013E000000043616D626961722066696C616D65C0
:1013F0006E746F0043616D62696F20636F72726516
:1014000063746F0043616D62696F20636F72726510
:1014100063746F3F00436F6E74726F6C2062617310
:10142000652063616C2E00436F6E74726F6C206573
:101430006E6473746F707300436F6E74726F6C20A0
:101440006675736F7200436F6D70726F62616E6468
:101450006F206C6F732073656E736F7265730043DA
:101460006F6E74726F6C2073656E736F72205800AC
:10147000436F6E74726F6C2073656E736F72205958
:1014800000436F6E74726F6C2073656E736F7220A1
:101490005A00456C65676972206578747275736F60
:1014A000723A00456C696A652066696C616D656EAB
:1014B000746F3A0046696C616D656E746F004861C7
:1014C0007265206C612063616C6962726163696F2F
:1014D0006E2058595A2E2054617264617261203115
:1014E00032206D696E2E206170726F78696D616453
:1014F000616D656E74652E00566F7920612068619C
:101500006365722043616C6962726163696F6E200A
:101510005A2061686F72612E004D6F6E69746F7230
:10152000697A617200496E74726F647563697220C2
:1015300066696C616D656E746F00457374612065DA
:101540006C2066696C616D656E746F206361726793
:1015500061646F3F003F4573746120636F6C6F631C
:10156000616461206C61206C616D696E61206465ED
:1015700020616365726F20736F627265206C6120F9
:10158000626173653F00556C74696D617320696DAC
:1015900070726573696F6E65732066616C6C6964E7
:1015A0006173005369207469656E657320706C61A6
:1015B0006E6368617320646520616365726F20618A
:1015C000646963696F6E616C65732C2063616C691B
:1015D0006272612073757320616A7573746573201C
:1015E000656E20416A7573746573202D20416A759C
:1015F00073746573204857202D20506C616E6368AA
:10160000617320616365726F2E00556C74696D6142
:1016100020696D70726573696F6E0056656E742E09
:1016200020697A7175696572646F3F00497A7175D6
:10163000696572646100497A7175696572646120D7
:101640005B756D5D00436F7272656363696F6E20D9
:101650006465204C696E65616C69646164004D6904
:1016600063726F7061736F20456A65205A00496E1E
:1016700074726F64756369722066696C616D2E00A7
:1016800043616D6269616E646F20636F6C6F72009D
:10169000496E74726F64756369656E646F20666904
:1016A0006C616D2E00506F6C6561207375656C7494
:1016B00061004361726761722061206C6120626F1A
:1016C0007175696C6C61004D3131372043616C2E4E
:1016D000207072696D657261206361702E004D65C6
:1016E0006E75207072696E636970616C004D69641B
:1016F00069656E646F20616C747572612064656CDD
:101700002070756E746F2064652063616C6962720D
:101710006163696F6E004E6976656C6163696F6EB7
:10172000204D657368204C6576656C004D4D5520E5
:101730004F4B2E2052657374617572616E646F2019
:10174000706F736963696F6E2E2E2E004D4D55209C
:101750004F4B2E2052657374617572616E646F20F9
:1017600074656D70657261747572612E2E2E004401
:10177000657376696163696F6E206D65643A0046D2
:10178000616C6C6F73204D4D550043617267612031
:101790004D4D552066616C6C6964610043617267F0
:1017A00061204D4D552066616C6C61004D4D55209A
:1017B0004F4B2E20526573756D69656E646F2E2ECA
:1017C0002E004D6F646F20202020205B4E6F726DC5
:1017D000616C5D004D6F646F2020205B73696C65E8
:1017E0006E63696F5D004D4D55206E65636573696D
:1017F0007461206174656E63696F6E2064656C202E
:101800007573756172696F2E0046616C6C6F206430
:101810006520656E657267696120656E204D4D5566
:10182000004D6F646F2020205B53696C656E6369A7
:101830006F5D004D6F646F5B667565727A612061E4
:1018400075746F5D004D6F646F205B72656E642E02
:10185000706C656E6F5D004D4D553220636F6E6527
:10186000637461646F00004D6F76657220656A6510
:1018700073004D6F7665722058004D6F766572204B
:1018800059004D6F766572205A0053696E206D6F56
:1018900076696D69656E746F004E6F20686179209E
:1018A0007461726A657461205344004E2F410000D8
:1018B0004E6F2068617920636F6E6578696F6E2066
:1018C000004E7565766F206669726D77617265206E
:1018D000646973706F6E69626C653A0056656E7408
:1018E000696C61646F72206E6F2067697261005667
:1018F0006F7920612063616C6962726172206C6132
:101900002064697374616E63696120656E747265C9
:10191000206C612070756E7461206465206C61209C
:10192000626F7175696C6C612079206C61207375D0
:101930007065726669636965206465206C61206208
:101940006173652E0041686F72612070726563611A
:101950006C656E74617265206C6120626F7175696F
:101960006C6C61207061726120504C412E00426F9E
:101970007175696C6C610053652068616E20656EDD
:10198000636F6E747261646F20616A7573746573DE
:1019900020616E746572696F7265732E20536520C5
:1019A000616A75737461726120656C205049442CC2
:1019B000206C6F73207061736F732064656C206599
:1019C00078747275736F722C206574630041686F50
:1019D000726120726574697261206C612070727529
:1019E000656261206465206C61206C616D696E6167
:1019F00020646520616365726F2E0056656E742EDB
:101A000020636170610050617573617220696D704F
:101A1000726573696F6E0043616C2E2050494420DB
:101A20000043616C2E20504944207465726D696ECC
:101A30006164610043616C6962726163696F6E2009
:101A40005049440043616C656E74616E646F205050
:101A5000494E444100436F6C6F63617220756E6143
:101A600020686F6A6120646520706170656C207306
:101A70006F627265206C6120737570657266696350
:101A8000696520646520696D70726573696F6E2089
:101A9000647572616E7465206C612063616C69624B
:101AA000726163696F6E206465206C6F7320707261
:101AB000696D65726F7320342070756E746F732E4C
:101AC000205369206C6120626F7175696C6C6120B4
:101AD0006D7565766520656C20706170656C2C2075
:101AE00061706167617220696D707265736F726198
:101AF00020696E6D6564696174616D656E74652ED3
:101B0000004C696D706961206C612073757065723D
:101B10006669636965206465206C61206261736534
:101B20002C20706F72206661766F722C207920688D
:101B3000617A20636C6963004C696D706961206231
:101B40006F7175696C6C6120706172612063616C8A
:101B50006962726163696F6E2E20436C69636B20EA
:101B60006375616E646F206163616265732E00430B
:101B70006F6E74726F6C61203A004C656520656C05
:101B8000206D616E75616C20792072657375656C6E
:101B9000766520656C2070726F626C656D612E20B9
:101BA000446573707565732C207265696E6963692D
:101BB00061206C6120696D707265736F726120794C
:101BC00020636F6E74696E756120636F6E20656C43
:101BD0002057697A61726400506F72206661766F77
:101BE0007220616261746520656C20726F64696C3B
:101BF0006C6F20646520656D70756A652028696466
:101C00006C65722920792072657469726120656C37
:101C10002066696C616D656E746F206D616E7561B3
:101C20006C6D656E74652E00506F72206661766F04
:101C30007220636F6C6F6361206C612063686170F8
:101C40006120646520616365726F20656E206C6140
:101C500020626173652063616C65666163746162B3
:101C60006C652E00506F72206661766F722C20704A
:101C7000756C736120656C206469616C20706172A1
:101C8000612064657363617267617220656C2066B0
:101C9000696C616D656E746F00506F72206661765D
:101CA0006F722072657469726520656C2066696C5C
:101CB000616D656E746F20646520696E6D65646921
:101CC00061746F00506F72206661766F722071755B
:101CD00069746520656C2066696C616D656E746FF2
:101CE0002079206C7565676F2070726573696F6EFF
:101CF0006520656C206469616C2E00506F722066EF
:101D000061766F7220726574697265206C61206300
:101D10006861706120646520616365726F2064652D
:101D2000206C6120626173652063616C656661632C
:101D30007461626C652E00506F72206661766F72FE
:101D4000207265616C697A61206C612063616C69E5
:101D500062726163696F6E2058595A207072696DA2
:101D600065726F2E00506F72206661766F7220610F
:101D7000637475616C69636520656C206669726D5A
:101D80007761726520656E207475204D4D55322E39
:101D9000204573706572616E646F20656C2072659A
:101DA000736574656F2E00506F72204661766F7296
:101DB0002045737065726500506F72206661766FA2
:101DC0007220726574697261206C6F7320736F701A
:101DD0006F7274657320646520656E76696F20701C
:101DE00072696D65726F2E0050726563616C696512
:101DF0006E7461206578747275736F722100507211
:101E00006563616C656E7461720050726563616CCC
:101E1000656E74616E646F206E6F7A7A6C652E20C9
:101E200045737065726120706F72206661766F72A3
:101E30002E0041637475616C697A6520706F722041
:101E40006661766F720050756C736120656C2064FA
:101E500069616C20706172612070726563616C658C
:101E60006E746172206C6120626F7175696C6C6157
:101E7000207920636F6E74696E75652E00436F72F2
:101E800074657320646520656E65726769610049D9
:101E90006D70726573696F6E2063616E63656C61EE
:101EA00064610050726563616C656E74617220706C
:101EB0006172612063617267617200507265636173
:101EC0006C656E7461722070617261206465736309
:101ED00061726761720056656E742E6675736F72FB
:101EE0003A004D656E75207461726A6574612053A5
:101EF000440050756C736120656C206469616C00EE
:101F0000496D70726573696F6E20656E20706175C2
:101F100073610050726573696F6E6120656C206437
:101F200069616C207061726120636F6E74696E7597
:101F3000617220636F6E206C612074656D706572D4
:101F40006174757261206465206C6120626F7175C7
:101F5000696C6C612E00496D707265736F726120DF
:101F60006E6F20657374612063616C696272616475
:101F70006120746F64617669612E20506F722066F3
:101F800061766F722075736120656C206D616E756E
:101F9000616C206361706974756C6F205072696D3B
:101FA00065726F73207061736F732043616C696237
:101FB000726163696F6E20666C756A6F2E0056657C
:101FC0006E742E206578747200000000000000001E
:101FD00000000000000000000000506F72206661E9
:101FE000766F722C20636F6C6F636120656C206666
:101FF000696C616D656E746F20656E20656C20651F
:1020000078747275736F722C206C7565676F2070B1
:10201000726573696F6E6120656C206469616C2004
:1020200070617261206361726761726C6F2E005023
:102030006F72206661766F722C20636F6C6F6361C4
:1020400020656C2066696C616D656E746F20656ECD
:1020500020656C207072696D6572207475626F20E6
:102060006465206C61204D4D552C206C7565676F43
:102070002070756C736120656C206469616C2070E0
:10208000617261206361726761726C6F2E00506FC4
:1020900072206661766F722C2063617267617220B4
:1020A0007072696D65726F20656C2066696C616D18
:1020B000656E746F2E2000707275736133642E65C7
:1020C000730054726173657261205B756D5D0052BF
:1020D000656375706572616E646F20696D7072659D
:1020E00073696F6E0052657469726520656C206655
:1020F000696C616D656E746F207669656A6F2079B1
:102100002070726573696F6E6520656C206469610B
:102110006C207061726120636F6D656E7A617220F0
:10212000612063617267617220656C206E756576EF
:102130006F2066696C616D656E746F2E0000000023
:102140005265616E7564617220696D707265732E7F
:1021500000436F6E74696E75616E646F20696D7097
:10216000726573696F6E0044657265636861205BB8
:10217000756D5D0050756572746F20525069202036
:102180005B6163745D0050756572746F20525069B5
:1021900020205B696E615D00456A656375746172DC
:1021A00020656C2057697A61726420626F72726177
:1021B0007261206C6F732076616C6F72657320643E
:1021C000652063616C6962726163696F6E2061632F
:1021D0007475616C6573207920636F6D656E7A61CB
:1021E0007261206465206E7565766F2E20436F6E78
:1021F00074696E7561723F005461726A2E20534497
:10220000205B6E6F726D616C5D005461726A2E208E
:1022100053445B466C73684169725D004465726546
:102220006368610042757363616E646F2070756EE0
:10223000746F2064652063616C6962726163696FA9
:102240006E20626173650043616D62696172206531
:102250006C206964696F6D610000496E6963696132
:10226000722053656C66746573740053656C667494
:10227000657374004572726F722053656C66746585
:10228000737420210046616C6C6F2053656C66741A
:10229000657374005365207265616C697A6172615F
:1022A00020656C206175746F2D7465737420706186
:1022B00072612063616C696272617220636F6E206B
:1022C000707265636973696F6E206C6120767565E5
:1022D0006C74612061206C6120706F736963696F39
:1022E0006E20696E696369616C2073696E20736525
:1022F0006E736F7265732E0053656C656363696FEF
:102300006E61206C612074656D70657261747572A8
:102310006120706172612070726563616C656E74BA
:102320006172206C6120626F7175696C6C612071E3
:10233000756520736520616A75737465206120740A
:1023400075206D6174657269616C2E20004573742F
:1023500061626C656365722074656D702E3A00432E
:102360006F6E66696775726163696F6E004D6F733A
:102370007472617220656E6473746F70730045735C
:102380007461646F2064656C2073656E736F720096
:10239000416C67756E6F73206172636869766F73E5
:1023A000206E6F207365206F7264656E6172616E5E
:1023B0002E204D6178696D6F20313030206172635D
:1023C0006869766F7320706F7220636172706574D4
:1023D000612070617261206F7264656E61722E207F
:1023E000004F7264656E6172205B6E696E67756E18
:1023F0006F5D004F7264656E61722020205B6665C0
:102400006368615D00496E636C2E73657665726109
:102410003A004F7264656E6172205B616C66616246
:1024200065745D004F7264656E616E646F206172E9
:10243000636869766F7300536F6E69646F20202044
:1024400020205B616C746F5D004C696765722E695A
:102450006E636C2E3A00536F6E69646F5B73696CC8
:10246000656E636961645D0050726F626C656D6179
:1024700020656E636F6E747261646F2C206E697676
:10248000656C6163696F6E205A20666F727A6F7334
:1024900061202E2E2E00536F6E69646F20205B75B5
:1024A0006E612076657A5D00536F6E69646F5B7351
:1024B000696C656E63696F735D0056656C6F636907
:1024C0006461640056656E74696C61646F72206744
:1024D0006972616E646F005365206E656365736930
:1024E000746120756E612074656D706572617475BC
:1024F000726120616D6269656E746520656E7465D8
:10250000203231207920323643207920756E2073B5
:102510006F706F7274652072696769646F2E004511
:1025200073746164697374696361732000446574D2
:10253000656E657220696D70726573696F6E0050AB
:10254000415241444100536F706F72746500496E8F
:1025500074657263616D626961646F0053656C6577
:102560006363696F6E612066696C616D656E746F1F
:102570003A0043616C2E2074656D702E200043611B
:102580006C2E2074656D702E2020205B6F6E5D00B8
:1025900053656C656363696F6E61206C612074655F
:1025A0006D706572617475726120616465637561D7
:1025B00064612061207475206D6174657269616C5D
:1025C0002E0043616C2E2074656D702E20205B6F91
:1025D00066665D0043616C6962726163696F6E205B
:1025E00074656D702E0046616C6C6F206465206CA4
:1025F000612063616C6962726163696F6E206465FA
:102600002074656D70657261747572610043616CF0
:102610006962726163696F6E2074656D7065726165
:1026200074757261207465726D696E6164612E20CB
:1026300048617A20636C6963207061726120636F06
:102640006E74696E7561722E0054656D706572618D
:10265000747572610054656D706572617475726134
:102660007300546F6461766961206573206E6563E1
:1026700065736172696F20686163657220756E6150
:102680002063616C6962726163696F6E205A2E20EB
:10269000506F72206661766F722073696761206582
:1026A0006C206D616E75616C2C206361706974754E
:1026B0006C6F205072696D65726F73207061736FFB
:1026C000732C2073656363696F6E2043616C69626C
:1026D000726163696F6E2064656C20666C756A6FE9
:1026E0002E0046696C616D656E746F20746F746145
:1026F0006C005469656D706F20746F74616C00417B
:102700006A757374617200446573636172676172A4
:102710000046616C6C6F7320746F74616C6573003C
:10272000706172612063617267617220656C2066FE
:10273000696C616D656E746F0070617261206465B3
:102740007363617267617220656C2066696C616D8C
:10275000656E746F00536F6C7461722066696C6192
:102760006D656E746F00536F6C74616E646F20667C
:10277000696C616D656E746F0000557361646F20E4
:10278000656E20696D70726573696F6E00566F6C4F
:1027900074616A657300646573636F6E6F63696407
:1027A0006F004573706572616E646F206F7264654F
:1027B0006E6573004573706572616E646F20656E3F
:1027C000667269616D69656E746F206465206C6105
:1027D00020626173652079206578747275736F72F9
:1027E0002E004573706572616E646F206120717593
:1027F0006520736520656E66726965206C61207363
:102800006F6E64612050494E4441005573612075DC
:102810006E6C6F61642070617261207265746972A0
:10282000617220656C2066696C616D656E746F20E5
:102830003120736920736F62726573616C652070FB
:102840006F72206675657261206465206C6120700E
:102850006172746520747261736572612064656C65
:10286000207475626F204D4D552E205573612045A3
:102870007870756C73617220736920657374612060
:102880006573636F6E6469646F2064656E74726FE4
:102890002064656C207475626F00417669736F3ACD
:1028A0002074616E746F20656C207469706F206491
:1028B0006520696D707265736F726120636F6D6FF3
:1028C00020656C207469706F206465206C612070D5
:1028D0006C6163612068616E2063616D626961642F
:1028E0006F2E004375696461646F3A20656C2074D3
:1028F00069706F20646520706C616361206861207D
:1029000063616D626961646F2E004375696461641F
:102910006F3A2048612063616D626961646F206570
:102920006C207469706F20646520696D70726573C6
:102930006F72612E003F536520636172676F636F32
:102940006E20657869746F20656C2066696C616DB6
:10295000656E746F3F004572726F7220646520630C
:102960006F6E6578696F6E0000446574616C6C65AC
:10297000732064652063616C6962726163696F6E64
:102980002058595A0043616C6962726163696F6EC5
:102990002058595A2066616C6C6164612E20436F27
:1029A0006E73756C746120656C206D616E75616C01
:1029B00020706F72206661766F722E00536900532B
:1029C00069656D70726520707565646573206163FB
:1029D000636564657220616C206173697374656EF0
:1029E00074652064657364652043616C696272611B
:1029F00063696F6E202D3E2057697A6172640043CF
:102A0000616C6962726163696F6E2058595A206304
:102A10006F7272656374612E204C6120696E636C05
:102A2000696E6163696F6E20736520636F72726592
:102A300067697261206175746F6D61746963616D3E
:102A4000656E74652E0043616C6962726163696FC3
:102A50006E2058595A20636F7272656374612E201C
:102A60004C6F7320656A65732058202F20592065AC
:102A70007374616E206C69676572616D656E7465F3
:102A800020696E636C696E61646F732E2042756598
:102A90006E2074726162616A6F2100436F727265A9
:102AA0006769722D583A0043616C696272616369AB
:102AB0006F6E2058595A206F6B2E20456A6573201F
:102AC000582F592070657270656E646963756C610A
:102AD0007265732E20456E686F72616275656E61F6
:102AE000210043616C696272617A696F6E20585986
:102AF0005A20636F6D70726F6D65746964612E200A
:102B000050756E746F732066726F6E74616C65734E
:102B1000206E6F20616C63616E7A61626C65732EEA
:102B20000043616C696272617A696F6E2058595A0C
:102B300020636F6D70726F6D65746964612E2050D3
:102B4000756E746F2066726F6E74616C206465724E
:102B50006563686F206E6F20616C63616E7A61627D
:102B60006C652E00496E74722E20746F646F732032
:102B700066696C2E0043616C6962726163696F6E95
:102B80002058595A2066616C6C6164612E20507522
:102B90006E746F732064652063616C696272616337
:102BA000696F6E20656E206C612062617365206EB6
:102BB0006F20656E636F6E747261646F732E004375
:102BC000616C6962726163696F6E2058595A206640
:102BD000616C6C6164612E2050756E746F73206639
:102BE000726F6E74616C6573206E6F20616C6361CF
:102BF0006E7A61626C65732E0043616C696272610A
:102C000063696F6E2058595A2066616C6C61642E3E
:102C10002050756E746F2066726F6E74616C2064E4
:102C200065726563686F206E6F20616C63616E7A98
:102C300061626C652E0044697374616E6369612022
:102C4000656E205920646573646520656C206D692C
:102C50006E0000436F7272656769722D593A005BAE
:102C6000617061675D00617472617300436F6D70C4
:102C7000726F626163696F6E65730046616C736148
:102C80002061637469766163696F6E0046494E44E2
:102C9000413A004669726D776172655B6E696E6775
:102CA000756E6F5D004669726D776172655B657305
:102CB00074726963745D004669726D776172652034
:102CC000205B617669736F5D00436F6E666967753F
:102CD000726163696F6E2048570000436F6D702EFC
:102CE00020696D616E6573205B4E2F415D00436FFF
:102CF0006D702E20696D616E6573205B4F66665D39
:102D000000436F6D702E20696D616E657320205BCE
:102D10004F6E5D004D616C6C6120202020202020D2
:102D2000205B3378335D004D616C6C612020202086
:102D3000202020205B3778375D004E6976656C6116
:102D400063696F6E204D616C6C6120426173650038
:102D50004669726D77617265204D4B33532064650F
:102D60007465637461646F20656E20696D7072654F
:102D7000736F7261204D4B33004D6F646F204D4D6A
:102D800055205B4E6F726D616C5D004D6F646F20FE
:102D90004D4D555B53696C656E63695D0043616DB4
:102DA00062696F206465206D6F646F2070726F6759
:102DB000726573616E646F202E2E2E004D6F6465F8
:102DC0006C6F20205B6E696E67756E6F5D004D6F76
:102DD00064656C6F205B657374726963746F5D000A
:102DE0004D6F64656C6F202020205B617669736F86
:102DF0005D004469616D2E206E6F7A7A6C5B302EB7
:102E000032355D004469616D2E206E6F7A7A6C5B9D
:102E1000302E34305D004469616D2E206E6F7A7AF9
:102E20006C5B302E36305D004E6F7A7A6C652020F8
:102E30005B6E696E67756E6F5D004E6F7A7A6C655A
:102E4000205B657374726963746F5D004E6F7A7A8C
:102E50006C65202020205B617669736F5D00436F95
:102E60006469676F2047206C616D696E61646F20D3
:102E70007061726120756E206E6976656C20646980
:102E8000666572656E74652E203F436F6E74696E61
:102E90007561723F00436F6469676F2047206C6102
:102EA0006D696E61646F207061726120756E206E55
:102EB0006976656C206469666572656E74652E203E
:102EC000506F72206661766F722072656C616D69F9
:102ED0006E6120656C206D6F64656C6F2064652089
:102EE0006E7565766F2E20496D70726573696F6EB1
:102EF0002063616E63656C6164612E00436F646979
:102F0000676F2047206C616D696E61646F2070612E
:102F1000726120756E207469706F20646520696D20
:102F2000707265736F7261206469666572656E7434
:102F3000652E203F436F6E74696E7561723F00436A
:102F40006F6469676F2047206C616D696E61646FA3
:102F5000207061726120756E6120696D7072657399
:102F60006F7261206469666572656E74652E2050AB
:102F70006F72206661766F722072656C616D696E2A
:102F80006120656C206D6F64656C6F206465206ED8
:102F90007565766F2E20496D70726573696F6E204E
:102FA00063616E63656C6164612E00436F64696781
:102FB0006F2047206C616D696E61646F2070617273
:102FC00061206E7565766F206669726D77617265D6
:102FD0002E203F436F6E74696E7561723F00436FC0
:102FE0006469676F2047206C616D696E61646F2052
:102FF00070617261206E7565766F206669726D779B
:103000006172652E20506F72206661766F7220614A
:10301000637475616C697A6120656C206669726D94
:10302000776172652E20496D70726573696F6E20CD
:1030300063616E63656C6164612E0050494E44416A
:103040003A0050726563616C656E74616E646F20E6
:1030500070617261206C616D696E617200507265A1
:1030600063616C656E746172207061726120657855
:1030700070756C736172004469616D6574726F2064
:103080006E6F7A7A6C6520696D707265736F7261AC
:10309000206469666965726520646520636F642ECB
:1030A000472E203F436F6E74696E7561723F004416
:1030B00069616D6574726F206E6F7A7A6C652049F4
:1030C0006D707265736F726120646966696572659F
:1030D00020646520636F642E472E20436F6D7072ED
:1030E00075656261206C6F732076616C6F726573B9
:1030F00020656E20616A75737465732E20496D704A
:10310000726573696F6E2063616E63656C61646183
:103110002E0052656E6F6D627261720053656C6550
:103120006363696F6E617200496E666F2073656ECE
:10313000736F72004C616D696E6100536F6E6964EC
:103140006F205B617369737469646F5D004C616DBE
:10315000696E6120646520616365726F00436F7200
:1031600072656769722D5A3A005A2D73656E736FD6
:1031700072206E722E2020205B315D005A2D736507
:103180006E736F72206E722E2020205B335D005AAA
:103190002D73656E736F72206E722E2020205B354A
:1031A0005D006961696F00436F7272657A696F6E65
:1031B000652D5A3A005A2D70726F6265206E722E1C
:1031C000202020205B315D005A2D70726F626520D7
:1031D0006E722E202020205B335D005A2D70726F9E
:1031E0006265206E722E202020205B355D006E20EF
:1031F0005369652064656E205765727420696E207E
:1032000064656E2045696E7374656C6C756E676578
:103210006E2E20447275636B206162676562726F07
:103220006368656E2E00556D62656E656E6E656EC7
:10323000004175737761686C0053656E736F72201F
:10324000496E666F00426C65636800536F756E640B
:10325000202020205B4173736973745D0053746197
:10326000686C626C65636865005A2D4B6F7272659D
:103270006B7475723A005A2D50726F6265204E72EF
:103280002E202020205B315D005A2D50726F626528
:10329000204E722E202020205B335D005A2D50726C
:1032A0006F6265204E722E202020205B355D00006D
:1032B000000000000000000000000000000000000E
:1032C00000000000000000000000000000000000FE
:1032D00000000000000000000000000000000000EE
:1032E00000000000000000000000000000000000DE
:1035300000000000000000006501472D636F646516
:1035400020736C6963656420666F72206120646912
:1035500066666572656E74206C6576656C2E2043B8
:103560006F6E74696E75653F006601472D636F6409
:103570006520736C6963656420666F7220612064E6
:103580006966666572656E74206C6576656C2E2062
:10359000506C656173652072652D736C696365207D
:1035A000746865206D6F64656C20616761696E2E5B
:1035B000205072696E742063616E63656C6C656423
:1035C0002E006A01472D636F646520736C69636523
:1035D0006420666F722061206E657765722066696F
:1035E000726D776172652E20506C65617365207510
:1035F000706461746520746865206669726D7761B6
:1036000072652E205072696E742063616E63656C02
:103610006C65642E006901472D636F646520736CCF
:103620006963656420666F722061206E65776572DC
:10363000206669726D776172652E20436F6E7469C2
:103640006E75653F006801472D636F646520736C7C
:103650006963656420666F722061206469666665CF
:1036600072656E74207072696E7465722074797000
:10367000652E20506C656173652072652D736C69D1
:10368000636520746865206D6F64656C2061676197
:10369000696E2E205072696E742063616E63656C72
:1036A0006C65642E006701472D636F646520736C41
:1036B0006963656420666F7220612064696666656F
:1036C00072656E74207072696E74657220747970A0
:1036D000652E20436F6E74696E75653F0067014704
:1036E0002D636F646520736C6963656420666F7217
:1036F000206120646966666572656E742070726907
:103700006E74657220747970652E20436F6E7469D3
:103710006E75653F006801472D636F646520736CAB
:103720006963656420666F722061206469666665FE
:1037300072656E74207072696E746572207479702F
:10374000652E20506C656173652072652D736C6900
:10375000636520746865206D6F64656C20616761C6
:10376000696E2E205072696E742063616E63656CA1
:103770006C65642E00C4005072657373206B6E6FAD
:103780006220746F2070726568656174206E6F7A54
:103790007A6C6520616E6420636F6E74696E756506
:1037A0002E00B800506C656173652070726573738C
:1037B00020746865206B6E6F6220746F20756E6C6C
:1037C0006F61642066696C616D656E7400E700521C
:1037D000656D6F7665206F6C642066696C616D65E0
:1037E0006E7420616E6420707265737320746865F6
:1037F000206B6E6F6220746F207374617274206C22
:103800006F6164696E67206E65772066696C616DB3
:10381000656E742E000B00616E64207072657373A8
:1038200020746865206B6E6F62007700496E736567
:1038300072742066696C616D656E74002900436F57
:103840006C6F72206E6F7420636F727265637400A8
:10385000520046696C616D656E74206E6F74206CE9
:103860006F616465640069004368616E6765642028
:10387000636F72726563746C793F0083004C6F6193
:1038800064696E6720636F6C6F72006800436861E3
:103890006E676520737563636573732100B60050AE
:1038A0006C65617365206F70656E2069646C65720C
:1038B00020616E642072656D6F76652066696C614B
:1038C0006D656E74206D616E75616C6C792E00345F
:1038D000015761732066696C616D656E7420756E49
:1038E0006C6F6164207375636365737366756C3F99
:1038F00000C300506C656173652075706772616408
:10390000652E00A4004E6577206669726D7761723E
:10391000652076657273696F6E20617661696C618E
:10392000626C653A002F0157616974696E672066A1
:103930006F722050494E44412070726F626520635F
:103940006F6F6C696E6700710043686F6F736520FD
:1039500065787472756465723A00430045787472D4
:103960007564657200720043686F6F7365206669E5
:103970006C616D656E743A009F004E6F206D6F76BE
:10398000652E002D015761697420666F7220757372
:1039900065722E2E2E000A01536F6D652070726FB6
:1039A000626C656D20656E636F756E7465726564BB
:1039B0002C205A2D6C6576656C696E6720656E6685
:1039C0006F72636564202E2E2E000F0153746162A6
:1039D0006C6520616D6269656E742074656D7065DB
:1039E0007261747572652032312D323643206973ED
:1039F000206E656564656420612072696769642072
:103A00007374616E64206973207265717569726583
:103A1000642E00BC00506C656173652072756E2069
:103A200058595A2063616C6962726174696F6E20C3
:103A300066697273742E001F01546865726520698F
:103A400073207374696C6C2061206E6565642074EA
:103A50006F206D616B65205A2063616C69627261D1
:103A600074696F6E2E20506C6561736520666F6C93
:103A70006C6F7720746865206D616E75616C2C20A9
:103A80006368617074657220466972737420737420
:103A90006570732C2073656374696F6E2043616C6D
:103AA0006962726174696F6E20666C6F772E00CEEA
:103AB000005072696E74657220686173206E6F7455
:103AC000206265656E2063616C6962726174656411
:103AD000207965742E20506C6561736520666F6C6B
:103AE0006C6F7720746865206D616E75616C2C2039
:103AF00063686170746572204669727374207374B0
:103B00006570732C2073656374696F6E2043616CFC
:103B10006962726174696F6E20666C6F772E00A99E
:103B2000004F6C642073657474696E677320666FF0
:103B3000756E642E2044656661756C74205049442E
:103B40002C20457374657073206574632E2077692B
:103B50006C6C206265207365742E003101576172B0
:103B60006E696E673A20626F7468207072696E7455
:103B70006572207479706520616E64206D6F746861
:103B80006572626F61726420747970652063686128
:103B90006E6765642E0033015761726E696E673A15
:103BA000207072696E746572207479706520636824
:103BB000616E6765642E0032015761726E696E67CF
:103BC0003A206D6F74686572626F617264207479F7
:103BD0007065206368616E6765642E003B0158590B
:103BE0005A2063616C6962726174696F6E20616CE6
:103BF0006C2072696768742E20536B657720776933
:103C00006C6C20626520636F7272656374656420FA
:103C10006175746F6D61746963616C6C792E003CC1
:103C20000158595A2063616C6962726174696F6EE0
:103C300020616C6C2072696768742E20582F59209F
:103C4000617865732061726520736C696768746C54
:103C50007920736B657765642E20476F6F64206AE7
:103C60006F6221003E0158595A2063616C6962728B
:103C70006174696F6E206F6B2E20582F5920617808
:103C80006573206172652070657270656E6469632A
:103C9000756C61722E20436F6E67726174756C6112
:103CA00074696F6E732100400158595A2063616C2A
:103CB0006962726174696F6E20636F6D70726F6D8F
:103CC000697365642E2052696768742066726F6E2E
:103CD000742063616C6962726174696F6E20706FC9
:103CE000696E74206E6F7420726561636861626CC6
:103CF000652E003F0158595A2063616C69627261F8
:103D000074696F6E20636F6D70726F6D6973656437
:103D10002E2046726F6E742063616C6962726174EA
:103D2000696F6E20706F696E7473206E6F7420728D
:103D30006561636861626C652E00440158595A20C0
:103D400063616C6962726174696F6E206661696C2F
:103D500065642E2052696768742066726F6E7420E5
:103D600063616C6962726174696F6E20706F696EF5
:103D700074206E6F7420726561636861626C652E79
:103D800000430158595A2063616C69627261746919
:103D90006F6E206661696C65642E2046726F6E746A
:103DA0002063616C6962726174696F6E20706F6903
:103DB0006E7473206E6F7420726561636861626CEB
:103DC000652E00380158595A2063616C696272612E
:103DD00074696F6E206661696C65642E20506C6535
:103DE00061736520636F6E73756C742074686520F1
:103DF0006D616E75616C2E00420158595A206361E5
:103E00006C6962726174696F6E206661696C656469
:103E10002E204265642063616C6962726174696F0F
:103E20006E20706F696E7420776173206E6F7420DE
:103E3000666F756E642E00B700506C656173652007
:103E4000706C61636520737465656C20736865656B
:103E500074206F6E20686561746265642E003600A0
:103E600044697374616E6365206265747765656E1D
:103E700020746970206F6620746865206E6F7A7A8E
:103E80006C6520616E6420746865206265642073CF
:103E900075726661636520686173206E6F7420625D
:103EA00065656E20736574207965742E20506C658D
:103EB00061736520666F6C6C6F7720746865206D28
:103EC000616E75616C2C2063686170746572204648
:103ED000697273742073746570732C2073656374D6
:103EE000696F6E204669727374206C617965722007
:103EF00063616C6962726174696F6E2E00B100500B
:103F00006C6163652061207368656574206F66204D
:103F1000706170657220756E6465722074686520CA
:103F20006E6F7A7A6C6520647572696E672074684A
:103F3000652063616C6962726174696F6E206F667F
:103F4000206669727374203420706F696E74732EEA
:103F500020496620746865206E6F7A7A6C652063EC
:103F60006174636865732074686520706170657240
:103F70002C20706F776572206F66662074686520EC
:103F80007072696E74657220696D6D6564696174C3
:103F9000656C792E00BB00506C656173652072659D
:103FA0006D6F766520737465656C207368656574E4
:103FB0002066726F6D20686561746265642E007999
:103FC00000497320737465656C207368656574209F
:103FD0006F6E20686561746265643F000100206F48
:103FE00066203400F400536561726368696E67206F
:103FF0006265642063616C6962726174696F6E20CE
:10400000706F696E74000200206F662039008900AD
:104010004D6561737572696E67207265666572655C
:104020006E636520686569676874206F66206361E8
:104030006C6962726174696F6E20706F696E740072
:10404000B300506C6561736520636C65616E2074AC
:104050006865206E6F7A7A6C6520666F7220636186
:104060006C6962726174696F6E2E20436C69636B58
:10407000207768656E20646F6E652E0010004175B4
:10408000746F20686F6D65001A00426564206C656E
:1040900076656C696E67206661696C65642E205375
:1040A000656E736F72206469646E742074726967E0
:1040B0006765722E20446562726973206F6E206E90
:1040C0006F7A7A6C653F2057616974696E67206604
:1040D0006F722072657365742E00BD00506C65614F
:1040E000736520757064617465206669726D7761AF
:1040F000726520696E20796F7572204D4D55322E94
:104100002057616974696E6720666F7220726573EB
:1041100065742E0091004D4D55204F4B2E20526559
:1041200073756D696E672E2E2E008B004D4D5520D8
:104130004F4B2E20526573756D696E6720706F73DB
:104140006974696F6E2E2E2E008C004D4D55204FD8
:104150004B2E20526573756D696E672074656D70A6
:10416000657261747572652E2E2E005A004669784C
:104170002074686520697373756520616E642074AE
:1041800068656E20707265737320627574746F6EEB
:10419000206F6E204D4D5520756E69742E00CD0038
:1041A000507265737320746865206B6E6F62207443
:1041B0006F20726573756D65206E6F7A7A6C6520FD
:1041C00074656D70657261747572652E0094004D32
:1041D0004D55206E6565647320757365722061743A
:1041E00074656E74696F6E2E00120153544F5050F7
:1041F00045442E2000A1004E2F4100FFFF2020301B
:1042000000FFFF20203100510149523A004C014685
:10421000494E44413A006B0150494E44413A000036
:104220000153656E736F722073746174650043008F
:104230004578747275646572009E004D6F766520D6
:104240005A009D004D6F76652059009C004D6F7699
:104250006520580012004175746F6C6F6164696E5F
:10426000672066696C616D656E7420617661696C4A
:1042700061626C65206F6E6C79207768656E206670
:10428000696C616D656E742073656E736F72206901
:1042900073207475726E6564206F6E2E2E2E003F33
:1042A000004552524F523A2046696C616D656E74FA
:1042B0002073656E736F72206973206E6F74207245
:1042C0006573706F6E64696E672C20706C656173C6
:1042D0006520636865636B20636F6E6E65637469E8
:1042E0006F6E2E002B00436F70792073656C6563D1
:1042F000746564206C616E67756167653F002100BD
:1043000043616C696272617465004B0146616C7354
:10431000652074726967676572696E67001401537E
:10432000776170706564005F0046726F6E742F6C09
:104330006566742066616E730015004178697300CC
:10434000140041786973206C656E6774680085009D
:104350004C6F6F73652070756C6C6579003B004520
:104360006E6473746F70206E6F7420686974003CA3
:1043700000456E6473746F70009A004D6F746F72B5
:10438000003D00456E6473746F70730035015769AA
:1043900072696E67206572726F7200160042656402
:1043A000202F2048656174657200A3004E6F742051
:1043B000636F6E6E65637465640060004865617468
:1043C00065722F546865726D6973746F7200B40002
:1043D000506C6561736520636865636B203A00F912
:1043E0000053656C6674657374206572726F722019
:1043F0002100530046696C616D656E742073656EB3
:10440000736F7200C9005072696E742066616E3AF3
:1044100000410045787472756465722066616E3A79
:10442000001E0043616C6962726174696E67206886
:104430006F6D6500FA0053656C6674657374206671
:1044400061696C65642020000800416C6C20636F1A
:104450007272656374202020202020006D00436864
:1044600065636B696E672073656E736F727320008E
:104470006C00436865636B696E6720686F74656E76
:10448000642020006A00436865636B696E67206280
:1044900065642020202020007000436865636B69FC
:1044A0006E67205A20617869732020006F0043688E
:1044B00065636B696E6720592061786973202000FD
:1044C0006E00436865636B696E6720582061786988
:1044D000732020006B00436865636B696E6720651D
:1044E0006E6473746F7073003E004572726F722059
:1044F0002D20737461746963206D656D6F7279200E
:10450000686173206265656E206F76657277726987
:104510007474656E002800436172642072656D6F6B
:10452000766564007A004C617374207072696E74F1
:10453000206661696C7572657300500046696C6134
:104540006D2E2072756E6F757473002401546F7434
:10455000616C206661696C75726573005000466914
:104560006C616D2E2072756E6F75747300FFFF5055
:10457000494E4441001E0154656D70657261747549
:1045800072657300720153656E736F7220696E6697
:104590006F004200457874727564657220696E66BA
:1045A0006F00370158595A2063616C2E206465747E
:1045B00061696C73002C01756E6B6E6F776E00997C
:1045C000004D4D553220636F6E6E656374656400F7
:1045D0003400446174653A006600686F77746F2E2A
:1045E000707275736133642E636F6D005C00666F6B
:1045F00072756D2E707275736133642E636F6D000A
:10460000FFFF5A617269626F2E636F6D002601743D
:104610006F20756E6C6F61642066696C616D656E8C
:1046200074002501746F206C6F61642066696C6191
:104630006D656E7400CB005072657373207468658D
:10464000206B6E6F620006003E43616E63656C0016
:104650006C0150726568656174696E6720746F20C3
:10466000637574006D0150726568656174696E6789
:1046700020746F20656A65637400C80050726568B5
:10468000656174696E6720746F20756E6C6F61640C
:1046900000C70050726568656174696E6720746F49
:1046A000206C6F6164002A00436F6F6C646F776EDB
:1046B00000C0005072656865617420746865206E82
:1046C0006F7A7A6C65210040004552524F523A0091
:1046D000510046696C616D656E7420657874727501
:1046E00064696E672026207769746820636F727230
:1046F00065637420636F6C6F723F001300417574C3
:104700006F6C6F6164696E672066696C616D656E60
:1047100074206973206163746976652C206A7573EF
:104720007420707265737320746865206B6E6F629D
:1047300020616E6420696E736572742066696C61B5
:104740006D656E742E2E2E002001546F74616C20E6
:1047500066696C616D656E74002101546F74616CE3
:10476000207072696E742074696D6500540046692A
:104770006C616D656E7420757365640055005072D0
:10478000696E742074696D65004501592064697310
:1047900074616E63652066726F6D206D696E007E58
:1047A000004C65667400F300526967687400390153
:1047B00059657300A2004E6F00FFFF5A6172696273
:1047C0006F204D4B32352D42452D323230000601DF
:1047D000536F7274696E672066696C6573000101BE
:1047E000536F6D652066696C65732077696C6C200A
:1047F0006E6F7420626520736F727465642E204D35
:1048000061782E204E6F2E206F662066696C65736E
:1048100020696E203120666F6C64657220666F724D
:1048200020736F7274696E67206973203130302E87
:10483000008D004D6561737572656420736B6577DB
:10484000000801536C6967687420736B65773A00E0
:10485000040153657665726520736B65773A0003D2
:10486000005B303B305D20706F696E74206F666650
:1048700073657400070041646A757374696E67201C
:104880005A3A00EA00526573657400E500526561AA
:10489000722073696465205B756D5D005E00467211
:1048A0006F6E7420736964655B756D5D00ED005219
:1048B0006967687420736964655B756D5D007F006E
:1048C0004C6566742073696465205B756D5D00FDE1
:1048D000005365742074656D7065726174757265DE
:1048E0003A000C00417265206C65667420616E644C
:1048F000207269676874205A7E63617272696167A9
:10490000657320616C6C2075703F00220043616C00
:104910006962726174696E672058595A2E20526F0D
:104920007461746520746865206B6E6F6220746FAB
:10493000206D6F766520746865205A2063617272FD
:104940006961676520757020746F207468652065E3
:104950006E642073746F70706572732E20436C697F
:10496000636B207768656E20646F6E652E0024008F
:1049700043616C6962726174696E67205A2E2052BD
:104980006F7461746520746865206B6E6F6220744B
:104990006F206D6F766520746865205A20636172A0
:1049A000726961676520757020746F207468652076
:1049B000656E642073746F70706572732E20436C23
:1049C00069636B207768656E20646F6E652E001BCF
:1049D0000154656D70657261747572652063616CF8
:1049E0006962726174696F6E206661696C656400EA
:1049F0001C0154656D706572617475726520636128
:104A00006C6962726174696F6E2069732066696E89
:104A1000697368656420616E64206163746976659A
:104A20002E2054656D702E2063616C696272617412
:104A3000696F6E2063616E206265206469736162D4
:104A40006C656420696E206D656E752053657474A5
:104A5000696E67732D3E54656D702E2063616C2EF8
:104A600000BA00506C656173652072656D6F766584
:104A70002066696C616D656E7420616E6420746877
:104A8000656E20707265737320746865206B6E6F3D
:104A9000622E003A00456A656374696E6720666934
:104AA0006C616D656E74008F004D4D55206C6F61AB
:104AB00064206661696C65642020202020008700E6
:104AC0004D313137204669727374206C617965729B
:104AD0002063616C2E00330043757272656E740042
:104AE0002A015573656420647572696E672070725F
:104AF000696E7400AE005049442063616C2E2066DC
:104B0000696E697368656400AD0050494420636153
:104B10006C2E202020202020202020202000BE00DD
:104B2000506C65617365207761697400CC005072C8
:104B3000696E742070617573656400CF005072698E
:104B40006E742046414E00AB004E6F7A7A6C652041
:104B500046414E002901546F74616C007C004C6129
:104B60007374207072696E74007A004C61737420E3
:104B70007072696E74206661696C75726573008EFF
:104B8000004D4D55206661696C730090004D4D5588
:104B9000206C6F6164206661696C73002401546F3E
:104BA00074616C206661696C75726573008E004D6E
:104BB0004D55206661696C730090004D4D55206C19
:104BC0006F6164206661696C730095004D4D5520DE
:104BD000706F776572206661696C7300C6005072F1
:104BE000696E742061626F727465640011015374A0
:104BF0006F70207072696E7400560046696C652093
:104C0000696E636F6D706C6574652E20436F6E7492
:104C1000696E756520616E797761793F00CA0050D1
:104C200072696E742066726F6D20534400490142B0
:104C300061636B0088004D61696E003900456A65EB
:104C400063742066696C616D656E7400B900506CA8
:104C5000656173652070756C6C206F757420666972
:104C60006C616D656E7420696D6D656469617465F4
:104C70006C79002801556E6C6F6164696E672066FF
:104C8000696C616D656E7400EC00526573756D69D9
:104C90006E67207072696E7400EA00526573657405
:104CA00000700152656E616D65005800466972734F
:104CB00074206C617965722063616C2E0071015300
:104CC000656C656374007501537465656C20736869
:104CD000656574730073015368656574001301534F
:104CE0007570706F72740044004661696C20737453
:104CF000617473204D4D550048004661696C207306
:104D0000746174730010015374617469737469631E
:104D100073202000260043616C6962726174696FC0
:104D20006E0011004175746F4C6F61642066696C90
:104D3000616D656E74003900456A6563742066694B
:104D40006C616D656E74002701556E6C6F61642037
:104D500066696C616D656E740086004C6F616420DD
:104D6000746F206E6F7A7A6C650082004C6F61649C
:104D70002066696C616D656E7400A0004E6F2053F3
:104D800044206361726400EB00526573756D6520A9
:104D90007072696E7400AC0050617573652070723A
:104DA000696E7400EB00526573756D6520707269F1
:104DB0006E7400C100507265686561740022015410
:104DC000756E650081004C6976652061646A757353
:104DD00074205A007600496E666F207363726565B1
:104DE0006E006F015072696E746572206E6F7A7A10
:104DF0006C65206469616D657465722064696666BE
:104E00006572732066726F6D2074686520472D632C
:104E10006F64652E20506C656173652063686563FF
:104E20006B207468652076616C756520696E2073EF
:104E3000657474696E67732E205072696E74206396
:104E4000616E63656C6C65642E006E015072696EF4
:104E5000746572206E6F7A7A6C65206469616D6525
:104E600074657220646966666572732066726F6D20
:104E70002074686520472D636F64652E20436F6E34
:104E800074696E75653F004A01436865636B730022
:104E900060014E6F7A7A6C6520642E20205B302E84
:104EA00034305D0061014E6F7A7A6C6520642E208B
:104EB000205B302E36305D0060014E6F7A7A6C6573
:104EC00020642E20205B302E34305D005F014E6F59
:104ED0007A7A6C6520642E20205B302E32355D009E
:104EE0007501537465656C2073686565747300079C
:104EF00001536F756E642020202020205B6C6F753D
:104F0000645D007401536F756E64202020205B6126
:104F100073736973745D000C01536F756E642020A8
:104F200020205B73696C656E745D000B01536F75B7
:104F30006E642020202020205B6F6E63655D00077B
:104F400001536F756E642020202020205B6C6F75EC
:104F5000645D000201536F72742020202020202005
:104F60005B6E6F6E655D000501536F7274202020CB
:104F70005B616C7068616265745D000301536F7200
:104F800074202020202020205B74696D655D00F175
:104F9000005344206361726420205B6E6F726D6108
:104FA0006C5D00F20053442063617264205B666CA8
:104FB00073684169725D00F50053656C6563742028
:104FC0006C616E677561676500170154656D702EC1
:104FD0002063616C2E2020205B6F6E5D00190154F0
:104FE000656D702E2063616C2E20205B6F66665DA0
:104FF0000057014D65736820626564206C657665B5
:105000006C696E67005001485720536574757000D5
:105010004C0046616E7320636865636B20205B6F94
:1050200066665D004B0046616E7320636865636B66
:105030002020205B6F6E5D004700462E2061757456
:105040006F6C6F6164205B6F66665D004500462E85
:10505000206175746F6C6F616420205B6F6E5D0002
:105060004600462E206175746F6C6F6164205B4E44
:105070002F415D004E0046696C2E2073656E736F84
:1050800072205B4E2F415D00350044697361626C94
:1050900065207374657070657273009B004D6F7648
:1050A000652061786973001D0154656D70657261DA
:1050B00074757265001A0154656D702E2063616C01
:1050C0006962726174696F6E00E90052657365749C
:1050D0002058595A2063616C6962722E00FF005398
:1050E000686F7720656E642073746F707300AF0013
:1050F0005049442063616C6962726174696F6E002B
:105100001900426564206C6576656C20636F72726D
:10511000656374008A004D65736820426564204CA5
:105120006576656C696E6700200043616C69627228
:10513000617465205A001F0043616C69627261747A
:10514000652058595A00F80053656C66746573748D
:1051500020202020202020202000360157697A615D
:1051600072640041014C6F616420616C6C0000004E
:105170005B252E37735D4C6976652061646A2E204D
:105180005A0A76616C7565207365742C20636F6EA6
:1051900074696E75650A6F7220737461727420662B
:1051A000726F6D207A65726F3F0A2563436F6E746C
:1051B000696E75652563526573657400E300506C14
:1051C00065617365206C6F61642066696C616D65F3
:1051D0006E742066697273742E00780049732066BD
:1051E000696C616D656E74206C6F616465643F000D
:1051F000150153656C6563742066696C616D656E3D
:10520000743A00730046696C616D656E7400270026
:1052100043616E63656C00F00052756E6E696E6777
:105220002057697A6172642077696C6C2064656CC0
:105230006574652063757272656E742063616C6954
:1052400062726174696F6E20726573756C7473201D
:10525000616E642073746172742066726F6D207465
:10526000686520626567696E6E696E672E20436FA0
:105270006E74696E75653F00C20050726568656145
:1052800074696E67206E6F7A7A6C652E20506C653B
:1052900061736520776169742E0084004C6F6164CE
:1052A000696E672066696C616D656E7400E100501F
:1052B0006C6561736520696E736572742066696CD4
:1052C000616D656E7420696E746F20746865206509
:1052D000787472756465722C207468656E207072C3
:1052E00065737320746865206B6E6F6220746F2025
:1052F0006C6F61642069742E00E200506C6561730C
:105300006520696E736572742066696C616D656E87
:105310007420696E746F2074686520666972737496
:105320002074756265206F6620746865204D4D5548
:105330002C207468656E20707265737320746865C4
:10534000206B6E6F6220746F206C6F6164206974D3
:105350002E004601546865207072696E7465722073
:1053600077696C6C207374617274207072696E74EA
:10537000696E672061207A69672D7A6167206C69A0
:105380006E652E20526F7461746520746865206BA1
:105390006E6F6220756E74696C20796F752072650E
:1053A00061636820746865206F7074696D616C203A
:1053B0006865696768742E20436865636B2074684C
:1053C0006520706963747572657320696E207468F6
:1053D000652068616E64626F6F6B202843616C6941
:1053E00062726174696F6E2063686170746572299E
:1053F0002E00180153656C6563742074656D7065CB
:10540000726174757265207768696368206D617474
:105410006368657320796F7572206D617465726958
:10542000616C2E002D0043686F6F736520612066EC
:10543000696C616D656E7420666F7220746865209A
:105440004669727374204C617965722043616C699E
:1054500062726174696F6E20616E642073656C6541
:10546000637420697420696E20746865206F6E2DE6
:1054700073637265656E206D656E752E00A6004EB5
:105480006F7720492077696C6C2063616C69627268
:105490006174652064697374616E6365206265740C
:1054A0007765656E20746970206F6620746865206A
:1054B0006E6F7A7A6C6520616E64206865617462D3
:1054C000656420737572666163652E003A01596FD9
:1054D000752063616E20616C7761797320726573EA
:1054E000756D65207468652057697A6172642066FD
:1054F000726F6D2043616C6962726174696F6E20B6
:105500002D3E2057697A6172642E00B500506C659B
:1055100061736520636865636B206F7572206861D5
:105520006E64626F6F6B20616E64206669782074B0
:1055300068652070726F626C656D2E205468656EB0
:1055400020726573756D65207468652057697A618E
:105550007264206279207265626F6F74696E672071
:10556000746865207072696E7465722E000900415E
:105570006C6C20697320646F6E652E2048617070BA
:1055800079207072696E74696E6721007B004966CC
:1055900020796F752068617665206164646974693B
:1055A0006F6E616C20737465656C207368656574DB
:1055B000732C2063616C6962726174652074686524
:1055C0006972207072657365747320696E2053650B
:1055D0007474696E6773202D204857205365747565
:1055E00070202D20537465656C2073686565747335
:1055F0002E00B200506C6561736520636C65616E4E
:10560000206865617462656420616E6420746865F9
:105610006E20707265737320746865206B6E6F62A4
:105620002E003700446F20796F752077616E7420EB
:10563000746F20726570656174206C61737420737F
:1056400074657020746F20726561646A757374206C
:1056500064697374616E6365206265747765656EF5
:10566000206E6F7A7A6C6520616E64206865617463
:105670006265643F00FC0053656C656374206E6F67
:105680007A7A6C6520707265686561742074656DE6
:105690007065726174757265207768696368206DE2
:1056A00061746368657320796F7572206D617465CC
:1056B0007269616C2E00780049732066696C616DB7
:1056C000656E74206C6F616465643F007800497397
:1056D0002066696C616D656E74206C6F61646564D1
:1056E0003F00A7004E6F7720492077696C6C2070CF
:1056F000726568656174206E6F7A7A6C6520666F7A
:105700007220504C412E007500492077696C6C2046
:1057100072756E207A2063616C6962726174696F60
:105720006E206E6F772E00AA004E6F772072656D27
:105730006F76652074686520746573742070726973
:105740006E742066726F6D20737465656C2073686B
:105750006565742E00BF00506C65617365207265CD
:105760006D6F7665207368697070696E6720686513
:105770006C706572732066697273742E00740049D0
:105780002077696C6C2072756E2078797A2063615D
:105790006C6962726174696F6E206E6F772E20493A
:1057A000742077696C6C2074616B65206170707215
:1057B0006F782E203132206D696E732E00590046AD
:1057C000697273742C20492077696C6C2072756E35
:1057D000207468652073656C667465737420746FDB
:1057E00020636865636B206D6F737420636F6D6DEC
:1057F0006F6E20617373656D626C792070726F6279
:105800006C656D732E00650048692C204920616D20
:1058100020796F7572205A617269626F20707269A7
:105820006E7465722E20576F756C6420796F7520C9
:105830006C696B65206D6520746F206775696465A0
:1058400020796F75207468726F7567682074686559
:105850002073657475702070726F636573733F0099
:105860000E0053706F6F6C4A6F696E2020205B4E84
:105870002F415D000F0053706F6F6C4A6F696E208F
:1058800020205B6F66665D000D0053706F6F6C4A81
:105890006F696E202020205B6F6E5D004D014669B0
:1058A000726D776172652020205B6E6F6E655D00A2
:1058B0004E014669726D77617265205B737472691F
:1058C00063745D004F014669726D776172652020D7
:1058D000205B7761726E5D004D014669726D776184
:1058E00072652020205B6E6F6E655D005C014D6F00
:1058F00064656C2020202020205B6E6F6E655D004B
:105900005D014D6F64656C202020205B73747269AB
:1059100063745D005E014D6F64656C202020202063
:10592000205B7761726E5D005C014D6F64656C2079
:1059300020202020205B6E6F6E655D0062014E6F3F
:105940007A7A6C6520202020205B6E6F6E655D008A
:1059500063014E6F7A7A6C652020205B73747269E4
:1059600063745D0064014E6F7A7A6C65202020209C
:10597000205B7761726E5D0062014E6F7A7A6C65B2
:1059800020202020205B6E6F6E655D00500148571F
:105990002053657475700050014857205365747525
:1059A0007000B00050494E44412048656174696EF2
:1059B0006700160154656D702E2063616C2E2020E7
:1059C000202020202020202000250043616C6962D7
:1059D000726174696F6E20646F6E650023004361AD
:1059E0006C6962726174696E67205A0017004265C3
:1059F0006420646F6E65001800426564204865612C
:105A000074696E6700620048656174696E6720643E
:105A10006F6E652E00630048656174696E67006192
:105A20000048656174696E672064697361626C65C2
:105A300064206279207361666574792074696D658C
:105A4000722E002E0157616974696E6720666F724D
:105A5000206E6F7A7A6C6520616E642062656420C6
:105A6000636F6F6C696E6700F60053656C66207437
:105A7000657374204F4B00F70053656C66207465A6
:105A80007374207374617274202000570046696E2D
:105A9000697368696E67206D6F76656D656E747386
:105AA000000701536F756E642020202020205B6C5E
:105AB0006F75645D007401536F756E642020202043
:105AC0005B6173736973745D000C01536F756E6471
:105AD000202020205B73696C656E745D000B0153A0
:105AE0006F756E642020202020205B6F6E63655DE3
:105AF000000701536F756E642020202020205B6C0E
:105B00006F75645D0097004D6F6465205B6175740F
:105B10006F20706F7765725D0093004D6F64652034
:105B2000202020205B73696C656E745D0098004DC9
:105B30006F6465205B6869676820706F7765725D68
:105B4000004C0046616E7320636865636B20205BC8
:105B50006F66665D004B0046616E73206368656327
:105B60006B2020205B6F6E5D004D0046696C2E201F
:105B700073656E736F7220205B6F6E5D004F004621
:105B8000696C2E2073656E736F72205B6F66665D45
:105B90000067004368616E67652066696C616D65CA
:105BA0006E74005B00466C6F77000D015370656585
:105BB000640052014D61676E65747320636F6D7090
:105BC0002E5B4E2F415D0053014D61676E6574730E
:105BD00020636F6D702E5B4F66665D0054014D61F2
:105BE000676E65747320636F6D702E205B4F6E5D02
:105BF0000078015A2D70726F6265206E722E20201F
:105C000020205B335D0079015A2D70726F62652030
:105C10006E722E202020205B355D0077015A2D709A
:105C2000726F6265206E722E202020205B315D0035
:105C300056014D6573682020202020202020205B05
:105C40003778375D0055014D65736820202020208E
:105C5000202020205B3378335D00490046616E20B0
:105C60007370656564001B0042656400A8004E6F98
:105C70007A7A6C6500FE0053657474696E67730010
:105C8000A5004E6F74207370696E6E696E67000EAA
:105C9000015370696E6E696E67007D004C656674B5
:105CA00020686F74656E642066616E3F005D00461B
:105CB000726F6E74207072696E742066616E3F0040
:105CC0004A0046616E207465737400256420627911
:105CD000746573207772697474656E20746F2045E3
:105CE0004550524F4D206174206164647265737336
:105CF00020307825303478004433202D20526561DF
:105D0000642F577269746520454550524F4D0A0003
:105D100020436F756E7420583A20005344207072EF
