:100000000C94574E0C94884E0C94884E0C94884E49
:100010000C94884E0C94E5F40C94884E0C94884E05
:100020000C945AF80C94884E0C94884E0C94884E7C
:100030000C94884E0C94884E0D942A530D94D8231A
:100040000C94884E0D94E9260C94884E0C94884E9E
:100050000C94884E0C94884E0C94884E0C94FCDEC4
:100060000C94884E0D94AA1E0C94884E0C94884EC5
:100070000C94884E0C94884E0C94884E0C94884EA8
:100080000C94884E0C94884E0C94884E0C94884E98
:100090000D94661E0C94884E0C94884E0C94884ED9
:1000A0000C94884E0C94884E0C94884E0C94884E78
:1000B0000C94884E0C94884E0C94884E0C94884E68
:1000C0000C94884E0C94884E0C94884E0D94962275
:1000D0000C94884E0C94884E0C94884E0C94884E48
:1000E0000C94884E7D678367896794679F6724684F
:1000F000AA67B367BC67C767D267DD67ED67F86754
:10010000246803680E681968FAA003A1A6A075A068
:1001100045A0E8A334A153A2D9A22FA34BA382A345
:1001200018DF22DF30DF3DDF4FDF56DF92DF74DF85
:100130008ADF09E10BE109E10BE109E10BE10DE1E6
:100140000FE198F3ABF3BDF3CCF3D8F313F482F3E0
:1001500036F44AF446F482F34CF458F45EF476F440
:10016000DC01EA0158025602B401000232026601C3
:10017000A801F801F601A401580194010002280227
:100180007C01040248028A011C023002C2015001B3
:100190006801F0018001C60188014202C401C40166
:1001A0009601C4019601E0013E0214028E01B201E3
:1001B000CC010C02D80134024E0220029A016201E5
:1001C000BC01084AD73B3BCE016E84BCBFFDC12FAA
:1001D0003D6C74319ABD56833DDA3D00C77F11BE38
:1001E000D9E4BB4C3E916BAAAABE000000803F053B
:1001F000A84CCDB2D44EB93836A9020C50B991866C
:1002000088083CA6AAAA2ABE000000803F076342D5
:1002100036B79BD8A71A39685618AEBAAB558C1D9D
:100220003CB7CC5763BD6DEDFD753EF6177231BF1F
:10023000000000803F08000000BE922449123EAB3F
:10024000AAAA2ABECDCCCC4C3E00000080BEABAAF0
:10025000AAAA3E00000000BF000000803F0000008E
:100260000000084178D3BB4387D1133D190E3CC32E
:10027000BD4282AD2B3E68EC8276BED98FE1A93EAD
:100280004C80EFFFBE01C4FF7F3F00000000000074
:100290000D945A050D94C34A0D944C050D94D71630
:1002A0000D9471330D941A500D9434050D943C78CF
:1002B0000D9485040D94F9460D948D150D94D90F68
:1002C0000D9459490D94CF950D941E500D946D04C5
:1002D0000D9477330D948E5B0D94210B0D949A4EF3
:1002E0000D94237E0D94045A0D942F050D943D7C9E
:1002F0000D94796C0D943E050D9493040D94734602
:100300000D9497330D94294D0D94F01B0D942714E3
:100310000D94C2330D942F330D940D780D94809667
:100320000D94D5A30D94F2780D9489040D94CF7D8E
:100330000D9463500D94FD950D94360E0D945D163D
:100340000D94A25B0D94375E0D9481040D94BA4E0A
:100350000D9473040D9443050D94FDBF0D94BB19CA
:100360000D94AC040D9450960D945E040D942A05E2
:100370000D94CF770D943F5E0D949D950D94091CBF
:100380000D94A3040D946B330D94CC7D0D94A73381
:100390000D9463680D94D9770D9445960D94197B4F
:1003A0000D94EC160D9425050D94B24E0D94021F7C
:1003B0000D942F960D94BA140D9462040D94F64783
:1003C0000D94D27D0D94D07B0D9439050D94807CD5
:1003D0000D945C170D9465040D94AA4E0D949368CA
:1003E0000D9487330D941E140D941C7E0D947B0484
:1003F0000D9477040D9475C00D9460770D9416508C
:100400000D949C040D94924E0D9497040D94DFA2CC
:100410000D94157E0D94EF590D943A960D94B6A354
:100420000D94A7040D94204D0D94FF920D94E25964
:100430000D9465680D94E07A0D9435330D94344A2B
:100440000D9495960D946F7B0D9402480D942A5946
:100450000D948F040D9448A30D94A24E0D94D64E86
:100460000D944B330D9469040D9424960D946C16E1
:100470000D9415470D94F5170D94C24E0D94D57D2E
:100480000D946E130D94D2330D9475590D94324D15
:100490000D941F330D940F5A0D94F5150D94A596D8
:1004A0000D94C5770D949D040D94884E0D945804B9
:1004B0000D9454040D94174D0D9448055F53454316
:1004C0005F4C414E470000000000000000000000AB
:1004D000000000000000000000000000000000001C
:1004E000000000000000000000000000000000000C
:1004F00000000000000000000000000000000000FC
:1005000000000000000000000000000000000000EB
:1034B000000000000000000000000000FFFF472D9A
:1034C000636F646520736C6963656420666F722046
:1034D0006120646966666572656E74206C657665E8
:1034E0006C2E20436F6E74696E75653F00FFFF4759
:1034F0002D636F646520736C6963656420666F7209
:10350000206120646966666572656E74206C6576FC
:10351000656C2E20506C656173652072652D736C2F
:1035200069636520746865206D6F64656C206167F0
:1035300061696E2E205072696E742063616E6365DE
:103540006C6C65642E00FFFF472D636F646520730C
:103550006C6963656420666F722061206E657765B3
:1035600072206669726D776172652E20506C65619C
:103570007365207570646174652074686520666980
:10358000726D776172652E205072696E742063616E
:103590006E63656C6C65642E00FFFF472D636F647E
:1035A0006520736C6963656420666F722061206EAC
:1035B00065776572206669726D776172652E20434A
:1035C0006F6E74696E75653F00FFFF472D636F6412
:1035D0006520736C6963656420666F722061206486
:1035E0006966666572656E74207072696E74657264
:1035F00020747970652E20506C656173652072654A
:103600002D736C69636520746865206D6F64656CEB
:1036100020616761696E2E205072696E742063614B
:103620006E63656C6C65642E00FFFF472D636F64ED
:103630006520736C6963656420666F722061206425
:103640006966666572656E74207072696E74657203
:1036500020747970652E20436F6E74696E75653FB6
:1036600000FFFF472D636F646520736C69636564B9
:1036700020666F72206120646966666572656E748B
:10368000207072696E74657220747970652E2043A3
:103690006F6E74696E75653F00FFFF472D636F6441
:1036A0006520736C6963656420666F7220612064B5
:1036B0006966666572656E74207072696E74657293
:1036C00020747970652E20506C6561736520726579
:1036D0002D736C69636520746865206D6F64656C1B
:1036E00020616761696E2E205072696E742063617B
:1036F0006E63656C6C65642E00FFFF5072657373BA
:10370000206B6E6F6220746F2070726568656174E3
:10371000206E6F7A7A6C6520616E6420636F6E74C0
:10372000696E75652E00FFFF506C656173652070D2
:103730007265737320746865206B6E6F6220746F9E
:1037400020756E6C6F61642066696C616D656E7466
:1037500000FFFF52656D6F7665206F6C64206669AF
:103760006C616D656E7420616E6420707265737338
:1037700020746865206B6E6F6220746F20737461B3
:103780007274206C6F6164696E67206E6577206665
:10379000696C616D656E742E00FFFF616E64207050
:1037A0007265737320746865206B6E6F6200FFFF33
:1037B000496E736572742066696C616D656E740024
:1037C000FFFF436F6C6F72206E6F7420636F7272B5
:1037D00065637400FFFF46696C616D656E74206EF1
:1037E0006F74206C6F6164656400FFFF4368616EF5
:1037F00067656420636F72726563746C793F00FF64
:10380000FF4C6F6164696E6720636F6C6F7200FFBD
:10381000FF4368616E676520737563636573732129
:1038200000FFFF506C65617365206F70656E2069E5
:10383000646C657220616E642072656D6F766520C0
:1038400066696C616D656E74206D616E75616C6C1E
:10385000792E00FFFF5761732066696C616D656E9C
:103860007420756E6C6F6164207375636365737328
:1038700066756C3F00FFFF506C6561736520757065
:1038800067726164652E00FFFF4E6577206669727E
:103890006D776172652076657273696F6E206176EF
:1038A00061696C61626C653A00FFFF576169746918
:1038B0006E6720666F722050494E44412070726FCF
:1038C000626520636F6F6C696E6700FFFF43726112
:1038D00073682064657465637465642E2052657333
:1038E000756D65207072696E743F00FFFF437261F1
:1038F00073682064657465637465642E00FFFF431C
:10390000686F6F73652065787472756465723A00CC
:10391000FFFF457874727564657200FFFF43686F3E
:103920006F73652066696C616D656E743A00FFFFA8
:103930004E6F206D6F76652E00FFFF576169742012
:10394000666F7220757365722E2E2E00FFFF536F07
:103950006D652070726F626C656D20656E636F754A
:103960006E74657265642C205A2D6C6576656C6981
:103970006E6720656E666F72636564202E2E2E0062
:10398000FFFF537461626C6520616D6269656E74DE
:103990002074656D70657261747572652032312DA9
:1039A000323643206973206E65656465642061204A
:1039B0007269676964207374616E64206973207230
:1039C000657175697265642E00FFFF506C656173E7
:1039D000652072756E2058595A2063616C69627255
:1039E0006174696F6E2066697273742E00FFFF4DFB
:1039F0004B3353206669726D77617265206465741C
:103A00006563746564206F6E204D4B33207072695E
:103A10006E74657200FFFF5A617269626F204D4BD0
:103A200033532D424D4D2D32323000FFFF426C6139
:103A3000636B6F7574206F636375727265642E209B
:103A40005265636F766572207072696E743F00FF15
:103A5000FF53656C66746573742077696C6C2062C3
:103A6000652072756E20746F2063616C696272618B
:103A700074652061636375726174652073656E732C
:103A80006F726C657373207265686F6D696E672EF7
:103A900000FFFF5468657265206973207374696C58
:103AA0006C2061206E65656420746F206D616B65AC
:103AB000205A2063616C6962726174696F6E2E2096
:103AC000506C6561736520666F6C6C6F77207468ED
:103AD00065206D616E75616C2C2063686170746522
:103AE000722046697273742073746570732C20732E
:103AF000656374696F6E2043616C69627261746999
:103B00006F6E20666C6F772E00FFFF5072696E74C7
:103B1000657220686173206E6F74206265656E2027
:103B200063616C69627261746564207965742E20CA
:103B3000506C6561736520666F6C6C6F772074687C
:103B400065206D616E75616C2C20636861707465B1
:103B5000722046697273742073746570732C2073BD
:103B6000656374696F6E2043616C69627261746928
:103B70006F6E20666C6F772E00FFFF4F6C642073B2
:103B8000657474696E677320666F756E642E204469
:103B9000656661756C74205049442C2045737465CA
:103BA0007073206574632E2077696C6C20626520C9
:103BB0007365742E00FFFF5761726E696E673A205D
:103BC000626F7468207072696E74657220747970A7
:103BD0006520616E64206D6F74686572626F6172DA
:103BE000642074797065206368616E6765642E0077
:103BF000FFFF5761726E696E673A207072696E746A
:103C000065722074797065206368616E6765642EE3
:103C100000FFFF5761726E696E673A206D6F7468BE
:103C20006572626F61726420747970652063686187
:103C30006E6765642E00FFFF53544F505045442E6D
:103C40002000FFFF426564206C6576656C696E67D5
:103C5000206661696C65642E2053656E736F7220F7
:103C60006469646E7420747269676765722E20449B
:103C70006562726973206F6E206E6F7A7A6C653F31
:103C80002057616974696E6720666F722072657370
:103C900065742E00FFFF506C65617365207570645C
:103CA000617465206669726D7761726520696E2046
:103CB000796F7572204D4D55322E205761697469A8
:103CC0006E6720666F722072657365742E00FFFF49
:103CD0004D4D55204F4B2E20526573756D696E67A3
:103CE0002E2E2E00FFFF4D4D55204F4B2E2052659E
:103CF00073756D696E6720706F736974696F6E2E6E
:103D00002E2E00FFFF4D4D55204F4B2E2052657338
:103D1000756D696E672074656D706572617475721A
:103D2000652E2E2E00FFFF46697820746865206995
:103D30007373756520616E64207468656E2070729F
:103D400065737320627574746F6E206F6E204D4DB5
:103D50005520756E69742E00FFFF507265737320D5
:103D6000746865206B6E6F6220746F207265737566
:103D70006D65206E6F7A7A6C652074656D70657202
:103D800061747572652E00FFFF4D4D55206E65659F
:103D90006473207573657220617474656E74696FE5
:103DA0006E2E00FFFF506C656173652072656D6F4C
:103DB00076652066696C616D656E7420616E642045
:103DC0007468656E20707265737320746865206B0B
:103DD0006E6F622E00FFFF456A656374696E67202F
:103DE00066696C616D656E7400FFFF4D4D55206C0A
:103DF0006F6164206661696C65642020202020006A
:103E0000FFFF58595A2063616C6962726174696F6F
:103E10006E20616C6C2072696768742E20536B652C
:103E2000772077696C6C20626520636F72726563BE
:103E3000746564206175746F6D61746963616C6C25
:103E4000792E00FFFF58595A2063616C69627261D4
:103E500074696F6E20616C6C2072696768742E20C3
:103E6000582F5920617865732061726520736C69E1
:103E70006768746C7920736B657765642E20476F73
:103E80006F64206A6F622100FFFF58595A206361F6
:103E90006C6962726174696F6E206F6B2E20582F8F
:103EA0005920617865732061726520706572706554
:103EB0006E646963756C61722E20436F6E67726108
:103EC00074756C6174696F6E732100FFFF58595AE5
:103ED0002063616C6962726174696F6E20636F6DDB
:103EE00070726F6D697365642E2052696768742003
:103EF00066726F6E742063616C6962726174696F5F
:103F00006E20706F696E74206E6F742072656163CD
:103F10006861626C652E00FFFF58595A2063616C1E
:103F20006962726174696F6E20636F6D70726F6D1C
:103F3000697365642E2046726F6E742063616C69CC
:103F400062726174696F6E20706F696E7473206E37
:103F50006F7420726561636861626C652E00FFFF9B
:103F600058595A2063616C6962726174696F6E207E
:103F70006661696C65642E20526967687420667298
:103F80006F6E742063616C6962726174696F6E2018
:103F9000706F696E74206E6F742072656163686102
:103FA000626C652E00FFFF58595A2063616C69628C
:103FB000726174696F6E206661696C65642E20465B
:103FC000726F6E742063616C6962726174696F6E86
:103FD00020706F696E7473206E6F742072656163F8
:103FE0006861626C652E00FFFF58595A2063616C4E
:103FF0006962726174696F6E206661696C65642EB6
:1040000020506C6561736520636F6E73756C7420EE
:10401000746865206D616E75616C2E00FFFF5859E4
:104020005A2063616C6962726174696F6E206661A7
:10403000696C65642E204265642063616C696272FC
:104040006174696F6E20706F696E74207761732080
:104050006E6F7420666F756E642E00FFFF506C6586
:1040600061736520706C61636520737465656C2095
:104070007368656574206F6E20686561746265643D
:104080002E00FFFF44697374616E6365206265747E
:104090007765656E20746970206F6620746865208E
:1040A0006E6F7A7A6C6520616E6420746865206238
:1040B0006564207375726661636520686173206E44
:1040C0006F74206265656E20736574207965742E47
:1040D00020506C6561736520666F6C6C6F7720741F
:1040E0006865206D616E75616C2C20636861707409
:1040F00065722046697273742073746570732C2026
:1041000073656374696F6E204669727374206C61A5
:104110007965722063616C6962726174696F6E2E79
:1041200000FFFF506C6163652061207368656574F2
:10413000206F6620706170657220756E64657220F4
:10414000746865206E6F7A7A6C6520647572696E2A
:1041500067207468652063616C6962726174696F5D
:104160006E206F66206669727374203420706F69E8
:104170006E74732E20496620746865206E6F7A7A9B
:104180006C65206361746368657320746865207072
:10419000617065722C20706F776572206F66662083
:1041A000746865207072696E74657220696D6D65E2
:1041B00064696174656C792E00FFFF506C656173F2
:1041C000652072656D6F766520737465656C20730C
:1041D000686565742066726F6D20686561746265DC
:1041E000642E00FFFF497320737465656C2073684B
:1041F000656574206F6E20686561746265643F0058
:10420000FFFF206F66203400FFFF53656172636813
:10421000696E67206265642063616C6962726174B3
:10422000696F6E20706F696E7400FFFF206F6620EB
:104230003900FFFF4D6561737572696E67207265A5
:10424000666572656E636520686569676874206F6E
:10425000662063616C6962726174696F6E20706F51
:10426000696E7400FFFF506C6561736520636C6557
:10427000616E20746865206E6F7A7A6C6520666F57
:10428000722063616C6962726174696F6E2E204383
:104290006C69636B207768656E20646F6E652E00B5
:1042A000FFFF4175746F20686F6D6500FFFF205B35
:1042B0006F66665D00FFFF50494E444120486561CE
:1042C00074696E6700FFFF54656D702E2063616C2A
:1042D0002E2020202020202020202000FFFF4361CE
:1042E0006C6962726174696F6E20646F6E6500FF45
:1042F000FF43616C6962726174696E67205A00FFE6
:10430000FF42656420646F6E6500FFFF42656420B4
:1043100048656174696E6700FFFF48656174696E86
:104320006720646F6E652E00FFFF48656174696EDB
:104330006700FFFF4372617368206465746563748E
:10434000696F6E2063616E0A6265207475726E65B6
:1043500064206F6E206F6E6C7920696E0A4E6F72EA
:104360006D616C206D6F646500FFFF5741524E49CF
:104370004E473A0A437261736820646574656374DA
:10438000696F6E0A64697361626C656420696E0AA4
:10439000537465616C7468206D6F646500FFFF4144
:1043A00075746F6C6F6164696E672066696C616DAE
:1043B000656E7420617661696C61626C65206F6EF8
:1043C0006C79207768656E2066696C616D656E74C6
:1043D0002073656E736F72206973207475726E65D9
:1043E00064206F6E2E2E2E00FFFF4552524F523A20
:1043F0002046696C616D656E742073656E736F72B3
:10440000206973206E6F7420726573706F6E6469BB
:104410006E672C20706C6561736520636865636BE3
:1044200020636F6E6E656374696F6E2E00FFFF4DC3
:104430006F6465206368616E676520696E207072C5
:104440006F6772657373202E2E2E00FFFF436F700F
:10445000792073656C6563746564206C616E677543
:104460006167653F00FFFF43616C6962726174655B
:1044700000FFFF5B252E37735D4C69766520616414
:104480006A2E205A0A76616C7565207365742C203B
:10449000636F6E74696E75650A6F722073746172F2
:1044A000742066726F6D207A65726F3F0A256343D0
:1044B0006F6E74696E75652563526573657400FF70
:1044C000FF506C65617365206C6F61642066696C78
:1044D000616D656E742066697273742E00FFFF490A
:1044E000732066696C616D656E74206C6F616465C4
:1044F000643F00FFFF53656C6563742066696C61FF
:104500006D656E743A00FFFF46696C616D656E748F
:1045100000FFFF43616E63656C00FFFF52756E6EB6
:10452000696E672057697A6172642077696C6C20C4
:1045300064656C6574652063757272656E74206362
:10454000616C6962726174696F6E20726573756CFB
:10455000747320616E642073746172742066726F6C
:104560006D2074686520626567696E6E696E672E7E
:1045700020436F6E74696E75653F00FFFF50726572
:1045800068656174696E67206E6F7A7A6C652E203B
:10459000506C6561736520776169742E00FFFF4C74
:1045A0006F6164696E672066696C616D656E740029
:1045B000FFFF506C6561736520696E7365727420CE
:1045C00066696C616D656E7420696E746F207468C5
:1045D000652065787472756465722C207468656EE8
:1045E00020707265737320746865206B6E6F622033
:1045F000746F206C6F61642069742E00FFFF506C33
:104600006561736520696E736572742066696C619B
:104610006D656E7420696E746F20746865206669BC
:104620007273742074756265206F662074686520EB
:104630004D4D552C207468656E2070726573732023
:10464000746865206B6E6F6220746F206C6F61649C
:104650002069742E00FFFF546865207072696E74C3
:1046600065722077696C6C2073746172742070724B
:10467000696E74696E672061207A69672D7A616757
:10468000206C696E652E20526F74617465207468A9
:1046900065206B6E6F6220756E74696C20796F7522
:1046A00020726561636820746865206F7074696D3D
:1046B000616C206865696768742E20436865636B68
:1046C0002074686520706963747572657320696E03
:1046D000207468652068616E64626F6F6B20284388
:1046E000616C6962726174696F6E20636861707475
:1046F0006572292E00FFFF53656C65637420746535
:104700006D70657261747572652077686963682081
:104710006D61746368657320796F7572206D617463
:10472000657269616C2E00FFFF43686F6F736520CF
:10473000612066696C616D656E7420666F722074AD
:104740006865204669727374204C617965722043F4
:10475000616C6962726174696F6E20616E6420734E
:10476000656C65637420697420696E2074686520C7
:104770006F6E2D73637265656E206D656E752E00AC
:10478000FFFF4E6F7720492077696C6C2063616C66
:104790006962726174652064697374616E63652017
:1047A0006265747765656E20746970206F66207429
:1047B0006865206E6F7A7A6C6520616E642068652A
:1047C000617462656420737572666163652E00FFB3
:1047D000FF596F752063616E20616C77617973207A
:1047E000726573756D65207468652057697A6172AA
:1047F000642066726F6D2043616C696272617469D6
:104800006F6E202D3E2057697A6172642E00FFFF83
:10481000506C6561736520636865636B206F7572AA
:104820002068616E64626F6F6B20616E64206669E0
:1048300078207468652070726F626C656D2E2054EC
:1048400068656E20726573756D65207468652057A4
:10485000697A617264206279207265626F6F74692F
:104860006E6720746865207072696E7465722E00C0
:10487000FFFF416C6C20697320646F6E652E2048C9
:1048800061707079207072696E74696E672100FFC3
:10489000FF496620796F75206861766520616464E0
:1048A0006974696F6E616C20737465656C207368E0
:1048B000656574732C2063616C6962726174652034
:1048C0007468656972207072657365747320696EAF
:1048D0002053657474696E6773202D2048572053E8
:1048E00065747570202D20537465656C2073686540
:1048F0006574732E00FFFF506C6561736520636CF7
:1049000065616E206865617462656420616E642013
:104910007468656E20707265737320746865206BAF
:104920006E6F622E00FFFF446F20796F75207761F4
:104930006E7420746F20726570656174206C617391
:1049400074207374657020746F20726561646A7579
:1049500073742064697374616E6365206265747733
:1049600065656E206E6F7A7A6C6520616E64206872
:104970006561746265643F00FFFF53656C65637435
:10498000206E6F7A7A6C652070726568656174203C
:1049900074656D706572617475726520776869639E
:1049A00068206D61746368657320796F7572206D1E
:1049B0006174657269616C2E00FFFF49732066693E
:1049C0006C616D656E74206C6F616465643F00FF9F
:1049D000FF49732066696C616D656E74206C6F6150
:1049E0006465643F00FFFF4E6F7720492077696C54
:1049F0006C2070726568656174206E6F7A7A6C6580
:104A000020666F7220504C412E00FFFF49207769CD
:104A10006C6C2072756E207A2063616C69627261C1
:104A200074696F6E206E6F772E00FFFF4E6F7720D8
:104A300072656D6F76652074686520746573742087
:104A40007072696E742066726F6D20737465656C28
:104A50002073686565742E00FFFF506C6561736597
:104A60002072656D6F7665207368697070696E6716
:104A70002068656C706572732066697273742E00AD
:104A8000FFFF492077696C6C2072756E2078797A07
:104A90002063616C6962726174696F6E206E6F77FA
:104AA0002E2049742077696C6C2074616B652061DD
:104AB0007070726F782E203132206D696E732E0007
:104AC000FFFF46697273742C20492077696C6C2053
:104AD00072756E207468652073656C667465737496
:104AE00020746F20636865636B206D6F737420633F
:104AF0006F6D6D6F6E20617373656D626C79207080
:104B0000726F626C656D732E00FFFF48692C20493F
:104B100020616D20796F7572205A617269626F2011
:104B20007072696E7465722E20576F756C6420798F
:104B30006F75206C696B65206D6520746F206775DB
:104B400069646520796F75207468726F7567682075
:104B50007468652073657475702070726F63657317
:104B6000733F00FFFF452D636F72726563743A00F7
:104B7000FFFF5A2D636F72726563743A00FFFF592D
:104B80002D636F72726563743A00FFFF582D636F77
:104B900072726563743A00FFFF53706F6F6C4A6FF7
:104BA000696E2020205B4E2F415D00FFFF53706F28
:104BB0006F6C4A6F696E2020205B6F66665D00FF38
:104BC000FF53706F6F6C4A6F696E202020205B6FFF
:104BD0006E5D00FFFF4669726D776172652020206F
:104BE0005B6E6F6E655D00FFFF4669726D77617287
:104BF00065205B7374726963745D00FFFF466972C0
:104C00006D776172652020205B7761726E5D00FFB9
:104C1000FF4669726D776172652020205B6E6F6E52
:104C2000655D00FFFF4D6F64656C20202020202013
:104C30005B6E6F6E655D00FFFF4D6F64656C2020DD
:104C400020205B7374726963745D00FFFF4D6F64B5
:104C5000656C2020202020205B7761726E5D00FF54
:104C6000FF4D6F64656C2020202020205B6E6F6EEE
:104C7000655D00FFFF4E6F7A7A6C65202020202052
:104C80005B6E6F6E655D00FFFF4E6F7A7A6C65201C
:104C900020205B7374726963745D00FFFF4E6F7A4E
:104CA0007A6C6520202020205B7761726E5D00FFAA
:104CB000FF4E6F7A7A6C6520202020205B6E6F6E2D
:104CC000655D00FFFF485720536574757000FFFF56
:104CD00048656174696E672064697361626C6564BC
:104CE000206279207361666574792074696D6572DC
:104CF0002E00FFFF46696C616D656E742073656EF2
:104D0000736F7200FFFF5072696E742066616E3AB5
:104D100000FFFF45787472756465722066616E3AB3
:104D200000FFFF43616C6962726174696E6720689D
:104D30006F6D6500FFFF53656C6674657374206664
:104D400061696C6564202000FFFF416C6C20636F1B
:104D5000727265637420202020202000FFFF4368CA
:104D600065636B696E672073656E736F7273200085
:104D7000FFFF436865636B696E6720686F74656EDB
:104D800064202000FFFF436865636B696E672062E3
:104D90006564202020202000FFFF436865636B6965
:104DA0006E67205A2061786973202000FFFF4368F6
:104DB00065636B696E6720592061786973202000F4
:104DC000FFFF436865636B696E67205820617869EF
:104DD00073202000FFFF436865636B696E67206581
:104DE0006E6473746F707300FFFF4572726F722090
:104DF0002D20737461746963206D656D6F72792005
:104E0000686173206265656E206F7665727772697E
:104E10007474656E00FFFF436172642072656D6F8C
:104E200076656400FFFF5072696E746572206E6F64
:104E30007A7A6C65206469616D6574657220646955
:104E400066666572732066726F6D207468652047B0
:104E50002D636F64652E20506C65617365206368F7
:104E600065636B207468652076616C756520696E7A
:104E70002073657474696E67732E205072696E7446
:104E80002063616E63656C6C65642E00FFFF507279
:104E9000696E746572206E6F7A7A6C6520646961E0
:104EA0006D657465722064696666657273206672EA
:104EB0006F6D2074686520472D636F64652E2043F5
:104EC0006F6E74696E75653F00FFFF54656D7065A8
:104ED0007261747572652063616C69627261746974
:104EE0006F6E206661696C656400FFFF54656D70CC
:104EF000657261747572652063616C696272617458
:104F0000696F6E2069732066696E697368656420D5
:104F1000616E64206163746976652E2054656D70DE
:104F20002E2063616C6962726174696F6E206361C7
:104F30006E2062652064697361626C656420696ECD
:104F4000206D656E752053657474696E67732D3EB0
:104F500054656D702E2063616C2E00FFFF4E2F4153
:104F600000FFFF20203000FFFF20203100FFFF491D
:104F7000523A00FFFF46494E44413A00FFFF504974
:104F80004E44413A00FFFF53656E736F7220737495
:104F900061746500FFFF457874727564657200FF87
:104FA000FF4D6F7665205A00FFFF4D6F76652059E3
:104FB00000FFFF4D6F7665205800FFFF48572053D4
:104FC0006574757000FFFF436865636B7300FFFFD6
:104FD0004E6F7A7A6C6520642E20205B302E343040
:104FE0005D00FFFF4E6F7A7A6C6520642E20205B97
:104FF000302E36305D00FFFF4E6F7A7A6C6520648C
:105000002E20205B302E34305D00FFFF4E6F7A7A09
:105010006C6520642E20205B302E32355D00FFFF52
:10502000537465656C2073686565747300FFFF5386
:105030006F756E642020202020205B6C6F75645D8E
:1050400000FFFF536F756E64202020205B61737337
:105050006973745D00FFFF536F756E64202020201C
:105060005B73696C656E745D00FFFF536F756E64F2
:105070002020202020205B6F6E63655D00FFFF53C2
:105080006F756E642020202020205B6C6F75645D3E
:1050900000FFFF536F7274202020202020205B6EC1
:1050A0006F6E655D00FFFF536F72742020205B619F
:1050B0006C7068616265745D00FFFF536F727420ED
:1050C0002020202020205B74696D655D00FFFF5368
:1050D00044206361726420205B6E6F726D616C5D51
:1050E00000FFFF53442063617264205B666C736849
:1050F0004169725D00FFFF53656C656374206C61EC
:105100006E677561676500FFFF52506920706F72AE
:105110007420202020205B6F6E5D00FFFF525069DD
:1051200020706F7274202020205B6F66665D00FF28
:10513000FF54656D702E2063616C2E2020205B6F04
:105140006E5D00FFFF54656D702E2063616C2E2034
:10515000205B6F66665D00FFFF4C696E2E20636FFB
:105160007272656374696F6E00FFFF4D657368202E
:10517000626564206C6576656C696E6700FFFF4D43
:105180004D55204D6F64655B537465616C74685D4B
:1051900000FFFF4D4D55204D6F6465205B4E6F72D3
:1051A0006D616C5D00FFFF4857205365747570009A
:1051B000FFFF46616E7320636865636B20205B6F41
:1051C00066665D00FFFF46616E7320636865636B12
:1051D0002020205B6F6E5D00FFFF462E20617574FE
:1051E0006F6C6F6164205B6F66665D00FFFF462E2B
:1051F000206175746F6C6F616420205B6F6E5D0061
:10520000FFFF462E206175746F6C6F6164205B4EEA
:105210002F415D00FFFF44697361626C6520737408
:1052200065707065727300FFFF4D6F766520617861
:10523000697300FFFF54656D706572617475726506
:1052400000FFFF54656D702E2063616C69627261AE
:1052500074696F6E00FFFF52657365742058595A68
:105260002063616C6962722E00FFFF504944206325
:10527000616C6962726174696F6E00FFFF42656400
:10528000206C6576656C20636F727265637400FFD5
:10529000FF4D65736820426564204C6576656C69D6
:1052A0006E6700FFFF43616C696272617465205A2A
:1052B00000FFFF43616C6962726174652058595A3E
:1052C00000FFFF53656C66746573742020202020F6
:1052D0002020202000FFFF57697A61726400FFFFE1
:1052E0004C6F616420616C6C00FFFF456A656374FC
:1052F0002066696C616D656E7400FFFF506C6561BE
:1053000073652070756C6C206F75742066696C61B4
:105310006D656E7420696D6D6564696174656C7925
:1053200000FFFF556E6C6F6164696E672066696C83
:10533000616D656E7400FFFF526573756D696E6710
:10534000207072696E7400FFFF57616974696E673F
:1053500020666F72206E6F7A7A6C6520616E6420B1
:1053600062656420636F6F6C696E6700FFFF536551
:105370006C662074657374204F4B00FFFF53656C9F
:10538000662074657374207374617274202000FF4A
:10539000FF46616C73652074726967676572696E38
:1053A0006700FFFF5377617070656400FFFF46720E
:1053B0006F6E742F6C6566742066616E7300FFFFFC
:1053C0004178697300FFFF41786973206C656E67EF
:1053D000746800FFFF4C6F6F73652070756C6C65AF
:1053E0007900FFFF456E6473746F70206E6F7420D8
:1053F00068697400FFFF456E6473746F7000FFFF8F
:105400004D6F746F7200FFFF456E6473746F70733D
:1054100000FFFF576972696E67206572726F7200D4
:10542000FFFF426564202F2048656174657200FFAC
:10543000FF4E6F7420636F6E6E656374656400FF6A
:10544000FF4865617465722F546865726D69737485
:105450006F7200FFFF506C65617365206368656360
:105460006B203A00FFFF53656C66746573742065AA
:1054700072726F72202100FFFF5265636F76657252
:10548000696E67207072696E742020202000FFFF13
:10549000436F6F6C646F776E00FFFF5072656865D5
:1054A000617420746865206E6F7A7A6C652100FFE4
:1054B000FF4552524F523A00FFFF46696C616D65DD
:1054C0006E7420657874727564696E672026207723
:1054D00069746820636F727265637420636F6C6FA8
:1054E000723F00FFFF4175746F6C6F6164696E6796
:1054F0002066696C616D656E7420697320616374E8
:105500006976652C206A75737420707265737320D8
:10551000746865206B6E6F6220616E6420696E73C3
:105520006572742066696C616D656E742E2E2E0036
:10553000FFFF546F74616C2066696C616D656E74F9
:1055400000FFFF546F74616C207072696E74207478
:10555000696D6500FFFF46696C616D656E7420754D
:1055600073656400FFFF5072696E742074696D6525
:1055700000FFFF592064697374616E636520667271
:105580006F6D206D696E00FFFF4C65667400FFFF54
:10559000526967687400FFFF4D65617375726564D9
:1055A00020736B657700FFFF536C69676874207325
:1055B0006B65773A00FFFF53657665726520736B04
:1055C00065773A00FFFF5B303B305D20706F696E9E
:1055D00074206F666673657400FFFF41646A7573BB
:1055E00074696E67205A3A00FFFF52657365740054
:1055F000FFFF526561722073696465205B756D5DA4
:1056000000FFFF46726F6E7420736964655B756D91
:105610005D00FFFF526967687420736964655B759C
:105620006D5D00FFFF4C6566742073696465205BE7
:10563000756D5D00FFFF5365742074656D70657254
:1056400061747572653A00FFFF526573657400FFFF
:10565000FF52656E616D6500FFFF466972737420CD
:105660006C617965722063616C2E00FFFF53656C7D
:1056700065637400FFFF537465656C20736865652E
:10568000747300FFFF536865657400FFFF53757006
:10569000706F727400FFFF4661696C2073746174EF
:1056A00073204D4D5500FFFF4661696C2073746196
:1056B000747300FFFF5374617469737469637320BA
:1056C0002000FFFF43616C6962726174696F6E0054
:1056D000FFFF4175746F4C6F61642066696C616D8A
:1056E000656E7400FFFF456A6563742066696C61CE
:1056F0006D656E7400FFFF556E6C6F6164206669A6
:105700006C616D656E7400FFFF4C6F616420746F97
:10571000206E6F7A7A6C6500FFFF4C6F61642066C3
:10572000696C616D656E7400FFFF4E6F20534420FD
:105730006361726400FFFF526573756D652070725E
:10574000696E7400FFFF5061757365207072696E39
:105750007400FFFF526573756D65207072696E7419
:1057600000FFFF5072656865617400FFFF54756E3D
:105770006500FFFF4C6976652061646A757374206B
:105780005A00FFFF496E666F2073637265656E0095
:10579000FFFF46696E697368696E67206D6F766595
:1057A0006D656E747300FFFF536F756E642020206B
:1057B0002020205B6C6F75645D00FFFF536F756E7A
:1057C00064202020205B6173736973745D00FFFFA8
:1057D000536F756E64202020205B73696C656E7456
:1057E0005D00FFFF536F756E642020202020205B3A
:1057F0006F6E63655D00FFFF536F756E6420202040
:105800002020205B6C6F75645D00FFFF4D4D5520BF
:105810004D6F64655B537465616C74685D00FFFF78
:105820004D4D55204D6F6465205B4E6F726D616C00
:105830005D00FFFF4372617368206465742E202051
:105840005B4E2F415D00FFFF43726173682064650A
:10585000742E20205B6F66665D00FFFF43726173EC
:1058600068206465742E2020205B6F6E5D00FFFF52
:105870004D6F6465202020205B537465616C7468F3
:105880005D00FFFF4D6F646520202020205B4E6F80
:10589000726D616C5D00FFFF46616E732063686529
:1058A000636B20205B6F66665D00FFFF46616E7371
:1058B00020636865636B2020205B6F6E5D00FFFFD7
:1058C00046696C2E2073656E736F7220205B6F6E5D
:1058D0005D00FFFF46696C2E2073656E736F72204A
:1058E0005B6F66665D00FFFF4368616E67652066FB
:1058F000696C616D656E7400FFFF466C6F7700FF29
:10590000FF537065656400FFFF4D61676E657473DA
:1059100020636F6D702E5B4E2F415D00FFFF4D6168
:10592000676E65747320636F6D702E5B4F66665D86
:1059300000FFFF4D61676E65747320636F6D702E9D
:10594000205B4F6E5D00FFFF5A2D70726F62652005
:105950006E722E202020205B335D00FFFF5A2D70D9
:10596000726F6265206E722E202020205B355D00F4
:10597000FFFF5A2D70726F6265206E722E202020FC
:10598000205B315D00FFFF4D6573682020202020E3
:10599000202020205B3778375D00FFFF4D6573685E
:1059A0002020202020202020205B3378335D00FF42
:1059B000FF46616E20737065656400FFFF42656499
:1059C00000FFFF4E6F7A7A6C6500FFFF53657474B9
:1059D000696E677300FFFF5072696E742061626FB9
:1059E0007274656400FFFF53746F70207072696E8B
:1059F0007400FFFF46696C6520696E636F6D706CA3
:105A00006574652E20436F6E74696E756520616ED6
:105A1000797761793F00FFFF5072696E742066727A
:105A20006F6D20534400FFFF4261636B00FFFF4D29
:105A300061696E00FFFF4C617374207072696E744F
:105A4000206661696C7572657300FFFF4D4D5520CE
:105A50006661696C7300FFFF4D4D55206C6F61648A
:105A6000206661696C7300FFFF546F74616C20667F
:105A700061696C7572657300FFFF4D4D552066615D
:105A8000696C7300FFFF4D4D55206C6F616420669B
:105A900061696C7300FFFF4D4D5520706F77657223
:105AA000206661696C7300FFFF546F74616C20663F
:105AB00061696C7572657300FFFF506F77657220C6
:105AC0006661696C7572657300FFFF46696C616D94
:105AD0002E2072756E6F75747300FFFF43726173D1
:105AE0006800FFFF4C617374207072696E742066E9
:105AF00061696C7572657300FFFF506F7765722086
:105B00006661696C7572657300FFFF46696C616D53
:105B10002E2072756E6F75747300FFFF4372617390
:105B20006800FFFF546F74616C00FFFF4C61737479
:105B3000207072696E7400FFFF50494E444100FFAF
:105B4000FF416D6269656E7400FFFF42656C7420F1
:105B500073746174757300FFFF566F6C74616765D1
:105B60007300FFFF54656D706572617475726573C3
:105B700000FFFF42656C742073746174757300FFDD
:105B8000FF53656E736F7220696E666F00FFFF458D
:105B90007874727564657220696E666F00FFFF58D5
:105BA000595A2063616C2E2064657461696C7300BE
:105BB000FFFF756E6B6E6F776E00FFFF4D4D5532B8
:105BC00020636F6E6E656374656400FFFF446174EB
:105BD000653A00FFFF686F77746F2E70727573619E
:105BE00033642E636F6D00FFFF666F72756D2E70EC
:105BF0007275736133642E636F6D00FFFF5A6172BB
:105C000069626F2E636F6D00FFFF746F20756E6C9D
:105C10006F61642066696C616D656E7400FFFF746E
:105C20006F206C6F61642066696C616D656E7400D5
:105C3000FFFF507265737320746865206B6E6F622E
:105C400000FFFF3E43616E63656C00FFFF507265AD
:105C500068656174696E6720746F2063757400FFF6
:105C6000FF50726568656174696E6720746F2065A6
:105C70006A65637400FFFF50726568656174696EE0
:105C80006720746F20756E6C6F616400FFFF507247
:105C90006568656174696E6720746F206C6F6164FC
:105CA00000FFFF536F7274696E672066696C6573DD
:105CB00000FFFF536F6D652066696C65732077691F
:105CC0006C6C206E6F7420626520736F72746564F3
:105CD0002E204D61782E204E6F2E206F6620666933
:105CE0006C657320696E203120666F6C646572206C
:105CF000666F7220736F7274696E672069732031EA
:105D000030302E00FFFF4D313137204669727374F9
:105D1000206C617965722063616C2E00FFFF437512
:105D20007272656E7400FFFF55736564206475724E
:105D3000696E67207072696E7400FFFF50494420DD
:105D400063616C2E2066696E697368656400FFFF8D
:105D50005049442063616C2E2020202020202020E8
:105D600020202000FFFF506C65617365207761691A
:105D70007400FFFF5072696E742070617573656402
:105D800000FFFF59657300FFFF4E6F00FFFF4E6F6E
:105D900074207370696E6E696E6700FFFF537069DF
:105DA0006E6E696E6700FFFF4C65667420686F74E5
:105DB000656E642066616E3F00FFFF46726F6E7411
:105DC000207072696E742066616E3F00FFFF46614D
:105DD0006E207465737400FFFF5072696E74204604
:105DE000414E00FFFF4E6F7A7A6C652046414E00AF
:105DF000FFFF546F74616C00FFFF4C61737420707F
:105E000072696E74002564206279746573207772FC
:105E1000697474656E20746F20454550524F4D2053
:105E20006174206164647265737320307825303446
:105E300078004433202D20526561642F57726974B5
:105E40006520454550524F4D0A0020436F756E74D2
:105E500020583A20005344207072696E74696E674E
:105E6000206279746520004E6F7420696E2066612F
:105E7000726D206D6F64652E0041637469766520D4
:105E800045787472756465723A2000496E76616C6B
:105E90006964206578747275646572005A204F6673
:105EA0006673657400556E6B6E6F776E20636F6DF1
:105EB0006D616E643A2022004D32303020496E769A
:105EC000616C696420657874727564657220007A0B
:105ED0005F6D61783A20007A5F6D696E3A200079D3
:105EE0005F6D61783A2000795F6D696E3A200078C5
:105EF0005F6D61783A20006F70656E0054524947BB
:105F0000474552454400785F6D696E3A20005265FE
:105F1000706F7274696E6720656E6473746F702041
:105F2000737461747573000053494C454E54004EB0
:105F30004F524D414C002553204D4F44453A20507F
:105F4000657263656E7420646F6E653A2025643BEC
:105F5000207072696E742074696D652072656D6160
:105F6000696E696E6720696E206D696E733A2025CF
:105F7000640A00456E642066696C65206C69737400
:105F800000426567696E2066696C65206C69737490
:105F9000000A50494E44412074656D706572617409
:105FA0007572653A20252E3166205A20736869661D
:105FB0007420286D6D293A20252E3366000A53740B
:105FC00065703A2025642F360A000A537465703ACA
:105FD0002025642F362028736B6970706564290A48
:105FE00050494E44412074656D70657261747572DC
:105FF000653A202564205A20736869667420286DEC
:106000006D293A300A000A5A45524F3A20252E335C
:10601000660A0073746172742074656D70657261D4
:10602000747572653A20252E31660A002564202099
:10603000252E326600255320583A20252E3566201D
:10604000593A20252E3566205A3A20252E35660AE3
:1060500000536C6565702E2E2E004E6F7420696E95
:10606000206661726D206D6F64652E0025640045A9
:10607000303A25642052504D0A50524E303A256431
:106080002052504D0A0025640045787465726E6197
:106090006C2053504920666C6173680A573235583A
:1060A0003230434C206973206E6F74207265732DFB
:1060B0000A706F6E64696E672E204C616E67756141
:1060C00067650A73776974636820756E61766169C4
:1060D0006C61626C652E004372617368446574651F
:1060E00063742044495341424C45440043726173F8
:1060F0006844657465637420454E41424C454421B3
:1061000000573235583230434C206E6F7420726520
:1061100073706F6E64696E672E0A002020506C6188
:106120006E6E657242756666657242797465733A21
:1061300020002046726565204D656D6F72793A20AA
:1061400000207C20417574686F723A2000204C61F9
:10615000737420557064617465643A200020536F35
:1061600066747761726520526573657400205761AB
:10617000746368646F6720526573657400204272AF
:106180006F776E206F7574205265736574002045BB
:10619000787465726E616C20526573657400506F1F
:1061A0007765725570006572726F722077726974CC
:1061B000696E6720746F2066696C6500656E647334
:1061C000746F7073206869743A2000446F6E6520A4
:1061D000736176696E672066696C652E006F6B006F
:1061E000656E717565696E67202200446F6E65206B
:1061F0007072696E74696E672066696C65005072B2
:10620000696E7465722073746F7070656420647554
:106210006520746F206572726F72732E20466978E4
:1062200020746865206572726F7220616E642075DB
:106230007365204D39393920746F2072657374612C
:1062400072742E202854656D706572617475726564
:106250002069732072657365742E205365742069FC
:1062600074206166746572207265737461727469FA
:106270006E6729004E6F204C696E65204E756D6209
:106280006572207769746820636865636B73756DE8
:106290002C204C617374204C696E653A20004E6F5F
:1062A00020436865636B73756D2077697468206C33
:1062B000696E65206E756D6265722C204C61737419
:1062C000204C696E653A2000636865636B73756D79
:1062D000206D69736D617463682C204C6173742048
:1062E0004C696E653A20004C696E65204E756D6292
:1062F0006572206973206E6F74204C617374204C3A
:10630000696E65204E756D6265722B312C204C6173
:106310007374204C696E653A200025632533642F21
:10632000256425630020746F6F206C6F6E67206595
:106330007874727573696F6E2070726576656E74AD
:1063400065640020636F6C6420657874727573698E
:106350006F6E2070726576656E74656400544D438F
:1063600020445249564552204F56455254454D50AF
:106370000025632533642F25642563005A25362EB6
:10638000326620005A2020202D2D2D200025632547
:1063900033642525002D2D2D0025336868640025E4
:1063A0003353253373252500555342002020200008
:1063B000205344002025753E257500203F3E25755D
:1063C00000204625750020463F0020463020200052
:1063D00025632D2D3A2D2D2020002563253375684A
:1063E0002025632563002563253032753A25303238
:1063F00075256325630057697A61726420656E6450
:106400002073746174653A2025640A00004B494C7E
:106410004C45442E20005072696E7465722068618C
:106420006C7465642E206B696C6C28292063616C28
:106430006C656421004B494C4C3A2025640A004DA0
:1064400032323120496E76616C69642065787472ED
:106450007564657220004D32313820496E76616C6A
:10646000696420657874727564657220004D3130FE
:106470003920496E76616C69642065787472756440
:10648000657220004D31303520496E76616C69644B
:1064900020657874727564657220004D3130342047
:1064A000496E76616C696420657874727564657292
:1064B000200055564C4F202D20656E642025640A1F
:1064C000007374707325640A004572723A2050524A
:1064D000494E542046414E204552524F520045727B
:1064E000723A20455854522E2046414E2045525271
:1064F0004F52002F2F20616374696F6E3A7265737B
:10650000756D6564003F3F00506F6C736B69004EA2
:10651000656465726C616E6473004974616C696175
:106520006E6F004672616E636169730045737061DE
:106530006E6F6C00446575747363680043657374B3
:10654000696E6100456E676C6973680041786973B4
:10655000206C656E67746820646966666572656E36
:1065600063653A252E33660A004D65617375726561
:10657000642061786973206C656E6774683A252EB3
:1065800033660A00776F726C6420636F6F726469A0
:106590006E617465733A2028252E33662C20252ED3
:1065A00033662C20252E3366290A007068797369BA
:1065B00063616C20636F6F7264696E617465733AB6
:1065C0002028252E33662C20252E33662C20252EC0
:1065D0003366290A0043757272656E7420706F739A
:1065E000205A5F415849533A252E33660A43757243
:1065F00072656E7420706F7320455F415849533A3D
:10660000252E33660A0041667465722077616974CD
:10661000696E6720666F722074656D703A0A437503
:106620007272656E7420706F7320585F41584953C1
:106630003A252E33660A43757272656E7420706F48
:106640007320595F415849533A252E33660A002575
:10665000533A0A2531372E32666D20200A25533AE7
:106660000A25376C6464203A253268686468203AE9
:106670002530326868646D0025533A0A2531372E7B
:1066800032666D20200A25533A0A25326468202597
:106690003032646D2025303264730025362E326628
:1066A0006D6D004E2F410025533A0A25530A25539C
:1066B0003A0A25533A004E2F410025332E32660107
:1066C0000025533A0A25530A252D31352E313553ED
:1066D00025332E3266010A252D31352E31355325CD
:1066E000332E326601002F2F20616374696F6E3A7A
:1066F00063616E63656C0053442063617264206F54
:106700006B006F70656E526F6F74206661696C65A7
:106710006400766F6C756D652E696E6974206661B4
:10672000696C656400534420696E69742066616910
:106730006C0057726974696E6720746F2066696CAB
:10674000653A200046696C652073656C6563746505
:1067500064002053697A653A200046696C65206FB1
:1067600070656E65643A20006F70656E20666169C1
:106770006C65642C2046696C653A200043616E6E3E
:106780006F7420656E746572207375626469723A05
:1067900020002F2F20616374696F6E3A70617573EA
:1067A0006564002573202534642052504D0A2573FA
:1067B000202534642052504D0A00526573656E6482
:1067C0000025533A20256C640A25530A006E616E39
:1067D00000696E66004E414E494E495459494E4635
:1067E000CDCCCC3D0AD7233C17B7D13877CC2B3250
:1067F0009595E6241FB14F0A000020410000C842D1
:1068000000401C4620BCBE4CCA1B0E5AAEC59D742F
:1068100000407A10F35A00A0724E18090010A5D457
:10682000E80000E87648170000E40B54020000CAB4
:106830009A3B000000E1F5050000809698000000FA
:1068400040420F000000A086010000001027000059
:106850000000E803000000006400000000000A00DF
:10686000000000000100000000002C76D888DC67E2
:106870004F0823DFC1DFAE59E1B1B796E5E3E4533A
:10688000C63AE651997696E8E6C28426EB898C9B57
:1068900062ED407C6FFCEFBC9C9F40F2BAA56FA5F7
:1068A000F490055A2AF75C936B6CF9676DC11BFC79
:1068B000E0E40D47FEF520E6B500D0ED902E030094
:1068C000943577050080841E080000204E0A0000E1
:1068D00000C80C333333330F986E12831141EF8DA0
:1068E0002114893BE65516CFFEE6DB18D1844B38E0
:1068F0001BF77C1D901DA4BBE424203284725E2211
:106900008100C9F124ECA1E53D276364696E6F70D5
:10691000737578585B00442D31202D20456E646CD2
:10692000657373206C6F6F700A004175746F00207F
:10693000452F443D00416476616E6365204B3D0008
:106940004D3232302053256900255346696C616D04
:10695000656E742073657474696E67733A20446958
:106960007361626C65640A00255346696C616D65EC
:106970006E742073657474696E67733A0A255320C8
:1069800020204D3230302044252E32660A00255317
:10699000526574726163743A20533D4C656E67743E
:1069A0006820286D6D2920463A537065656420285B
:1069B0006D6D2F6D29205A3A205A4C696674202833
:1069C0006D6D290A25532020204D32303720532564
:1069D0002E32662046252E3266205A252E32660A31
:1069E00025535265636F7665723A20533D4578743E
:1069F0007261206C656E67746820286D6D29204671
:106A00003A537065656420286D6D2F6D290A2553F2
:106A10002020204D3230382053252E326620462546
:106A20002E32660A25534175746F2D52657472615A
:106A300063743A20533D3020746F2064697361623F
:106A40006C652C203120746F20696E7465727072D1
:106A5000657420657874727564652D6F6E6C79202D
:106A60006D6F7665732061732072657472616374F3
:106A700073206F72207265636F7665726965730A41
:106A800025532020204D323039205325640A00251B
:106A9000535049442068656174626564207365746D
:106AA00074696E67733A0A25532020204D333034C1
:106AB0002050252E32662049252E32662044252E70
:106AC00032660A0025535049442073657474696E18
:106AD00067733A0A25532020204D3330312050254A
:106AE0002E32662049252E32662044252E32660A33
:106AF00000255353746570732070657220756E693C
:106B0000743A0A255320204D39322058252E3266FA
:106B10002059252E3266205A252E32662045252EF4
:106B200032660A25535553746570207265736F6C15
:106B30007574696F6E3A200A2553204D3335302025
:106B400058256420592564205A2564204525640A67
:106B500025534D6178696D756D2066656564726158
:106B6000746573202D206E6F726D616C20286D6DC1
:106B70002F73293A0A255320204D323033205825CF
:106B80002E32662059252E3266205A252E32662056
:106B900045252E32660A25534D6178696D756D2045
:106BA000666565647261746573202D207374656118
:106BB0006C746820286D6D2F73293A0A25532020A4
:106BC0004D3230332058252E32662059252E32661C
:106BD000205A252E32662045252E32660A25534D31
:106BE0006178696D756D20616363656C6572617450
:106BF000696F6E202D206E6F726D616C20286D6D37
:106C00002F7332293A0A255320204D323031205833
:106C1000256C752059256C75205A256C75204525E5
:106C20006C750A25534D6178696D756D20616363DC
:106C3000656C65726174696F6E202D207374656177
:106C40006C746820286D6D2F7332293A0A25532001
:106C5000204D3230312058256C752059256C752017
:106C60005A256C752045256C750A2553416363656B
:106C70006C65726174696F6E3A20533D6163636540
:106C80006C65726174696F6E2C20543D726574720C
:106C900061637420616363656C65726174696F6EB2
:106CA0000A255320204D3230342053252E326620C1
:106CB00054252E32660A2553416476616E636564FD
:106CC000207661726961626C65733A20533D4D694B
:106CD0006E20666565647261746520286D6D2F7322
:106CE000292C20543D4D696E2074726176656C20AC
:106CF000666565647261746520286D6D2F73292C3B
:106D000020423D6D696E696D756D207365676D65B7
:106D10006E742074696D6520286D73292C20583D90
:106D20006D6178696D756D205859206A65726B20A8
:106D3000286D6D2F73292C20205A3D6D6178696D67
:106D4000756D205A206A65726B20286D6D2F73292E
:106D50002C2020453D6D6178696D756D2045206A58
:106D600065726B20286D6D2F73290A255320204DE5
:106D70003230352053252E32662054252E3266209F
:106D800042252E32662058252E32662059252E3275
:106D900066205A252E32662045252E32660A255356
:106DA000486F6D65206F666673657420286D6D2968
:106DB0003A0A255320204D3230362058252E32668F
:106DC0002059252E3266205A252E32660A00462585
:106DD000642025640A004D4D55203C3D2027462562
:106DE00064202564270A00504944204175746F745B
:106DF000756E652066696E697368656421205075DB
:106E00007420746865206C617374204B702C204B67
:106E10006920616E64204B6420636F6E7374616ED1
:106E200074732066726F6D2061626F766520696E83
:106E3000746F20436F6E66696775726174696F6EF7
:106E40002E6800504944204175746F74756E65203A
:106E50006661696C6564212074696D656F75740085
:106E600020403A00543A00423A00504944204175CB
:106E7000746F74756E65206661696C656421205459
:106E8000656D706572617475726520746F6F2068CE
:106E900069676800204B643A2000204B693A200063
:106EA000204B703A200020436C617373696320505B
:106EB000494420002054753A2000204B753A2000A8
:106EC000206D61783A2000206D696E3A20002064C0
:106ED0003A200020626961733A200020453A002080
:106EE0005A3A0020593A0020453A00205A3A0020E8
:106EF000593A00583A00005A30005A3100593000CF
:106F0000593100583000583100456E642073746F59
:106F100070732064696167002E0044656C65746954
:106F20006F6E206661696C65642C2046696C653AF9
:106F3000200046696C652064656C657465643A0080
:106F40000A002F000A004E6F7420534420707269AB
:106F50006E74696E67005072696E74207361766535
:106F600064005344207072696E742070617573659B
:106F700064006673656E736F725F726573746F72AF
:106F8000655F7072696E745F616E645F636F6E746B
:106F9000696E75650A004F4B004241440052414DF5
:106FA000426F2046414E200043524153485F4341C7
:106FB0004E43454C0043524153485F5245434F5660
:106FC00045520043524153485F5245434F56455244
:106FD00000222832290054004475706C6963617482
:106FE0006520542D636F64652069676E6F726564F8
:106FF0002E0A004475706C696361746520542D63BA
:107000006F64652069676E6F7265642E0A00496E51
:1070100076616C6964205420636F64652E00556E40
:107020006B6E6F776E204D20636F64653A20257319
:10703000200A006E6F2076616C696420636F6D6D4D
:10704000616E64002C20002C20002C20006E2F612B
:10705000002C20002C20002C20006E2F61002F001F
:10706000503A005761697420666F722050494E444F
:1070700041207461726765742074656D706572611A
:10708000747572653A004C414E472053454C20467A
:107090004F524345440022283129003030303030EF
:1070A0003030302D303030302D303030302D3030E9
:1070B00030302D3030303030303030303030300003
:1070C00020555549443A0031002045585452554402
:1070D00045525F434F554E543A005A617269626F90
:1070E000204D4B33532D424D4D2D32323000204D2B
:1070F000414348494E455F545950453A00312E307E
:1071000000206261736564206F6E204D61726C694E
:107110006E204649524D574152455F55524C3A6890
:10712000747470733A2F2F6769746875622E636F79
:107130006D2F5A617269626F2F5A617269626F2D89
:107140004669726D776172652050524F544F434FBC
:107150004C5F56455253494F4E3A004649524D579F
:107160004152455F4E414D453A5A617269626F2DF9
:107170004669726D7761726520004D31313320535D
:107180000020423A0020453A00543A0020413A009B
:1071900020503A002042403A0020403A00202F0080
:1071A0003A00205400202F0020423A00202F006F88
:1071B0006B20543A002569206D696E2C20256920CA
:1071C00073656300496E76616C6964204D20636F5E
:1071D00064653A202573200A00556E6B6E6F776EDA
:1071E000204720636F64653A202573200A004D65AF
:1071F000736820626564206C6576656C696E6720D3
:107200006E6F74206163746976652E000A00202019
:10721000000A4D6561737572656420706F696E74E4
:10722000733A000A5A207365617263682068656961
:107230006768743A20002C004E756D20582C593A1E
:107240002000206D6963726F6E730045786365730B
:107250007369766520626564206C6576656C696E1D
:107260006720636F7272656374696F6E3A200042C3
:107270006564206C6576656C696E67206661696C13
:1072800065642E2053656E736F7220747269676730
:107290006572656420746F6F20686967682E0A00E4
:1072A000426564206C6576656C696E67206661690D
:1072B0006C65642E2053656E736F7220646973630E
:1072C0006F6E6E6563746564206F72206361626CBB
:1072D000652062726F6B656E2E0A00473238205748
:1072E000300050494E44412070726F6265206361E6
:1072F0006C6962726174696F6E207374617274007C
:10730000473238205730004D3234005345545F43E4
:10731000484F505F005345545F535445505F0053EE
:1073200045545F574156455F00544D435F004352FB
:107330004153485F0073746172740A004C616E6758
:1073400075616765207570646174652E00616463A2
:107350005F696E69740A000A205A617269626F205F
:1073600052657365617263680A202020616E642033
:10737000446576656C6F706D656E7400436F6E74F6
:10738000696E7565207769746820616E6F746865D1
:107390007220626F7764656E3F00250020202020F8
:1073A0002020002020202020200045524153494E1B
:1073B0004720616C6C206461746100466163746F86
:1073C000727920524553455400466163746F727957
:1073D0002052455345540044495341424C45440AC8
:1073E00000454E41424C4544004653656E736F72F2
:1073F0002025530A004D4B33534D4D553253004E0B
:107400004F4D4B3353002E014465632031392032F8
:1074100030313900436F6D70696C65643A20002823
:107420006E6F6E652C2064656661756C7420636F89
:107430006E66696729004465632031392032303136
:10744000392031333A32373A32320020332E382E57
:10745000312D323837320A002055706C6F6164204C
:10746000696E2070726F677265737300205A3A00FC
:1074700020593A0020583A0043524153485F44454E
:1074800054454354454458590043524153485F447E
:1074900045544543544544590043524153485F4481
:1074A0004554454354454458004D3239007C3C3ED8
:1074B0003F2F2A225C0022206661696C65643A20B5
:1074C0004275666665722066756C6C210022002527
:1074D0006920686F757273202569206D696E7574F7
:1074E00065730054494D454F55543A004D31313084
:1074F0000046756C6C2052582042756666657200B5
:10750000457872656D65207370616E206F662074BA
:107510006865205A2076616C75657321006F6B0A6F
:107520000073746172740A004D4D553220666972A1
:107530006D776172652076657273696F6E20696E12
:1075400076616C69642E205265717569726564207C
:1075500076657273696F6E3A206275696C64206E2D
:10756000756D626572202564206F72206869676896
:1075700065722E006673656E736F725F73746F70E1
:107580005F616E645F736176655F7072696E740AC5
:10759000004D4D55203D3E20276F6B270A004D4D75
:1075A00055203D3E20276F6B270A002564004D4D76
:1075B00055203D3E20276F6B272C20726573756D1B
:1075C00065207072696E740A004D4D5520726574A5
:1075D000727920617474656D7074206E722E20252E
:1075E000640A004D4D55203D3E20276F6B270A0051
:1075F000410A004D4D55203C3D202741270A004DB2
:10760000363030004D363030204155544F00505206
:10761000555341206673656E736F725F7265636F59
:10762000766572002568687500410A004D4D552049
:107630003C3D202741270A0050300A004D25640AAE
:10764000004D4D55203C3D20274D2564270A00570D
:10765000300A004D4D55203C3D20275730270A0069
:1076600053330A004D4D55203C3D20275333270A04
:107670000052300A004D4D55203C3D202752302706
:107680000A004B25640A004D4D55203C3D20274BF8
:107690002564270A004525640A004D4D55203C3DD0
:1076A0002027452564270A0055300A004D4D5520F6
:1076B0003C3D20275530270A0043300A004D4D55E8
:1076C000203C3D20274330270A004C25640A004D0A
:1076D0004D55203C3D20274C2564270A0054256445
:1076E0000A004D4D55203C3D2027542564270A00B3
:1076F0004D4D55202D20454E41424C4544002568B6
:1077000068750050300A004D310A004D4D55203C3F
:107710003D20274D31270050300A004D4D55207631
:10772000657273696F6E2076616C6964004D4D55AA
:10773000203D3E202725646F6B270A0025750053E6
:10774000320A004D4D55203C3D2027533227004D35
:107750004D55203D3E202725646F6B270A00257577
:10776000004D4D55206E6F7420726573706F6E649E
:10777000696E67202D2044495341424C45440053D3
:10778000310A004D4D55203C3D2027533127004DF7
:107790004D55203D3E202773746172742700657239
:1077A000726F723A20756E6B6E6F776E206D6F76AA
:1077B000650A006E6F206D6F76650A00542D636F49
:1077C00064650A00756E6C6F61640A006C6F6164B9
:1077D0000A006D6D755F6765745F726573706F6EBB
:1077E0007365202D20626567696E206D6F76653A3E
:1077F00020006D6D755F6765745F726573706F6E85
:10780000736528292072657475726E696E673A20F7
:1078100025640A00556E6C6F6164696E6720666945
:107820006E697368656420320A00556E6C6F61641E
:1078300020320A00556E6C6F6164696E672066695C
:107840006E697368656420310A00556E6C6F6164FF
:1078500020310A004D4D552073746172747320728B
:107860006573706F6E64696E670A004D4D55206ECA
:107870006F7420726573706F6E64696E670A00467C
:10788000696C616D656E74206F7574206F6620720F
:10789000616E6765202564200A000000803F555511
:1078A00085410000803F0000C84100000040555560
:1078B00005420000C03F00004842000020405555EE
:1078C0008542000070C1ABAAA642000060C1000062
:1078D000A0410000C0C00000204100002041ABAA30
:1078E0003A41000020C15555D540000048C25555C9
:1078F00005424D373031204534004D373031204579
:1079000033004D373031204532004D37303120457E
:1079100031004D3730312045300046696C616D656E
:107920006E74206E72206F7574206F662072616EA7
:1079300067652100206661696C65642E002073759F
:10794000636365656465642E004D4D552063616E0B
:107950005F6C6F61643A004164646974696F6E6161
:107960006C206C6F616420617474656D7074206E3E
:10797000722E2025640A00773235783230636C5FCE
:1079800063666D0A00773235783230636C5F656EFE
:107990007465720A0078797A63616C5F6D656173F2
:1079A000737572655F656E7465720A0078797A63C3
:1079B000616C5F73706972616C382063783D256417
:1079C0002063793D2564207A303D256420647A3D2A
:1079D0002564207261646975733D25642061643D8E
:1079E00025640A0078797A63616C5F7365617263FC
:1079F000685A206E6F207369676E616C0A20783D4B
:107A0000256C6420793D256C64207A3D256C640AE0
:107A100000204F4E2D5349474E414C206174207831
:107A20003D256420793D2564207A3D2564206164EC
:107A30003D25640A0078797A63616C5F73656172D1
:107A400063685A20783D256C6420793D256C64205C
:107A50007A3D256C640A000A002530327800787976
:107A60007A63616C5F7363616E5F706978656C7374
:107A70005F33327833322063783D25642063793D6B
:107A80002564206D696E5F7A3D2564206D61785FA5
:107A90007A3D25640A00202532642025640A000A04
:107AA000002530327800206D696E3D2564206D61BF
:107AB000783D2564206469663D25640A006D61781F
:107AC0005F633D253264206D61785F6C3D25640AFB
:107AD000006D61785F633D2564206D61785F723D64
:107AE0002564206D61785F6D617463683D25640A6B
:107AF0000020783D256420793D2564207A3D256469
:107B00000A00207061747465726E20666F756E6411
:107B10002061742025642025640A000000F000F82C
:107B200001FC03FE07FE07FE07FE07FC03F801F059
:107B300000000073697A656F6628746F74616C2940
:107B40003D25640A0073697A656F6628626C6F630D
:107B50006B5F627566666572293D25640A007879F7
:107B60007A63616C5F6D656173737572655F6C6577
:107B70006176650A00706F696E743D256420783DFA
:107B8000256420793D2564207A3D25640A00580249
:107B90005802584D584DB004F055F055B00478795E
:107BA0007A63616C5F66696E645F6265645F696E6B
:107BB00064756374696F6E5F73656E736F725F7007
:107BC0006F696E745F787920783D256C6420793D0B
:107BD000256C64207A3D256C640A00203C20005707
:107BE00041524E494E473A2046726F6E7420706F74
:107BF000696E74206E6F7420726561636861626C77
:107C0000652E205920636F6F7264696E6174653AE6
:107C10000000000040410000C04000005C43000044
:107C2000C04000005C4300004643000040410000AB
:107C30004643497465726174696F6E3A200043610E
:107C40006C6962726174696F6E206661696C6564EB
:107C50002120436865636B207468652061786573D3
:107C600020616E642072756E20616761696E2E00FE
:107C7000437573746F6D0054657874757200536D3D
:107C80006F6F74680047312059252D2E32662045CC
:107C9000252D2E3366004731205825642059252D87
:107CA0002E32662045252D2E336600000E13151149
:107CB0000E00000004120912040000001C1F111124
:107CC0001F00000006191803130C00040E1F041CEB
:107CD000000000040A0A0A0A11110E001F151115EE
:107CE0001F0000000103161C0800000000110A0418
:107CF000110A040C12120C000000002563252D311E
:107D0000382E313853256300252E3130532000257D
:107D100063252D31382E3138732563002563252DD9
:107D20002E31365320002563252E3135533A2573E5
:107D30002533640020202020202020202020202007
:107D40002020202020202020002563252D31332EC7
:107D500031335325362E365300746D633231333050
:107D60005F686F6D655F656E7465722861786573B5
:107D70005F6D61736B3D307825303278290A00746D
:107D80006D63323133305F686F6D655F657869743C
:107D900020746D63323133305F73675F686F6D6974
:107DA0006E675F617865735F6D61736B3D307825D9
:107DB0003032780A00726573756C742076616C7568
:107DC000653A2025640A0020693D25326420636EEF
:107DD000743D2532642076616C3D2532640A00636F
:107DE0006C7573746572733A0A0020693D253264BC
:107DF00020737465703D2532640A00736F72746578
:107E0000642073616D706C65733A0A003A2000203B
:107E10002020202020202020202020202020202062
:107E2000202000203A200020202020202020202078
:107E30002020202020202020202020002020202062
:107E400020202020202020202000257300473830CB
:107E5000004D3435004D3435205A00473736005731
:107E6000697A6172642073746174653A2025640ACA
:107E7000004D363030005052555341206673656EC8
:107E8000736F725F7265636F766572006673656E9D
:107E9000736F725F757064617465202D204D36308C
:107EA000300A0020573A0020453A00543A005A2040
:107EB0006C6976652061646A757374206F757420CF
:107EC0006F662072616E67652E2053657474696EEB
:107ED0006720746F20302E20436C69636B20746FB1
:107EE00020636F6E74696E75652E005A206C69761A
:107EF000652061646A757374206F7574206F6620E5
:107F000072616E67652E2053657474696E672074A4
:107F10006F20300020423A0020453A00543A004990
:107F20004E5434002D2D2D2D2D2D2D2D2D2D2D2D5F
:107F30002D2D2D2D2D2D2D2D000000000000110ABE
:107F400004505255534133444657002079303D2563
:107F5000640A002078303D25640A004F4B0A004532
:107F600052524F522061643D25640A002020207A3D
:107F7000303D25640A00207A303D25640A002079CE
:107F8000303D25640A002078303D25640A00787968
:107F90007A63616C5F66696E645F706F696E745F4F
:107FA00063656E746572320A0000002100240027A8
:107FB000002A002D003000330001010000040107F9
:107FC000010A0100002200250028002B002E0031AC
:107FD00000340002010000050108010B010000202F
:107FE000002300260029002C002F00320000010091
:107FF0000003010601090105050505070508080834
:1080000008020202020A0A08080404040401010129
:108010000101010101030303030303030304070731
:10802000070C0C0C0C0C0C0C0C02020202060606CF
:1080300006060606060B0B0B0B0B0B0B0B07070AB2
:108040000A0A0A0A0A0505050404040808010210C0
:108050002020080810204010204080020102010862
:108060000402010102040810204080804020100812
:10807000040201800402018040201008040201086B
:1080800004020101020408102040800102040810CB
:1080900020408010080408801020400440801020F8
:1080A00040048000000A0B02090C0D0E08070304AF
:1080B00001000000000000000000000000000000BF
:1080C000000000000000000000000000000000129E
:1080D000111000000000000000000000000000007F
:1080E0000000000000000000000000000000000090
:1080F00000000000000000000020003E003E0020C4
:10810000003E003E0054656D706572617475726565
:108110002063616C6962726174696F6E2066616967
:108120006C65642E20436F6E74696E756520776987
:108130007468207072657373696E67207468652057
:108140006B6E6F622E0054656D706572617475722E
:10815000652063616C6962726174696F6E20646F1F
:108160006E652E20436F6E74696E75652077697435
:1081700068207072657373696E6720746865206B20
:108180006E6F622E0044697361626C652066617275
:108190006D206D6F6465004661726D206E756D6255
:1081A0006572004D3834004D343400473238205762
:1081B000004739390044697361626C6520666172F9
:1081C0006D206D6F64653F00626F6F745F617070EA
:1081D0005F6D61676963203D30782530386C780ABF
:1081E00000626F6F745F6170705F666C61677320AF
:1081F0003D3078253032780A00626F6F745F7265A7
:1082000073657276656420203D3078253032780AB7
:1082100000626F6F745F636F70795F73697A652056
:108220003D3078253034780A00626F6F745F647374
:10823000745F6164647220203D30782530386C783A
:108240000A00626F6F745F7372635F6164647220AF
:10825000203D30782530386C780A0055534152540F
:10826000322072782046756C6C2121210A005365FA
:108270007474696E67732053746F7265640053740D
:108280006F7265642073657474696E6773207265BC
:10829000747269657665640048617264636F6465D1
:1082A000642044656661756C742053657474696EEE
:1082B0006773204C6F6164656400563200000000F3
:1082C000C8420000C8420000C8430080CF430000FD
:1082D000484300004843000040410000F042E803EA
:1082E0000000E8030000C800000088130000004000
:1082F0009C4400409C440000000000000000204E10
:1083000000000000204100002041CDCCCC3E000008
:108310002040000000000000000000000000CDCC64
:10832000CC3E3D0A8141FF08433EB099AB438F42AA
:10833000FC42E65A343F4C62B04500000000004069
:108340004000003442000000000000000000000077
:1083500041000000E03F0000C8420000C8420000A9
:1083600040410000F042C0030000C0030000C8000C
:1083700000008813000010101010627573793A2005
:1083800070617573656420666F7220696E707574B4
:1083900000627573793A2070617573656420666F49
:1083A00072207573657200627573793A2070726F0E
:1083B00063657373696E6700FFFFFFFF24F4D430B9
:1083C00050C38E20C2A24017828B7011127A910D79
:1083D000816CD90AA861E108C75866076151430654
:1083E0001E4B5D05C145A7041A411104093D9803C0
:1083F000713931034036DB0265339102D4305402C7
:10840000802E1D02632CEE01752AC501B028A00143
:10841000102781018F2564012B244B01E0223401B8
:10842000AC211F018D200D01801FFC00841EED007A
:10843000971DDF00B81CD200E61BC600201BBC0045
:10844000641AB200B219A8000A19A0006A189900AB
:10845000D117910040178B00B516840031167E00AD
:10846000B31579003A157300C7146F0058146A00E9
:10847000EE1366008813630025135E00C7125B00CD
:108480006C12570015125400C111510070114F00A9
:1084900021114B00D61049008D10470046104400B2
:1084A00002104200C00F4000800F3E00420F3C000F
:1084B000060F3B00CB0E3800930E37005C0E3500E4
:1084C000270E3400F30D3200C10D3100900D300045
:1084D000600D2E00320D2D00050D2C00D90C2B0047
:1084E000AE0C2900850C29005C0C2700350C2700F8
:1084F0000E0C2600E80B2400C40B2400A00B230064
:108500007D0B23005A0B2100390B2100180B200092
:10851000F80A1F00D90A1E00BB0A1E009D0A1D0092
:10852000800A1D00630A1C00470A1B002C0A1B005E
:10853000110A1A00F7091A00DD091900C409190007
:10854000AB091900920917007B091800630917008D
:108550004C09160036091600200916000A091500F4
:10856000F5081500E0081400CC081400B808140041
:10857000A4081400900813007D0812006B08130073
:108580005808120046081200340811002308110090
:108590001208110001081100F0071000E007100098
:1085A000D0071000C0071000B0070F00A10710008F
:1085B00091070E0083070F0074070F0065070E0078
:1085C00057070E0049070E003B070D002E070E004F
:1085D00020070D0013070D0006070D00F9060C001B
:1085E000ED060D00E0060C00D4060C00C8060C00D9
:1085F000BC060C00B0060C00A4060B0099060C008B
:108600008D060B0082060B0077060B006C060B0034
:1086100061060A0057060B004C060A0042060A00D3
:1086200038060A002E060A0024060A001A060A0066
:108630001006090007060A00FD050900F4050900F7
:10864000EB050900E2050900D9050900D00509007C
:10865000C7050900BE050900B5050800AD050800FD
:10866000A50509009C050800940508008C05080074
:10867000840508007C050800740508006C050700E7
:10868000650508005D050700560508004E05070052
:1086900047050700400508003805070031050700B9
:1086A0002A050700230507001C050600160507001C
:1086B0000F0507000805060002050700FB04060079
:1086C000F5040700EE040600E8040600E2040700D3
:1086D000DB040600D5040600CF040600C90406002A
:1086E000C3040600BD040600B7040600B10405007B
:1086F000AC040600A6040600A00405009B040600C6
:1087000095040500900406008A0405008504050010
:10871000800406007A040500750405007004050055
:108720006B04050066040500610405005C04050097
:1087300057040500520405004D04050048040500D7
:10874000430405003E0404003A0405003504050016
:10875000300404002C040500270404002304050051
:108760001E0404001A040400160405001104040089
:108770000D040400090405000404040000040400BE
:10878000FC030400F8030400F4030400F0030400F5
:10879000EC030400E8030400E4030400E003040025
:1087A000DC030400D8030400D4030400D003040055
:1087B000CC030400C8030300C503030024F404D958
:1087C000201BC40C5C0E9804C4095F02650771018C
:1087D000F405F900FB04B30048048700C1036900F5
:1087E0005803550003034500BE023A0084023100DD
:1087F00053022A002902250004022000E4011C0083
:10880000C8011900AF01170098011400840113007A
:10881000710110006101100051010E0043010D00B3
:1088200036010B002B010B0020010B001501090084
:108830000C01090003010800FB000800F300080018
:10884000EB000700E4000600DE000600D80006008A
:10885000D2000600CC000500C7000500C2000500DC
:10886000BD000400B9000400B5000400B10004001C
:10887000AD000400A9000400A5000300A20003004D
:108880009F0004009B000300980003009500020075
:1088900093000300900003008D0002008B00030092
:1088A00088000200860002008400030081000200AC
:1088B0007F0002007D0002007B00020079000200C0
:1088C00077000100760002007400020072000100CF
:1088D000710002006F0002006D0001006C000200D8
:1088E0006A000100690002006700010066000100E3
:1088F00065000100640002006200010061000100E7
:10890000600001005F0002005D0001005C000100EA
:108910005B0001005A0001005900010058000100ED
:1089200057000100560001005500010054000100ED
:1089300053000000530001005200010051000100EB
:10894000500001004F0001004E0000004E000100E9
:108950004D0001004C0001004B0000004B000100E5
:108960004A000100490001004800000048000100E1
:1089700047000100460000004600010045000000DD
:1089800045000100440001004300000043000100D5
:1089900042000000420001004100000041000100CF
:1089A000400001003F0000003F0001003E000000C9
:1089B0003E0001003D0000003D0001003C000000C1
:1089C0003C0000003C0001003B0000003B000100B7
:1089D0003A0000003A0001003900000039000100AF
:1089E00038000000380000003800010037000000A7
:1089F000370001003600000036000000360001009C
:108A00003500000035000000350001003400000092
:108A10003400000034000100330000003300000087
:108A2000330001003200000032000000320001007B
:108A30003100000031000000310001003000000072
:108A400030000000300001002F0000002F00000067
:108A50002F0000002F0001002E0000002E0000005B
:108A60002E0001002D0000002D0000002D00000050
:108A70002D0001002C0000002C0000002C00000044
