:100000000C941D4A0C944E4A0C944E4A0C944E4A41
:100010000C944E4A0C944E4A0C944E4A0C944E4A00
:100020000C944E4A0C944E4A0C944E4A0C944E4AF0
:100030000C944E4A0C944E4A0C94CBDD0C942CD369
:100040000C944E4A0C94A7E70C944E4A0C944E4ADA
:100050000C944E4A0C944E4A0C944E4A0C9448C64A
:100060000C944E4A0C94EECB0C944E4A0C944E4A8F
:100070000C944E4A0C944E4A0C944E4A0C944E4AA0
:100080000C944E4A0C944E4A0C944E4A0C944E4A90
:100090000C94AACB0C944E4A0C944E4A0C944E4AA3
:1000A0000C944E4A0C944E4A0C944E4A0C944E4A70
:1000B0000C944E4A0C944E4A0C944E4A0C944E4A60
:1000C0000C944E4A0C944E4A0C944E4A0C9414CF05
:1000D0000C944E4A0C944E4A0C944E4A0C944E4A40
:1000E0000C944E4A64C66EC67CC689C69BC6A2C620
:1000F000DEC6C0C6D6C664C866C864C866C864C85A
:1001000066C868C86AC8CBE5DEE5F0E5FFE50BE642
:1001100046E6B5E569E67DE679E6B5E57FE68BE698
:1001200091E6A9E6C401C4018201C401820168020A
:10013000D801020208024C027E0190016C02F20119
:10014000DE015A0126027402C8015C01A001DC0133
:10015000540250020002AC0112028401A801EE0117
:100160004A01F00122021402D401FE01DA01040264
:10017000D60144020C029A01980152026E01DA0182
:100180001C02B0015801AE01E4015602EA012E0240
:10019000BA0194011A0276016A024E025601A201C6
:1001A000E201BA014A0236028E01F601EC01D001E9
:1001B0007A016402CC010E023E023C02FC01740191
:1001C0005001084AD73B3BCE016E84BCBFFDC12F16
:1001D0003D6C74319ABD56833DDA3D00C77F11BE38
:1001E000D9E4BB4C3E916BAAAABE000000803F053B
:1001F000A84CCDB2D44EB93836A9020C50B991866C
:1002000088083CA6AAAA2ABE000000803F076342D5
:1002100036B79BD8A71A39685618AEBAAB558C1D9D
:100220003CB7CC5763BD6DEDFD753EF6177231BF1F
:10023000000000803F08000000BE922449123EAB3F
:10024000AAAA2ABECDCCCC4C3E00000080BEABAAF0
:10025000AAAA3E00000000BF000000803F0000008E
:100260000000084178D3BB4387D1133D190E3CC32E
:10027000BD4282AD2B3E68EC8276BED98FE1A93EAD
:100280004C80EFFFBE01C4FF7F3F00000000000074
:100290000D9498820D941D250D94034C0D94C1343A
:1002A0000D940B5D0D94D6070D94B4530D9430440A
:1002B0000D946B420D9496110D946A240D9489321D
:1002C0000D9429570D9463330D9417430D941357D0
:1002D0000D94C9550D94CD000D9477420D945D4257
:1002E0000D9467810D9424810D943D5D0D9412440D
:1002F0000D946E330D94B35D0D94BE060D943D0FB9
:100300000D94AA000D9454000D94E2240D946305FD
:100310000D94FE420D94D2800D94B5070D94674460
:100320000D940D0F0D94C6000D9402440D941C43C2
:100330000D9455420D944F420D9499560D941243CD
:100340000D947A240D943F440D94A8560D94413396
:100350000D94F2240D9485040D94C2240D94DA4377
:100360000D9467420D94F9420D94C3810D940D4391
:100370000D9481040D9471440D94B1000D94E90520
:100380000D9448480D942C820D9451000D94A300B7
:100390000D943D120D949A000D949D5D0D94D432F0
:1003A0000D94BE5D0D94EC000D942C420D944142D1
:1003B0000D945A000D9470420D9480240D941211E6
:1003C0000D9403430D9449440D94DF430D94BF975E
:1003D0000D9431560D94EE430D94EE5D0D940D2564
:1003E0000D9436420D94F30F0D94B8000D946D5A90
:1003F0000D941C210D946A370D946B5D0D9432425F
:100400000D94BC240D94B90F0D943D420D944E33C0
:100410000D94C20F0D94F9070D944B420D94925D0B
:100420000D94DB000D94D2240D9428420D94D53404
:100430000D94B7820D940A440D9463420D9480424A
:100440000D9401200D9439420D947B420D94EA11D4
:100450000D94F6000D948D050D946D540D94F84394
:100460000D94BB7A0D94F31F0D94E2000D945D443E
:100470000D94D4000D9408430D94035E0D94135E07
:100480000D9465530D945B320D9447420D94F00525
:100490000D9477070D9453440D946E0F0D942644DC
:1004A0000D94B6240D9459420D9496240D94E44372
:1004B0000D94A7950D9471420D9404030D9464540A
:1004C0000D94E2050D9489040D94A85D0D94F554E6
:1004D0000D9457000D941C440D9494120D94110822
:1004E0000D94BF000D94CE040D9406125F53454346
:1004F0005F4C414E4700000000000000000000007B
:10050000A55AB44BEE2B7A01717974697A0114659E
:1005100004034F0355035B036E03A103DF03E803EA
:10052000F60304041F0428043C0463046404650403
:10053000660474048604C3040E05220527053605E7
:10054000430552056405B405BA05C805F505070657
:1005500013061D0625069306A0060C0722072F0783
:100560003707420752075C077B078D07EC07FE073A
:10057000100822084A0852085A08600872081A0926
:100580006F097D099009A609BE09C809D209030AA5
:100590003F0A470A550A640A6E0A7D0A8F0AA10AB1
:1005A000B30AC40AD30AE00AF20A040B160B280B9A
:1005B0003A0B4A0B740B860B950BAA0BBA0BE00B8C
:1005C000FD0B0F0C630CA20CA90CAA0CBC0CC80CE4
:1005D000E20CF40C220D340D450DA80D000E010E99
:1005E000120E230E3B0E4A0E5D0E6D0E7F0E8F0E09
:1005F0009F0EAF0EC40ED90EE30E210F430F520F04
:10060000650F840FB10FCA0F31103F104F105810F3
:100610006610791089109A10AB10BF10CE10DC1044
:10062000FB100B113611441169118C119B11AA1189
:10063000C211DA11F211041216123E124E12601299
:100640007212841292129912A412AD12B612BF1233
:10065000D112DC12DD12DE12EB1210131913571334
:100660007E138513EA1325143714461457146B149C
:100670007C1490141F155415891593150D164116E9
:100680008316B316D8160A173F1762179A17A417BE
:10069000D317E417F0171A182C1869187B188D183F
:1006A000AB18CA18D518E218F61806194519BD195D
:1006B000CF19D019D119D219D319D419D519D619DE
:1006C000D719D819D919DA19DB19DC19DD19DE198E
:1006D000DF19E0192C1A8B1AB11AB21ABD1ACD1AE9
:1006E000231B241B3C1B3D1B4D1B5D1B691B7B1BE4
:1006F0008D1BF41B061C181C1F1C4B1C5C1C681C4F
:10070000771C801C921CA31CE61C411D561D631DFA
:10071000731D811DEA1DFC1D0E1E1B1E2D1E3E1E7F
:10072000501E5D1E6F1EA81EBA1ECC1ED51EDA1EE0
:10073000251F311F401F4B1F541F5E1F761F841F34
:10074000961FD11FE31FF01F112079207A208620E9
:100750000321142128212F213721492163217E21C2
:100760009021A521AC21BF21C821D421E9211E223D
:100770004D22E3221D234323672389239A239B23AE
:10078000AD23EA23ED2346249224D424E224262513
:100790006725AF25BE2511264E269226A526A6261C
:1007A000B426B526BE26C826D626D726E926FB2699
:1007B0000D271E271F273227452758276B277E27FF
:1007C0009027B827CF27E927062818282A283C2869
:1007D0004E286028722884289628A828DE284D29CB
:1007E0008629F829332A952A962AB22AD22A012B59
:1007F0005F2B682B722B7F2B852B972BA72BB52B71
:10080000C82BDB2B5B252E37735D53657420766117
:100810006C6F72690A436F6D702E205A2C20636FC3
:100820006E74696E756172650A6F20696E697A69A6
:10083000617265206461207A65726F3F0A256343A7
:100840006F6E74696E7561256352657365740020FF
:1008500073752034002073752039005B303B305DA8
:100860002070756E746F206F6666736574005269D0
:100870006C65762E20696D706174746F0A61747492
:1008800069766162696C6520736F6C6F0A696E20AE
:100890004D6F64616C697461206E6F726D616C651F
:1008A00000415454454E5A494F4E453A0A52696CDC
:1008B00065762E20696D706174746F0A6469736166
:1008C0007474697661746F20696E0A4D6F64616C2F
:1008D0006974612073696C656E7A696F7361003E3B
:1008E000416E6E756C6C6100436F6D70656E736107
:1008F0007A2E205A3A004E657373756E20657272B7
:100900006F726500547574746F20666174746F2E15
:100910002042756F6E61207374616D7061210041BA
:100920006D6269656E7465006520636C69636361FF
:100930007265206D616E6F706F6C6100492063613C
:100940007272656C6C69205A2073696E2F646573CE
:1009500020736F6E6F20616C74657A7A61206D61AF
:10096000783F0000000054726F7661206F726967F3
:10097000696E65004175746F63617269632E2066EC
:10098000696C616D2E004361726963616D656E749F
:100990006F206175746F2E2066696C616D2E206406
:1009A0006973702E20736F6C6F20636F6E20696C9B
:1009B0002073656E736F72652061747469766F2E33
:1009C0002E2E004361726963616D656E746F2061E4
:1009D00075746F6D617469636F2061747469766F8B
:1009E0002C207072656D69206C61206D616E6F7076
:1009F0006F6C61206520696E73657269736369202D
:100A0000696C2066696C616D656E746F2E004C7543
:100A10006E6768657A7A612064656C6C27617373B0
:100A2000650041737369004C6574746F2F5269736C
:100A300063616C642E005069616E6F20666174742E
:100A40006F2E0052697363616C642E206C65747440
:100A50006F00436F7272657A2E206C69762E6C651A
:100A600074746F004C6976656C6C616D656E746F43
:100A7000206C6574746F2066616C6C69746F2E4EA7
:100A80006F5269737053656E736F72652E52657322
:100A900069647569207375207567656C6C6F3F209C
:100AA000496E206174746573612064692072657396
:100AB00065742E004C6574746F00537461746F20FC
:100AC00063696E67686965004327652073746174A4
:100AD0006F20756E20426C61636B6F75742E2052AF
:100AE000656375706572617265206C6120737461F5
:100AF0006D70613F0043616C696272617A696F6E0B
:100B00006520486F6D650043616C696272612058B1
:100B1000595A0043616C69627261205A0043616CEA
:100B2000696272610043616C696272617A696F6EB9
:100B3000652058595A2E2052756F74617265206C69
:100B400061206D616E6F706F6C61207065722061E5
:100B50006C7A61726520696C2063617272656C6C7D
:100B60006F205A2066696E6F20616C6C27616C740F
:100B7000657A7A61206D617373696D612E20436CB3
:100B800069636B20706572207465726D696E617245
:100B9000652E0043616C696272616E646F205A0059
:100BA00043616C696272617A696F6E65205A2E20AA
:100BB00052756F74617265206C61206D616E6F702B
:100BC0006F6C612070657220616C7A61726520695A
:100BD0006C2063617272656C6C6F205A2066696E5E
:100BE0006F20616C6C27616C74657A7A61206D612D
:100BF0007373696D612E20436C69636B207065723D
:100C0000207465726D696E6172652E0043616C6956
:100C10006272617A696F6E6520636F6D706C657466
:100C2000610043616C696272617A696F6E6500414F
:100C30006E6E756C6C610053442072696D6F7373D6
:100C40006100436F6C6F7265206E6F6E20707572FD
:100C50006F0052616666726564646100436F70691B
:100C6000617265206C61206C696E677561207365C7
:100C70006C657A696F6E6174613F0052696C65766C
:100C8000612E6372617368205B6F6E5D00536365F4
:100C9000676C6920756E2066696C616D656E746F36
:100CA00020706572206C612063616C696272617A88
:100CB000696F6E652064656C207072696D6F20735A
:100CC000747261746F20652073656C657A696F6EEC
:100CD000616C6F206E656C206D656E752073756C30
:100CE0006C6F2073636865726D6F2E0052696C655E
:100CF00076612E63726173685B4E2F415D005269AD
:100D00006C6576612E63726173685B6F66665D0009
:100D100052696C657661746F20696D706174746F6F
:100D20002E0053636F6E74726F2072696C6576610A
:100D3000746F2E2052697072656E64657265206CE6
:100D400061207374616D70613F00496D70617474EE
:100D50006F0041747475616C6500446174613A00A0
:100D60004469736162696C697461206D6F746F723C
:100D7000690044697374616E7A6120747261206CD9
:100D8000612070756E74612064656C6C2775676591
:100D90006C6C6F2065206C6120737570657266697C
:100DA0006369652064656C206C6574746F206E6F78
:100DB0006E20616E636F726120696D706F73746114
:100DC0002E20536920707265676120646920736505
:100DD000677569726520696C206D616E75616C65FF
:100DE0002C2063617069746F6C6F205072696D693B
:100DF0002050617373692C2073657A696F6E65206A
:100E000043616C696272617A696F6E6520707269A4
:100E10006D6F206C617965722E004465736964653D
:100E20007269207269706574657265206C27756CD3
:100E300074696D6F2070617373616767696F20708B
:100E40006572206D69676C696F72617265206C6193
:100E50002064697374616E7A6120667261207567BF
:100E6000656C6C6F20652070696174746F3F00431E
:100E70006F7272657A696F6E652D453A00457370C1
:100E8000656C6C692066696C616D656E746F2000BD
:100E9000457370656C6C656E646F2066696C616D1E
:100EA000656E746F200046696E65636F72736120B2
:100EB00066756F726920706F727461746100466943
:100EC0006E65636F7273610046696E65636F7273FE
:100ED00061004572726F7265202D206C61206D6516
:100EE0006D6F72696120737461746963612065203C
:100EF000737461746120736F767261736372697465
:100F00007461004552524F52453A20696C20736516
:100F10006E736F72652066696C616D2E206E6F6EE8
:100F200020726973706F6E64652C436F6E74726F9C
:100F30006C6C61726520636F6E6E6573732E004515
:100F400052524F52453A0056656E746F6C6120657F
:100F50007374723A00496E666F20657374727573AC
:100F60006F7265004573747275736F7265005374A8
:100F700061742E66616C6C2E204D4D550041757468
:100F80006F6361722E66696C2E205B6F6E5D00412F
:100F900075746F6361722E66696C2E5B4E2F415DB6
:100FA000004175746F6361722E66696C2E5B6F66AB
:100FB000665D00537461742E2066616C6C696D65AA
:100FC0006E74690056656C6F636974612076656E36
:100FD000742E00546573742076656E746F6C6100B6
:100FE000436F6E74726F6C2E76656E74205B6F6EDD
:100FF0005D00436F6E74726F6C2E76656E745B6FFE
:1010000066665D0053656E736F72652066696C2E4F
:10101000205B6F6E5D0053656E736F72652066694D
:101020006C2E5B4E2F415D0053656E736F726520B1
:1010300066696C2E5B6F66665D0046696C616D2E3D
:101040002065736175726974690046696C616D65CC
:101050006E746F206573747275736F202620636FD2
:101060006E20696C2067697573746F20636F6C6F95
:1010700072653F0046696C2E206E6F6E2063617250
:10108000696361746F0053656E736F726520666982
:101090006C616D2E0046696C616D656E746F2075B4
:1010A00074696C697A7A61746F0054656D706F2031
:1010B0006469207374616D70610046696C652069B4
:1010C0006E636F6D706C65746F2E20436F6E746904
:1010D0006E7561726520636F6D756E7175653F0029
:1010E00046696E616C697A7A616E646F20676C69BB
:1010F0002073706F7374616D656E74690043616C09
:101100002E207072696D6F2073747261746F00505D
:101110006572207072696D6F206176766965726F95
:10112000206C276175746F7465737420706572200C
:10113000636F6E74726F6C6C61726520676C69208E
:101140006572726F726920646920617373656D6284
:101150006C616767696F2070697520636F6D756E6C
:10116000692E005269736F6C766920696C20707209
:101170006F626C656D612065207175696E646920B0
:101180007072656D6920696C20626F74746F6E6532
:101190002073756C6C27756E697461204D4D552EEA
:1011A0002000466C7573736F000056656E746F6C2B
:1011B000612066726F6E74616C653F0046726F6E7F
:1011C0007465205B756D5D0056656E746F6C612093
:1011D00066726F6E74616C652F73696E6973747279
:1011E000610052697363616C642E2F5465726D697E
:1011F00073742E0052697363616C64616D656E7403
:101200006F206665726D61746F2064616C20746913
:101210006D6572206469207369637572657A7A619D
:101220002E0052697363616C642E20636F6D706C65
:1012300065746F0052697363616C64616D656E748F
:101240006F2E2E2E004369616F2C20736F6E6F20FE
:101250006C6120747561207374616D70616E74656A
:10126000204F726967696E616C20507275736120DE
:1012700069332E20477261646972657374692075E1
:101280006E20616975746F206E656C2070726F637B
:101290006573736F20646920636F6E66696775722A
:1012A000617A696F6E653F004369616F2C20736FCF
:1012B0006E6F206C6120747561207374616D706154
:1012C0006E7465205A617269626F2E204772616484
:1012D00069726573746920756E20616975746F2019
:1012E0006E656C2070726F636573736F2064692024
:1012F000636F6E6669677572617A696F6E653F00CC
:101300000043616D6269612066696C616D656E7430
:101310006F0043616D62696F2072697573636974F0
:101320006F210043616D626961746F20636F727237
:10133000657474616D656E74653F005665726966AB
:10134000696361207069616E6F00566572696669D4
:1013500063612066696E65636F72736100566572C2
:101360006966696361207567656C6C6F00436F6EB9
:1013700074726F6C6C6F2073656E736F7269005658
:1013800065726966696361206173736520580056F0
:1013900065726966696361206173736520590056DF
:1013A000657269666963612061737365205A0053D1
:1013B000656C657A696F6E61206573747275736FA1
:1013C00072653A00536365676C696572652066698A
:1013D0006C616D656E746F3A0046696C616D656E27
:1013E000746F0041646573736F206176766965720E
:1013F0006F20756E612043616C696272617A696FFA
:101400006E652058595A2E2050756F206475726190
:101410007265206369726361203132206D696E2EBE
:101420000041646573736F206176766965726F2021
:101430006C612043616C696272617A696F6E6520CC
:101440005A2E0053636865726D61746120696E661F
:101450006F00496E7365726972652066696C616DB3
:10146000656E746F00496C2066696C616D656E74A1
:101470006F206520737461746F20636172696361AA
:10148000746F3F004C6120706961737472612064F5
:10149000276163636961696F20652073756C2070D3
:1014A00069616E6F2072697363616C6461746F3F10
:1014B0000046616C6C696D656E746920756C746949
:1014C0006D61207374616D7061005365206861699E
:1014D0002070696173747265206427616363696158
:1014E000696F2061676769756E746976652C206322
:1014F000616C696272612069207072657365742025
:10150000696E20496D706F7374617A696F6E6920BE
:101510002D205365747570204857202D2050696127
:101520007374726520696E204163636961696F2E0F
:1015300000556C74696D61207374616D7061005643
:10154000656E7420535820686F74656E643F005355
:10155000696E69737472610053696E697374726144
:10156000205B756D5D00436F7272657A696F6E65A1
:10157000206C696E6561726500436F6D70656E7396
:10158000617A696F6E65205A0043617269636120F8
:1015900066696C616D656E746F0043617269636149
:1015A0006E646F20636F6C6F726500436172696374
:1015B000616E646F2066696C616D656E746F00505A
:1015C000756C6567676961206C656E746100436165
:1015D00072696361207567656C6C6F004D313137DE
:1015E0002043616C696272617A696F6E6520707206
:1015F000696D6F206C617965722E004D656E752086
:101600007072696E636970616C65004D69737572A3
:101610006120616C74657A7A612064692072696600
:101620002E2064656C2070756E746F206469206371
:10163000616C69622E004C6976656C2E2070696160
:1016400074746F004D4D55204F4B2E20726970728F
:10165000656E64656E646F206C6120706F73697A6B
:10166000696F6E652E2E2E20004D4D55204F4B2E4E
:101670002052697072697374696E6F2074656D7041
:10168000657261747572612E2E2E20004465766934
:10169000617A696F6E65206D69730046616C6C6973
:1016A0006D656E7469204D4D5500436172696361CB
:1016B0006D656E746F204D4D552066616C6C69745C
:1016C0006F004361726963616D656E7469204D4D91
:1016D000552066616C6C697469004D4D55204F4B07
:1016E0002E2052697072656E64656E646F2E2E2EA8
:1016F00020004D6F642E202020205B6E6F726D6184
:101700006C655D004D6F642E205B73696C656E7A4D
:10171000696F73615D00496C204D4D55207269639E
:10172000686965646520617474656E7A696F6E6559
:101730002064616C6C277574656E74652E004D6154
:101740006E632E20636F72722E204D4D55004D6FCB
:10175000642E205B73696C656E7A696F73615D00DE
:101760004D6F642E202020202020205B6175746F37
:101770005D004D6F642E2020202020205B666F725C
:1017800074655D004D4D553220636F6E6E657373E9
:1017900061004D6F746F7265004D756F76692061E1
:1017A0007373650053706F73746120580053706FCA
:1017B00073746120590053706F737461205A004E26
:1017C000657373756E206D6F76696D656E746F2EBF
:1017D000004E657373756E612053440000004E6FB8
:1017E0006E20636F6E6E6573736F004E756F7661FA
:1017F0002076657273696F6E65206669726D7761B8
:10180000726520646973706F6E6962696C653A0015
:101810004E6F6E20676972610041646573736F205B
:1018200063616C6962726F206C61206469737461BA
:101830006E7A6120667261207567656C6C6F2065D9
:10184000207375706572666963652064656C2070CD
:10185000696174746F2E0041646573736F207072D8
:101860006572697363616C6465726F206C2775675C
:10187000656C6C6F2070657220504C412E0055676E
:10188000656C6C6F00536F6E6F20737461746520AC
:1018900074726F7661746520696D706F7374617AAC
:1018A000696F6E6920766563636869652E20566589
:1018B0007272616E6E6F20696D706F73746174699E
:1018C00020692076616C6F7269207072656465664C
:1018D000696E697469206469205049442C204573FD
:1018E00074657073206574632E004F726120726995
:1018F0006D756F76657465206C61207374616D70B1
:10190000612064692070726F76612064616C6C6123
:10191000207069617374726120696E20616363690C
:1019200061696F2E0056656E746F6C61206573740B
:101930007275736F7265004D6574746920696E20ED
:1019400070617573610043616C696272617A696F7D
:101950006E65205049440043616C69622E205049F5
:101960004420636F6D706C6574610043616C6962E3
:1019700072617A696F6E65205049440052697363E1
:10198000616C64616D656E746F2050494E44410016
:10199000506F73697A696F6E61726520756E20662B
:1019A0006F676C696F20736F74746F206C27756735
:1019B000656C6C6F20647572616E7465206C61205B
:1019C00063616C696272617A696F6E6520646569D2
:1019D000207072696D6920342070756E74692E20D4
:1019E000496E206361736F206C277567656C6C6F3F
:1019F000206D756F766120696C20666F676C696F0A
:101A000020737065676E6572652073756269746FA7
:101A1000206C61207374616D70616E74652E00506E
:101A20006572206661766F72652070756C6973638C
:101A30006920696C2070696174746F2C20706F6903
:101A4000207072656D69206C61206D616E6F706FC2
:101A50006C612E0050756C697265206C2775676526
:101A60006C6C6F20706572206C612063616C6962C0
:101A700072617A696F6E652C20706F692066617281
:101A80006520636C69636B2E0056657269666963D5
:101A9000613A00506572206661766F726520636FEF
:101AA0006E73756C746120696C206E6F7374726FE5
:101AB000206D616E75616C6520706572207269734E
:101AC0006F6C7665726520696C2070726F626C65F0
:101AD0006D612E20506F692072697072656E646945
:101AE00020696C2057697A61726420646F706F207E
:101AF000617665722072696176766961746F206CB7
:101B000061207374616D70616E74652E0041707236
:101B1000697265206C612067756964612066696C13
:101B2000616D2E20652072696D756F766572652016
:101B3000696C2066696C616D2E2061206D616E6F2D
:101B400000506572206661766F726520706F7369F0
:101B50007A696F6E617465206C612070696173745D
:101B600072612064276163636961696F2073756CBA
:101B7000207069616E6F2072697363616C64617457
:101B80006F2E005072656D657465206C61206D610B
:101B90006E6F706F6C612070657220736361726923
:101BA0006361726520696C2066696C616D656E7435
:101BB0006F2000457374726172726520696C2066D3
:101BC000696C616D656E746F20696D6D65646961C6
:101BD00074616D656E74650052696D756F7669200C
:101BE000696C2066696C616D656E746F206520712B
:101BF00075696E6469207072656D69206C61206D15
:101C0000616E6F706F6C612E200052696D756F761A
:101C1000657465206C612070696173747261206401
:101C200069206163636961696F2064616C20706918
:101C3000616E6F2072697363616C6461746F0045DB
:101C40007365677569206C612063616C696272619C
:101C50007A696F6E652058595A207072696D612ECD
:101C60002000416767696F726E6120696C20666948
:101C7000726D776172652073756C2074756F204D7D
:101C80004D55322E20496E20617474657361206455
:101C9000692072657365742E2000417474656E64EA
:101CA00065726500506572206661766F726520729C
:101CB000696D756F766574652069206D61746572F4
:101CC00069616C692064612073706564697A696F09
:101CD0006E6500507265726973632E207567656C5E
:101CE0006C6F210050726572697363616C6461008E
:101CF00050726572697363616C64616E646F206CAD
:101D0000277567656C6C6F2E20417474656E646511
:101D1000726520707265676F2E00507265676F2064
:101D2000616767696F726E6172652E005072656DD2
:101D3000657465206C61206D616E6F706F6C6120E1
:101D40007065722070726572697363616C64617230
:101D500065206C277567656C6C6F206520636F6EFE
:101D600074696E756172652E004D616E63616E7A85
:101D70006120636F7272656E7465005374616D707B
:101D80006120696E746572726F747461005072655F
:101D900072697363616C64616D656E746F207065E8
:101DA0007220636172696361726500507265726965
:101DB0007363616C64616D656E746F207065722011
:101DC0007363617269636172650056656E742E7328
:101DD00074616D3A005374616D70612064612053C9
:101DE00044005072656D657265206C61206D616E96
:101DF0006F706F6C61005374616D706120696E204B
:101E00007061757361005072656D657465206C61F9
:101E1000206D616E6F706F6C6120706572207265ED
:101E20006375706572617265206C612074656D7098
:101E3000657261747572612064656C6C2775676585
:101E40006C6C6F2E005374616D70616E7465206EE2
:101E50006F6E20616E636F72612063616C69627284
:101E60006174612E20536920707265676120646916
:101E7000207365677569726520696C206D616E7588
:101E8000616C652C2063617069746F6C6F20507297
:101E9000696D692050617373692C2073657A696F6D
:101EA0006E652053657175656E7A612064692043A3
:101EB000616C696272617A696F6E652E0056656E3B
:101EC000746F6C61206469207374616D70610000CF
:101ED0000000000000000000000000000000000002
:101EE000496E7365726973636920696C2066696CF9
:101EF000616D656E746F206E656C6C2765737472AE
:101F000075736F72652C20706F69207072656D69D2
:101F1000206C61206D616E6F706F6C6120706572F6
:101F200020636172696361726C6F2E00506572206C
:101F30006661766F726520696E7365726973636935
:101F400020696C2066696C616D656E746F206E65CA
:101F50006C207072696D6F207475626F2064656C9F
:101F6000204D4D552C20706F69207072656D692071
:101F70006C61206D616E6F706F6C61207065722096
:101F8000636172696361726C6F2E005065722066C6
:101F900061766F7265207072696D6120636172692C
:101FA000636120696C2066696C616D656E746F2E6B
:101FB0000000526574726F205B756D5D0052656341
:101FC000757065726F207374616D70610052696D18
:101FD000756F766920696C2066696C616D656E74D9
:101FE0006F20707265636564656E7465206520702E
:101FF00072656D69206C61206D616E6F706F6C61D0
:102000002070657220636172696361726520696C1A
:10201000206E756F766F2066696C616D656E746F8A
:102020002E20000052657365742063616C696272D2
:10203000617A696F6E652058595A2E000052697096
:1020400072656E6469207374616D706100526970AD
:1020500072656E6469207374616D706100446573AC
:10206000747261205B756D5D00506F7274612052F7
:102070005069202020205B6F6E5D00506F7274618C
:10208000205250692020205B6F66665D00536520FA
:102090006176766920696C2057697A617264207074
:1020A00065726465726169206C612063616C69624C
:1020B00072617A696F6E6520707265657369737499
:1020C000656E7465206520646F767261692072693F
:1020D000636F6D696E63696172652064616C6C2702
:1020E000696E697A696F2E20436F6E74696E7561CF
:1020F00072653F004D656D2E205344205B6E6F72FC
:102100006D616C655D004D656D2E205344205B66EE
:102110006C73684169725D0044657374726100524A
:10212000696365726361206465692070756E7469A6
:102130002064692063616C696272617A696F6E659F
:102140002064656C207069616E6F0053656C657A00
:10215000696F6E61206C696E677561004175746F9F
:1021600074657374204F4B00417676696120617508
:10217000746F74657374004175746F746573740063
:102180004572726F7265204175746F746573742047
:1021900021004175746F746573742066616C6C699D
:1021A000746F005665727261206566666574747539
:1021B00061746F20756E2073656C6620746573742E
:1021C000207065722063616C696272617265206C57
:1021D00027686F6D696E672073656E7A612073651D
:1021E0006E736F72690053656C657A696F6E6174A6
:1021F00065206C612074656D7065726174757261C3
:102200002070657220696C207072657269736361F9
:102210006C64616D656E746F2064656C6C277567A6
:10222000656C6C6F2061646174746120616C2076F0
:102230006F7374726F206D6174657269616C652E65
:1022400000496D706F7374612074656D70657261A3
:10225000747572613A00496D706F7374617A696F59
:102260006E6900537461746F2066696E65636F7286
:10227000736100537461746F2073656E736F726560
:1022800000416C63756E692066696C65206E6F6EC7
:1022900020736172616E6E6F206F7264696E61741B
:1022A000692E20496C206E756D65726F206D6173AB
:1022B00073696D6F2064692066696C6520696E20A2
:1022C000756E612063617274656C6C61206520318C
:1022D000303020706572636865207369616E6F20AD
:1022E0006F7264696E6174692E004F7264696E6109
:1022F00020205B6E657373756E6F5D004F7264694D
:102300006E61202020205B63726F6E2E5D0044653D
:102310007669612E67726176653A004F7264696E04
:1023200065205B616C6661626574695D004F726413
:10233000696E616E646F20692066696C6500537513
:102340006F6E6F20202020205B666F7274655D00C9
:1023500044657669612E6C696576653A0053756FE0
:102360006E6F2020202020205B6D7574655D00530A
:102370006F6E6F2073746174692072696C65766129
:1023800074692070726F626C656D692C206176765D
:102390006961746F206C6976656C6C616D656E74D3
:1023A0006F205A202E2E2E0053756F6E6F20202026
:1023B0005B73696E676F6C6F5D0053756F6E6F5BFB
:1023C00073696C656E7A696F736F5D0056656C6FCB
:1023D00063697461004769726100536F6E6F206EAC
:1023E000656365737361726920756E612074656DD4
:1023F000706572617475726120616D6269656E7479
:10240000652064692032312D323643206520756E97
:1024100061207375706572666963696520726967AA
:1024200069646120005374617469737469636865D9
:102430000041727265737461207374616D70610024
:1024400041525245535441544F2E00537570706F92
:1024500072746F005363616D626961746F005365DC
:102460006C657A696F6E6120696C2066696C616D5C
:10247000656E746F3A0043616C69622E2074656DFD
:10248000702E200043616C69622E2074656D702E81
:10249000205B6F6E5D0053656C657A696F6E6120BD
:1024A0006C612074656D7065726174757261206114
:1024B0007070726F707269617461207065722069EA
:1024C0006C2074756F206D6174657269616C652E26
:1024D0000043616C69622E2074656D702E5B6F66BF
:1024E000665D0043616C69622E2054656D702E003C
:1024F00043616C696272617A696F6E652074656DA3
:1025000070657261747572612066616C6C6974616A
:102510000043616C696272617A696F6E65207465EF
:102520006D706572617475726120636F6D706C653A
:10253000746174612065206174746976612E205025
:10254000756F206573736572652064697361747457
:1025500069766174612064616C206D656E752049D7
:102560006D706F7374617A696F6E69202D3E43617F
:102570006C2E2054656D702E000054656D70657270
:102580006174757265004520616E636F7261206EC3
:1025900065636573736172696F20656666657474DF
:1025A00075617265206C612063616C696272617A29
:1025B000696F6E65205A2E20536567756920696CB6
:1025C000206D616E75616C652C2063617069746F3C
:1025D0006C6F205072696D692050617373692C2093
:1025E00073657A696F6E652053657175656E7A6182
:1025F0002064692043616C696272617A696F6E65FB
:102600002E200046696C616D656E746F20746F7466
:10261000616C650054656D706F207374616D7061DD
:1026200020746F74616C65005265676F6C61005354
:1026300063617269636100546F74616C65206661E7
:102640006C6C696D656E746900706572206361728F
:10265000696361726520696C2066696C616D656E85
:10266000746F007065722073636172696361726573
:1026700020696C2066696C616D656E746F005363D0
:1026800061726963612066696C616D656E746F006B
:10269000536361726963616E646F2066696C616D1A
:1026A000656E746F00546F74616C6500557361746E
:1026B00069206E656C6C61207374616D7061005689
:1026C0006F6C74616767690073636F6E6F736369C2
:1026D00075746F00417474656E64656E646F207507
:1026E00074656E74652E2E2E00496E2061747465BB
:1026F00073612064656C20726166667265646461F2
:102700006D656E746F2064656C6C277567656C6CA5
:102710006F20652064656C207069616E6F00496E82
:10272000206174746573612064656C2072616666F3
:1027300072656464616D656E746F2064656C6C6154
:1027400020736F6E64612050494E4441005573619F
:102750007465206C6F20736361726963616D656E6F
:10276000746F207065722072696D756F7665726521
:1027700020696C2066696C616D656E746F20312014
:1027800073652070726F74727564652064616C206B
:10279000726574726F2064656C207475626F20704E
:1027A0006F73746572696F72652064656C204D4D3E
:1027B000752E205574696C697A7A617465206C276E
:1027C000657370756C73696F6E6520736520652025
:1027D0006E6173636F73746F206E656C20747562C5
:1027E0006F2E00417474656E7A696F6E653A20745D
:1027F00069706F206469207374616D70616E7465B7
:10280000206520646920736368656461206D61647C
:1028100072652063616D62696174692E004176762C
:1028200069736F3A207469706F20646920736368FC
:10283000656461206D616472652063616D626961C8
:10284000746F0041767669736F3A207469706F20F7
:102850006469207374616D70616E74652063616D6D
:10286000626961746F2E0046696C616D656E746F8C
:102870002073636172696361746F20636F6E20738C
:102880007563636573736F3F004572726F72652085
:102890006361626C616767696F000058595A204331
:1028A000616C2E206465747461676C690043616CAF
:1028B000696272617A696F6E652058595A20666143
:1028C0006C6C6974612E2053692070726567612099
:1028D000646920636F6E73756C7461726520696CD6
:1028E000206D616E75616C652E0053690045207026
:1028F0006F73736962696C652072697072656E646A
:1029000065726520696C2057697A61726420696E0E
:10291000207175616C7369617369206D6F6D656E8F
:10292000746F206174747261766572736F20436195
:102930006C696272617A696F6E65202D3E205769FD
:102940007A6172642E0043616C696272617A696FA8
:102950006E652058595A20636F7272657474612EC7
:10296000204C6120646973746F7273696F6E6520A7
:10297000766572726120636F6D70656E73617461EC
:10298000206175746F6D61746963616D656E7465E6
:102990002E0043616C696272617A696F6E205859CA
:1029A0005A20636F7272657474612E20417373696B
:1029B00020582F59206C65676765726D656E746568
:1029C0002073746F7274692E2042656E2066617484
:1029D000746F2100436F7272657A696F6E652D584E
:1029E0003A0043616C696272617A696F6E65205862
:1029F000595A204F4B2E20476C6920617373692010
:102A0000582F5920736F6E6F2070657270656E64F9
:102A100069636F6C6172692E20436F6D706C696DB4
:102A2000656E7469210043616C696272617A696FD5
:102A30006E652058595A20636F6D70726F6D6573A3
:102A400073612E2050756E746920616E74657269B1
:102A50006F7269206E6F6E207261676769756E674D
:102A60006962696C692E0043616C696272617A699E
:102A70006F6E652058595A20636F6D70726F6D6567
:102A80007373612E2050756E746F20616E74657261
:102A9000696F72652064657374726F206E6F6E204B
:102AA0007261676769756E676962696C652E00435C
:102AB0006172696361726520747574746900436141
:102AC0006C696272617A696F6E652058595A206626
:102AD000616C6C6974612E20496C2070756E746F26
:102AE0002064692063616C696272617A696F6E65E6
:102AF0002073756C206C6574746F206E6F6E20652A
:102B00002720737461746F2074726F7661746F2EF6
:102B10000043616C696272617A696F6E6520585911
:102B20005A2066616C6C6974612E2050756E7469F0
:102B300020616E746572696F7269206E6F6E2072AB
:102B400061676769756E676962696C692E004361C8
:102B50006C696272617A696F6E652058595A206695
:102B6000616C6C6974612E2050756E746F20616E9B
:102B7000746572696F72652064657374726F206E1C
:102B80006F6E207261676769756E676962696C65EF
:102B90002E0044697374616E7A6120592064616CFF
:102BA000206D696E0000436F7272657A696F6E65A1
:102BB0002D593A0000496E64696574726F00436F65
:102BC0006E74726F6C6C690046616C736F20696E15
:102BD0006E6573636F00004669726D776172655B45
:102BE0006E657373756E6F5D004669726D776172A5
:102BF00065205B65736174746F5D004669726D7703
:102C0000617265205B61767669736F5D00496E73F2
:102C100074616C6C617A696F6E652048570000437F
:102C20006F6D702E204D61676E6574695B4E2F412C
:102C30005D00436F6D702E204D61676E6574695B3A
:102C40006F66665D00436F6D702E204D61676E6527
:102C50007469205B6F6E5D00477269676C69612003
:102C600020202020205B3378335D00477269676C39
:102C700069612020202020205B3778375D004D657A
:102C80007368206C6976656C2E206C6574746F00B7
:102C90004669726D77617265204D4B3353207269BE
:102CA0006C657661746F207375207374616D7061EB
:102CB0006E7465204D4B33004D6F64616C697461B7
:102CC000204D4D55205B4E6F726D616C655D004D02
:102CD0006F64616C697461204D4D55205B53696C64
:102CE000656E7A696F73615D0043616D62696F2023
:102CF0006D6F64616C69746120696E20636F7273BB
:102D00006F202E2E2E004D6F64656C6C6F205B6EF5
:102D1000657373756E6F5D004D6F64656C6C6F20CD
:102D2000205B65736174746F5D004D6F64656C6CDE
:102D30006F20205B61767669736F5D004469616D19
:102D40002E5567656C6C6F5B302E32355D004469C3
:102D5000616D2E5567656C6C6F5B302E34305D0095
:102D60004469616D2E5567656C6C6F5B302E363033
:102D70005D005567656C6C6F20205B6E65737375C5
:102D80006E6F5D005567656C6C6F2020205B65730E
:102D90006174746F5D005567656C6C6F2020205BFB
:102DA00061767669736F5D00472D636F646520708F
:102DB000726F6365737361746F2070657220756ED6
:102DC000206C6976656C6C6F206469766572736FD0
:102DD0002E20436F6E74696E756172653F00472DDA
:102DE000636F64652070726F6365737361746F20C5
:102DF00070657220756E206C6976656C6C6F2064EE
:102E000069766572736F2E20506572206661766FE9
:102E1000726520657365677569206E756F76616D83
:102E2000656E7465206C6F20736C696365206465E2
:102E30006C206D6F64656C6C6F2E205374616D70C7
:102E40006120616E6E756C6C6174612E00472D633C
:102E50006F64652070726F6365737361746F207047
:102E6000657220756E61207374616D70616E74653A
:102E700020646976657273612E20436F6E74696E8B
:102E8000756172653F00472D636F64652070726FD6
:102E90006365737361746F2070657220756E612055
:102EA0007374616D70616E746520646976657273A8
:102EB000612E20506572206661766F7265206573A1
:102EC00065677569206E756F76616D656E746520D6
:102ED0006C6F20736C6963652064656C206D6F6432
:102EE000656C6C6F2E205374616D706120616E6E25
:102EF000756C6C6174612E00472D636F6465207082
:102F0000726F6365737361746F2070657220756E84
:102F1000206669726D7761726520706975207265CF
:102F200063656E74652E20436F6E74696E75617291
:102F3000653F00472D636F64652070726F63657332
:102F40007361746F2070657220756E206669726D92
:102F5000776172652070697520726563656E74654E
:102F60002E20506572206661766F726520616767FA
:102F7000696F726E6120696C206669726D7761722B
:102F8000652E205374616D706120616E6E756C6C7E
:102F90006174612E000050726572697363616C64C4
:102FA000616D656E746F20706572207461676C6905
:102FB0006F0050726572697363616C64616D656EF8
:102FC000746F2070657220657370756C73696F6EB5
:102FD00065004469616D6574726F207567656C6C1E
:102FE0006F206469766572736F20646120472D439A
:102FF0006F64652E20436F6E74696E756172653FF4
:10300000004469616D6574726F207567656C6C6FE3
:10301000206469766572736F2064616C20472D436C
:103020006F64652E20436F6E74726F6C6C612069E3
:103030006C2076616C6F7265206E656C6C652069C2
:103040006D706F7374617A696F6E692E205374614D
:103050006D706120616E6E756C6C6174612E0052D2
:10306000696E6F6D696E610053656C657A696F6E2C
:103070006100496E666F2053656E736F7265005014
:1030800069616E6F0053756F6E6F2020205B6173F6
:10309000736973742E5D005069616E6920642761E5
:1030A00063636961696F00436F7272657A696F6EFD
:1030B000652D5A3A005A2D70726F6265206E722E1D
:1030C000202020205B315D005A2D70726F626520D8
:1030D0006E722E202020205B335D005A2D70726F9F
:1030E0006265206E722E202020205B355D006E20F0
:1030F0005369652064656E205765727420696E207F
:1031000064656E2045696E7374656C6C756E676579
:103110006E2E20447275636B206162676562726F08
:103120006368656E2E00556D62656E656E6E656EC8
:10313000004175737761686C0053656E736F722020
:10314000496E666F00426C65636800536F756E640C
:10315000202020205B4173736973745D0053746198
:10316000686C626C65636865005A2D4B6F7272659E
:103170006B7475723A005A2D50726F6265204E72F0
:103180002E202020205B315D005A2D50726F626529
:10319000204E722E202020205B335D005A2D50726D
:1031A0006F6265204E722E202020205B355D00006E
:1031B000000000000000000000000000000000000F
:1031C00000000000000000000000000000000000FF
:1031D00000000000000000000000000000000000EF
:1031E00000000000000000000000000000000000DF
:1034E0000000000000000000000000006501472D02
:1034F000636F646520736C6963656420666F722016
:103500006120646966666572656E74206C657665B7
:103510006C2E20436F6E74696E75653F00660147BF
:103520002D636F646520736C6963656420666F72D8
:10353000206120646966666572656E74206C6576CC
:10354000656C2E20506C656173652072652D736CFF
:1035500069636520746865206D6F64656C206167C0
:1035600061696E2E205072696E742063616E6365AE
:103570006C6C65642E006A01472D636F646520736F
:103580006C6963656420666F722061206E65776583
:1035900072206669726D776172652E20506C65616C
:1035A0007365207570646174652074686520666950
:1035B000726D776172652E205072696E742063613E
:1035C0006E63656C6C65642E006901472D636F64E2
:1035D0006520736C6963656420666F722061206E7C
:1035E00065776572206669726D776172652E20431A
:1035F0006F6E74696E75653F006801472D636F6477
:103600006520736C6963656420666F722061206455
:103610006966666572656E74207072696E74657233
:1036200020747970652E20506C6561736520726519
:103630002D736C69636520746865206D6F64656CBB
:1036400020616761696E2E205072696E742063611B
:103650006E63656C6C65642E006701472D636F6453
:103660006520736C6963656420666F7220612064F5
:103670006966666572656E74207072696E746572D3
:1036800020747970652E20436F6E74696E75653F86
:10369000006701472D636F646520736C696365641F
:1036A00020666F72206120646966666572656E745B
:1036B000207072696E74657220747970652E204373
:1036C0006F6E74696E75653F006801472D636F64A6
:1036D0006520736C6963656420666F722061206485
:1036E0006966666572656E74207072696E74657263
:1036F00020747970652E20506C6561736520726549
:103700002D736C69636520746865206D6F64656CEA
:1037100020616761696E2E205072696E742063614A
:103720006E63656C6C65642E00C4005072657373C3
:10373000206B6E6F6220746F2070726568656174B3
:10374000206E6F7A7A6C6520616E6420636F6E7490
:10375000696E75652E00B800506C656173652070E8
:103760007265737320746865206B6E6F6220746F6E
:1037700020756E6C6F61642066696C616D656E7436
:1037800000E70052656D6F7665206F6C6420666996
:103790006C616D656E7420616E6420707265737308
:1037A00020746865206B6E6F6220746F2073746183
:1037B0007274206C6F6164696E67206E6577206635
:1037C000696C616D656E742E000B00616E64207013
:1037D0007265737320746865206B6E6F620077008A
:1037E000496E736572742066696C616D656E7400F4
:1037F0002900436F6C6F72206E6F7420636F72725A
:1038000065637400520046696C616D656E74206E6C
:103810006F74206C6F616465640069004368616E59
:1038200067656420636F72726563746C793F0083AF
:10383000004C6F6164696E6720636F6C6F72006823
:10384000004368616E6765207375636365737321F8
:1038500000B600506C65617365206F70656E2069FD
:10386000646C657220616E642072656D6F76652090
:1038700066696C616D656E74206D616E75616C6CEE
:10388000792E0034015761732066696C616D656E35
:103890007420756E6C6F61642073756363657373F8
:1038A00066756C3F00C300506C6561736520757070
:1038B00067726164652E00A4004E657720666972A8
:1038C0006D776172652076657273696F6E206176BF
:1038D00061696C61626C653A002F015761697469B6
:1038E0006E6720666F722050494E44412070726F9F
:1038F000626520636F6F6C696E6700710043686F6B
:103900006F73652065787472756465723A00430060
:10391000457874727564657200720043686F6F73E6
:10392000652066696C616D656E743A009F004E6F2C
:10393000206D6F76652E002D015761697420666FCA
:103940007220757365722E2E2E000A01536F6D65FD
:103950002070726F626C656D20656E636F756E743A
:10396000657265642C205A2D6C6576656C696E678E
:1039700020656E666F72636564202E2E2E000F0127
:10398000537461626C6520616D6269656E74207448
:10399000656D70657261747572652032312D3236D5
:1039A00043206973206E65656465642061207269D7
:1039B000676964207374616E642069732072657135
:1039C00075697265642E00BC00506C65617365207A
:1039D00072756E2058595A2063616C696272617405
:1039E000696F6E2066697273742E001F01546865DA
:1039F0007265206973207374696C6C2061206E6538
:103A0000656420746F206D616B65205A2063616C62
:103A10006962726174696F6E2E20506C65617365A6
:103A200020666F6C6C6F7720746865206D616E75B1
:103A3000616C2C20636861707465722046697273D2
:103A4000742073746570732C2073656374696F6E72
:103A50002043616C6962726174696F6E20666C6F7D
:103A6000772E00CE005072696E74657220686173A3
:103A7000206E6F74206265656E2063616C6962728E
:103A800061746564207965742E20506C656173657E
:103A900020666F6C6C6F7720746865206D616E7541
:103AA000616C2C2063686170746572204669727362
:103AB000742073746570732C2073656374696F6E02
:103AC0002043616C6962726174696F6E20666C6F0D
:103AD000772E00A9004F6C642073657474696E675B
:103AE0007320666F756E642E2044656661756C7414
:103AF000205049442C2045737465707320657463AD
:103B00002E2077696C6C206265207365742E0031FD
:103B1000015761726E696E673A20626F7468207037
:103B200072696E746572207479706520616E6420AC
:103B30006D6F74686572626F61726420747970650C
:103B4000206368616E6765642E0033015761726E91
:103B5000696E673A207072696E746572207479704C
:103B600065206368616E6765642E0032015761727B
:103B70006E696E673A206D6F74686572626F61720C
:103B8000642074797065206368616E6765642E00D7
:103B90003B0158595A2063616C6962726174696FA4
:103BA0006E20616C6C2072696768742E20536B659F
:103BB000772077696C6C20626520636F7272656331
:103BC000746564206175746F6D61746963616C6C98
:103BD000792E003C0158595A2063616C6962726108
:103BE00074696F6E20616C6C2072696768742E2036
:103BF000582F5920617865732061726520736C6954
:103C00006768746C7920736B657765642E20476FE5
:103C10006F64206A6F6221003E0158595A20636127
:103C20006C6962726174696F6E206F6B2E20582F01
:103C300059206178657320617265207065727065C6
:103C40006E646963756C61722E20436F6E6772617A
:103C500074756C6174696F6E732100400158595A14
:103C60002063616C6962726174696F6E20636F6D4D
:103C700070726F6D697365642E2052696768742075
:103C800066726F6E742063616C6962726174696FD1
:103C90006E20706F696E74206E6F74207265616340
:103CA0006861626C652E003F0158595A2063616C4F
:103CB0006962726174696F6E20636F6D70726F6D8F
:103CC000697365642E2046726F6E742063616C693F
:103CD00062726174696F6E20706F696E7473206EAA
:103CE0006F7420726561636861626C652E004401C7
:103CF00058595A2063616C6962726174696F6E20F1
:103D00006661696C65642E2052696768742066720A
:103D10006F6E742063616C6962726174696F6E208A
:103D2000706F696E74206E6F742072656163686174
:103D3000626C652E00430158595A2063616C6962B8
:103D4000726174696F6E206661696C65642E2046CD
:103D5000726F6E742063616C6962726174696F6EF8
:103D600020706F696E7473206E6F7420726561636A
:103D70006861626C652E00380158595A2063616C85
:103D80006962726174696F6E206661696C65642E28
:103D900020506C6561736520636F6E73756C742061
:103DA000746865206D616E75616C2E004201585912
:103DB0005A2063616C6962726174696F6E2066611A
:103DC000696C65642E204265642063616C6962726F
:103DD0006174696F6E20706F696E742077617320F3
:103DE0006E6F7420666F756E642E00B700506C6540
:103DF00061736520706C61636520737465656C2008
:103E00007368656574206F6E2068656174626564AF
:103E10002E00360044697374616E636520626574B8
:103E20007765656E20746970206F66207468652000
:103E30006E6F7A7A6C6520616E64207468652062AA
:103E40006564207375726661636520686173206EB6
:103E50006F74206265656E20736574207965742EB9
:103E600020506C6561736520666F6C6C6F77207491
:103E70006865206D616E75616C2C2063686170747B
:103E800065722046697273742073746570732C2098
:103E900073656374696F6E204669727374206C6118
:103EA0007965722063616C6962726174696F6E2EEC
:103EB00000B100506C6163652061207368656574B2
:103EC000206F6620706170657220756E6465722067
:103ED000746865206E6F7A7A6C6520647572696E9D
:103EE00067207468652063616C6962726174696FD0
:103EF0006E206F66206669727374203420706F695B
:103F00006E74732E20496620746865206E6F7A7A0D
:103F10006C652063617463686573207468652070E4
:103F2000617065722C20706F776572206F666620F5
:103F3000746865207072696E74657220696D6D6554
:103F400064696174656C792E00BB00506C656173A7
:103F5000652072656D6F766520737465656C20737E
:103F6000686565742066726F6D206865617462654E
:103F7000642E007900497320737465656C20736842
:103F8000656574206F6E20686561746265643F00CA
:103F90000100206F66203400F4005365617263688D
:103FA000696E67206265642063616C696272617426
:103FB000696F6E20706F696E74000200206F66205A
:103FC000390089004D6561737572696E672072658D
:103FD000666572656E636520686569676874206FE1
:103FE000662063616C6962726174696F6E20706FC4
:103FF000696E7400B300506C6561736520636C6515
:10400000616E20746865206E6F7A7A6C6520666FC9
:10401000722063616C6962726174696F6E2E2043F5
:104020006C69636B207768656E20646F6E652E0027
:1040300010004175746F20686F6D6500BA00506C98
:10404000656173652072656D6F76652066696C6168
:104050006D656E7420616E64207468656E20707288
:1040600065737320746865206B6E6F622E003A0072
:10407000456A656374696E672066696C616D656E1B
:1040800074008F004D4D55206C6F6164206661692E
:104090006C6564202020202000120153544F5050A2
:1040A00045442E2000B00050494E444120486561EF
:1040B00074696E6700160154656D702E2063616C23
:1040C0002E202020202020202020200025004361B9
:1040D0006C6962726174696F6E20646F6E65002333
:1040E0000043616C6962726174696E67205A0017DF
:1040F0000042656420646F6E6500180042656420AC
:1041000048656174696E6700620048656174696E34
:104110006720646F6E652E00630048656174696E88
:10412000670000005B252E37735D4C697665206162
:10413000646A2E205A0A76616C7565207365742C4A
:1041400020636F6E74696E75650A6F722073746197
:1041500072742066726F6D207A65726F3F0A2563F4
:10416000436F6E74696E756525635265736574007F
:10417000E300506C65617365206C6F616420666953
:104180006C616D656E742066697273742E007800C0
:1041900049732066696C616D656E74206C6F616433
:1041A00065643F00150153656C6563742066696C36
:1041B000616D656E743A00730046696C616D656E81
:1041C0007400270043616E63656C00F00052756EE9
:1041D0006E696E672057697A6172642077696C6CCA
:1041E0002064656C6574652063757272656E7420F9
:1041F00063616C6962726174696F6E207265737558
:104200006C747320616E64207374617274206672C2
:104210006F6D2074686520626567696E6E696E6790
:104220002E20436F6E74696E75653F00C200507238
:104230006568656174696E67206E6F7A7A6C652E49
:1042400020506C6561736520776169742E0084006D
:104250004C6F6164696E672066696C616D656E7430
:1042600000E100506C6561736520696E736572745E
:104270002066696C616D656E7420696E746F207460
:1042800068652065787472756465722C2074686541
:104290006E20707265737320746865206B6E6F6238
:1042A00020746F206C6F61642069742E00E20050EE
:1042B0006C6561736520696E736572742066696CE4
:1042C000616D656E7420696E746F20746865206618
:1042D000697273742074756265206F6620746865F6
:1042E000204D4D552C207468656E20707265737377
:1042F00020746865206B6E6F6220746F206C6F6134
:10430000642069742E004601546865207072696EDD
:104310007465722077696C6C20737461727420709C
:1043200072696E74696E672061207A69672D7A619F
:1043300067206C696E652E20526F746174652074FD
:104340006865206B6E6F6220756E74696C20796F82
:104350007520726561636820746865206F70746988
:104360006D616C206865696768742E2043686563B9
:104370006B20746865207069637475726573206959
:104380006E207468652068616E64626F6F6B2028B0
:1043900043616C6962726174696F6E2063686170F9
:1043A000746572292E00180153656C65637420745E
:1043B000656D706572617475726520776869636890
:1043C000206D61746368657320796F7572206D610B
:1043D00074657269616C2E002D0043686F6F7365A0
:1043E00020612066696C616D656E7420666F722055
:1043F000746865204669727374204C617965722017
:1044000043616C6962726174696F6E20616E6420D1
:1044100073656C65637420697420696E20746865C7
:10442000206F6E2D73637265656E206D656E752EDF
:1044300000A6004E6F7720492077696C6C2063617D
:104440006C6962726174652064697374616E63651E
:10445000206265747765656E20746970206F6620D0
:10446000746865206E6F7A7A6C6520616E6420686E
:1044700065617462656420737572666163652E00A0
:104480003A01596F752063616E20616C77617973B1
:1044900020726573756D65207468652057697A614F
:1044A00072642066726F6D2043616C696272617420
:1044B000696F6E202D3E2057697A6172642E00B5B7
:1044C00000506C6561736520636865636B206F7570
:1044D000722068616E64626F6F6B20616E6420662B
:1044E0006978207468652070726F626C656D2E202B
:1044F0005468656E20726573756D652074686520FB
:1045000057697A617264206279207265626F6F7494
:10451000696E6720746865207072696E7465722EAA
:10452000000900416C6C20697320646F6E652E2059
:104530004861707079207072696E74696E672100CD
:104540007B00496620796F7520686176652061641B
:10455000646974696F6E616C20737465656C207337
:1045600068656574732C2063616C6962726174653F
:104570002074686569722070726573657473206950
:104580006E2053657474696E6773202D2048572020
:104590005365747570202D20537465656C207368A5
:1045A000656574732E00B200506C6561736520639D
:1045B0006C65616E206865617462656420616E641B
:1045C000207468656E20707265737320746865204E
:1045D0006B6E6F622E003700446F20796F75207705
:1045E000616E7420746F20726570656174206C61F7
:1045F0007374207374657020746F20726561646ACF
:104600007573742064697374616E63652062657488
:104610007765656E206E6F7A7A6C6520616E6420B6
:10462000686561746265643F00FC0053656C656396
:1046300074206E6F7A7A6C6520707265686561743B
:104640002074656D70657261747572652077686934
:104650006368206D61746368657320796F7572207B
:104660006D6174657269616C2E0078004973206613
:10467000696C616D656E74206C6F616465643F0088
:10468000780049732066696C616D656E74206C6F8B
:10469000616465643F00A7004E6F77204920776909
:1046A0006C6C2070726568656174206E6F7A7A6CCC
:1046B0006520666F7220504C412E007500492077AE
:1046C000696C6C2072756E207A2063616C6962720D
:1046D0006174696F6E206E6F772E00AA004E6F773F
:1046E0002072656D6F7665207468652074657374DB
:1046F000207072696E742066726F6D2073746565C8
:104700006C2073686565742E00BF00506C65617322
:10471000652072656D6F7665207368697070696E6B
:10472000672068656C706572732066697273742E99
:10473000007400492077696C6C2072756E2078795E
:104740007A2063616C6962726174696F6E206E6F4A
:10475000772E2049742077696C6C2074616B65201A
:10476000617070726F782E203132206D696E732EF9
:1047700000590046697273742C20492077696C6C6B
:104780002072756E207468652073656C667465733D
:104790007420746F20636865636B206D6F73742081
:1047A000636F6D6D6F6E20617373656D626C7920E0
:1047B00070726F626C656D732E00650048692C2005
:1047C0004920616D20796F7572205A617269626F3C
:1047D000207072696E7465722E20576F756C64203C
:1047E000796F75206C696B65206D6520746F20672B
:1047F0007569646520796F75207468726F75676874
:10480000207468652073657475702070726F6365BD
:1048100073733F000E0053706F6F6C4A6F696E20A8
:1048200020205B4E2F415D000F0053706F6F6C4A6C
:104830006F696E2020205B6F66665D000D0053700F
:104840006F6F6C4A6F696E202020205B6F6E5D0079
:104850004D014669726D776172652020205B6E6F35
:104860006E655D004E014669726D77617265205B11
:104870007374726963745D004F014669726D77618C
:1048800072652020205B7761726E5D004D01466984
:10489000726D776172652020205B6E6F6E655D00C2
:1048A0005C014D6F64656C2020202020205B6E6FC2
:1048B0006E655D005D014D6F64656C202020205B9E
:1048C0007374726963745D005E014D6F64656C2082
:1048D00020202020205B7761726E5D005C014D6FAF
:1048E00064656C2020202020205B6E6F6E655D006B
:1048F00062014E6F7A7A6C6520202020205B6E6FFB
:104900006E655D0063014E6F7A7A6C652020205BD6
:104910007374726963745D0064014E6F7A7A6C65BA
:1049200020202020205B7761726E5D0062014E6F57
:104930007A7A6C6520202020205B6E6F6E655D00AA
:104940005001485720536574757000500148572036
:104950005365747570004A01436865636B7300604A
:10496000014E6F7A7A6C6520642E20205B302E34E5
:10497000305D0061014E6F7A7A6C6520642E2020D4
:104980005B302E36305D0060014E6F7A7A6C6520A8
:10499000642E20205B302E34305D005F014E6F7A34
:1049A0007A6C6520642E20205B302E32355D0075D8
:1049B00001537465656C2073686565747300070145
:1049C000536F756E642020202020205B6C6F75640F
:1049D0005D007401536F756E64202020205B61734D
:1049E000736973745D000C01536F756E6420202031
:1049F000205B73696C656E745D000B01536F756E9F
:104A0000642020202020205B6F6E63655D0007011D
:104A1000536F756E642020202020205B6C6F7564BE
:104A20005D000201536F7274202020202020205B43
:104A30006E6F6E655D000501536F72742020205B00
:104A4000616C7068616265745D000301536F72741C
:104A5000202020202020205B74696D655D00F1001E
:104A60005344206361726420205B6E6F726D616CD1
:104A70005D00F20053442063617264205B666C73D6
:104A8000684169725D00F50053656C656374206C64
:104A9000616E677561676500170154656D702E2042
:104AA00063616C2E2020205B6F6E5D0019015465E0
:104AB0006D702E2063616C2E20205B6F66665D003A
:104AC00057014D65736820626564206C6576656C7E
:104AD000696E670050014857205365747570004C2B
:104AE0000046616E7320636865636B20205B6F66B0
:104AF000665D004B0046616E7320636865636B20E2
:104B000020205B6F6E5D004700462E206175746F3C
:104B10006C6F6164205B6F66665D004500462E2009
:104B20006175746F6C6F616420205B6F6E5D004611
:104B300000462E206175746F6C6F6164205B4E2F90
:104B4000415D00350044697361626C652073746572
:104B50007070657273009B004D6F76652061786997
:104B600073001D0154656D70657261747572650026
:104B700003005B303B305D20706F696E74206F66A0
:104B80006673657400070041646A757374696E67C3
:104B9000205A3A00EA00526573657400E5005265D8
:104BA00061722073696465205B756D5D005E00460F
:104BB000726F6E7420736964655B756D5D00ED00E6
:104BC000526967687420736964655B756D5D007F09
:104BD000004C6566742073696465205B756D5D00CB
:104BE000FD005365742074656D7065726174757233
:104BF000653A000C00417265206C65667420616E38
:104C000064207269676874205A7E63617272696198
:104C100067657320616C6C2075703F0022004361F2
:104C20006C6962726174696E672058595A2E2052FD
:104C30006F7461746520746865206B6E6F62207498
:104C40006F206D6F766520746865205A20636172ED
:104C5000726961676520757020746F2074686520C3
:104C6000656E642073746F70706572732E20436C70
:104C700069636B207768656E20646F6E652E002413
:104C80000043616C6962726174696E67205A2E20FC
:104C9000526F7461746520746865206B6E6F62205A
:104CA000746F206D6F766520746865205A2063618B
:104CB00072726961676520757020746F2074686511
:104CC00020656E642073746F70706572732E20435C
:104CD0006C69636B207768656E20646F6E652E006B
:104CE0001B0154656D706572617475726520636136
:104CF0006C6962726174696F6E206661696C65646B
:104D0000001C0154656D7065726174757265206375
:104D1000616C6962726174696F6E20697320666983
:104D20006E697368656420616E642061637469767E
:104D3000652E2054656D702E2063616C696272610E
:104D400074696F6E2063616E2062652064697361AF
:104D5000626C656420696E206D656E7520536574A4
:104D600074696E67732D3E54656D702E2063616C9F
:104D70002E00A1004E2F4100FFFF20203000FFFF3A
:104D800020203100510149523A004C0146494E441D
:104D9000413A006B0150494E44413A0000015365CD
:104DA0006E736F7220737461746500FFFF50494E1B
:104DB0004441001E0154656D7065726174757265C1
:104DC0007300720153656E736F7220696E666F00B7
:104DD0004200457874727564657220696E666F0072
:104DE000370158595A2063616C2E206465746169DB
:104DF0006C73002C01756E6B6E6F776E0099004DB1
:104E00004D553220636F6E6E6563746564003400C7
:104E1000446174653A006600686F77746F2E707233
:104E200075736133642E636F6D005C00666F72751D
:104E30006D2E707275736133642E636F6D00FFFFAA
:104E40005A617269626F2E636F6D002601746F2064
:104E5000756E6C6F61642066696C616D656E74005F
:104E60002501746F206C6F61642066696C616D65EB
:104E70006E7400CB00507265737320746865206B8C
:104E80006E6F620006003E43616E63656C006C01EC
:104E900050726568656174696E6720746F20637510
:104EA00074006D0150726568656174696E67207485
:104EB0006F20656A65637400C8005072656865613B
:104EC00074696E6720746F20756E6C6F616400C7C3
:104ED0000050726568656174696E6720746F206C3C
:104EE0006F6164002A00436F6F6C646F776E00C05F
:104EF000005072656865617420746865206E6F7A11
:104F00007A6C65210040004552524F523A005100E0
:104F100046696C616D656E7420657874727564693C
:104F20006E672026207769746820636F72726563EC
:104F30007420636F6C6F723F0013004175746F6C67
:104F40006F6164696E672066696C616D656E74205F
:104F50006973206163746976652C206A75737420A7
:104F6000707265737320746865206B6E6F62206168
:104F70006E6420696E736572742066696C616D651C
:104F80006E742E2E2E002001546F74616C206669A1
:104F90006C616D656E74002101546F74616C2070DA
:104FA00072696E742074696D6500540046696C61A5
:104FB0006D656E7420757365640055005072696E7E
:104FC000742074696D6500450159206469737461CA
:104FD0006E63652066726F6D206D696E007E004C99
:104FE00065667400F3005269676874008D004D6552
:104FF00061737572656420736B6577000801536C8B
:105000006967687420736B65773A000401536576AD
:1050100065726520736B65773A004300457874725A
:1050200075646572009E004D6F7665205A009D0084
:105030004D6F76652059009C004D6F7665205800B5
:1050400012004175746F6C6F6164696E67206669E8
:105050006C616D656E7420617661696C61626C650E
:10506000206F6E6C79207768656E2066696C616D63
:10507000656E742073656E736F722069732074752A
:10508000726E6564206F6E2E2E2E003F00455252C8
:105090004F523A2046696C616D656E742073656E7F
:1050A000736F72206973206E6F7420726573706FF6
:1050B0006E64696E672C20706C656173652063682F
:1050C00065636B20636F6E6E656374696F6E2E002F
:1050D0002B00436F70792073656C65637465642081
:1050E0006C616E67756167653F00210043616C69A3
:1050F0006272617465001A00426564206C657665B1
:105100006C696E67206661696C65642E2053656EFC
:10511000736F72206469646E742074726967676566
:10512000722E20446562726973206F6E206E6F7AF2
:105130007A6C653F2057616974696E6720666F728B
:105140002072657365742E00BD00506C65617365D7
:1051500020757064617465206669726D776172652F
:1051600020696E20796F7572204D4D55322E205773
:10517000616974696E6720666F7220726573657409
:105180002E0091004D4D55204F4B2E2052657375CA
:105190006D696E672E2E2E008B004D4D55204F4BA6
:1051A0002E20526573756D696E6720706F73697418
:1051B000696F6E2E2E2E008C004D4D55204F4B2EBC
:1051C00020526573756D696E672074656D706572C8
:1051D00061747572652E2E2E005A0046697820740F
:1051E000686520697373756520616E6420746865F5
:1051F0006E20707265737320627574746F6E206FA9
:105200006E204D4D5520756E69742E00CD00507284
:1052100065737320746865206B6E6F6220746F20F5
:10522000726573756D65206E6F7A7A6C6520746532
:105230006D70657261747572652E0094004D4D55E8
:10524000206E656564732075736572206174746582
:105250006E74696F6E2E00FFFF5A617269626F2073
:105260004D4B3235532D323230000601536F72747C
:10527000696E672066696C6573000101536F6D6527
:105280002066696C65732077696C6C206E6F742082
:10529000626520736F727465642E204D61782E20D4
:1052A0004E6F2E206F662066696C657320696E20D4
:1052B0003120666F6C64657220666F7220736F7246
:1052C00074696E67206973203130302E004B0146BF
:1052D000616C73652074726967676572696E6700D7
:1052E000140153776170706564005F0046726F6EE1
:1052F000742F6C6566742066616E730015004178CA
:10530000697300140041786973206C656E67746876
:105310000085004C6F6F73652070756C6C6579004B
:105320003B00456E6473746F70206E6F7420686903
:1053300074003C00456E6473746F70009A004D6F8A
:10534000746F72003D00456E6473746F7073003546
:1053500001576972696E67206572726F720016007C
:10536000426564202F2048656174657200A3004E79
:105370006F7420636F6E6E656374656400600048CF
:1053800065617465722F546865726D6973746F72AC
:1053900000B400506C6561736520636865636B20C1
:1053A0003A00F90053656C66746573742065727217
:1053B0006F72202100530046696C616D656E742028
:1053C00073656E736F7200C9005072696E742066E7
:1053D000616E3A00410045787472756465722066AA
:1053E000616E3A001E0043616C6962726174696E9D
:1053F0006720686F6D6500FA0053656C66746573AD
:1054000074206661696C65642020000800416C6C42
:1054100020636F7272656374202020202020006D4D
:1054200000436865636B696E672073656E736F72A6
:105430007320006C00436865636B696E6720686F5A
:1054400074656E642020006A00436865636B696E52
:10545000672062656420202020200070004368657A
:10546000636B696E67205A20617869732020006F32
:1054700000436865636B696E6720592061786973C2
:105480002020006E00436865636B696E67205820BA
:10549000617869732020006B00436865636B696EF7
:1054A0006720656E6473746F7073003E004572729E
:1054B0006F72202D20737461746963206D656D6F48
:1054C000727920686173206265656E206F766572FF
:1054D0007772697474656E0028004361726420728B
:1054E000656D6F76656400EA0052657365740070DF
:1054F0000152656E616D65005800466972737420D3
:105500006C617965722063616C2E00710153656C6A
:10551000656374007501537465656C207368656517
:1055200074730073015368656574001301537570DB
:10553000706F72740044004661696C20737461740A
:1055400073204D4D550048004661696C20737461AD
:105550007473001001537461746973746963732008
:105560002000260043616C6962726174696F6E008D
:1055700011004175746F4C6F61642066696C616DD8
:10558000656E74003900456A6563742066696C61F4
:105590006D656E74002701556E6C6F6164206669DD
:1055A0006C616D656E740086004C6F616420746F71
:1055B000206E6F7A7A6C650082004C6F61642066A1
:1055C000696C616D656E7400A0004E6F20534420BD
:1055D0006361726400EB00526573756D65207072D3
:1055E000696E7400AC005061757365207072696EED
:1055F0007400EB00526573756D65207072696E748E
:1056000000C1005072656865617400220154756EB6
:10561000650081004C6976652061646A7573742049
:105620005A007600496E666F2073637265656E007E
:10563000570046696E697368696E67206D6F76659D
:105640006D656E7473000701536F756E64202020C2
:105650002020205B6C6F75645D007401536F756E64
:1056600064202020205B6173736973745D000C01FA
:10567000536F756E64202020205B73696C656E74B7
:105680005D000B01536F756E642020202020205B8D
:105690006F6E63655D000701536F756E6420202097
:1056A0002020205B6C6F75645D0097004D6F646512
:1056B000205B6175746F20706F7765725D00930079
:1056C0004D6F646520202020205B73696C656E74CB
:1056D0005D0098004D6F6465205B686967682070A5
:1056E0006F7765725D004C0046616E73206368657C
:1056F000636B20205B6F66665D004B0046616E73D6
:1057000020636865636B2020205B6F6E5D004D0039
:1057100046696C2E2073656E736F7220205B6F6E0E
:105720005D004F0046696C2E2073656E736F7220AA
:105730005B6F66665D0067004368616E6765206643
:10574000696C616D656E74005B00466C6F77000D6F
:105750000153706565640052014D61676E65747335
:1057600020636F6D702E5B4E2F415D0053014D61C4
:10577000676E65747320636F6D702E5B4F66665D38
:105780000054014D61676E65747320636F6D702EF8
:10579000205B4F6E5D0078015A2D70726F6265203C
:1057A0006E722E202020205B335D0079015A2D700F
:1057B000726F6265206E722E202020205B355D00A6
:1057C00077015A2D70726F6265206E722E20202034
:1057D000205B315D0056014D65736820202020203C
:1057E000202020205B3778375D0055014D657368B8
:1057F0002020202020202020205B3378335D0049AA
:105800000046616E207370656564001B004265642C
:1058100000A8004E6F7A7A6C6500FE0053657474C0
:10582000696E677300C6005072696E742061626FA2
:1058300072746564006F015072696E746572206ED7
:105840006F7A7A6C65206469616D65746572206435
:105850006966666572732066726F6D207468652074
:10586000472D636F64652E20506C656173652063FE
:105870006865636B207468652076616C7565206966
:105880006E2073657474696E67732E205072696E32
:10589000742063616E63656C6C65642E006E0150EC
:1058A00072696E746572206E6F7A7A6C65206469B5
:1058B000616D6574657220646966666572732066E1
:1058C000726F6D2074686520472D636F64652E20AC
:1058D000436F6E74696E75653F00110153746F708C
:1058E000207072696E7400560046696C6520696E9E
:1058F000636F6D706C6574652E20436F6E74696E96
:10590000756520616E797761793F00CA00507269D0
:105910006E742066726F6D205344004901426163CA
:105920006B0088004D61696E001A0154656D702E20
:105930002063616C6962726174696F6E00E9005284
:10594000657365742058595A2063616C6962722EC0
:1059500000FF0053686F7720656E642073746F706A
:105960007300AF005049442063616C6962726174D6
:10597000696F6E001900426564206C6576656C2065
:10598000636F7272656374008A004D6573682042AC
:105990006564204C6576656C696E67002000436124
:1059A0006C696272617465205A001F0043616C6902
:1059B00062726174652058595A00F80053656C662C
:1059C00074657374202020202020202020003601C0
:1059D00057697A6172640041014C6F616420616CA7
:1059E0006C003900456A6563742066696C616D6599
:1059F0006E7400B900506C656173652070756C6CD5
:105A0000206F75742066696C616D656E7420696DB8
:105A10006D6564696174656C79002801556E6C6F01
:105A20006164696E672066696C616D656E7400EC17
:105A300000526573756D696E67207072696E7400CF
:105A400087004D313137204669727374206C61795B
:105A500065722063616C2E00330043757272656E4F
:105A600074002A015573656420647572696E67203D
:105A70007072696E7400AE005049442063616C2EF0
:105A80002066696E697368656400AD005049442002
:105A900063616C2E20202020202020202020200048
:105AA000BE00506C65617365207761697400CC003D
:105AB0005072696E742070617573656400390159A4
:105AC000657300A2004E6F00610048656174696EE5
:105AD000672064697361626C656420627920736118
:105AE000666574792074696D65722E002E015761A8
:105AF0006974696E6720666F72206E6F7A7A6C6562
:105B000020616E642062656420636F6F6C696E67EC
:105B100000F60053656C662074657374204F4B006B
:105B2000F70053656C66207465737420737461723A
:105B300074202000A5004E6F74207370696E6E692A
:105B40006E67000E015370696E6E696E67007D00AE
:105B50004C65667420686F74656E642066616E3F84
:105B6000005D0046726F6E74207072696E742066FC
:105B7000616E3F004A0046616E207465737400CF09
:105B8000005072696E742046414E00AB004E6F7A31
:105B90007A6C652046414E002901546F74616C0097
:105BA0007C004C617374207072696E74007A004CD2
:105BB000617374207072696E74206661696C7572AD
:105BC0006573008E004D4D55206661696C730090C1
:105BD000004D4D55206C6F6164206661696C7300E7
:105BE0002401546F74616C206661696C7572657311
:105BF000008E004D4D55206661696C730090004D1C
:105C00004D55206C6F6164206661696C730095006E
:105C10004D4D5520706F776572206661696C730019
:105C20007A004C617374207072696E7420666169C9
:105C30006C7572657300500046696C616D2E207240
:105C4000756E6F757473002401546F74616C2066F7
:105C500061696C7572657300500046696C616D2EE8
:105C60002072756E6F757473002564206279746597
:105C700073207772697474656E20746F2045455087
:105C8000524F4D20617420616464726573732030DB
:105C90007825303478004433202D20526561642FFC
:105CA000577269746520454550524F4D0A00204394
:105CB0006F756E7420583A20005344207072696EDC
:105CC00074696E67206279746520004E6F74206974
:105CD0006E206661726D206D6F64652E0041637485
:105CE0006976652045787472756465723A2000495A
:105CF0006E76616C69642065787472756465720093
:105D00005A204F666673657400556E6B6E6F776EC2
:105D100020636F6D6D616E643A2022004D32303029
:105D200020496E76616C696420657874727564656B
:105D30007220007A5F6D61783A20007A5F6D696E3B
:105D40003A2000795F6D696E3A20006F70656E00D1
:105D500054524947474552454400785F6D696E3A51
:105D600020005265706F7274696E6720656E64738F
:105D7000746F7020737461747573000053494C45DF
:105D80004E54004E4F524D414C002553204D4F4430
:105D9000453A2050657263656E7420646F6E653A93
:105DA0002025643B207072696E742074696D6520D3
:105DB00072656D61696E696E6720696E206D696ECE
:105DC000733A2025640A00456E642066696C65207C
